{
	"contracts/MultisigWallet.sol": {
		"MultisigWallet": {
			"abi": [
				{
					"inputs": [
						{
							"internalType": "address[]",
							"name": "_owners",
							"type": "address[]"
						},
						{
							"internalType": "uint256",
							"name": "_minimum",
							"type": "uint256"
						}
					],
					"stateMutability": "nonpayable",
					"type": "constructor"
				},
				{
					"anonymous": false,
					"inputs": [
						{
							"indexed": false,
							"internalType": "uint256",
							"name": "_txid",
							"type": "uint256"
						},
						{
							"indexed": false,
							"internalType": "uint256",
							"name": "_amount",
							"type": "uint256"
						},
						{
							"indexed": false,
							"internalType": "address",
							"name": "_initiator",
							"type": "address"
						},
						{
							"indexed": false,
							"internalType": "address",
							"name": "_receiver",
							"type": "address"
						}
					],
					"name": "TransferRequestCreated",
					"type": "event"
				},
				{
					"anonymous": false,
					"inputs": [
						{
							"indexed": false,
							"internalType": "uint256",
							"name": "amount",
							"type": "uint256"
						},
						{
							"indexed": true,
							"internalType": "address",
							"name": "deliveredTo",
							"type": "address"
						}
					],
					"name": "balanceAdded",
					"type": "event"
				},
				{
					"anonymous": false,
					"inputs": [
						{
							"indexed": false,
							"internalType": "uint256",
							"name": "amount",
							"type": "uint256"
						},
						{
							"indexed": true,
							"internalType": "address",
							"name": "sentFrom",
							"type": "address"
						},
						{
							"indexed": false,
							"internalType": "address",
							"name": "deliveredTo",
							"type": "address"
						}
					],
					"name": "transferedAmounts",
					"type": "event"
				},
				{
					"inputs": [
						{
							"internalType": "uint256",
							"name": "_index",
							"type": "uint256"
						}
					],
					"name": "approve",
					"outputs": [],
					"stateMutability": "nonpayable",
					"type": "function"
				},
				{
					"inputs": [
						{
							"internalType": "address",
							"name": "recipient",
							"type": "address"
						},
						{
							"internalType": "uint256",
							"name": "amount",
							"type": "uint256"
						}
					],
					"name": "createTnx",
					"outputs": [
						{
							"components": [
								{
									"internalType": "address payable",
									"name": "sender",
									"type": "address"
								},
								{
									"internalType": "address payable",
									"name": "recipient",
									"type": "address"
								},
								{
									"internalType": "uint256",
									"name": "amount",
									"type": "uint256"
								},
								{
									"internalType": "bool",
									"name": "tnxSent",
									"type": "bool"
								},
								{
									"internalType": "address[]",
									"name": "ownersAproved",
									"type": "address[]"
								}
							],
							"internalType": "struct MultisigWallet.Transfer[]",
							"name": "",
							"type": "tuple[]"
						}
					],
					"stateMutability": "nonpayable",
					"type": "function"
				},
				{
					"inputs": [],
					"name": "deposit",
					"outputs": [
						{
							"internalType": "uint256",
							"name": "",
							"type": "uint256"
						}
					],
					"stateMutability": "payable",
					"type": "function"
				},
				{
					"inputs": [],
					"name": "getBalance",
					"outputs": [
						{
							"internalType": "uint256",
							"name": "",
							"type": "uint256"
						}
					],
					"stateMutability": "view",
					"type": "function"
				},
				{
					"inputs": [
						{
							"internalType": "uint256",
							"name": "_index",
							"type": "uint256"
						}
					],
					"name": "getTrnx",
					"outputs": [
						{
							"internalType": "address",
							"name": "",
							"type": "address"
						},
						{
							"internalType": "uint256",
							"name": "",
							"type": "uint256"
						},
						{
							"internalType": "bool",
							"name": "",
							"type": "bool"
						},
						{
							"internalType": "uint256",
							"name": "",
							"type": "uint256"
						}
					],
					"stateMutability": "view",
					"type": "function"
				}
			],
			"devdoc": {
				"kind": "dev",
				"methods": {},
				"version": 1
			},
			"evm": {
				"assembly": "    /* \"contracts/MultisigWallet.sol\":65:4429  contract MultisigWallet {... */\n  mstore(0x40, 0x80)\n    /* \"contracts/MultisigWallet.sol\":1014:1129  constructor(address[] memory _owners, uint _minimum){... */\n  callvalue\n  dup1\n  iszero\n  tag_1\n  jumpi\n  0x00\n  dup1\n  revert\ntag_1:\n  pop\n  mload(0x40)\n  sub(codesize, bytecodeSize)\n  dup1\n  bytecodeSize\n  dup4\n  codecopy\n  dup2\n  dup2\n  add\n  0x40\n  mstore\n  dup2\n  add\n  swap1\n  tag_2\n  swap2\n  swap1\n  tag_3\n  jump\t// in\ntag_2:\n    /* \"contracts/MultisigWallet.sol\":1085:1092  _owners */\n  dup2\n    /* \"contracts/MultisigWallet.sol\":1076:1082  owners */\n  0x00\n    /* \"contracts/MultisigWallet.sol\":1076:1092  owners = _owners */\n  swap1\n  dup1\n  mload\n  swap1\n  0x20\n  add\n  swap1\n  tag_6\n  swap3\n  swap2\n  swap1\n  tag_7\n  jump\t// in\ntag_6:\n  pop\n    /* \"contracts/MultisigWallet.sol\":1114:1122  _minimum */\n  dup1\n    /* \"contracts/MultisigWallet.sol\":1102:1111  mininimum */\n  0x01\n    /* \"contracts/MultisigWallet.sol\":1102:1122  mininimum = _minimum */\n  dup2\n  swap1\n  sstore\n  pop\n    /* \"contracts/MultisigWallet.sol\":1014:1129  constructor(address[] memory _owners, uint _minimum){... */\n  pop\n  pop\n    /* \"contracts/MultisigWallet.sol\":65:4429  contract MultisigWallet {... */\n  jump(tag_8)\ntag_7:\n  dup3\n  dup1\n  sload\n  dup3\n  dup3\n  sstore\n  swap1\n  0x00\n  mstore\n  keccak256(0x00, 0x20)\n  swap1\n  dup2\n  add\n  swap3\n  dup3\n  iszero\n  tag_9\n  jumpi\n  swap2\n  0x20\n  mul\n  dup3\n  add\ntag_10:\n  dup3\n  dup2\n  gt\n  iszero\n  tag_11\n  jumpi\n  dup3\n  mload\n  dup3\n  exp(0x0100, 0x00)\n  dup2\n  sload\n  dup2\n  0xffffffffffffffffffffffffffffffffffffffff\n  mul\n  not\n  and\n  swap1\n  dup4\n  0xffffffffffffffffffffffffffffffffffffffff\n  and\n  mul\n  or\n  swap1\n  sstore\n  pop\n  swap2\n  0x20\n  add\n  swap2\n  swap1\n  0x01\n  add\n  swap1\n  jump(tag_10)\ntag_11:\ntag_9:\n  pop\n  swap1\n  pop\n  tag_12\n  swap2\n  swap1\n  tag_13\n  jump\t// in\ntag_12:\n  pop\n  swap1\n  jump\t// out\ntag_13:\ntag_14:\n  dup1\n  dup3\n  gt\n  iszero\n  tag_15\n  jumpi\n  0x00\n  dup2\n  0x00\n  swap1\n  sstore\n  pop\n  0x01\n  add\n  jump(tag_14)\ntag_15:\n  pop\n  swap1\n  jump\t// out\n    /* \"#utility.yul\":7:82   */\ntag_16:\n    /* \"#utility.yul\":40:46   */\n  0x00\n    /* \"#utility.yul\":73:75   */\n  0x40\n    /* \"#utility.yul\":67:76   */\n  mload\n    /* \"#utility.yul\":57:76   */\n  swap1\n  pop\n    /* \"#utility.yul\":7:82   */\n  swap1\n  jump\t// out\n    /* \"#utility.yul\":88:205   */\ntag_17:\n    /* \"#utility.yul\":197:198   */\n  0x00\n    /* \"#utility.yul\":194:195   */\n  dup1\n    /* \"#utility.yul\":187:199   */\n  revert\n    /* \"#utility.yul\":211:328   */\ntag_18:\n    /* \"#utility.yul\":320:321   */\n  0x00\n    /* \"#utility.yul\":317:318   */\n  dup1\n    /* \"#utility.yul\":310:322   */\n  revert\n    /* \"#utility.yul\":334:451   */\ntag_19:\n    /* \"#utility.yul\":443:444   */\n  0x00\n    /* \"#utility.yul\":440:441   */\n  dup1\n    /* \"#utility.yul\":433:445   */\n  revert\n    /* \"#utility.yul\":457:559   */\ntag_20:\n    /* \"#utility.yul\":498:504   */\n  0x00\n    /* \"#utility.yul\":549:551   */\n  0x1f\n    /* \"#utility.yul\":545:552   */\n  not\n    /* \"#utility.yul\":540:542   */\n  0x1f\n    /* \"#utility.yul\":533:538   */\n  dup4\n    /* \"#utility.yul\":529:543   */\n  add\n    /* \"#utility.yul\":525:553   */\n  and\n    /* \"#utility.yul\":515:553   */\n  swap1\n  pop\n    /* \"#utility.yul\":457:559   */\n  swap2\n  swap1\n  pop\n  jump\t// out\n    /* \"#utility.yul\":565:745   */\ntag_21:\n    /* \"#utility.yul\":613:690   */\n  0x4e487b7100000000000000000000000000000000000000000000000000000000\n    /* \"#utility.yul\":610:611   */\n  0x00\n    /* \"#utility.yul\":603:691   */\n  mstore\n    /* \"#utility.yul\":710:714   */\n  0x41\n    /* \"#utility.yul\":707:708   */\n  0x04\n    /* \"#utility.yul\":700:715   */\n  mstore\n    /* \"#utility.yul\":734:738   */\n  0x24\n    /* \"#utility.yul\":731:732   */\n  0x00\n    /* \"#utility.yul\":724:739   */\n  revert\n    /* \"#utility.yul\":751:1032   */\ntag_22:\n    /* \"#utility.yul\":834:861   */\n  tag_43\n    /* \"#utility.yul\":856:860   */\n  dup3\n    /* \"#utility.yul\":834:861   */\n  tag_20\n  jump\t// in\ntag_43:\n    /* \"#utility.yul\":826:832   */\n  dup2\n    /* \"#utility.yul\":822:862   */\n  add\n    /* \"#utility.yul\":964:970   */\n  dup2\n    /* \"#utility.yul\":952:962   */\n  dup2\n    /* \"#utility.yul\":949:971   */\n  lt\n    /* \"#utility.yul\":928:946   */\n  0xffffffffffffffff\n    /* \"#utility.yul\":916:926   */\n  dup3\n    /* \"#utility.yul\":913:947   */\n  gt\n    /* \"#utility.yul\":910:972   */\n  or\n    /* \"#utility.yul\":907:995   */\n  iszero\n  tag_44\n  jumpi\n    /* \"#utility.yul\":975:993   */\n  tag_45\n  tag_21\n  jump\t// in\ntag_45:\n    /* \"#utility.yul\":907:995   */\ntag_44:\n    /* \"#utility.yul\":1015:1025   */\n  dup1\n    /* \"#utility.yul\":1011:1013   */\n  0x40\n    /* \"#utility.yul\":1004:1026   */\n  mstore\n    /* \"#utility.yul\":794:1032   */\n  pop\n    /* \"#utility.yul\":751:1032   */\n  pop\n  pop\n  jump\t// out\n    /* \"#utility.yul\":1038:1167   */\ntag_23:\n    /* \"#utility.yul\":1072:1078   */\n  0x00\n    /* \"#utility.yul\":1099:1119   */\n  tag_47\n  tag_16\n  jump\t// in\ntag_47:\n    /* \"#utility.yul\":1089:1119   */\n  swap1\n  pop\n    /* \"#utility.yul\":1128:1161   */\n  tag_48\n    /* \"#utility.yul\":1156:1160   */\n  dup3\n    /* \"#utility.yul\":1148:1154   */\n  dup3\n    /* \"#utility.yul\":1128:1161   */\n  tag_22\n  jump\t// in\ntag_48:\n    /* \"#utility.yul\":1038:1167   */\n  swap2\n  swap1\n  pop\n  jump\t// out\n    /* \"#utility.yul\":1173:1484   */\ntag_24:\n    /* \"#utility.yul\":1250:1254   */\n  0x00\n    /* \"#utility.yul\":1340:1358   */\n  0xffffffffffffffff\n    /* \"#utility.yul\":1332:1338   */\n  dup3\n    /* \"#utility.yul\":1329:1359   */\n  gt\n    /* \"#utility.yul\":1326:1382   */\n  iszero\n  tag_50\n  jumpi\n    /* \"#utility.yul\":1362:1380   */\n  tag_51\n  tag_21\n  jump\t// in\ntag_51:\n    /* \"#utility.yul\":1326:1382   */\ntag_50:\n    /* \"#utility.yul\":1412:1416   */\n  0x20\n    /* \"#utility.yul\":1404:1410   */\n  dup3\n    /* \"#utility.yul\":1400:1417   */\n  mul\n    /* \"#utility.yul\":1392:1417   */\n  swap1\n  pop\n    /* \"#utility.yul\":1472:1476   */\n  0x20\n    /* \"#utility.yul\":1466:1470   */\n  dup2\n    /* \"#utility.yul\":1462:1477   */\n  add\n    /* \"#utility.yul\":1454:1477   */\n  swap1\n  pop\n    /* \"#utility.yul\":1173:1484   */\n  swap2\n  swap1\n  pop\n  jump\t// out\n    /* \"#utility.yul\":1490:1607   */\ntag_25:\n    /* \"#utility.yul\":1599:1600   */\n  0x00\n    /* \"#utility.yul\":1596:1597   */\n  dup1\n    /* \"#utility.yul\":1589:1601   */\n  revert\n    /* \"#utility.yul\":1613:1739   */\ntag_26:\n    /* \"#utility.yul\":1650:1657   */\n  0x00\n    /* \"#utility.yul\":1690:1732   */\n  0xffffffffffffffffffffffffffffffffffffffff\n    /* \"#utility.yul\":1683:1688   */\n  dup3\n    /* \"#utility.yul\":1679:1733   */\n  and\n    /* \"#utility.yul\":1668:1733   */\n  swap1\n  pop\n    /* \"#utility.yul\":1613:1739   */\n  swap2\n  swap1\n  pop\n  jump\t// out\n    /* \"#utility.yul\":1745:1841   */\ntag_27:\n    /* \"#utility.yul\":1782:1789   */\n  0x00\n    /* \"#utility.yul\":1811:1835   */\n  tag_55\n    /* \"#utility.yul\":1829:1834   */\n  dup3\n    /* \"#utility.yul\":1811:1835   */\n  tag_26\n  jump\t// in\ntag_55:\n    /* \"#utility.yul\":1800:1835   */\n  swap1\n  pop\n    /* \"#utility.yul\":1745:1841   */\n  swap2\n  swap1\n  pop\n  jump\t// out\n    /* \"#utility.yul\":1847:1969   */\ntag_28:\n    /* \"#utility.yul\":1920:1944   */\n  tag_57\n    /* \"#utility.yul\":1938:1943   */\n  dup2\n    /* \"#utility.yul\":1920:1944   */\n  tag_27\n  jump\t// in\ntag_57:\n    /* \"#utility.yul\":1913:1918   */\n  dup2\n    /* \"#utility.yul\":1910:1945   */\n  eq\n    /* \"#utility.yul\":1900:1963   */\n  tag_58\n  jumpi\n    /* \"#utility.yul\":1959:1960   */\n  0x00\n    /* \"#utility.yul\":1956:1957   */\n  dup1\n    /* \"#utility.yul\":1949:1961   */\n  revert\n    /* \"#utility.yul\":1900:1963   */\ntag_58:\n    /* \"#utility.yul\":1847:1969   */\n  pop\n  jump\t// out\n    /* \"#utility.yul\":1975:2118   */\ntag_29:\n    /* \"#utility.yul\":2032:2037   */\n  0x00\n    /* \"#utility.yul\":2063:2069   */\n  dup2\n    /* \"#utility.yul\":2057:2070   */\n  mload\n    /* \"#utility.yul\":2048:2070   */\n  swap1\n  pop\n    /* \"#utility.yul\":2079:2112   */\n  tag_60\n    /* \"#utility.yul\":2106:2111   */\n  dup2\n    /* \"#utility.yul\":2079:2112   */\n  tag_28\n  jump\t// in\ntag_60:\n    /* \"#utility.yul\":1975:2118   */\n  swap3\n  swap2\n  pop\n  pop\n  jump\t// out\n    /* \"#utility.yul\":2141:2873   */\ntag_30:\n    /* \"#utility.yul\":2248:2253   */\n  0x00\n    /* \"#utility.yul\":2273:2354   */\n  tag_62\n    /* \"#utility.yul\":2289:2353   */\n  tag_63\n    /* \"#utility.yul\":2346:2352   */\n  dup5\n    /* \"#utility.yul\":2289:2353   */\n  tag_24\n  jump\t// in\ntag_63:\n    /* \"#utility.yul\":2273:2354   */\n  tag_23\n  jump\t// in\ntag_62:\n    /* \"#utility.yul\":2264:2354   */\n  swap1\n  pop\n    /* \"#utility.yul\":2374:2379   */\n  dup1\n    /* \"#utility.yul\":2403:2409   */\n  dup4\n    /* \"#utility.yul\":2396:2401   */\n  dup3\n    /* \"#utility.yul\":2389:2410   */\n  mstore\n    /* \"#utility.yul\":2437:2441   */\n  0x20\n    /* \"#utility.yul\":2430:2435   */\n  dup3\n    /* \"#utility.yul\":2426:2442   */\n  add\n    /* \"#utility.yul\":2419:2442   */\n  swap1\n  pop\n    /* \"#utility.yul\":2490:2494   */\n  0x20\n    /* \"#utility.yul\":2482:2488   */\n  dup5\n    /* \"#utility.yul\":2478:2495   */\n  mul\n    /* \"#utility.yul\":2470:2476   */\n  dup4\n    /* \"#utility.yul\":2466:2496   */\n  add\n    /* \"#utility.yul\":2519:2522   */\n  dup6\n    /* \"#utility.yul\":2511:2517   */\n  dup2\n    /* \"#utility.yul\":2508:2523   */\n  gt\n    /* \"#utility.yul\":2505:2627   */\n  iszero\n  tag_64\n  jumpi\n    /* \"#utility.yul\":2538:2617   */\n  tag_65\n  tag_25\n  jump\t// in\ntag_65:\n    /* \"#utility.yul\":2505:2627   */\ntag_64:\n    /* \"#utility.yul\":2653:2659   */\n  dup4\n    /* \"#utility.yul\":2636:2867   */\ntag_66:\n    /* \"#utility.yul\":2670:2676   */\n  dup2\n    /* \"#utility.yul\":2665:2668   */\n  dup2\n    /* \"#utility.yul\":2662:2677   */\n  lt\n    /* \"#utility.yul\":2636:2867   */\n  iszero\n  tag_68\n  jumpi\n    /* \"#utility.yul\":2745:2748   */\n  dup1\n    /* \"#utility.yul\":2774:2822   */\n  tag_69\n    /* \"#utility.yul\":2818:2821   */\n  dup9\n    /* \"#utility.yul\":2806:2816   */\n  dup3\n    /* \"#utility.yul\":2774:2822   */\n  tag_29\n  jump\t// in\ntag_69:\n    /* \"#utility.yul\":2769:2772   */\n  dup5\n    /* \"#utility.yul\":2762:2823   */\n  mstore\n    /* \"#utility.yul\":2852:2856   */\n  0x20\n    /* \"#utility.yul\":2847:2850   */\n  dup5\n    /* \"#utility.yul\":2843:2857   */\n  add\n    /* \"#utility.yul\":2836:2857   */\n  swap4\n  pop\n    /* \"#utility.yul\":2712:2867   */\n  pop\n    /* \"#utility.yul\":2696:2700   */\n  0x20\n    /* \"#utility.yul\":2691:2694   */\n  dup2\n    /* \"#utility.yul\":2687:2701   */\n  add\n    /* \"#utility.yul\":2680:2701   */\n  swap1\n  pop\n    /* \"#utility.yul\":2636:2867   */\n  jump(tag_66)\ntag_68:\n    /* \"#utility.yul\":2640:2661   */\n  pop\n    /* \"#utility.yul\":2254:2873   */\n  pop\n  pop\n    /* \"#utility.yul\":2141:2873   */\n  swap4\n  swap3\n  pop\n  pop\n  pop\n  jump\t// out\n    /* \"#utility.yul\":2896:3281   */\ntag_31:\n    /* \"#utility.yul\":2978:2983   */\n  0x00\n    /* \"#utility.yul\":3027:3030   */\n  dup3\n    /* \"#utility.yul\":3020:3024   */\n  0x1f\n    /* \"#utility.yul\":3012:3018   */\n  dup4\n    /* \"#utility.yul\":3008:3025   */\n  add\n    /* \"#utility.yul\":3004:3031   */\n  slt\n    /* \"#utility.yul\":2994:3116   */\n  tag_71\n  jumpi\n    /* \"#utility.yul\":3035:3114   */\n  tag_72\n  tag_19\n  jump\t// in\ntag_72:\n    /* \"#utility.yul\":2994:3116   */\ntag_71:\n    /* \"#utility.yul\":3145:3151   */\n  dup2\n    /* \"#utility.yul\":3139:3152   */\n  mload\n    /* \"#utility.yul\":3170:3275   */\n  tag_73\n    /* \"#utility.yul\":3271:3274   */\n  dup5\n    /* \"#utility.yul\":3263:3269   */\n  dup3\n    /* \"#utility.yul\":3256:3260   */\n  0x20\n    /* \"#utility.yul\":3248:3254   */\n  dup7\n    /* \"#utility.yul\":3244:3261   */\n  add\n    /* \"#utility.yul\":3170:3275   */\n  tag_30\n  jump\t// in\ntag_73:\n    /* \"#utility.yul\":3161:3275   */\n  swap2\n  pop\n    /* \"#utility.yul\":2984:3281   */\n  pop\n    /* \"#utility.yul\":2896:3281   */\n  swap3\n  swap2\n  pop\n  pop\n  jump\t// out\n    /* \"#utility.yul\":3287:3364   */\ntag_32:\n    /* \"#utility.yul\":3324:3331   */\n  0x00\n    /* \"#utility.yul\":3353:3358   */\n  dup2\n    /* \"#utility.yul\":3342:3358   */\n  swap1\n  pop\n    /* \"#utility.yul\":3287:3364   */\n  swap2\n  swap1\n  pop\n  jump\t// out\n    /* \"#utility.yul\":3370:3492   */\ntag_33:\n    /* \"#utility.yul\":3443:3467   */\n  tag_76\n    /* \"#utility.yul\":3461:3466   */\n  dup2\n    /* \"#utility.yul\":3443:3467   */\n  tag_32\n  jump\t// in\ntag_76:\n    /* \"#utility.yul\":3436:3441   */\n  dup2\n    /* \"#utility.yul\":3433:3468   */\n  eq\n    /* \"#utility.yul\":3423:3486   */\n  tag_77\n  jumpi\n    /* \"#utility.yul\":3482:3483   */\n  0x00\n    /* \"#utility.yul\":3479:3480   */\n  dup1\n    /* \"#utility.yul\":3472:3484   */\n  revert\n    /* \"#utility.yul\":3423:3486   */\ntag_77:\n    /* \"#utility.yul\":3370:3492   */\n  pop\n  jump\t// out\n    /* \"#utility.yul\":3498:3641   */\ntag_34:\n    /* \"#utility.yul\":3555:3560   */\n  0x00\n    /* \"#utility.yul\":3586:3592   */\n  dup2\n    /* \"#utility.yul\":3580:3593   */\n  mload\n    /* \"#utility.yul\":3571:3593   */\n  swap1\n  pop\n    /* \"#utility.yul\":3602:3635   */\n  tag_79\n    /* \"#utility.yul\":3629:3634   */\n  dup2\n    /* \"#utility.yul\":3602:3635   */\n  tag_33\n  jump\t// in\ntag_79:\n    /* \"#utility.yul\":3498:3641   */\n  swap3\n  swap2\n  pop\n  pop\n  jump\t// out\n    /* \"#utility.yul\":3647:4357   */\ntag_3:\n    /* \"#utility.yul\":3751:3757   */\n  0x00\n    /* \"#utility.yul\":3759:3765   */\n  dup1\n    /* \"#utility.yul\":3808:3810   */\n  0x40\n    /* \"#utility.yul\":3796:3805   */\n  dup4\n    /* \"#utility.yul\":3787:3794   */\n  dup6\n    /* \"#utility.yul\":3783:3806   */\n  sub\n    /* \"#utility.yul\":3779:3811   */\n  slt\n    /* \"#utility.yul\":3776:3895   */\n  iszero\n  tag_81\n  jumpi\n    /* \"#utility.yul\":3814:3893   */\n  tag_82\n  tag_17\n  jump\t// in\ntag_82:\n    /* \"#utility.yul\":3776:3895   */\ntag_81:\n    /* \"#utility.yul\":3955:3956   */\n  0x00\n    /* \"#utility.yul\":3944:3953   */\n  dup4\n    /* \"#utility.yul\":3940:3957   */\n  add\n    /* \"#utility.yul\":3934:3958   */\n  mload\n    /* \"#utility.yul\":3985:4003   */\n  0xffffffffffffffff\n    /* \"#utility.yul\":3977:3983   */\n  dup2\n    /* \"#utility.yul\":3974:4004   */\n  gt\n    /* \"#utility.yul\":3971:4088   */\n  iszero\n  tag_83\n  jumpi\n    /* \"#utility.yul\":4007:4086   */\n  tag_84\n  tag_18\n  jump\t// in\ntag_84:\n    /* \"#utility.yul\":3971:4088   */\ntag_83:\n    /* \"#utility.yul\":4112:4201   */\n  tag_85\n    /* \"#utility.yul\":4193:4200   */\n  dup6\n    /* \"#utility.yul\":4184:4190   */\n  dup3\n    /* \"#utility.yul\":4173:4182   */\n  dup7\n    /* \"#utility.yul\":4169:4191   */\n  add\n    /* \"#utility.yul\":4112:4201   */\n  tag_31\n  jump\t// in\ntag_85:\n    /* \"#utility.yul\":4102:4201   */\n  swap3\n  pop\n    /* \"#utility.yul\":3905:4211   */\n  pop\n    /* \"#utility.yul\":4250:4252   */\n  0x20\n    /* \"#utility.yul\":4276:4340   */\n  tag_86\n    /* \"#utility.yul\":4332:4339   */\n  dup6\n    /* \"#utility.yul\":4323:4329   */\n  dup3\n    /* \"#utility.yul\":4312:4321   */\n  dup7\n    /* \"#utility.yul\":4308:4330   */\n  add\n    /* \"#utility.yul\":4276:4340   */\n  tag_34\n  jump\t// in\ntag_86:\n    /* \"#utility.yul\":4266:4340   */\n  swap2\n  pop\n    /* \"#utility.yul\":4221:4350   */\n  pop\n    /* \"#utility.yul\":3647:4357   */\n  swap3\n  pop\n  swap3\n  swap1\n  pop\n  jump\t// out\n    /* \"contracts/MultisigWallet.sol\":65:4429  contract MultisigWallet {... */\ntag_8:\n  dataSize(sub_0)\n  dup1\n  dataOffset(sub_0)\n  0x00\n  codecopy\n  0x00\n  return\nstop\n\nsub_0: assembly {\n        /* \"contracts/MultisigWallet.sol\":65:4429  contract MultisigWallet {... */\n      mstore(0x40, 0x80)\n      jumpi(tag_1, lt(calldatasize, 0x04))\n      shr(0xe0, calldataload(0x00))\n      dup1\n      0x12065fe0\n      eq\n      tag_2\n      jumpi\n      dup1\n      0x7d0b3805\n      eq\n      tag_3\n      jumpi\n      dup1\n      0xb759f954\n      eq\n      tag_4\n      jumpi\n      dup1\n      0xd0e30db0\n      eq\n      tag_5\n      jumpi\n      dup1\n      0xdddfec70\n      eq\n      tag_6\n      jumpi\n    tag_1:\n      0x00\n      dup1\n      revert\n        /* \"contracts/MultisigWallet.sol\":4332:4426  function getBalance() public view returns (uint) {... */\n    tag_2:\n      callvalue\n      dup1\n      iszero\n      tag_7\n      jumpi\n      0x00\n      dup1\n      revert\n    tag_7:\n      pop\n      tag_8\n      tag_9\n      jump\t// in\n    tag_8:\n      mload(0x40)\n      tag_10\n      swap2\n      swap1\n      tag_11\n      jump\t// in\n    tag_10:\n      mload(0x40)\n      dup1\n      swap2\n      sub\n      swap1\n      return\n        /* \"contracts/MultisigWallet.sol\":1703:2082  function createTnx(address recipient, uint amount) public onlyOwners returns(Transfer[] memory) {... */\n    tag_3:\n      callvalue\n      dup1\n      iszero\n      tag_12\n      jumpi\n      0x00\n      dup1\n      revert\n    tag_12:\n      pop\n      tag_13\n      0x04\n      dup1\n      calldatasize\n      sub\n      dup2\n      add\n      swap1\n      tag_14\n      swap2\n      swap1\n      tag_15\n      jump\t// in\n    tag_14:\n      tag_16\n      jump\t// in\n    tag_13:\n      mload(0x40)\n      tag_17\n      swap2\n      swap1\n      tag_18\n      jump\t// in\n    tag_17:\n      mload(0x40)\n      dup1\n      swap2\n      sub\n      swap1\n      return\n        /* \"contracts/MultisigWallet.sol\":2464:3263  function approve(uint _index) public onlyOwners {... */\n    tag_4:\n      callvalue\n      dup1\n      iszero\n      tag_19\n      jumpi\n      0x00\n      dup1\n      revert\n    tag_19:\n      pop\n      tag_20\n      0x04\n      dup1\n      calldatasize\n      sub\n      dup2\n      add\n      swap1\n      tag_21\n      swap2\n      swap1\n      tag_22\n      jump\t// in\n    tag_21:\n      tag_23\n      jump\t// in\n    tag_20:\n      stop\n        /* \"contracts/MultisigWallet.sol\":1470:1614  function deposit() public payable returns (uint) {... */\n    tag_5:\n      tag_24\n      tag_25\n      jump\t// in\n    tag_24:\n      mload(0x40)\n      tag_26\n      swap2\n      swap1\n      tag_11\n      jump\t// in\n    tag_26:\n      mload(0x40)\n      dup1\n      swap2\n      sub\n      swap1\n      return\n        /* \"contracts/MultisigWallet.sol\":2140:2395  function getTrnx(uint _index) public view onlyOwners returns(address, uint, bool, uint) {... */\n    tag_6:\n      callvalue\n      dup1\n      iszero\n      tag_27\n      jumpi\n      0x00\n      dup1\n      revert\n    tag_27:\n      pop\n      tag_28\n      0x04\n      dup1\n      calldatasize\n      sub\n      dup2\n      add\n      swap1\n      tag_29\n      swap2\n      swap1\n      tag_22\n      jump\t// in\n    tag_29:\n      tag_30\n      jump\t// in\n    tag_28:\n      mload(0x40)\n      tag_31\n      swap5\n      swap4\n      swap3\n      swap2\n      swap1\n      tag_32\n      jump\t// in\n    tag_31:\n      mload(0x40)\n      dup1\n      swap2\n      sub\n      swap1\n      return\n        /* \"contracts/MultisigWallet.sol\":4332:4426  function getBalance() public view returns (uint) {... */\n    tag_9:\n        /* \"contracts/MultisigWallet.sol\":4375:4379  uint */\n      0x00\n        /* \"contracts/MultisigWallet.sol\":4398:4419  address(this).balance */\n      selfbalance\n        /* \"contracts/MultisigWallet.sol\":4391:4419  return address(this).balance */\n      swap1\n      pop\n        /* \"contracts/MultisigWallet.sol\":4332:4426  function getBalance() public view returns (uint) {... */\n      swap1\n      jump\t// out\n        /* \"contracts/MultisigWallet.sol\":1703:2082  function createTnx(address recipient, uint amount) public onlyOwners returns(Transfer[] memory) {... */\n    tag_16:\n        /* \"contracts/MultisigWallet.sol\":1780:1797  Transfer[] memory */\n      0x60\n        /* \"contracts/MultisigWallet.sol\":608:626  exists(msg.sender) */\n      tag_35\n        /* \"contracts/MultisigWallet.sol\":615:625  msg.sender */\n      caller\n        /* \"contracts/MultisigWallet.sol\":608:614  exists */\n      tag_36\n        /* \"contracts/MultisigWallet.sol\":608:626  exists(msg.sender) */\n      jump\t// in\n    tag_35:\n        /* \"contracts/MultisigWallet.sol\":600:627  require(exists(msg.sender)) */\n      tag_37\n      jumpi\n      0x00\n      dup1\n      revert\n    tag_37:\n        /* \"contracts/MultisigWallet.sol\":1809:1836  address[] memory emptyArray */\n      0x60\n        /* \"contracts/MultisigWallet.sol\":1846:1860  transfersScope */\n      0x02\n        /* \"contracts/MultisigWallet.sol\":1867:1944  Transfer(payable(msg.sender), payable(recipient), amount, false, emptyArray ) */\n      mload(0x40)\n      dup1\n      0xa0\n      add\n      0x40\n      mstore\n      dup1\n        /* \"contracts/MultisigWallet.sol\":1884:1894  msg.sender */\n      caller\n        /* \"contracts/MultisigWallet.sol\":1867:1944  Transfer(payable(msg.sender), payable(recipient), amount, false, emptyArray ) */\n      0xffffffffffffffffffffffffffffffffffffffff\n      and\n      dup2\n      mstore\n      0x20\n      add\n        /* \"contracts/MultisigWallet.sol\":1905:1914  recipient */\n      dup7\n        /* \"contracts/MultisigWallet.sol\":1867:1944  Transfer(payable(msg.sender), payable(recipient), amount, false, emptyArray ) */\n      0xffffffffffffffffffffffffffffffffffffffff\n      and\n      dup2\n      mstore\n      0x20\n      add\n        /* \"contracts/MultisigWallet.sol\":1917:1923  amount */\n      dup6\n        /* \"contracts/MultisigWallet.sol\":1867:1944  Transfer(payable(msg.sender), payable(recipient), amount, false, emptyArray ) */\n      dup2\n      mstore\n      0x20\n      add\n        /* \"contracts/MultisigWallet.sol\":1925:1930  false */\n      0x00\n        /* \"contracts/MultisigWallet.sol\":1867:1944  Transfer(payable(msg.sender), payable(recipient), amount, false, emptyArray ) */\n      iszero\n      iszero\n      dup2\n      mstore\n      0x20\n      add\n        /* \"contracts/MultisigWallet.sol\":1932:1942  emptyArray */\n      dup4\n        /* \"contracts/MultisigWallet.sol\":1867:1944  Transfer(payable(msg.sender), payable(recipient), amount, false, emptyArray ) */\n      dup2\n      mstore\n      pop\n        /* \"contracts/MultisigWallet.sol\":1846:1946  transfersScope.push( Transfer(payable(msg.sender), payable(recipient), amount, false, emptyArray ) ) */\n      swap1\n      dup1\n      0x01\n      dup2\n      sload\n      add\n      dup1\n      dup3\n      sstore\n      dup1\n      swap2\n      pop\n      pop\n      0x01\n      swap1\n      sub\n      swap1\n      0x00\n      mstore\n      keccak256(0x00, 0x20)\n      swap1\n      0x05\n      mul\n      add\n      0x00\n      swap1\n      swap2\n      swap1\n      swap2\n      swap1\n      swap2\n      pop\n      0x00\n      dup3\n      add\n      mload\n      dup2\n      0x00\n      add\n      exp(0x0100, 0x00)\n      dup2\n      sload\n      dup2\n      0xffffffffffffffffffffffffffffffffffffffff\n      mul\n      not\n      and\n      swap1\n      dup4\n      0xffffffffffffffffffffffffffffffffffffffff\n      and\n      mul\n      or\n      swap1\n      sstore\n      pop\n      0x20\n      dup3\n      add\n      mload\n      dup2\n      0x01\n      add\n      exp(0x0100, 0x00)\n      dup2\n      sload\n      dup2\n      0xffffffffffffffffffffffffffffffffffffffff\n      mul\n      not\n      and\n      swap1\n      dup4\n      0xffffffffffffffffffffffffffffffffffffffff\n      and\n      mul\n      or\n      swap1\n      sstore\n      pop\n      0x40\n      dup3\n      add\n      mload\n      dup2\n      0x02\n      add\n      sstore\n      0x60\n      dup3\n      add\n      mload\n      dup2\n      0x03\n      add\n      exp(0x0100, 0x00)\n      dup2\n      sload\n      dup2\n      0xff\n      mul\n      not\n      and\n      swap1\n      dup4\n      iszero\n      iszero\n      mul\n      or\n      swap1\n      sstore\n      pop\n      0x80\n      dup3\n      add\n      mload\n      dup2\n      0x04\n      add\n      swap1\n      dup1\n      mload\n      swap1\n      0x20\n      add\n      swap1\n      tag_40\n      swap3\n      swap2\n      swap1\n      tag_41\n      jump\t// in\n    tag_40:\n      pop\n      pop\n      pop\n        /* \"contracts/MultisigWallet.sol\":1961:2044  TransferRequestCreated( (transfersScope.length - 1), amount, msg.sender, recipient) */\n      0x099c4ec4ecfc26f7c8b27aeee5443f92120fa2c4e91ba6020369ae71a4d44278\n        /* \"contracts/MultisigWallet.sol\":2010:2011  1 */\n      0x01\n        /* \"contracts/MultisigWallet.sol\":1986:2000  transfersScope */\n      0x02\n        /* \"contracts/MultisigWallet.sol\":1986:2007  transfersScope.length */\n      dup1\n      sload\n      swap1\n      pop\n        /* \"contracts/MultisigWallet.sol\":1986:2011  transfersScope.length - 1 */\n      tag_42\n      swap2\n      swap1\n      tag_43\n      jump\t// in\n    tag_42:\n        /* \"contracts/MultisigWallet.sol\":2014:2020  amount */\n      dup5\n        /* \"contracts/MultisigWallet.sol\":2022:2032  msg.sender */\n      caller\n        /* \"contracts/MultisigWallet.sol\":2034:2043  recipient */\n      dup8\n        /* \"contracts/MultisigWallet.sol\":1961:2044  TransferRequestCreated( (transfersScope.length - 1), amount, msg.sender, recipient) */\n      mload(0x40)\n      tag_44\n      swap5\n      swap4\n      swap3\n      swap2\n      swap1\n      tag_45\n      jump\t// in\n    tag_44:\n      mload(0x40)\n      dup1\n      swap2\n      sub\n      swap1\n      log1\n        /* \"contracts/MultisigWallet.sol\":2061:2075  transfersScope */\n      0x02\n        /* \"contracts/MultisigWallet.sol\":2054:2075  return transfersScope */\n      dup1\n      sload\n      dup1\n      0x20\n      mul\n      0x20\n      add\n      mload(0x40)\n      swap1\n      dup2\n      add\n      0x40\n      mstore\n      dup1\n      swap3\n      swap2\n      swap1\n      dup2\n      dup2\n      mstore\n      0x20\n      add\n      0x00\n      swap1\n    tag_46:\n      dup3\n      dup3\n      lt\n      iszero\n      tag_47\n      jumpi\n      dup4\n      dup3\n      swap1\n      0x00\n      mstore\n      keccak256(0x00, 0x20)\n      swap1\n      0x05\n      mul\n      add\n      mload(0x40)\n      dup1\n      0xa0\n      add\n      0x40\n      mstore\n      swap1\n      dup2\n      0x00\n      dup3\n      add\n      0x00\n      swap1\n      sload\n      swap1\n      0x0100\n      exp\n      swap1\n      div\n      0xffffffffffffffffffffffffffffffffffffffff\n      and\n      0xffffffffffffffffffffffffffffffffffffffff\n      and\n      0xffffffffffffffffffffffffffffffffffffffff\n      and\n      dup2\n      mstore\n      0x20\n      add\n      0x01\n      dup3\n      add\n      0x00\n      swap1\n      sload\n      swap1\n      0x0100\n      exp\n      swap1\n      div\n      0xffffffffffffffffffffffffffffffffffffffff\n      and\n      0xffffffffffffffffffffffffffffffffffffffff\n      and\n      0xffffffffffffffffffffffffffffffffffffffff\n      and\n      dup2\n      mstore\n      0x20\n      add\n      0x02\n      dup3\n      add\n      sload\n      dup2\n      mstore\n      0x20\n      add\n      0x03\n      dup3\n      add\n      0x00\n      swap1\n      sload\n      swap1\n      0x0100\n      exp\n      swap1\n      div\n      0xff\n      and\n      iszero\n      iszero\n      iszero\n      iszero\n      dup2\n      mstore\n      0x20\n      add\n      0x04\n      dup3\n      add\n      dup1\n      sload\n      dup1\n      0x20\n      mul\n      0x20\n      add\n      mload(0x40)\n      swap1\n      dup2\n      add\n      0x40\n      mstore\n      dup1\n      swap3\n      swap2\n      swap1\n      dup2\n      dup2\n      mstore\n      0x20\n      add\n      dup3\n      dup1\n      sload\n      dup1\n      iszero\n      tag_49\n      jumpi\n      0x20\n      mul\n      dup3\n      add\n      swap2\n      swap1\n      0x00\n      mstore\n      keccak256(0x00, 0x20)\n      swap1\n    tag_50:\n      dup2\n      0x00\n      swap1\n      sload\n      swap1\n      0x0100\n      exp\n      swap1\n      div\n      0xffffffffffffffffffffffffffffffffffffffff\n      and\n      0xffffffffffffffffffffffffffffffffffffffff\n      and\n      dup2\n      mstore\n      0x20\n      add\n      swap1\n      0x01\n      add\n      swap1\n      dup1\n      dup4\n      gt\n      tag_50\n      jumpi\n    tag_49:\n      pop\n      pop\n      pop\n      pop\n      pop\n      dup2\n      mstore\n      pop\n      pop\n      dup2\n      mstore\n      0x20\n      add\n      swap1\n      0x01\n      add\n      swap1\n      jump(tag_46)\n    tag_47:\n      pop\n      pop\n      pop\n      pop\n      swap2\n      pop\n      pop\n        /* \"contracts/MultisigWallet.sol\":1703:2082  function createTnx(address recipient, uint amount) public onlyOwners returns(Transfer[] memory) {... */\n      swap3\n      swap2\n      pop\n      pop\n      jump\t// out\n        /* \"contracts/MultisigWallet.sol\":2464:3263  function approve(uint _index) public onlyOwners {... */\n    tag_23:\n        /* \"contracts/MultisigWallet.sol\":608:626  exists(msg.sender) */\n      tag_52\n        /* \"contracts/MultisigWallet.sol\":615:625  msg.sender */\n      caller\n        /* \"contracts/MultisigWallet.sol\":608:614  exists */\n      tag_36\n        /* \"contracts/MultisigWallet.sol\":608:626  exists(msg.sender) */\n      jump\t// in\n    tag_52:\n        /* \"contracts/MultisigWallet.sol\":600:627  require(exists(msg.sender)) */\n      tag_53\n      jumpi\n      0x00\n      dup1\n      revert\n    tag_53:\n        /* \"contracts/MultisigWallet.sol\":2536:2550  transfersScope */\n      0x02\n        /* \"contracts/MultisigWallet.sol\":2551:2557  _index */\n      dup2\n        /* \"contracts/MultisigWallet.sol\":2536:2558  transfersScope[_index] */\n      dup2\n      sload\n      dup2\n      lt\n      tag_55\n      jumpi\n      tag_56\n      tag_57\n      jump\t// in\n    tag_56:\n    tag_55:\n      swap1\n      0x00\n      mstore\n      keccak256(0x00, 0x20)\n      swap1\n      0x05\n      mul\n      add\n        /* \"contracts/MultisigWallet.sol\":2536:2566  transfersScope[_index].tnxSent */\n      0x03\n      add\n      0x00\n      swap1\n      sload\n      swap1\n      0x0100\n      exp\n      swap1\n      div\n      0xff\n      and\n        /* \"contracts/MultisigWallet.sol\":2531:3256  if( !transfersScope[_index].tnxSent ) {... */\n      tag_59\n      jumpi\n        /* \"contracts/MultisigWallet.sol\":2636:2637  0 */\n      0x00\n        /* \"contracts/MultisigWallet.sol\":2589:2603  transfersScope */\n      0x02\n        /* \"contracts/MultisigWallet.sol\":2604:2610  _index */\n      dup3\n        /* \"contracts/MultisigWallet.sol\":2589:2611  transfersScope[_index] */\n      dup2\n      sload\n      dup2\n      lt\n      tag_60\n      jumpi\n      tag_61\n      tag_57\n      jump\t// in\n    tag_61:\n    tag_60:\n      swap1\n      0x00\n      mstore\n      keccak256(0x00, 0x20)\n      swap1\n      0x05\n      mul\n      add\n        /* \"contracts/MultisigWallet.sol\":2589:2625  transfersScope[_index].ownersAproved */\n      0x04\n      add\n        /* \"contracts/MultisigWallet.sol\":2589:2632  transfersScope[_index].ownersAproved.length */\n      dup1\n      sload\n      swap1\n      pop\n        /* \"contracts/MultisigWallet.sol\":2589:2637  transfersScope[_index].ownersAproved.length == 0 */\n      sub\n        /* \"contracts/MultisigWallet.sol\":2584:3233  if ( transfersScope[_index].ownersAproved.length == 0 ) {... */\n      tag_63\n      jumpi\n        /* \"contracts/MultisigWallet.sol\":2659:2681  aprovedSuccess(_index) */\n      tag_64\n        /* \"contracts/MultisigWallet.sol\":2674:2680  _index */\n      dup2\n        /* \"contracts/MultisigWallet.sol\":2659:2673  aprovedSuccess */\n      tag_65\n        /* \"contracts/MultisigWallet.sol\":2659:2681  aprovedSuccess(_index) */\n      jump\t// in\n    tag_64:\n        /* \"contracts/MultisigWallet.sol\":2584:3233  if ( transfersScope[_index].ownersAproved.length == 0 ) {... */\n      jump(tag_66)\n    tag_63:\n        /* \"contracts/MultisigWallet.sol\":2818:2824  uint i */\n      0x00\n        /* \"contracts/MultisigWallet.sol\":2813:3218  for (uint i = 0; i < transfersScope[_index].ownersAproved.length; i++) {... */\n    tag_67:\n        /* \"contracts/MultisigWallet.sol\":2834:2848  transfersScope */\n      0x02\n        /* \"contracts/MultisigWallet.sol\":2849:2855  _index */\n      dup3\n        /* \"contracts/MultisigWallet.sol\":2834:2856  transfersScope[_index] */\n      dup2\n      sload\n      dup2\n      lt\n      tag_70\n      jumpi\n      tag_71\n      tag_57\n      jump\t// in\n    tag_71:\n    tag_70:\n      swap1\n      0x00\n      mstore\n      keccak256(0x00, 0x20)\n      swap1\n      0x05\n      mul\n      add\n        /* \"contracts/MultisigWallet.sol\":2834:2870  transfersScope[_index].ownersAproved */\n      0x04\n      add\n        /* \"contracts/MultisigWallet.sol\":2834:2877  transfersScope[_index].ownersAproved.length */\n      dup1\n      sload\n      swap1\n      pop\n        /* \"contracts/MultisigWallet.sol\":2830:2831  i */\n      dup2\n        /* \"contracts/MultisigWallet.sol\":2830:2877  i < transfersScope[_index].ownersAproved.length */\n      lt\n        /* \"contracts/MultisigWallet.sol\":2813:3218  for (uint i = 0; i < transfersScope[_index].ownersAproved.length; i++) {... */\n      iszero\n      tag_68\n      jumpi\n        /* \"contracts/MultisigWallet.sol\":2974:2984  msg.sender */\n      caller\n        /* \"contracts/MultisigWallet.sol\":2931:2984  transfersScope[_index].ownersAproved[i] == msg.sender */\n      0xffffffffffffffffffffffffffffffffffffffff\n      and\n        /* \"contracts/MultisigWallet.sol\":2931:2945  transfersScope */\n      0x02\n        /* \"contracts/MultisigWallet.sol\":2946:2952  _index */\n      dup4\n        /* \"contracts/MultisigWallet.sol\":2931:2953  transfersScope[_index] */\n      dup2\n      sload\n      dup2\n      lt\n      tag_73\n      jumpi\n      tag_74\n      tag_57\n      jump\t// in\n    tag_74:\n    tag_73:\n      swap1\n      0x00\n      mstore\n      keccak256(0x00, 0x20)\n      swap1\n      0x05\n      mul\n      add\n        /* \"contracts/MultisigWallet.sol\":2931:2967  transfersScope[_index].ownersAproved */\n      0x04\n      add\n        /* \"contracts/MultisigWallet.sol\":2968:2969  i */\n      dup3\n        /* \"contracts/MultisigWallet.sol\":2931:2970  transfersScope[_index].ownersAproved[i] */\n      dup2\n      sload\n      dup2\n      lt\n      tag_76\n      jumpi\n      tag_77\n      tag_57\n      jump\t// in\n    tag_77:\n    tag_76:\n      swap1\n      0x00\n      mstore\n      keccak256(0x00, 0x20)\n      add\n      0x00\n      swap1\n      sload\n      swap1\n      0x0100\n      exp\n      swap1\n      div\n      0xffffffffffffffffffffffffffffffffffffffff\n      and\n        /* \"contracts/MultisigWallet.sol\":2931:2984  transfersScope[_index].ownersAproved[i] == msg.sender */\n      0xffffffffffffffffffffffffffffffffffffffff\n      and\n      sub\n        /* \"contracts/MultisigWallet.sol\":2927:3200  if (transfersScope[_index].ownersAproved[i] == msg.sender) {... */\n      iszero\n        /* \"contracts/MultisigWallet.sol\":3095:3100  break */\n      tag_68\n        /* \"contracts/MultisigWallet.sol\":2927:3200  if (transfersScope[_index].ownersAproved[i] == msg.sender) {... */\n      jumpi\n        /* \"contracts/MultisigWallet.sol\":3155:3177  aprovedSuccess(_index) */\n      tag_81\n        /* \"contracts/MultisigWallet.sol\":3170:3176  _index */\n      dup3\n        /* \"contracts/MultisigWallet.sol\":3155:3169  aprovedSuccess */\n      tag_65\n        /* \"contracts/MultisigWallet.sol\":3155:3177  aprovedSuccess(_index) */\n      jump\t// in\n    tag_81:\n        /* \"contracts/MultisigWallet.sol\":2879:2882  i++ */\n      dup1\n      dup1\n      tag_82\n      swap1\n      tag_83\n      jump\t// in\n    tag_82:\n      swap2\n      pop\n      pop\n        /* \"contracts/MultisigWallet.sol\":2813:3218  for (uint i = 0; i < transfersScope[_index].ownersAproved.length; i++) {... */\n      jump(tag_67)\n    tag_68:\n      pop\n        /* \"contracts/MultisigWallet.sol\":2584:3233  if ( transfersScope[_index].ownersAproved.length == 0 ) {... */\n    tag_66:\n        /* \"contracts/MultisigWallet.sol\":2531:3256  if( !transfersScope[_index].tnxSent ) {... */\n    tag_59:\n        /* \"contracts/MultisigWallet.sol\":2464:3263  function approve(uint _index) public onlyOwners {... */\n      pop\n      jump\t// out\n        /* \"contracts/MultisigWallet.sol\":1470:1614  function deposit() public payable returns (uint) {... */\n    tag_25:\n        /* \"contracts/MultisigWallet.sol\":1513:1517  uint */\n      0x00\n        /* \"contracts/MultisigWallet.sol\":1558:1568  msg.sender */\n      caller\n        /* \"contracts/MultisigWallet.sol\":1534:1569  balanceAdded(msg.value, msg.sender) */\n      0xffffffffffffffffffffffffffffffffffffffff\n      and\n      0xdb42e689d0c993b1eaac62924e67d96c365c40778a39beaaaf6865b061a93f32\n        /* \"contracts/MultisigWallet.sol\":1547:1556  msg.value */\n      callvalue\n        /* \"contracts/MultisigWallet.sol\":1534:1569  balanceAdded(msg.value, msg.sender) */\n      mload(0x40)\n      tag_85\n      swap2\n      swap1\n      tag_11\n      jump\t// in\n    tag_85:\n      mload(0x40)\n      dup1\n      swap2\n      sub\n      swap1\n      log2\n        /* \"contracts/MultisigWallet.sol\":1586:1607  address(this).balance */\n      selfbalance\n        /* \"contracts/MultisigWallet.sol\":1579:1607  return address(this).balance */\n      swap1\n      pop\n        /* \"contracts/MultisigWallet.sol\":1470:1614  function deposit() public payable returns (uint) {... */\n      swap1\n      jump\t// out\n        /* \"contracts/MultisigWallet.sol\":2140:2395  function getTrnx(uint _index) public view onlyOwners returns(address, uint, bool, uint) {... */\n    tag_30:\n        /* \"contracts/MultisigWallet.sol\":2201:2208  address */\n      0x00\n        /* \"contracts/MultisigWallet.sol\":2210:2214  uint */\n      dup1\n        /* \"contracts/MultisigWallet.sol\":2216:2220  bool */\n      0x00\n        /* \"contracts/MultisigWallet.sol\":2222:2226  uint */\n      dup1\n        /* \"contracts/MultisigWallet.sol\":608:626  exists(msg.sender) */\n      tag_87\n        /* \"contracts/MultisigWallet.sol\":615:625  msg.sender */\n      caller\n        /* \"contracts/MultisigWallet.sol\":608:614  exists */\n      tag_36\n        /* \"contracts/MultisigWallet.sol\":608:626  exists(msg.sender) */\n      jump\t// in\n    tag_87:\n        /* \"contracts/MultisigWallet.sol\":600:627  require(exists(msg.sender)) */\n      tag_88\n      jumpi\n      0x00\n      dup1\n      revert\n    tag_88:\n        /* \"contracts/MultisigWallet.sol\":2246:2260  transfersScope */\n      0x02\n        /* \"contracts/MultisigWallet.sol\":2261:2267  _index */\n      dup6\n        /* \"contracts/MultisigWallet.sol\":2246:2268  transfersScope[_index] */\n      dup2\n      sload\n      dup2\n      lt\n      tag_90\n      jumpi\n      tag_91\n      tag_57\n      jump\t// in\n    tag_91:\n    tag_90:\n      swap1\n      0x00\n      mstore\n      keccak256(0x00, 0x20)\n      swap1\n      0x05\n      mul\n      add\n        /* \"contracts/MultisigWallet.sol\":2246:2278  transfersScope[_index].recipient */\n      0x01\n      add\n      0x00\n      swap1\n      sload\n      swap1\n      0x0100\n      exp\n      swap1\n      div\n      0xffffffffffffffffffffffffffffffffffffffff\n      and\n        /* \"contracts/MultisigWallet.sol\":2280:2294  transfersScope */\n      0x02\n        /* \"contracts/MultisigWallet.sol\":2295:2301  _index */\n      dup7\n        /* \"contracts/MultisigWallet.sol\":2280:2302  transfersScope[_index] */\n      dup2\n      sload\n      dup2\n      lt\n      tag_93\n      jumpi\n      tag_94\n      tag_57\n      jump\t// in\n    tag_94:\n    tag_93:\n      swap1\n      0x00\n      mstore\n      keccak256(0x00, 0x20)\n      swap1\n      0x05\n      mul\n      add\n        /* \"contracts/MultisigWallet.sol\":2280:2309  transfersScope[_index].amount */\n      0x02\n      add\n      sload\n        /* \"contracts/MultisigWallet.sol\":2311:2325  transfersScope */\n      0x02\n        /* \"contracts/MultisigWallet.sol\":2326:2332  _index */\n      dup8\n        /* \"contracts/MultisigWallet.sol\":2311:2333  transfersScope[_index] */\n      dup2\n      sload\n      dup2\n      lt\n      tag_96\n      jumpi\n      tag_97\n      tag_57\n      jump\t// in\n    tag_97:\n    tag_96:\n      swap1\n      0x00\n      mstore\n      keccak256(0x00, 0x20)\n      swap1\n      0x05\n      mul\n      add\n        /* \"contracts/MultisigWallet.sol\":2311:2341  transfersScope[_index].tnxSent */\n      0x03\n      add\n      0x00\n      swap1\n      sload\n      swap1\n      0x0100\n      exp\n      swap1\n      div\n      0xff\n      and\n        /* \"contracts/MultisigWallet.sol\":2343:2357  transfersScope */\n      0x02\n        /* \"contracts/MultisigWallet.sol\":2358:2364  _index */\n      dup9\n        /* \"contracts/MultisigWallet.sol\":2343:2365  transfersScope[_index] */\n      dup2\n      sload\n      dup2\n      lt\n      tag_99\n      jumpi\n      tag_100\n      tag_57\n      jump\t// in\n    tag_100:\n    tag_99:\n      swap1\n      0x00\n      mstore\n      keccak256(0x00, 0x20)\n      swap1\n      0x05\n      mul\n      add\n        /* \"contracts/MultisigWallet.sol\":2343:2379  transfersScope[_index].ownersAproved */\n      0x04\n      add\n        /* \"contracts/MultisigWallet.sol\":2343:2386  transfersScope[_index].ownersAproved.length */\n      dup1\n      sload\n      swap1\n      pop\n        /* \"contracts/MultisigWallet.sol\":2238:2388  return (transfersScope[_index].recipient, transfersScope[_index].amount, transfersScope[_index].tnxSent, transfersScope[_index].ownersAproved.length ) */\n      swap4\n      pop\n      swap4\n      pop\n      swap4\n      pop\n      swap4\n      pop\n        /* \"contracts/MultisigWallet.sol\":2140:2395  function getTrnx(uint _index) public view onlyOwners returns(address, uint, bool, uint) {... */\n      swap2\n      swap4\n      pop\n      swap2\n      swap4\n      jump\t// out\n        /* \"contracts/MultisigWallet.sol\":698:940  function exists(address oneOfowners) private view returns (bool) {... */\n    tag_36:\n        /* \"contracts/MultisigWallet.sol\":757:761  bool */\n      0x00\n        /* \"contracts/MultisigWallet.sol\":778:784  uint i */\n      dup1\n        /* \"contracts/MultisigWallet.sol\":787:788  0 */\n      0x00\n        /* \"contracts/MultisigWallet.sol\":778:788  uint i = 0 */\n      swap1\n      pop\n        /* \"contracts/MultisigWallet.sol\":773:912  for (uint i = 0; i < owners.length; i++) {... */\n    tag_103:\n        /* \"contracts/MultisigWallet.sol\":794:800  owners */\n      0x00\n        /* \"contracts/MultisigWallet.sol\":794:807  owners.length */\n      dup1\n      sload\n      swap1\n      pop\n        /* \"contracts/MultisigWallet.sol\":790:791  i */\n      dup2\n        /* \"contracts/MultisigWallet.sol\":790:807  i < owners.length */\n      lt\n        /* \"contracts/MultisigWallet.sol\":773:912  for (uint i = 0; i < owners.length; i++) {... */\n      iszero\n      tag_104\n      jumpi\n        /* \"contracts/MultisigWallet.sol\":845:856  oneOfowners */\n      dup3\n        /* \"contracts/MultisigWallet.sol\":832:856  owners[i] == oneOfowners */\n      0xffffffffffffffffffffffffffffffffffffffff\n      and\n        /* \"contracts/MultisigWallet.sol\":832:838  owners */\n      0x00\n        /* \"contracts/MultisigWallet.sol\":839:840  i */\n      dup3\n        /* \"contracts/MultisigWallet.sol\":832:841  owners[i] */\n      dup2\n      sload\n      dup2\n      lt\n      tag_106\n      jumpi\n      tag_107\n      tag_57\n      jump\t// in\n    tag_107:\n    tag_106:\n      swap1\n      0x00\n      mstore\n      keccak256(0x00, 0x20)\n      add\n      0x00\n      swap1\n      sload\n      swap1\n      0x0100\n      exp\n      swap1\n      div\n      0xffffffffffffffffffffffffffffffffffffffff\n      and\n        /* \"contracts/MultisigWallet.sol\":832:856  owners[i] == oneOfowners */\n      0xffffffffffffffffffffffffffffffffffffffff\n      and\n      sub\n        /* \"contracts/MultisigWallet.sol\":828:902  if (owners[i] == oneOfowners) {... */\n      tag_109\n      jumpi\n        /* \"contracts/MultisigWallet.sol\":883:887  true */\n      0x01\n        /* \"contracts/MultisigWallet.sol\":876:887  return true */\n      swap2\n      pop\n      pop\n      jump(tag_102)\n        /* \"contracts/MultisigWallet.sol\":828:902  if (owners[i] == oneOfowners) {... */\n    tag_109:\n        /* \"contracts/MultisigWallet.sol\":809:812  i++ */\n      dup1\n      dup1\n      tag_110\n      swap1\n      tag_83\n      jump\t// in\n    tag_110:\n      swap2\n      pop\n      pop\n        /* \"contracts/MultisigWallet.sol\":773:912  for (uint i = 0; i < owners.length; i++) {... */\n      jump(tag_103)\n    tag_104:\n      pop\n        /* \"contracts/MultisigWallet.sol\":928:933  false */\n      0x00\n        /* \"contracts/MultisigWallet.sol\":921:933  return false */\n      swap1\n      pop\n        /* \"contracts/MultisigWallet.sol\":698:940  function exists(address oneOfowners) private view returns (bool) {... */\n    tag_102:\n      swap2\n      swap1\n      pop\n      jump\t// out\n        /* \"contracts/MultisigWallet.sol\":3269:3811  function aprovedSuccess(uint _index) private onlyOwners {... */\n    tag_65:\n        /* \"contracts/MultisigWallet.sol\":608:626  exists(msg.sender) */\n      tag_112\n        /* \"contracts/MultisigWallet.sol\":615:625  msg.sender */\n      caller\n        /* \"contracts/MultisigWallet.sol\":608:614  exists */\n      tag_36\n        /* \"contracts/MultisigWallet.sol\":608:626  exists(msg.sender) */\n      jump\t// in\n    tag_112:\n        /* \"contracts/MultisigWallet.sol\":600:627  require(exists(msg.sender)) */\n      tag_113\n      jumpi\n      0x00\n      dup1\n      revert\n    tag_113:\n        /* \"contracts/MultisigWallet.sol\":3335:3349  transfersScope */\n      0x02\n        /* \"contracts/MultisigWallet.sol\":3350:3356  _index */\n      dup2\n        /* \"contracts/MultisigWallet.sol\":3335:3357  transfersScope[_index] */\n      dup2\n      sload\n      dup2\n      lt\n      tag_115\n      jumpi\n      tag_116\n      tag_57\n      jump\t// in\n    tag_116:\n    tag_115:\n      swap1\n      0x00\n      mstore\n      keccak256(0x00, 0x20)\n      swap1\n      0x05\n      mul\n      add\n        /* \"contracts/MultisigWallet.sol\":3335:3371  transfersScope[_index].ownersAproved */\n      0x04\n      add\n        /* \"contracts/MultisigWallet.sol\":3377:3387  msg.sender */\n      caller\n        /* \"contracts/MultisigWallet.sol\":3335:3388  transfersScope[_index].ownersAproved.push(msg.sender) */\n      swap1\n      dup1\n      0x01\n      dup2\n      sload\n      add\n      dup1\n      dup3\n      sstore\n      dup1\n      swap2\n      pop\n      pop\n      0x01\n      swap1\n      sub\n      swap1\n      0x00\n      mstore\n      keccak256(0x00, 0x20)\n      add\n      0x00\n      swap1\n      swap2\n      swap1\n      swap2\n      swap1\n      swap2\n      0x0100\n      exp\n      dup2\n      sload\n      dup2\n      0xffffffffffffffffffffffffffffffffffffffff\n      mul\n      not\n      and\n      swap1\n      dup4\n      0xffffffffffffffffffffffffffffffffffffffff\n      and\n      mul\n      or\n      swap1\n      sstore\n      pop\n        /* \"contracts/MultisigWallet.sol\":3501:3510  mininimum */\n      sload(0x01)\n        /* \"contracts/MultisigWallet.sol\":3454:3468  transfersScope */\n      0x02\n        /* \"contracts/MultisigWallet.sol\":3469:3475  _index */\n      dup3\n        /* \"contracts/MultisigWallet.sol\":3454:3476  transfersScope[_index] */\n      dup2\n      sload\n      dup2\n      lt\n      tag_119\n      jumpi\n      tag_120\n      tag_57\n      jump\t// in\n    tag_120:\n    tag_119:\n      swap1\n      0x00\n      mstore\n      keccak256(0x00, 0x20)\n      swap1\n      0x05\n      mul\n      add\n        /* \"contracts/MultisigWallet.sol\":3454:3490  transfersScope[_index].ownersAproved */\n      0x04\n      add\n        /* \"contracts/MultisigWallet.sol\":3454:3497  transfersScope[_index].ownersAproved.length */\n      dup1\n      sload\n      swap1\n      pop\n        /* \"contracts/MultisigWallet.sol\":3454:3510  transfersScope[_index].ownersAproved.length >= mininimum */\n      lt\n        /* \"contracts/MultisigWallet.sol\":3450:3805  if( transfersScope[_index].ownersAproved.length >= mininimum ) {... */\n      tag_122\n      jumpi\n        /* \"contracts/MultisigWallet.sol\":3532:3605  transfer(transfersScope[_index].recipient, transfersScope[_index].amount) */\n      tag_123\n        /* \"contracts/MultisigWallet.sol\":3541:3555  transfersScope */\n      0x02\n        /* \"contracts/MultisigWallet.sol\":3556:3562  _index */\n      dup3\n        /* \"contracts/MultisigWallet.sol\":3541:3563  transfersScope[_index] */\n      dup2\n      sload\n      dup2\n      lt\n      tag_124\n      jumpi\n      tag_125\n      tag_57\n      jump\t// in\n    tag_125:\n    tag_124:\n      swap1\n      0x00\n      mstore\n      keccak256(0x00, 0x20)\n      swap1\n      0x05\n      mul\n      add\n        /* \"contracts/MultisigWallet.sol\":3541:3573  transfersScope[_index].recipient */\n      0x01\n      add\n      0x00\n      swap1\n      sload\n      swap1\n      0x0100\n      exp\n      swap1\n      div\n      0xffffffffffffffffffffffffffffffffffffffff\n      and\n        /* \"contracts/MultisigWallet.sol\":3575:3589  transfersScope */\n      0x02\n        /* \"contracts/MultisigWallet.sol\":3590:3596  _index */\n      dup4\n        /* \"contracts/MultisigWallet.sol\":3575:3597  transfersScope[_index] */\n      dup2\n      sload\n      dup2\n      lt\n      tag_127\n      jumpi\n      tag_128\n      tag_57\n      jump\t// in\n    tag_128:\n    tag_127:\n      swap1\n      0x00\n      mstore\n      keccak256(0x00, 0x20)\n      swap1\n      0x05\n      mul\n      add\n        /* \"contracts/MultisigWallet.sol\":3575:3604  transfersScope[_index].amount */\n      0x02\n      add\n      sload\n        /* \"contracts/MultisigWallet.sol\":3532:3540  transfer */\n      tag_130\n        /* \"contracts/MultisigWallet.sol\":3532:3605  transfer(transfersScope[_index].recipient, transfersScope[_index].amount) */\n      jump\t// in\n    tag_123:\n        /* \"contracts/MultisigWallet.sol\":3527:3795  if ( transfer(transfersScope[_index].recipient, transfersScope[_index].amount) ) {... */\n      iszero\n      tag_131\n      jumpi\n        /* \"contracts/MultisigWallet.sol\":3659:3663  true */\n      0x01\n        /* \"contracts/MultisigWallet.sol\":3626:3640  transfersScope */\n      0x02\n        /* \"contracts/MultisigWallet.sol\":3641:3647  _index */\n      dup3\n        /* \"contracts/MultisigWallet.sol\":3626:3648  transfersScope[_index] */\n      dup2\n      sload\n      dup2\n      lt\n      tag_132\n      jumpi\n      tag_133\n      tag_57\n      jump\t// in\n    tag_133:\n    tag_132:\n      swap1\n      0x00\n      mstore\n      keccak256(0x00, 0x20)\n      swap1\n      0x05\n      mul\n      add\n        /* \"contracts/MultisigWallet.sol\":3626:3656  transfersScope[_index].tnxSent */\n      0x03\n      add\n      0x00\n        /* \"contracts/MultisigWallet.sol\":3626:3663  transfersScope[_index].tnxSent = true */\n      0x0100\n      exp\n      dup2\n      sload\n      dup2\n      0xff\n      mul\n      not\n      and\n      swap1\n      dup4\n      iszero\n      iszero\n      mul\n      or\n      swap1\n      sstore\n      pop\n        /* \"contracts/MultisigWallet.sol\":3735:3745  msg.sender */\n      caller\n        /* \"contracts/MultisigWallet.sol\":3686:3780  transferedAmounts(transfersScope[_index].amount, msg.sender, transfersScope[_index].recipient) */\n      0xffffffffffffffffffffffffffffffffffffffff\n      and\n      0xbf4321ab09496f0dd20158dca7b8ec3b797c0085edfd58f98454ad82b61e7a0a\n        /* \"contracts/MultisigWallet.sol\":3704:3718  transfersScope */\n      0x02\n        /* \"contracts/MultisigWallet.sol\":3719:3725  _index */\n      dup4\n        /* \"contracts/MultisigWallet.sol\":3704:3726  transfersScope[_index] */\n      dup2\n      sload\n      dup2\n      lt\n      tag_135\n      jumpi\n      tag_136\n      tag_57\n      jump\t// in\n    tag_136:\n    tag_135:\n      swap1\n      0x00\n      mstore\n      keccak256(0x00, 0x20)\n      swap1\n      0x05\n      mul\n      add\n        /* \"contracts/MultisigWallet.sol\":3704:3733  transfersScope[_index].amount */\n      0x02\n      add\n      sload\n        /* \"contracts/MultisigWallet.sol\":3747:3761  transfersScope */\n      0x02\n        /* \"contracts/MultisigWallet.sol\":3762:3768  _index */\n      dup5\n        /* \"contracts/MultisigWallet.sol\":3747:3769  transfersScope[_index] */\n      dup2\n      sload\n      dup2\n      lt\n      tag_138\n      jumpi\n      tag_139\n      tag_57\n      jump\t// in\n    tag_139:\n    tag_138:\n      swap1\n      0x00\n      mstore\n      keccak256(0x00, 0x20)\n      swap1\n      0x05\n      mul\n      add\n        /* \"contracts/MultisigWallet.sol\":3747:3779  transfersScope[_index].recipient */\n      0x01\n      add\n      0x00\n      swap1\n      sload\n      swap1\n      0x0100\n      exp\n      swap1\n      div\n      0xffffffffffffffffffffffffffffffffffffffff\n      and\n        /* \"contracts/MultisigWallet.sol\":3686:3780  transferedAmounts(transfersScope[_index].amount, msg.sender, transfersScope[_index].recipient) */\n      mload(0x40)\n      tag_141\n      swap3\n      swap2\n      swap1\n      tag_142\n      jump\t// in\n    tag_141:\n      mload(0x40)\n      dup1\n      swap2\n      sub\n      swap1\n      log2\n        /* \"contracts/MultisigWallet.sol\":3527:3795  if ( transfer(transfersScope[_index].recipient, transfersScope[_index].amount) ) {... */\n    tag_131:\n        /* \"contracts/MultisigWallet.sol\":3450:3805  if( transfersScope[_index].ownersAproved.length >= mininimum ) {... */\n    tag_122:\n        /* \"contracts/MultisigWallet.sol\":3269:3811  function aprovedSuccess(uint _index) private onlyOwners {... */\n      pop\n      jump\t// out\n        /* \"contracts/MultisigWallet.sol\":3860:4326  function transfer(address recipient, uint amount) private onlyOwners returns(bool){... */\n    tag_130:\n        /* \"contracts/MultisigWallet.sol\":3937:3941  bool */\n      0x00\n        /* \"contracts/MultisigWallet.sol\":608:626  exists(msg.sender) */\n      tag_144\n        /* \"contracts/MultisigWallet.sol\":615:625  msg.sender */\n      caller\n        /* \"contracts/MultisigWallet.sol\":608:614  exists */\n      tag_36\n        /* \"contracts/MultisigWallet.sol\":608:626  exists(msg.sender) */\n      jump\t// in\n    tag_144:\n        /* \"contracts/MultisigWallet.sol\":600:627  require(exists(msg.sender)) */\n      tag_145\n      jumpi\n      0x00\n      dup1\n      revert\n    tag_145:\n        /* \"contracts/MultisigWallet.sol\":4010:4019  recipient */\n      dup3\n        /* \"contracts/MultisigWallet.sol\":3996:4019  msg.sender != recipient */\n      0xffffffffffffffffffffffffffffffffffffffff\n      and\n        /* \"contracts/MultisigWallet.sol\":3996:4006  msg.sender */\n      caller\n        /* \"contracts/MultisigWallet.sol\":3996:4019  msg.sender != recipient */\n      0xffffffffffffffffffffffffffffffffffffffff\n      and\n      sub\n        /* \"contracts/MultisigWallet.sol\":3988:4057  require(msg.sender != recipient, \"You can't send money to yourself.\") */\n      tag_147\n      jumpi\n      mload(0x40)\n      0x08c379a000000000000000000000000000000000000000000000000000000000\n      dup2\n      mstore\n      0x04\n      add\n      tag_148\n      swap1\n      tag_149\n      jump\t// in\n    tag_148:\n      mload(0x40)\n      dup1\n      swap2\n      sub\n      swap1\n      revert\n    tag_147:\n        /* \"contracts/MultisigWallet.sol\":4068:4094  uint previousSenderBalance */\n      0x00\n        /* \"contracts/MultisigWallet.sol\":4097:4118  address(this).balance */\n      selfbalance\n        /* \"contracts/MultisigWallet.sol\":4068:4118  uint previousSenderBalance = address(this).balance */\n      swap1\n      pop\n        /* \"contracts/MultisigWallet.sol\":4137:4146  recipient */\n      dup4\n        /* \"contracts/MultisigWallet.sol\":4128:4156  payable (recipient).transfer */\n      0xffffffffffffffffffffffffffffffffffffffff\n      and\n        /* \"contracts/MultisigWallet.sol\":4128:4164  payable (recipient).transfer(amount) */\n      0x08fc\n        /* \"contracts/MultisigWallet.sol\":4157:4163  amount */\n      dup5\n        /* \"contracts/MultisigWallet.sol\":4128:4164  payable (recipient).transfer(amount) */\n      swap1\n      dup2\n      iszero\n      mul\n      swap1\n      mload(0x40)\n      0x00\n      mload(0x40)\n      dup1\n      dup4\n      sub\n      dup2\n      dup6\n      dup9\n      dup9\n      call\n      swap4\n      pop\n      pop\n      pop\n      pop\n      iszero\n      dup1\n      iszero\n      tag_151\n      jumpi\n      returndatasize\n      0x00\n      dup1\n      returndatacopy\n      revert(0x00, returndatasize)\n    tag_151:\n      pop\n        /* \"contracts/MultisigWallet.sol\":4230:4236  amount */\n      dup3\n        /* \"contracts/MultisigWallet.sol\":4206:4227  previousSenderBalance */\n      dup2\n        /* \"contracts/MultisigWallet.sol\":4206:4236  previousSenderBalance - amount */\n      tag_152\n      swap2\n      swap1\n      tag_43\n      jump\t// in\n    tag_152:\n        /* \"contracts/MultisigWallet.sol\":4181:4202  address(this).balance */\n      selfbalance\n        /* \"contracts/MultisigWallet.sol\":4181:4236  address(this).balance == previousSenderBalance - amount */\n      sub\n        /* \"contracts/MultisigWallet.sol\":4175:4319  if ( (address(this).balance == previousSenderBalance - amount) ) {... */\n      tag_153\n      jumpi\n        /* \"contracts/MultisigWallet.sol\":4261:4265  true */\n      0x01\n        /* \"contracts/MultisigWallet.sol\":4254:4265  return true */\n      swap2\n      pop\n      pop\n      jump(tag_146)\n        /* \"contracts/MultisigWallet.sol\":4175:4319  if ( (address(this).balance == previousSenderBalance - amount) ) {... */\n    tag_153:\n        /* \"contracts/MultisigWallet.sol\":4303:4308  false */\n      0x00\n        /* \"contracts/MultisigWallet.sol\":4296:4308  return false */\n      swap2\n      pop\n      pop\n        /* \"contracts/MultisigWallet.sol\":637:638  _ */\n    tag_146:\n        /* \"contracts/MultisigWallet.sol\":3860:4326  function transfer(address recipient, uint amount) private onlyOwners returns(bool){... */\n      swap3\n      swap2\n      pop\n      pop\n      jump\t// out\n    tag_41:\n      dup3\n      dup1\n      sload\n      dup3\n      dup3\n      sstore\n      swap1\n      0x00\n      mstore\n      keccak256(0x00, 0x20)\n      swap1\n      dup2\n      add\n      swap3\n      dup3\n      iszero\n      tag_155\n      jumpi\n      swap2\n      0x20\n      mul\n      dup3\n      add\n    tag_156:\n      dup3\n      dup2\n      gt\n      iszero\n      tag_157\n      jumpi\n      dup3\n      mload\n      dup3\n      exp(0x0100, 0x00)\n      dup2\n      sload\n      dup2\n      0xffffffffffffffffffffffffffffffffffffffff\n      mul\n      not\n      and\n      swap1\n      dup4\n      0xffffffffffffffffffffffffffffffffffffffff\n      and\n      mul\n      or\n      swap1\n      sstore\n      pop\n      swap2\n      0x20\n      add\n      swap2\n      swap1\n      0x01\n      add\n      swap1\n      jump(tag_156)\n    tag_157:\n    tag_155:\n      pop\n      swap1\n      pop\n      tag_158\n      swap2\n      swap1\n      tag_159\n      jump\t// in\n    tag_158:\n      pop\n      swap1\n      jump\t// out\n    tag_159:\n    tag_160:\n      dup1\n      dup3\n      gt\n      iszero\n      tag_161\n      jumpi\n      0x00\n      dup2\n      0x00\n      swap1\n      sstore\n      pop\n      0x01\n      add\n      jump(tag_160)\n    tag_161:\n      pop\n      swap1\n      jump\t// out\n        /* \"#utility.yul\":7:84   */\n    tag_162:\n        /* \"#utility.yul\":44:51   */\n      0x00\n        /* \"#utility.yul\":73:78   */\n      dup2\n        /* \"#utility.yul\":62:78   */\n      swap1\n      pop\n        /* \"#utility.yul\":7:84   */\n      swap2\n      swap1\n      pop\n      jump\t// out\n        /* \"#utility.yul\":90:208   */\n    tag_163:\n        /* \"#utility.yul\":177:201   */\n      tag_206\n        /* \"#utility.yul\":195:200   */\n      dup2\n        /* \"#utility.yul\":177:201   */\n      tag_162\n      jump\t// in\n    tag_206:\n        /* \"#utility.yul\":172:175   */\n      dup3\n        /* \"#utility.yul\":165:202   */\n      mstore\n        /* \"#utility.yul\":90:208   */\n      pop\n      pop\n      jump\t// out\n        /* \"#utility.yul\":214:436   */\n    tag_11:\n        /* \"#utility.yul\":307:311   */\n      0x00\n        /* \"#utility.yul\":345:347   */\n      0x20\n        /* \"#utility.yul\":334:343   */\n      dup3\n        /* \"#utility.yul\":330:348   */\n      add\n        /* \"#utility.yul\":322:348   */\n      swap1\n      pop\n        /* \"#utility.yul\":358:429   */\n      tag_208\n        /* \"#utility.yul\":426:427   */\n      0x00\n        /* \"#utility.yul\":415:424   */\n      dup4\n        /* \"#utility.yul\":411:428   */\n      add\n        /* \"#utility.yul\":402:408   */\n      dup5\n        /* \"#utility.yul\":358:429   */\n      tag_163\n      jump\t// in\n    tag_208:\n        /* \"#utility.yul\":214:436   */\n      swap3\n      swap2\n      pop\n      pop\n      jump\t// out\n        /* \"#utility.yul\":523:640   */\n    tag_165:\n        /* \"#utility.yul\":632:633   */\n      0x00\n        /* \"#utility.yul\":629:630   */\n      dup1\n        /* \"#utility.yul\":622:634   */\n      revert\n        /* \"#utility.yul\":769:895   */\n    tag_167:\n        /* \"#utility.yul\":806:813   */\n      0x00\n        /* \"#utility.yul\":846:888   */\n      0xffffffffffffffffffffffffffffffffffffffff\n        /* \"#utility.yul\":839:844   */\n      dup3\n        /* \"#utility.yul\":835:889   */\n      and\n        /* \"#utility.yul\":824:889   */\n      swap1\n      pop\n        /* \"#utility.yul\":769:895   */\n      swap2\n      swap1\n      pop\n      jump\t// out\n        /* \"#utility.yul\":901:997   */\n    tag_168:\n        /* \"#utility.yul\":938:945   */\n      0x00\n        /* \"#utility.yul\":967:991   */\n      tag_214\n        /* \"#utility.yul\":985:990   */\n      dup3\n        /* \"#utility.yul\":967:991   */\n      tag_167\n      jump\t// in\n    tag_214:\n        /* \"#utility.yul\":956:991   */\n      swap1\n      pop\n        /* \"#utility.yul\":901:997   */\n      swap2\n      swap1\n      pop\n      jump\t// out\n        /* \"#utility.yul\":1003:1125   */\n    tag_169:\n        /* \"#utility.yul\":1076:1100   */\n      tag_216\n        /* \"#utility.yul\":1094:1099   */\n      dup2\n        /* \"#utility.yul\":1076:1100   */\n      tag_168\n      jump\t// in\n    tag_216:\n        /* \"#utility.yul\":1069:1074   */\n      dup2\n        /* \"#utility.yul\":1066:1101   */\n      eq\n        /* \"#utility.yul\":1056:1119   */\n      tag_217\n      jumpi\n        /* \"#utility.yul\":1115:1116   */\n      0x00\n        /* \"#utility.yul\":1112:1113   */\n      dup1\n        /* \"#utility.yul\":1105:1117   */\n      revert\n        /* \"#utility.yul\":1056:1119   */\n    tag_217:\n        /* \"#utility.yul\":1003:1125   */\n      pop\n      jump\t// out\n        /* \"#utility.yul\":1131:1270   */\n    tag_170:\n        /* \"#utility.yul\":1177:1182   */\n      0x00\n        /* \"#utility.yul\":1215:1221   */\n      dup2\n        /* \"#utility.yul\":1202:1222   */\n      calldataload\n        /* \"#utility.yul\":1193:1222   */\n      swap1\n      pop\n        /* \"#utility.yul\":1231:1264   */\n      tag_219\n        /* \"#utility.yul\":1258:1263   */\n      dup2\n        /* \"#utility.yul\":1231:1264   */\n      tag_169\n      jump\t// in\n    tag_219:\n        /* \"#utility.yul\":1131:1270   */\n      swap3\n      swap2\n      pop\n      pop\n      jump\t// out\n        /* \"#utility.yul\":1276:1398   */\n    tag_171:\n        /* \"#utility.yul\":1349:1373   */\n      tag_221\n        /* \"#utility.yul\":1367:1372   */\n      dup2\n        /* \"#utility.yul\":1349:1373   */\n      tag_162\n      jump\t// in\n    tag_221:\n        /* \"#utility.yul\":1342:1347   */\n      dup2\n        /* \"#utility.yul\":1339:1374   */\n      eq\n        /* \"#utility.yul\":1329:1392   */\n      tag_222\n      jumpi\n        /* \"#utility.yul\":1388:1389   */\n      0x00\n        /* \"#utility.yul\":1385:1386   */\n      dup1\n        /* \"#utility.yul\":1378:1390   */\n      revert\n        /* \"#utility.yul\":1329:1392   */\n    tag_222:\n        /* \"#utility.yul\":1276:1398   */\n      pop\n      jump\t// out\n        /* \"#utility.yul\":1404:1543   */\n    tag_172:\n        /* \"#utility.yul\":1450:1455   */\n      0x00\n        /* \"#utility.yul\":1488:1494   */\n      dup2\n        /* \"#utility.yul\":1475:1495   */\n      calldataload\n        /* \"#utility.yul\":1466:1495   */\n      swap1\n      pop\n        /* \"#utility.yul\":1504:1537   */\n      tag_224\n        /* \"#utility.yul\":1531:1536   */\n      dup2\n        /* \"#utility.yul\":1504:1537   */\n      tag_171\n      jump\t// in\n    tag_224:\n        /* \"#utility.yul\":1404:1543   */\n      swap3\n      swap2\n      pop\n      pop\n      jump\t// out\n        /* \"#utility.yul\":1549:2023   */\n    tag_15:\n        /* \"#utility.yul\":1617:1623   */\n      0x00\n        /* \"#utility.yul\":1625:1631   */\n      dup1\n        /* \"#utility.yul\":1674:1676   */\n      0x40\n        /* \"#utility.yul\":1662:1671   */\n      dup4\n        /* \"#utility.yul\":1653:1660   */\n      dup6\n        /* \"#utility.yul\":1649:1672   */\n      sub\n        /* \"#utility.yul\":1645:1677   */\n      slt\n        /* \"#utility.yul\":1642:1761   */\n      iszero\n      tag_226\n      jumpi\n        /* \"#utility.yul\":1680:1759   */\n      tag_227\n      tag_165\n      jump\t// in\n    tag_227:\n        /* \"#utility.yul\":1642:1761   */\n    tag_226:\n        /* \"#utility.yul\":1800:1801   */\n      0x00\n        /* \"#utility.yul\":1825:1878   */\n      tag_228\n        /* \"#utility.yul\":1870:1877   */\n      dup6\n        /* \"#utility.yul\":1861:1867   */\n      dup3\n        /* \"#utility.yul\":1850:1859   */\n      dup7\n        /* \"#utility.yul\":1846:1868   */\n      add\n        /* \"#utility.yul\":1825:1878   */\n      tag_170\n      jump\t// in\n    tag_228:\n        /* \"#utility.yul\":1815:1878   */\n      swap3\n      pop\n        /* \"#utility.yul\":1771:1888   */\n      pop\n        /* \"#utility.yul\":1927:1929   */\n      0x20\n        /* \"#utility.yul\":1953:2006   */\n      tag_229\n        /* \"#utility.yul\":1998:2005   */\n      dup6\n        /* \"#utility.yul\":1989:1995   */\n      dup3\n        /* \"#utility.yul\":1978:1987   */\n      dup7\n        /* \"#utility.yul\":1974:1996   */\n      add\n        /* \"#utility.yul\":1953:2006   */\n      tag_172\n      jump\t// in\n    tag_229:\n        /* \"#utility.yul\":1943:2006   */\n      swap2\n      pop\n        /* \"#utility.yul\":1898:2016   */\n      pop\n        /* \"#utility.yul\":1549:2023   */\n      swap3\n      pop\n      swap3\n      swap1\n      pop\n      jump\t// out\n        /* \"#utility.yul\":2029:2167   */\n    tag_173:\n        /* \"#utility.yul\":2120:2126   */\n      0x00\n        /* \"#utility.yul\":2154:2159   */\n      dup2\n        /* \"#utility.yul\":2148:2160   */\n      mload\n        /* \"#utility.yul\":2138:2160   */\n      swap1\n      pop\n        /* \"#utility.yul\":2029:2167   */\n      swap2\n      swap1\n      pop\n      jump\t// out\n        /* \"#utility.yul\":2173:2381   */\n    tag_174:\n        /* \"#utility.yul\":2296:2307   */\n      0x00\n        /* \"#utility.yul\":2330:2336   */\n      dup3\n        /* \"#utility.yul\":2325:2328   */\n      dup3\n        /* \"#utility.yul\":2318:2337   */\n      mstore\n        /* \"#utility.yul\":2370:2374   */\n      0x20\n        /* \"#utility.yul\":2365:2368   */\n      dup3\n        /* \"#utility.yul\":2361:2375   */\n      add\n        /* \"#utility.yul\":2346:2375   */\n      swap1\n      pop\n        /* \"#utility.yul\":2173:2381   */\n      swap3\n      swap2\n      pop\n      pop\n      jump\t// out\n        /* \"#utility.yul\":2387:2543   */\n    tag_175:\n        /* \"#utility.yul\":2478:2482   */\n      0x00\n        /* \"#utility.yul\":2501:2504   */\n      dup2\n        /* \"#utility.yul\":2493:2504   */\n      swap1\n      pop\n        /* \"#utility.yul\":2531:2535   */\n      0x20\n        /* \"#utility.yul\":2526:2529   */\n      dup3\n        /* \"#utility.yul\":2522:2536   */\n      add\n        /* \"#utility.yul\":2514:2536   */\n      swap1\n      pop\n        /* \"#utility.yul\":2387:2543   */\n      swap2\n      swap1\n      pop\n      jump\t// out\n        /* \"#utility.yul\":2549:2653   */\n    tag_176:\n        /* \"#utility.yul\":2594:2601   */\n      0x00\n        /* \"#utility.yul\":2623:2647   */\n      tag_234\n        /* \"#utility.yul\":2641:2646   */\n      dup3\n        /* \"#utility.yul\":2623:2647   */\n      tag_167\n      jump\t// in\n    tag_234:\n        /* \"#utility.yul\":2612:2647   */\n      swap1\n      pop\n        /* \"#utility.yul\":2549:2653   */\n      swap2\n      swap1\n      pop\n      jump\t// out\n        /* \"#utility.yul\":2659:2791   */\n    tag_177:\n        /* \"#utility.yul\":2752:2784   */\n      tag_236\n        /* \"#utility.yul\":2778:2783   */\n      dup2\n        /* \"#utility.yul\":2752:2784   */\n      tag_176\n      jump\t// in\n    tag_236:\n        /* \"#utility.yul\":2747:2750   */\n      dup3\n        /* \"#utility.yul\":2740:2785   */\n      mstore\n        /* \"#utility.yul\":2659:2791   */\n      pop\n      pop\n      jump\t// out\n        /* \"#utility.yul\":2797:2905   */\n    tag_178:\n        /* \"#utility.yul\":2874:2898   */\n      tag_238\n        /* \"#utility.yul\":2892:2897   */\n      dup2\n        /* \"#utility.yul\":2874:2898   */\n      tag_162\n      jump\t// in\n    tag_238:\n        /* \"#utility.yul\":2869:2872   */\n      dup3\n        /* \"#utility.yul\":2862:2899   */\n      mstore\n        /* \"#utility.yul\":2797:2905   */\n      pop\n      pop\n      jump\t// out\n        /* \"#utility.yul\":2911:3001   */\n    tag_179:\n        /* \"#utility.yul\":2945:2952   */\n      0x00\n        /* \"#utility.yul\":2988:2993   */\n      dup2\n        /* \"#utility.yul\":2981:2994   */\n      iszero\n        /* \"#utility.yul\":2974:2995   */\n      iszero\n        /* \"#utility.yul\":2963:2995   */\n      swap1\n      pop\n        /* \"#utility.yul\":2911:3001   */\n      swap2\n      swap1\n      pop\n      jump\t// out\n        /* \"#utility.yul\":3007:3106   */\n    tag_180:\n        /* \"#utility.yul\":3078:3099   */\n      tag_241\n        /* \"#utility.yul\":3093:3098   */\n      dup2\n        /* \"#utility.yul\":3078:3099   */\n      tag_179\n      jump\t// in\n    tag_241:\n        /* \"#utility.yul\":3073:3076   */\n      dup3\n        /* \"#utility.yul\":3066:3100   */\n      mstore\n        /* \"#utility.yul\":3007:3106   */\n      pop\n      pop\n      jump\t// out\n        /* \"#utility.yul\":3112:3226   */\n    tag_181:\n        /* \"#utility.yul\":3179:3185   */\n      0x00\n        /* \"#utility.yul\":3213:3218   */\n      dup2\n        /* \"#utility.yul\":3207:3219   */\n      mload\n        /* \"#utility.yul\":3197:3219   */\n      swap1\n      pop\n        /* \"#utility.yul\":3112:3226   */\n      swap2\n      swap1\n      pop\n      jump\t// out\n        /* \"#utility.yul\":3232:3406   */\n    tag_182:\n        /* \"#utility.yul\":3321:3332   */\n      0x00\n        /* \"#utility.yul\":3355:3361   */\n      dup3\n        /* \"#utility.yul\":3350:3353   */\n      dup3\n        /* \"#utility.yul\":3343:3362   */\n      mstore\n        /* \"#utility.yul\":3395:3399   */\n      0x20\n        /* \"#utility.yul\":3390:3393   */\n      dup3\n        /* \"#utility.yul\":3386:3400   */\n      add\n        /* \"#utility.yul\":3371:3400   */\n      swap1\n      pop\n        /* \"#utility.yul\":3232:3406   */\n      swap3\n      swap2\n      pop\n      pop\n      jump\t// out\n        /* \"#utility.yul\":3412:3544   */\n    tag_183:\n        /* \"#utility.yul\":3479:3483   */\n      0x00\n        /* \"#utility.yul\":3502:3505   */\n      dup2\n        /* \"#utility.yul\":3494:3505   */\n      swap1\n      pop\n        /* \"#utility.yul\":3532:3536   */\n      0x20\n        /* \"#utility.yul\":3527:3530   */\n      dup3\n        /* \"#utility.yul\":3523:3537   */\n      add\n        /* \"#utility.yul\":3515:3537   */\n      swap1\n      pop\n        /* \"#utility.yul\":3412:3544   */\n      swap2\n      swap1\n      pop\n      jump\t// out\n        /* \"#utility.yul\":3550:3658   */\n    tag_184:\n        /* \"#utility.yul\":3627:3651   */\n      tag_246\n        /* \"#utility.yul\":3645:3650   */\n      dup2\n        /* \"#utility.yul\":3627:3651   */\n      tag_168\n      jump\t// in\n    tag_246:\n        /* \"#utility.yul\":3622:3625   */\n      dup3\n        /* \"#utility.yul\":3615:3652   */\n      mstore\n        /* \"#utility.yul\":3550:3658   */\n      pop\n      pop\n      jump\t// out\n        /* \"#utility.yul\":3664:3843   */\n    tag_185:\n        /* \"#utility.yul\":3733:3743   */\n      0x00\n        /* \"#utility.yul\":3754:3800   */\n      tag_248\n        /* \"#utility.yul\":3796:3799   */\n      dup4\n        /* \"#utility.yul\":3788:3794   */\n      dup4\n        /* \"#utility.yul\":3754:3800   */\n      tag_184\n      jump\t// in\n    tag_248:\n        /* \"#utility.yul\":3832:3836   */\n      0x20\n        /* \"#utility.yul\":3827:3830   */\n      dup4\n        /* \"#utility.yul\":3823:3837   */\n      add\n        /* \"#utility.yul\":3809:3837   */\n      swap1\n      pop\n        /* \"#utility.yul\":3664:3843   */\n      swap3\n      swap2\n      pop\n      pop\n      jump\t// out\n        /* \"#utility.yul\":3849:3962   */\n    tag_186:\n        /* \"#utility.yul\":3919:3923   */\n      0x00\n        /* \"#utility.yul\":3951:3955   */\n      0x20\n        /* \"#utility.yul\":3946:3949   */\n      dup3\n        /* \"#utility.yul\":3942:3956   */\n      add\n        /* \"#utility.yul\":3934:3956   */\n      swap1\n      pop\n        /* \"#utility.yul\":3849:3962   */\n      swap2\n      swap1\n      pop\n      jump\t// out\n        /* \"#utility.yul\":3998:4710   */\n    tag_187:\n        /* \"#utility.yul\":4107:4110   */\n      0x00\n        /* \"#utility.yul\":4136:4190   */\n      tag_251\n        /* \"#utility.yul\":4184:4189   */\n      dup3\n        /* \"#utility.yul\":4136:4190   */\n      tag_181\n      jump\t// in\n    tag_251:\n        /* \"#utility.yul\":4206:4282   */\n      tag_252\n        /* \"#utility.yul\":4275:4281   */\n      dup2\n        /* \"#utility.yul\":4270:4273   */\n      dup6\n        /* \"#utility.yul\":4206:4282   */\n      tag_182\n      jump\t// in\n    tag_252:\n        /* \"#utility.yul\":4199:4282   */\n      swap4\n      pop\n        /* \"#utility.yul\":4306:4362   */\n      tag_253\n        /* \"#utility.yul\":4356:4361   */\n      dup4\n        /* \"#utility.yul\":4306:4362   */\n      tag_183\n      jump\t// in\n    tag_253:\n        /* \"#utility.yul\":4385:4392   */\n      dup1\n        /* \"#utility.yul\":4416:4417   */\n      0x00\n        /* \"#utility.yul\":4401:4685   */\n    tag_254:\n        /* \"#utility.yul\":4426:4432   */\n      dup4\n        /* \"#utility.yul\":4423:4424   */\n      dup2\n        /* \"#utility.yul\":4420:4433   */\n      lt\n        /* \"#utility.yul\":4401:4685   */\n      iszero\n      tag_256\n      jumpi\n        /* \"#utility.yul\":4502:4508   */\n      dup2\n        /* \"#utility.yul\":4496:4509   */\n      mload\n        /* \"#utility.yul\":4529:4592   */\n      tag_257\n        /* \"#utility.yul\":4588:4591   */\n      dup9\n        /* \"#utility.yul\":4573:4586   */\n      dup3\n        /* \"#utility.yul\":4529:4592   */\n      tag_185\n      jump\t// in\n    tag_257:\n        /* \"#utility.yul\":4522:4592   */\n      swap8\n      pop\n        /* \"#utility.yul\":4615:4675   */\n      tag_258\n        /* \"#utility.yul\":4668:4674   */\n      dup4\n        /* \"#utility.yul\":4615:4675   */\n      tag_186\n      jump\t// in\n    tag_258:\n        /* \"#utility.yul\":4605:4675   */\n      swap3\n      pop\n        /* \"#utility.yul\":4461:4685   */\n      pop\n        /* \"#utility.yul\":4448:4449   */\n      0x01\n        /* \"#utility.yul\":4445:4446   */\n      dup2\n        /* \"#utility.yul\":4441:4450   */\n      add\n        /* \"#utility.yul\":4436:4450   */\n      swap1\n      pop\n        /* \"#utility.yul\":4401:4685   */\n      jump(tag_254)\n    tag_256:\n        /* \"#utility.yul\":4405:4419   */\n      pop\n        /* \"#utility.yul\":4701:4704   */\n      dup6\n        /* \"#utility.yul\":4694:4704   */\n      swap4\n      pop\n        /* \"#utility.yul\":4112:4710   */\n      pop\n      pop\n      pop\n        /* \"#utility.yul\":3998:4710   */\n      swap3\n      swap2\n      pop\n      pop\n      jump\t// out\n        /* \"#utility.yul\":4788:5981   */\n    tag_188:\n        /* \"#utility.yul\":4895:4898   */\n      0x00\n        /* \"#utility.yul\":4931:4935   */\n      0xa0\n        /* \"#utility.yul\":4926:4929   */\n      dup4\n        /* \"#utility.yul\":4922:4936   */\n      add\n        /* \"#utility.yul\":5020:5024   */\n      0x00\n        /* \"#utility.yul\":5013:5018   */\n      dup4\n        /* \"#utility.yul\":5009:5025   */\n      add\n        /* \"#utility.yul\":5003:5026   */\n      mload\n        /* \"#utility.yul\":5039:5118   */\n      tag_260\n        /* \"#utility.yul\":5112:5116   */\n      0x00\n        /* \"#utility.yul\":5107:5110   */\n      dup7\n        /* \"#utility.yul\":5103:5117   */\n      add\n        /* \"#utility.yul\":5089:5101   */\n      dup3\n        /* \"#utility.yul\":5039:5118   */\n      tag_177\n      jump\t// in\n    tag_260:\n        /* \"#utility.yul\":4946:5128   */\n      pop\n        /* \"#utility.yul\":5215:5219   */\n      0x20\n        /* \"#utility.yul\":5208:5213   */\n      dup4\n        /* \"#utility.yul\":5204:5220   */\n      add\n        /* \"#utility.yul\":5198:5221   */\n      mload\n        /* \"#utility.yul\":5234:5313   */\n      tag_261\n        /* \"#utility.yul\":5307:5311   */\n      0x20\n        /* \"#utility.yul\":5302:5305   */\n      dup7\n        /* \"#utility.yul\":5298:5312   */\n      add\n        /* \"#utility.yul\":5284:5296   */\n      dup3\n        /* \"#utility.yul\":5234:5313   */\n      tag_177\n      jump\t// in\n    tag_261:\n        /* \"#utility.yul\":5138:5323   */\n      pop\n        /* \"#utility.yul\":5407:5411   */\n      0x40\n        /* \"#utility.yul\":5400:5405   */\n      dup4\n        /* \"#utility.yul\":5396:5412   */\n      add\n        /* \"#utility.yul\":5390:5413   */\n      mload\n        /* \"#utility.yul\":5426:5489   */\n      tag_262\n        /* \"#utility.yul\":5483:5487   */\n      0x40\n        /* \"#utility.yul\":5478:5481   */\n      dup7\n        /* \"#utility.yul\":5474:5488   */\n      add\n        /* \"#utility.yul\":5460:5472   */\n      dup3\n        /* \"#utility.yul\":5426:5489   */\n      tag_178\n      jump\t// in\n    tag_262:\n        /* \"#utility.yul\":5333:5499   */\n      pop\n        /* \"#utility.yul\":5584:5588   */\n      0x60\n        /* \"#utility.yul\":5577:5582   */\n      dup4\n        /* \"#utility.yul\":5573:5589   */\n      add\n        /* \"#utility.yul\":5567:5590   */\n      mload\n        /* \"#utility.yul\":5603:5660   */\n      tag_263\n        /* \"#utility.yul\":5654:5658   */\n      0x60\n        /* \"#utility.yul\":5649:5652   */\n      dup7\n        /* \"#utility.yul\":5645:5659   */\n      add\n        /* \"#utility.yul\":5631:5643   */\n      dup3\n        /* \"#utility.yul\":5603:5660   */\n      tag_180\n      jump\t// in\n    tag_263:\n        /* \"#utility.yul\":5509:5670   */\n      pop\n        /* \"#utility.yul\":5761:5765   */\n      0x80\n        /* \"#utility.yul\":5754:5759   */\n      dup4\n        /* \"#utility.yul\":5750:5766   */\n      add\n        /* \"#utility.yul\":5744:5767   */\n      mload\n        /* \"#utility.yul\":5814:5817   */\n      dup5\n        /* \"#utility.yul\":5808:5812   */\n      dup3\n        /* \"#utility.yul\":5804:5818   */\n      sub\n        /* \"#utility.yul\":5797:5801   */\n      0x80\n        /* \"#utility.yul\":5792:5795   */\n      dup7\n        /* \"#utility.yul\":5788:5802   */\n      add\n        /* \"#utility.yul\":5781:5819   */\n      mstore\n        /* \"#utility.yul\":5840:5943   */\n      tag_264\n        /* \"#utility.yul\":5938:5942   */\n      dup3\n        /* \"#utility.yul\":5924:5936   */\n      dup3\n        /* \"#utility.yul\":5840:5943   */\n      tag_187\n      jump\t// in\n    tag_264:\n        /* \"#utility.yul\":5832:5943   */\n      swap2\n      pop\n        /* \"#utility.yul\":5680:5954   */\n      pop\n        /* \"#utility.yul\":5971:5975   */\n      dup1\n        /* \"#utility.yul\":5964:5975   */\n      swap2\n      pop\n        /* \"#utility.yul\":4900:5981   */\n      pop\n        /* \"#utility.yul\":4788:5981   */\n      swap3\n      swap2\n      pop\n      pop\n      jump\t// out\n        /* \"#utility.yul\":5987:6239   */\n    tag_189:\n        /* \"#utility.yul\":6104:6114   */\n      0x00\n        /* \"#utility.yul\":6139:6233   */\n      tag_266\n        /* \"#utility.yul\":6229:6232   */\n      dup4\n        /* \"#utility.yul\":6221:6227   */\n      dup4\n        /* \"#utility.yul\":6139:6233   */\n      tag_188\n      jump\t// in\n    tag_266:\n        /* \"#utility.yul\":6125:6233   */\n      swap1\n      pop\n        /* \"#utility.yul\":5987:6239   */\n      swap3\n      swap2\n      pop\n      pop\n      jump\t// out\n        /* \"#utility.yul\":6245:6382   */\n    tag_190:\n        /* \"#utility.yul\":6339:6343   */\n      0x00\n        /* \"#utility.yul\":6371:6375   */\n      0x20\n        /* \"#utility.yul\":6366:6369   */\n      dup3\n        /* \"#utility.yul\":6362:6376   */\n      add\n        /* \"#utility.yul\":6354:6376   */\n      swap1\n      pop\n        /* \"#utility.yul\":6245:6382   */\n      swap2\n      swap1\n      pop\n      jump\t// out\n        /* \"#utility.yul\":6464:7567   */\n    tag_191:\n        /* \"#utility.yul\":6631:6634   */\n      0x00\n        /* \"#utility.yul\":6660:6738   */\n      tag_269\n        /* \"#utility.yul\":6732:6737   */\n      dup3\n        /* \"#utility.yul\":6660:6738   */\n      tag_173\n      jump\t// in\n    tag_269:\n        /* \"#utility.yul\":6754:6864   */\n      tag_270\n        /* \"#utility.yul\":6857:6863   */\n      dup2\n        /* \"#utility.yul\":6852:6855   */\n      dup6\n        /* \"#utility.yul\":6754:6864   */\n      tag_174\n      jump\t// in\n    tag_270:\n        /* \"#utility.yul\":6747:6864   */\n      swap4\n      pop\n        /* \"#utility.yul\":6890:6893   */\n      dup4\n        /* \"#utility.yul\":6935:6939   */\n      0x20\n        /* \"#utility.yul\":6927:6933   */\n      dup3\n        /* \"#utility.yul\":6923:6940   */\n      mul\n        /* \"#utility.yul\":6918:6921   */\n      dup6\n        /* \"#utility.yul\":6914:6941   */\n      add\n        /* \"#utility.yul\":6965:7045   */\n      tag_271\n        /* \"#utility.yul\":7039:7044   */\n      dup6\n        /* \"#utility.yul\":6965:7045   */\n      tag_175\n      jump\t// in\n    tag_271:\n        /* \"#utility.yul\":7068:7075   */\n      dup1\n        /* \"#utility.yul\":7099:7100   */\n      0x00\n        /* \"#utility.yul\":7084:7522   */\n    tag_272:\n        /* \"#utility.yul\":7109:7115   */\n      dup6\n        /* \"#utility.yul\":7106:7107   */\n      dup2\n        /* \"#utility.yul\":7103:7116   */\n      lt\n        /* \"#utility.yul\":7084:7522   */\n      iszero\n      tag_274\n      jumpi\n        /* \"#utility.yul\":7180:7189   */\n      dup5\n        /* \"#utility.yul\":7174:7178   */\n      dup5\n        /* \"#utility.yul\":7170:7190   */\n      sub\n        /* \"#utility.yul\":7165:7168   */\n      dup10\n        /* \"#utility.yul\":7158:7191   */\n      mstore\n        /* \"#utility.yul\":7231:7237   */\n      dup2\n        /* \"#utility.yul\":7225:7238   */\n      mload\n        /* \"#utility.yul\":7259:7371   */\n      tag_275\n        /* \"#utility.yul\":7366:7370   */\n      dup6\n        /* \"#utility.yul\":7351:7364   */\n      dup3\n        /* \"#utility.yul\":7259:7371   */\n      tag_189\n      jump\t// in\n    tag_275:\n        /* \"#utility.yul\":7251:7371   */\n      swap5\n      pop\n        /* \"#utility.yul\":7394:7478   */\n      tag_276\n        /* \"#utility.yul\":7471:7477   */\n      dup4\n        /* \"#utility.yul\":7394:7478   */\n      tag_190\n      jump\t// in\n    tag_276:\n        /* \"#utility.yul\":7384:7478   */\n      swap3\n      pop\n        /* \"#utility.yul\":7507:7511   */\n      0x20\n        /* \"#utility.yul\":7502:7505   */\n      dup11\n        /* \"#utility.yul\":7498:7512   */\n      add\n        /* \"#utility.yul\":7491:7512   */\n      swap10\n      pop\n        /* \"#utility.yul\":7144:7522   */\n      pop\n        /* \"#utility.yul\":7131:7132   */\n      0x01\n        /* \"#utility.yul\":7128:7129   */\n      dup2\n        /* \"#utility.yul\":7124:7133   */\n      add\n        /* \"#utility.yul\":7119:7133   */\n      swap1\n      pop\n        /* \"#utility.yul\":7084:7522   */\n      jump(tag_272)\n    tag_274:\n        /* \"#utility.yul\":7088:7102   */\n      pop\n        /* \"#utility.yul\":7538:7542   */\n      dup3\n        /* \"#utility.yul\":7531:7542   */\n      swap8\n      pop\n        /* \"#utility.yul\":7558:7561   */\n      dup8\n        /* \"#utility.yul\":7551:7561   */\n      swap6\n      pop\n        /* \"#utility.yul\":6636:7567   */\n      pop\n      pop\n      pop\n      pop\n      pop\n        /* \"#utility.yul\":6464:7567   */\n      swap3\n      swap2\n      pop\n      pop\n      jump\t// out\n        /* \"#utility.yul\":7573:8042   */\n    tag_18:\n        /* \"#utility.yul\":7764:7768   */\n      0x00\n        /* \"#utility.yul\":7802:7804   */\n      0x20\n        /* \"#utility.yul\":7791:7800   */\n      dup3\n        /* \"#utility.yul\":7787:7805   */\n      add\n        /* \"#utility.yul\":7779:7805   */\n      swap1\n      pop\n        /* \"#utility.yul\":7851:7860   */\n      dup2\n        /* \"#utility.yul\":7845:7849   */\n      dup2\n        /* \"#utility.yul\":7841:7861   */\n      sub\n        /* \"#utility.yul\":7837:7838   */\n      0x00\n        /* \"#utility.yul\":7826:7835   */\n      dup4\n        /* \"#utility.yul\":7822:7839   */\n      add\n        /* \"#utility.yul\":7815:7862   */\n      mstore\n        /* \"#utility.yul\":7879:8035   */\n      tag_278\n        /* \"#utility.yul\":8030:8034   */\n      dup2\n        /* \"#utility.yul\":8021:8027   */\n      dup5\n        /* \"#utility.yul\":7879:8035   */\n      tag_191\n      jump\t// in\n    tag_278:\n        /* \"#utility.yul\":7871:8035   */\n      swap1\n      pop\n        /* \"#utility.yul\":7573:8042   */\n      swap3\n      swap2\n      pop\n      pop\n      jump\t// out\n        /* \"#utility.yul\":8048:8377   */\n    tag_22:\n        /* \"#utility.yul\":8107:8113   */\n      0x00\n        /* \"#utility.yul\":8156:8158   */\n      0x20\n        /* \"#utility.yul\":8144:8153   */\n      dup3\n        /* \"#utility.yul\":8135:8142   */\n      dup5\n        /* \"#utility.yul\":8131:8154   */\n      sub\n        /* \"#utility.yul\":8127:8159   */\n      slt\n        /* \"#utility.yul\":8124:8243   */\n      iszero\n      tag_280\n      jumpi\n        /* \"#utility.yul\":8162:8241   */\n      tag_281\n      tag_165\n      jump\t// in\n    tag_281:\n        /* \"#utility.yul\":8124:8243   */\n    tag_280:\n        /* \"#utility.yul\":8282:8283   */\n      0x00\n        /* \"#utility.yul\":8307:8360   */\n      tag_282\n        /* \"#utility.yul\":8352:8359   */\n      dup5\n        /* \"#utility.yul\":8343:8349   */\n      dup3\n        /* \"#utility.yul\":8332:8341   */\n      dup6\n        /* \"#utility.yul\":8328:8350   */\n      add\n        /* \"#utility.yul\":8307:8360   */\n      tag_172\n      jump\t// in\n    tag_282:\n        /* \"#utility.yul\":8297:8360   */\n      swap2\n      pop\n        /* \"#utility.yul\":8253:8370   */\n      pop\n        /* \"#utility.yul\":8048:8377   */\n      swap3\n      swap2\n      pop\n      pop\n      jump\t// out\n        /* \"#utility.yul\":8383:8501   */\n    tag_192:\n        /* \"#utility.yul\":8470:8494   */\n      tag_284\n        /* \"#utility.yul\":8488:8493   */\n      dup2\n        /* \"#utility.yul\":8470:8494   */\n      tag_168\n      jump\t// in\n    tag_284:\n        /* \"#utility.yul\":8465:8468   */\n      dup3\n        /* \"#utility.yul\":8458:8495   */\n      mstore\n        /* \"#utility.yul\":8383:8501   */\n      pop\n      pop\n      jump\t// out\n        /* \"#utility.yul\":8507:8616   */\n    tag_193:\n        /* \"#utility.yul\":8588:8609   */\n      tag_286\n        /* \"#utility.yul\":8603:8608   */\n      dup2\n        /* \"#utility.yul\":8588:8609   */\n      tag_179\n      jump\t// in\n    tag_286:\n        /* \"#utility.yul\":8583:8586   */\n      dup3\n        /* \"#utility.yul\":8576:8610   */\n      mstore\n        /* \"#utility.yul\":8507:8616   */\n      pop\n      pop\n      jump\t// out\n        /* \"#utility.yul\":8622:9163   */\n    tag_32:\n        /* \"#utility.yul\":8793:8797   */\n      0x00\n        /* \"#utility.yul\":8831:8834   */\n      0x80\n        /* \"#utility.yul\":8820:8829   */\n      dup3\n        /* \"#utility.yul\":8816:8835   */\n      add\n        /* \"#utility.yul\":8808:8835   */\n      swap1\n      pop\n        /* \"#utility.yul\":8845:8916   */\n      tag_288\n        /* \"#utility.yul\":8913:8914   */\n      0x00\n        /* \"#utility.yul\":8902:8911   */\n      dup4\n        /* \"#utility.yul\":8898:8915   */\n      add\n        /* \"#utility.yul\":8889:8895   */\n      dup8\n        /* \"#utility.yul\":8845:8916   */\n      tag_192\n      jump\t// in\n    tag_288:\n        /* \"#utility.yul\":8926:8998   */\n      tag_289\n        /* \"#utility.yul\":8994:8996   */\n      0x20\n        /* \"#utility.yul\":8983:8992   */\n      dup4\n        /* \"#utility.yul\":8979:8997   */\n      add\n        /* \"#utility.yul\":8970:8976   */\n      dup7\n        /* \"#utility.yul\":8926:8998   */\n      tag_163\n      jump\t// in\n    tag_289:\n        /* \"#utility.yul\":9008:9074   */\n      tag_290\n        /* \"#utility.yul\":9070:9072   */\n      0x40\n        /* \"#utility.yul\":9059:9068   */\n      dup4\n        /* \"#utility.yul\":9055:9073   */\n      add\n        /* \"#utility.yul\":9046:9052   */\n      dup6\n        /* \"#utility.yul\":9008:9074   */\n      tag_193\n      jump\t// in\n    tag_290:\n        /* \"#utility.yul\":9084:9156   */\n      tag_291\n        /* \"#utility.yul\":9152:9154   */\n      0x60\n        /* \"#utility.yul\":9141:9150   */\n      dup4\n        /* \"#utility.yul\":9137:9155   */\n      add\n        /* \"#utility.yul\":9128:9134   */\n      dup5\n        /* \"#utility.yul\":9084:9156   */\n      tag_163\n      jump\t// in\n    tag_291:\n        /* \"#utility.yul\":8622:9163   */\n      swap6\n      swap5\n      pop\n      pop\n      pop\n      pop\n      pop\n      jump\t// out\n        /* \"#utility.yul\":9169:9349   */\n    tag_194:\n        /* \"#utility.yul\":9217:9294   */\n      0x4e487b7100000000000000000000000000000000000000000000000000000000\n        /* \"#utility.yul\":9214:9215   */\n      0x00\n        /* \"#utility.yul\":9207:9295   */\n      mstore\n        /* \"#utility.yul\":9314:9318   */\n      0x11\n        /* \"#utility.yul\":9311:9312   */\n      0x04\n        /* \"#utility.yul\":9304:9319   */\n      mstore\n        /* \"#utility.yul\":9338:9342   */\n      0x24\n        /* \"#utility.yul\":9335:9336   */\n      0x00\n        /* \"#utility.yul\":9328:9343   */\n      revert\n        /* \"#utility.yul\":9355:9549   */\n    tag_43:\n        /* \"#utility.yul\":9395:9399   */\n      0x00\n        /* \"#utility.yul\":9415:9435   */\n      tag_294\n        /* \"#utility.yul\":9433:9434   */\n      dup3\n        /* \"#utility.yul\":9415:9435   */\n      tag_162\n      jump\t// in\n    tag_294:\n        /* \"#utility.yul\":9410:9435   */\n      swap2\n      pop\n        /* \"#utility.yul\":9449:9469   */\n      tag_295\n        /* \"#utility.yul\":9467:9468   */\n      dup4\n        /* \"#utility.yul\":9449:9469   */\n      tag_162\n      jump\t// in\n    tag_295:\n        /* \"#utility.yul\":9444:9469   */\n      swap3\n      pop\n        /* \"#utility.yul\":9493:9494   */\n      dup3\n        /* \"#utility.yul\":9490:9491   */\n      dup3\n        /* \"#utility.yul\":9486:9495   */\n      sub\n        /* \"#utility.yul\":9478:9495   */\n      swap1\n      pop\n        /* \"#utility.yul\":9517:9518   */\n      dup2\n        /* \"#utility.yul\":9511:9515   */\n      dup2\n        /* \"#utility.yul\":9508:9519   */\n      gt\n        /* \"#utility.yul\":9505:9542   */\n      iszero\n      tag_296\n      jumpi\n        /* \"#utility.yul\":9522:9540   */\n      tag_297\n      tag_194\n      jump\t// in\n    tag_297:\n        /* \"#utility.yul\":9505:9542   */\n    tag_296:\n        /* \"#utility.yul\":9355:9549   */\n      swap3\n      swap2\n      pop\n      pop\n      jump\t// out\n        /* \"#utility.yul\":9555:10108   */\n    tag_45:\n        /* \"#utility.yul\":9732:9736   */\n      0x00\n        /* \"#utility.yul\":9770:9773   */\n      0x80\n        /* \"#utility.yul\":9759:9768   */\n      dup3\n        /* \"#utility.yul\":9755:9774   */\n      add\n        /* \"#utility.yul\":9747:9774   */\n      swap1\n      pop\n        /* \"#utility.yul\":9784:9855   */\n      tag_299\n        /* \"#utility.yul\":9852:9853   */\n      0x00\n        /* \"#utility.yul\":9841:9850   */\n      dup4\n        /* \"#utility.yul\":9837:9854   */\n      add\n        /* \"#utility.yul\":9828:9834   */\n      dup8\n        /* \"#utility.yul\":9784:9855   */\n      tag_163\n      jump\t// in\n    tag_299:\n        /* \"#utility.yul\":9865:9937   */\n      tag_300\n        /* \"#utility.yul\":9933:9935   */\n      0x20\n        /* \"#utility.yul\":9922:9931   */\n      dup4\n        /* \"#utility.yul\":9918:9936   */\n      add\n        /* \"#utility.yul\":9909:9915   */\n      dup7\n        /* \"#utility.yul\":9865:9937   */\n      tag_163\n      jump\t// in\n    tag_300:\n        /* \"#utility.yul\":9947:10019   */\n      tag_301\n        /* \"#utility.yul\":10015:10017   */\n      0x40\n        /* \"#utility.yul\":10004:10013   */\n      dup4\n        /* \"#utility.yul\":10000:10018   */\n      add\n        /* \"#utility.yul\":9991:9997   */\n      dup6\n        /* \"#utility.yul\":9947:10019   */\n      tag_192\n      jump\t// in\n    tag_301:\n        /* \"#utility.yul\":10029:10101   */\n      tag_302\n        /* \"#utility.yul\":10097:10099   */\n      0x60\n        /* \"#utility.yul\":10086:10095   */\n      dup4\n        /* \"#utility.yul\":10082:10100   */\n      add\n        /* \"#utility.yul\":10073:10079   */\n      dup5\n        /* \"#utility.yul\":10029:10101   */\n      tag_192\n      jump\t// in\n    tag_302:\n        /* \"#utility.yul\":9555:10108   */\n      swap6\n      swap5\n      pop\n      pop\n      pop\n      pop\n      pop\n      jump\t// out\n        /* \"#utility.yul\":10114:10294   */\n    tag_57:\n        /* \"#utility.yul\":10162:10239   */\n      0x4e487b7100000000000000000000000000000000000000000000000000000000\n        /* \"#utility.yul\":10159:10160   */\n      0x00\n        /* \"#utility.yul\":10152:10240   */\n      mstore\n        /* \"#utility.yul\":10259:10263   */\n      0x32\n        /* \"#utility.yul\":10256:10257   */\n      0x04\n        /* \"#utility.yul\":10249:10264   */\n      mstore\n        /* \"#utility.yul\":10283:10287   */\n      0x24\n        /* \"#utility.yul\":10280:10281   */\n      0x00\n        /* \"#utility.yul\":10273:10288   */\n      revert\n        /* \"#utility.yul\":10300:10533   */\n    tag_83:\n        /* \"#utility.yul\":10339:10342   */\n      0x00\n        /* \"#utility.yul\":10362:10386   */\n      tag_305\n        /* \"#utility.yul\":10380:10385   */\n      dup3\n        /* \"#utility.yul\":10362:10386   */\n      tag_162\n      jump\t// in\n    tag_305:\n        /* \"#utility.yul\":10353:10386   */\n      swap2\n      pop\n        /* \"#utility.yul\":10408:10474   */\n      0xffffffffffffffffffffffffffffffffffffffffffffffffffffffffffffffff\n        /* \"#utility.yul\":10401:10406   */\n      dup3\n        /* \"#utility.yul\":10398:10475   */\n      sub\n        /* \"#utility.yul\":10395:10498   */\n      tag_306\n      jumpi\n        /* \"#utility.yul\":10478:10496   */\n      tag_307\n      tag_194\n      jump\t// in\n    tag_307:\n        /* \"#utility.yul\":10395:10498   */\n    tag_306:\n        /* \"#utility.yul\":10525:10526   */\n      0x01\n        /* \"#utility.yul\":10518:10523   */\n      dup3\n        /* \"#utility.yul\":10514:10527   */\n      add\n        /* \"#utility.yul\":10507:10527   */\n      swap1\n      pop\n        /* \"#utility.yul\":10300:10533   */\n      swap2\n      swap1\n      pop\n      jump\t// out\n        /* \"#utility.yul\":10539:10599   */\n    tag_195:\n        /* \"#utility.yul\":10567:10570   */\n      0x00\n        /* \"#utility.yul\":10588:10593   */\n      dup2\n        /* \"#utility.yul\":10581:10593   */\n      swap1\n      pop\n        /* \"#utility.yul\":10539:10599   */\n      swap2\n      swap1\n      pop\n      jump\t// out\n        /* \"#utility.yul\":10605:10747   */\n    tag_196:\n        /* \"#utility.yul\":10655:10664   */\n      0x00\n        /* \"#utility.yul\":10688:10741   */\n      tag_310\n        /* \"#utility.yul\":10706:10740   */\n      tag_311\n        /* \"#utility.yul\":10715:10739   */\n      tag_312\n        /* \"#utility.yul\":10733:10738   */\n      dup5\n        /* \"#utility.yul\":10715:10739   */\n      tag_167\n      jump\t// in\n    tag_312:\n        /* \"#utility.yul\":10706:10740   */\n      tag_195\n      jump\t// in\n    tag_311:\n        /* \"#utility.yul\":10688:10741   */\n      tag_167\n      jump\t// in\n    tag_310:\n        /* \"#utility.yul\":10675:10741   */\n      swap1\n      pop\n        /* \"#utility.yul\":10605:10747   */\n      swap2\n      swap1\n      pop\n      jump\t// out\n        /* \"#utility.yul\":10753:10879   */\n    tag_197:\n        /* \"#utility.yul\":10803:10812   */\n      0x00\n        /* \"#utility.yul\":10836:10873   */\n      tag_314\n        /* \"#utility.yul\":10867:10872   */\n      dup3\n        /* \"#utility.yul\":10836:10873   */\n      tag_196\n      jump\t// in\n    tag_314:\n        /* \"#utility.yul\":10823:10873   */\n      swap1\n      pop\n        /* \"#utility.yul\":10753:10879   */\n      swap2\n      swap1\n      pop\n      jump\t// out\n        /* \"#utility.yul\":10885:11019   */\n    tag_198:\n        /* \"#utility.yul\":10943:10952   */\n      0x00\n        /* \"#utility.yul\":10976:11013   */\n      tag_316\n        /* \"#utility.yul\":11007:11012   */\n      dup3\n        /* \"#utility.yul\":10976:11013   */\n      tag_197\n      jump\t// in\n    tag_316:\n        /* \"#utility.yul\":10963:11013   */\n      swap1\n      pop\n        /* \"#utility.yul\":10885:11019   */\n      swap2\n      swap1\n      pop\n      jump\t// out\n        /* \"#utility.yul\":11025:11172   */\n    tag_199:\n        /* \"#utility.yul\":11120:11165   */\n      tag_318\n        /* \"#utility.yul\":11159:11164   */\n      dup2\n        /* \"#utility.yul\":11120:11165   */\n      tag_198\n      jump\t// in\n    tag_318:\n        /* \"#utility.yul\":11115:11118   */\n      dup3\n        /* \"#utility.yul\":11108:11166   */\n      mstore\n        /* \"#utility.yul\":11025:11172   */\n      pop\n      pop\n      jump\t// out\n        /* \"#utility.yul\":11178:11526   */\n    tag_142:\n        /* \"#utility.yul\":11307:11311   */\n      0x00\n        /* \"#utility.yul\":11345:11347   */\n      0x40\n        /* \"#utility.yul\":11334:11343   */\n      dup3\n        /* \"#utility.yul\":11330:11348   */\n      add\n        /* \"#utility.yul\":11322:11348   */\n      swap1\n      pop\n        /* \"#utility.yul\":11358:11429   */\n      tag_320\n        /* \"#utility.yul\":11426:11427   */\n      0x00\n        /* \"#utility.yul\":11415:11424   */\n      dup4\n        /* \"#utility.yul\":11411:11428   */\n      add\n        /* \"#utility.yul\":11402:11408   */\n      dup6\n        /* \"#utility.yul\":11358:11429   */\n      tag_163\n      jump\t// in\n    tag_320:\n        /* \"#utility.yul\":11439:11519   */\n      tag_321\n        /* \"#utility.yul\":11515:11517   */\n      0x20\n        /* \"#utility.yul\":11504:11513   */\n      dup4\n        /* \"#utility.yul\":11500:11518   */\n      add\n        /* \"#utility.yul\":11491:11497   */\n      dup5\n        /* \"#utility.yul\":11439:11519   */\n      tag_199\n      jump\t// in\n    tag_321:\n        /* \"#utility.yul\":11178:11526   */\n      swap4\n      swap3\n      pop\n      pop\n      pop\n      jump\t// out\n        /* \"#utility.yul\":11532:11701   */\n    tag_200:\n        /* \"#utility.yul\":11616:11627   */\n      0x00\n        /* \"#utility.yul\":11650:11656   */\n      dup3\n        /* \"#utility.yul\":11645:11648   */\n      dup3\n        /* \"#utility.yul\":11638:11657   */\n      mstore\n        /* \"#utility.yul\":11690:11694   */\n      0x20\n        /* \"#utility.yul\":11685:11688   */\n      dup3\n        /* \"#utility.yul\":11681:11695   */\n      add\n        /* \"#utility.yul\":11666:11695   */\n      swap1\n      pop\n        /* \"#utility.yul\":11532:11701   */\n      swap3\n      swap2\n      pop\n      pop\n      jump\t// out\n        /* \"#utility.yul\":11707:11927   */\n    tag_201:\n        /* \"#utility.yul\":11847:11881   */\n      0x596f752063616e27742073656e64206d6f6e657920746f20796f757273656c66\n        /* \"#utility.yul\":11843:11844   */\n      0x00\n        /* \"#utility.yul\":11835:11841   */\n      dup3\n        /* \"#utility.yul\":11831:11845   */\n      add\n        /* \"#utility.yul\":11824:11882   */\n      mstore\n        /* \"#utility.yul\":11916:11919   */\n      0x2e00000000000000000000000000000000000000000000000000000000000000\n        /* \"#utility.yul\":11911:11913   */\n      0x20\n        /* \"#utility.yul\":11903:11909   */\n      dup3\n        /* \"#utility.yul\":11899:11914   */\n      add\n        /* \"#utility.yul\":11892:11920   */\n      mstore\n        /* \"#utility.yul\":11707:11927   */\n      pop\n      jump\t// out\n        /* \"#utility.yul\":11933:12299   */\n    tag_202:\n        /* \"#utility.yul\":12075:12078   */\n      0x00\n        /* \"#utility.yul\":12096:12163   */\n      tag_325\n        /* \"#utility.yul\":12160:12162   */\n      0x21\n        /* \"#utility.yul\":12155:12158   */\n      dup4\n        /* \"#utility.yul\":12096:12163   */\n      tag_200\n      jump\t// in\n    tag_325:\n        /* \"#utility.yul\":12089:12163   */\n      swap2\n      pop\n        /* \"#utility.yul\":12172:12265   */\n      tag_326\n        /* \"#utility.yul\":12261:12264   */\n      dup3\n        /* \"#utility.yul\":12172:12265   */\n      tag_201\n      jump\t// in\n    tag_326:\n        /* \"#utility.yul\":12290:12292   */\n      0x40\n        /* \"#utility.yul\":12285:12288   */\n      dup3\n        /* \"#utility.yul\":12281:12293   */\n      add\n        /* \"#utility.yul\":12274:12293   */\n      swap1\n      pop\n        /* \"#utility.yul\":11933:12299   */\n      swap2\n      swap1\n      pop\n      jump\t// out\n        /* \"#utility.yul\":12305:12724   */\n    tag_149:\n        /* \"#utility.yul\":12471:12475   */\n      0x00\n        /* \"#utility.yul\":12509:12511   */\n      0x20\n        /* \"#utility.yul\":12498:12507   */\n      dup3\n        /* \"#utility.yul\":12494:12512   */\n      add\n        /* \"#utility.yul\":12486:12512   */\n      swap1\n      pop\n        /* \"#utility.yul\":12558:12567   */\n      dup2\n        /* \"#utility.yul\":12552:12556   */\n      dup2\n        /* \"#utility.yul\":12548:12568   */\n      sub\n        /* \"#utility.yul\":12544:12545   */\n      0x00\n        /* \"#utility.yul\":12533:12542   */\n      dup4\n        /* \"#utility.yul\":12529:12546   */\n      add\n        /* \"#utility.yul\":12522:12569   */\n      mstore\n        /* \"#utility.yul\":12586:12717   */\n      tag_328\n        /* \"#utility.yul\":12712:12716   */\n      dup2\n        /* \"#utility.yul\":12586:12717   */\n      tag_202\n      jump\t// in\n    tag_328:\n        /* \"#utility.yul\":12578:12717   */\n      swap1\n      pop\n        /* \"#utility.yul\":12305:12724   */\n      swap2\n      swap1\n      pop\n      jump\t// out\n\n    auxdata: 0xa26469706673582212200d7d483fd12c42984aa01ec0ca5e4bc78195319b31b098097d1fe8dc302e88be64736f6c63430008150033\n}\n",
				"bytecode": {
					"linkReferences": {},
					"object": "608060405234801562000010575f80fd5b506040516200156d3803806200156d83398181016040528101906200003691906200031c565b815f90805190602001906200004d9291906200005d565b5080600181905550505062000380565b828054828255905f5260205f20908101928215620000d6579160200282015b82811115620000d5578251825f6101000a81548173ffffffffffffffffffffffffffffffffffffffff021916908373ffffffffffffffffffffffffffffffffffffffff160217905550916020019190600101906200007c565b5b509050620000e59190620000e9565b5090565b5b8082111562000102575f815f905550600101620000ea565b5090565b5f604051905090565b5f80fd5b5f80fd5b5f80fd5b5f601f19601f8301169050919050565b7f4e487b71000000000000000000000000000000000000000000000000000000005f52604160045260245ffd5b62000163826200011b565b810181811067ffffffffffffffff821117156200018557620001846200012b565b5b80604052505050565b5f6200019962000106565b9050620001a7828262000158565b919050565b5f67ffffffffffffffff821115620001c957620001c86200012b565b5b602082029050602081019050919050565b5f80fd5b5f73ffffffffffffffffffffffffffffffffffffffff82169050919050565b5f6200020982620001de565b9050919050565b6200021b81620001fd565b811462000226575f80fd5b50565b5f81519050620002398162000210565b92915050565b5f620002556200024f84620001ac565b6200018e565b905080838252602082019050602084028301858111156200027b576200027a620001da565b5b835b81811015620002a8578062000293888262000229565b8452602084019350506020810190506200027d565b5050509392505050565b5f82601f830112620002c957620002c862000117565b5b8151620002db8482602086016200023f565b91505092915050565b5f819050919050565b620002f881620002e4565b811462000303575f80fd5b50565b5f815190506200031681620002ed565b92915050565b5f80604083850312156200033557620003346200010f565b5b5f83015167ffffffffffffffff81111562000355576200035462000113565b5b6200036385828601620002b2565b9250506020620003768582860162000306565b9150509250929050565b6111df806200038e5f395ff3fe608060405260043610610049575f3560e01c806312065fe01461004d5780637d0b380514610077578063b759f954146100b3578063d0e30db0146100db578063dddfec70146100f9575b5f80fd5b348015610058575f80fd5b50610061610138565b60405161006e9190610bb9565b60405180910390f35b348015610082575f80fd5b5061009d60048036038101906100989190610c5a565b61013f565b6040516100aa9190610ec6565b60405180910390f35b3480156100be575f80fd5b506100d960048036038101906100d49190610ee6565b6104a7565b005b6100e3610609565b6040516100f09190610bb9565b60405180910390f35b348015610104575f80fd5b5061011f600480360381019061011a9190610ee6565b61065e565b60405161012f9493929190610f2f565b60405180910390f35b5f47905090565b606061014a33610740565b610152575f80fd5b606060026040518060a001604052803373ffffffffffffffffffffffffffffffffffffffff1681526020018673ffffffffffffffffffffffffffffffffffffffff1681526020018581526020015f1515815260200183815250908060018154018082558091505060019003905f5260205f2090600502015f909190919091505f820151815f015f6101000a81548173ffffffffffffffffffffffffffffffffffffffff021916908373ffffffffffffffffffffffffffffffffffffffff1602179055506020820151816001015f6101000a81548173ffffffffffffffffffffffffffffffffffffffff021916908373ffffffffffffffffffffffffffffffffffffffff160217905550604082015181600201556060820151816003015f6101000a81548160ff02191690831515021790555060808201518160040190805190602001906102a0929190610aff565b5050507f099c4ec4ecfc26f7c8b27aeee5443f92120fa2c4e91ba6020369ae71a4d4427860016002805490506102d69190610f9f565b8433876040516102e99493929190610fd2565b60405180910390a16002805480602002602001604051908101604052809291908181526020015f905b8282101561049a578382905f5260205f2090600502016040518060a00160405290815f82015f9054906101000a900473ffffffffffffffffffffffffffffffffffffffff1673ffffffffffffffffffffffffffffffffffffffff1673ffffffffffffffffffffffffffffffffffffffff168152602001600182015f9054906101000a900473ffffffffffffffffffffffffffffffffffffffff1673ffffffffffffffffffffffffffffffffffffffff1673ffffffffffffffffffffffffffffffffffffffff16815260200160028201548152602001600382015f9054906101000a900460ff161515151581526020016004820180548060200260200160405190810160405280929190818152602001828054801561048257602002820191905f5260205f20905b815f9054906101000a900473ffffffffffffffffffffffffffffffffffffffff1673ffffffffffffffffffffffffffffffffffffffff1681526020019060010190808311610439575b50505050508152505081526020019060010190610312565b5050505091505092915050565b6104b033610740565b6104b8575f80fd5b600281815481106104cc576104cb611015565b5b905f5260205f2090600502016003015f9054906101000a900460ff16610606575f6002828154811061050157610500611015565b5b905f5260205f209060050201600401805490500361052757610522816107e6565b610605565b5f5b6002828154811061053d5761053c611015565b5b905f5260205f20906005020160040180549050811015610603573373ffffffffffffffffffffffffffffffffffffffff166002838154811061058257610581611015565b5b905f5260205f20906005020160040182815481106105a3576105a2611015565b5b905f5260205f20015f9054906101000a900473ffffffffffffffffffffffffffffffffffffffff1673ffffffffffffffffffffffffffffffffffffffff160315610603576105f0826107e6565b80806105fb90611042565b915050610529565b505b5b50565b5f3373ffffffffffffffffffffffffffffffffffffffff167fdb42e689d0c993b1eaac62924e67d96c365c40778a39beaaaf6865b061a93f32346040516106509190610bb9565b60405180910390a247905090565b5f805f8061066b33610740565b610673575f80fd5b6002858154811061068757610686611015565b5b905f5260205f2090600502016001015f9054906101000a900473ffffffffffffffffffffffffffffffffffffffff16600286815481106106ca576106c9611015565b5b905f5260205f20906005020160020154600287815481106106ee576106ed611015565b5b905f5260205f2090600502016003015f9054906101000a900460ff166002888154811061071e5761071d611015565b5b905f5260205f2090600502016004018054905093509350935093509193509193565b5f805f90505b5f805490508110156107dc578273ffffffffffffffffffffffffffffffffffffffff165f828154811061077c5761077b611015565b5b905f5260205f20015f9054906101000a900473ffffffffffffffffffffffffffffffffffffffff1673ffffffffffffffffffffffffffffffffffffffff16036107c95760019150506107e1565b80806107d490611042565b915050610746565b505f90505b919050565b6107ef33610740565b6107f7575f80fd5b6002818154811061080b5761080a611015565b5b905f5260205f20906005020160040133908060018154018082558091505060019003905f5260205f20015f9091909190916101000a81548173ffffffffffffffffffffffffffffffffffffffff021916908373ffffffffffffffffffffffffffffffffffffffff1602179055506001546002828154811061088f5761088e611015565b5b905f5260205f2090600502016004018054905010610a0d57610916600282815481106108be576108bd611015565b5b905f5260205f2090600502016001015f9054906101000a900473ffffffffffffffffffffffffffffffffffffffff166002838154811061090157610900611015565b5b905f5260205f20906005020160020154610a10565b15610a0c5760016002828154811061093157610930611015565b5b905f5260205f2090600502016003015f6101000a81548160ff0219169083151502179055503373ffffffffffffffffffffffffffffffffffffffff167fbf4321ab09496f0dd20158dca7b8ec3b797c0085edfd58f98454ad82b61e7a0a600283815481106109a2576109a1611015565b5b905f5260205f20906005020160020154600284815481106109c6576109c5611015565b5b905f5260205f2090600502016001015f9054906101000a900473ffffffffffffffffffffffffffffffffffffffff16604051610a039291906110e4565b60405180910390a25b5b50565b5f610a1a33610740565b610a22575f80fd5b8273ffffffffffffffffffffffffffffffffffffffff163373ffffffffffffffffffffffffffffffffffffffff1603610a90576040517f08c379a0000000000000000000000000000000000000000000000000000000008152600401610a879061118b565b60405180910390fd5b5f4790508373ffffffffffffffffffffffffffffffffffffffff166108fc8490811502906040515f60405180830381858888f19350505050158015610ad7573d5f803e3d5ffd5b508281610ae49190610f9f565b4703610af4576001915050610af9565b5f9150505b92915050565b828054828255905f5260205f20908101928215610b75579160200282015b82811115610b74578251825f6101000a81548173ffffffffffffffffffffffffffffffffffffffff021916908373ffffffffffffffffffffffffffffffffffffffff16021790555091602001919060010190610b1d565b5b509050610b829190610b86565b5090565b5b80821115610b9d575f815f905550600101610b87565b5090565b5f819050919050565b610bb381610ba1565b82525050565b5f602082019050610bcc5f830184610baa565b92915050565b5f80fd5b5f73ffffffffffffffffffffffffffffffffffffffff82169050919050565b5f610bff82610bd6565b9050919050565b610c0f81610bf5565b8114610c19575f80fd5b50565b5f81359050610c2a81610c06565b92915050565b610c3981610ba1565b8114610c43575f80fd5b50565b5f81359050610c5481610c30565b92915050565b5f8060408385031215610c7057610c6f610bd2565b5b5f610c7d85828601610c1c565b9250506020610c8e85828601610c46565b9150509250929050565b5f81519050919050565b5f82825260208201905092915050565b5f819050602082019050919050565b5f610ccb82610bd6565b9050919050565b610cdb81610cc1565b82525050565b610cea81610ba1565b82525050565b5f8115159050919050565b610d0481610cf0565b82525050565b5f81519050919050565b5f82825260208201905092915050565b5f819050602082019050919050565b610d3c81610bf5565b82525050565b5f610d4d8383610d33565b60208301905092915050565b5f602082019050919050565b5f610d6f82610d0a565b610d798185610d14565b9350610d8483610d24565b805f5b83811015610db4578151610d9b8882610d42565b9750610da683610d59565b925050600181019050610d87565b5085935050505092915050565b5f60a083015f830151610dd65f860182610cd2565b506020830151610de96020860182610cd2565b506040830151610dfc6040860182610ce1565b506060830151610e0f6060860182610cfb565b5060808301518482036080860152610e278282610d65565b9150508091505092915050565b5f610e3f8383610dc1565b905092915050565b5f602082019050919050565b5f610e5d82610c98565b610e678185610ca2565b935083602082028501610e7985610cb2565b805f5b85811015610eb45784840389528151610e958582610e34565b9450610ea083610e47565b925060208a01995050600181019050610e7c565b50829750879550505050505092915050565b5f6020820190508181035f830152610ede8184610e53565b905092915050565b5f60208284031215610efb57610efa610bd2565b5b5f610f0884828501610c46565b91505092915050565b610f1a81610bf5565b82525050565b610f2981610cf0565b82525050565b5f608082019050610f425f830187610f11565b610f4f6020830186610baa565b610f5c6040830185610f20565b610f696060830184610baa565b95945050505050565b7f4e487b71000000000000000000000000000000000000000000000000000000005f52601160045260245ffd5b5f610fa982610ba1565b9150610fb483610ba1565b9250828203905081811115610fcc57610fcb610f72565b5b92915050565b5f608082019050610fe55f830187610baa565b610ff26020830186610baa565b610fff6040830185610f11565b61100c6060830184610f11565b95945050505050565b7f4e487b71000000000000000000000000000000000000000000000000000000005f52603260045260245ffd5b5f61104c82610ba1565b91507fffffffffffffffffffffffffffffffffffffffffffffffffffffffffffffffff820361107e5761107d610f72565b5b600182019050919050565b5f819050919050565b5f6110ac6110a76110a284610bd6565b611089565b610bd6565b9050919050565b5f6110bd82611092565b9050919050565b5f6110ce826110b3565b9050919050565b6110de816110c4565b82525050565b5f6040820190506110f75f830185610baa565b61110460208301846110d5565b9392505050565b5f82825260208201905092915050565b7f596f752063616e27742073656e64206d6f6e657920746f20796f757273656c665f8201527f2e00000000000000000000000000000000000000000000000000000000000000602082015250565b5f61117560218361110b565b91506111808261111b565b604082019050919050565b5f6020820190508181035f8301526111a281611169565b905091905056fea26469706673582212200d7d483fd12c42984aa01ec0ca5e4bc78195319b31b098097d1fe8dc302e88be64736f6c63430008150033",
					"opcodes": "PUSH1 0x80 PUSH1 0x40 MSTORE CALLVALUE DUP1 ISZERO PUSH3 0x10 JUMPI PUSH0 DUP1 REVERT JUMPDEST POP PUSH1 0x40 MLOAD PUSH3 0x156D CODESIZE SUB DUP1 PUSH3 0x156D DUP4 CODECOPY DUP2 DUP2 ADD PUSH1 0x40 MSTORE DUP2 ADD SWAP1 PUSH3 0x36 SWAP2 SWAP1 PUSH3 0x31C JUMP JUMPDEST DUP2 PUSH0 SWAP1 DUP1 MLOAD SWAP1 PUSH1 0x20 ADD SWAP1 PUSH3 0x4D SWAP3 SWAP2 SWAP1 PUSH3 0x5D JUMP JUMPDEST POP DUP1 PUSH1 0x1 DUP2 SWAP1 SSTORE POP POP POP PUSH3 0x380 JUMP JUMPDEST DUP3 DUP1 SLOAD DUP3 DUP3 SSTORE SWAP1 PUSH0 MSTORE PUSH1 0x20 PUSH0 KECCAK256 SWAP1 DUP2 ADD SWAP3 DUP3 ISZERO PUSH3 0xD6 JUMPI SWAP2 PUSH1 0x20 MUL DUP3 ADD JUMPDEST DUP3 DUP2 GT ISZERO PUSH3 0xD5 JUMPI DUP3 MLOAD DUP3 PUSH0 PUSH2 0x100 EXP DUP2 SLOAD DUP2 PUSH20 0xFFFFFFFFFFFFFFFFFFFFFFFFFFFFFFFFFFFFFFFF MUL NOT AND SWAP1 DUP4 PUSH20 0xFFFFFFFFFFFFFFFFFFFFFFFFFFFFFFFFFFFFFFFF AND MUL OR SWAP1 SSTORE POP SWAP2 PUSH1 0x20 ADD SWAP2 SWAP1 PUSH1 0x1 ADD SWAP1 PUSH3 0x7C JUMP JUMPDEST JUMPDEST POP SWAP1 POP PUSH3 0xE5 SWAP2 SWAP1 PUSH3 0xE9 JUMP JUMPDEST POP SWAP1 JUMP JUMPDEST JUMPDEST DUP1 DUP3 GT ISZERO PUSH3 0x102 JUMPI PUSH0 DUP2 PUSH0 SWAP1 SSTORE POP PUSH1 0x1 ADD PUSH3 0xEA JUMP JUMPDEST POP SWAP1 JUMP JUMPDEST PUSH0 PUSH1 0x40 MLOAD SWAP1 POP SWAP1 JUMP JUMPDEST PUSH0 DUP1 REVERT JUMPDEST PUSH0 DUP1 REVERT JUMPDEST PUSH0 DUP1 REVERT JUMPDEST PUSH0 PUSH1 0x1F NOT PUSH1 0x1F DUP4 ADD AND SWAP1 POP SWAP2 SWAP1 POP JUMP JUMPDEST PUSH32 0x4E487B7100000000000000000000000000000000000000000000000000000000 PUSH0 MSTORE PUSH1 0x41 PUSH1 0x4 MSTORE PUSH1 0x24 PUSH0 REVERT JUMPDEST PUSH3 0x163 DUP3 PUSH3 0x11B JUMP JUMPDEST DUP2 ADD DUP2 DUP2 LT PUSH8 0xFFFFFFFFFFFFFFFF DUP3 GT OR ISZERO PUSH3 0x185 JUMPI PUSH3 0x184 PUSH3 0x12B JUMP JUMPDEST JUMPDEST DUP1 PUSH1 0x40 MSTORE POP POP POP JUMP JUMPDEST PUSH0 PUSH3 0x199 PUSH3 0x106 JUMP JUMPDEST SWAP1 POP PUSH3 0x1A7 DUP3 DUP3 PUSH3 0x158 JUMP JUMPDEST SWAP2 SWAP1 POP JUMP JUMPDEST PUSH0 PUSH8 0xFFFFFFFFFFFFFFFF DUP3 GT ISZERO PUSH3 0x1C9 JUMPI PUSH3 0x1C8 PUSH3 0x12B JUMP JUMPDEST JUMPDEST PUSH1 0x20 DUP3 MUL SWAP1 POP PUSH1 0x20 DUP2 ADD SWAP1 POP SWAP2 SWAP1 POP JUMP JUMPDEST PUSH0 DUP1 REVERT JUMPDEST PUSH0 PUSH20 0xFFFFFFFFFFFFFFFFFFFFFFFFFFFFFFFFFFFFFFFF DUP3 AND SWAP1 POP SWAP2 SWAP1 POP JUMP JUMPDEST PUSH0 PUSH3 0x209 DUP3 PUSH3 0x1DE JUMP JUMPDEST SWAP1 POP SWAP2 SWAP1 POP JUMP JUMPDEST PUSH3 0x21B DUP2 PUSH3 0x1FD JUMP JUMPDEST DUP2 EQ PUSH3 0x226 JUMPI PUSH0 DUP1 REVERT JUMPDEST POP JUMP JUMPDEST PUSH0 DUP2 MLOAD SWAP1 POP PUSH3 0x239 DUP2 PUSH3 0x210 JUMP JUMPDEST SWAP3 SWAP2 POP POP JUMP JUMPDEST PUSH0 PUSH3 0x255 PUSH3 0x24F DUP5 PUSH3 0x1AC JUMP JUMPDEST PUSH3 0x18E JUMP JUMPDEST SWAP1 POP DUP1 DUP4 DUP3 MSTORE PUSH1 0x20 DUP3 ADD SWAP1 POP PUSH1 0x20 DUP5 MUL DUP4 ADD DUP6 DUP2 GT ISZERO PUSH3 0x27B JUMPI PUSH3 0x27A PUSH3 0x1DA JUMP JUMPDEST JUMPDEST DUP4 JUMPDEST DUP2 DUP2 LT ISZERO PUSH3 0x2A8 JUMPI DUP1 PUSH3 0x293 DUP9 DUP3 PUSH3 0x229 JUMP JUMPDEST DUP5 MSTORE PUSH1 0x20 DUP5 ADD SWAP4 POP POP PUSH1 0x20 DUP2 ADD SWAP1 POP PUSH3 0x27D JUMP JUMPDEST POP POP POP SWAP4 SWAP3 POP POP POP JUMP JUMPDEST PUSH0 DUP3 PUSH1 0x1F DUP4 ADD SLT PUSH3 0x2C9 JUMPI PUSH3 0x2C8 PUSH3 0x117 JUMP JUMPDEST JUMPDEST DUP2 MLOAD PUSH3 0x2DB DUP5 DUP3 PUSH1 0x20 DUP7 ADD PUSH3 0x23F JUMP JUMPDEST SWAP2 POP POP SWAP3 SWAP2 POP POP JUMP JUMPDEST PUSH0 DUP2 SWAP1 POP SWAP2 SWAP1 POP JUMP JUMPDEST PUSH3 0x2F8 DUP2 PUSH3 0x2E4 JUMP JUMPDEST DUP2 EQ PUSH3 0x303 JUMPI PUSH0 DUP1 REVERT JUMPDEST POP JUMP JUMPDEST PUSH0 DUP2 MLOAD SWAP1 POP PUSH3 0x316 DUP2 PUSH3 0x2ED JUMP JUMPDEST SWAP3 SWAP2 POP POP JUMP JUMPDEST PUSH0 DUP1 PUSH1 0x40 DUP4 DUP6 SUB SLT ISZERO PUSH3 0x335 JUMPI PUSH3 0x334 PUSH3 0x10F JUMP JUMPDEST JUMPDEST PUSH0 DUP4 ADD MLOAD PUSH8 0xFFFFFFFFFFFFFFFF DUP2 GT ISZERO PUSH3 0x355 JUMPI PUSH3 0x354 PUSH3 0x113 JUMP JUMPDEST JUMPDEST PUSH3 0x363 DUP6 DUP3 DUP7 ADD PUSH3 0x2B2 JUMP JUMPDEST SWAP3 POP POP PUSH1 0x20 PUSH3 0x376 DUP6 DUP3 DUP7 ADD PUSH3 0x306 JUMP JUMPDEST SWAP2 POP POP SWAP3 POP SWAP3 SWAP1 POP JUMP JUMPDEST PUSH2 0x11DF DUP1 PUSH3 0x38E PUSH0 CODECOPY PUSH0 RETURN INVALID PUSH1 0x80 PUSH1 0x40 MSTORE PUSH1 0x4 CALLDATASIZE LT PUSH2 0x49 JUMPI PUSH0 CALLDATALOAD PUSH1 0xE0 SHR DUP1 PUSH4 0x12065FE0 EQ PUSH2 0x4D JUMPI DUP1 PUSH4 0x7D0B3805 EQ PUSH2 0x77 JUMPI DUP1 PUSH4 0xB759F954 EQ PUSH2 0xB3 JUMPI DUP1 PUSH4 0xD0E30DB0 EQ PUSH2 0xDB JUMPI DUP1 PUSH4 0xDDDFEC70 EQ PUSH2 0xF9 JUMPI JUMPDEST PUSH0 DUP1 REVERT JUMPDEST CALLVALUE DUP1 ISZERO PUSH2 0x58 JUMPI PUSH0 DUP1 REVERT JUMPDEST POP PUSH2 0x61 PUSH2 0x138 JUMP JUMPDEST PUSH1 0x40 MLOAD PUSH2 0x6E SWAP2 SWAP1 PUSH2 0xBB9 JUMP JUMPDEST PUSH1 0x40 MLOAD DUP1 SWAP2 SUB SWAP1 RETURN JUMPDEST CALLVALUE DUP1 ISZERO PUSH2 0x82 JUMPI PUSH0 DUP1 REVERT JUMPDEST POP PUSH2 0x9D PUSH1 0x4 DUP1 CALLDATASIZE SUB DUP2 ADD SWAP1 PUSH2 0x98 SWAP2 SWAP1 PUSH2 0xC5A JUMP JUMPDEST PUSH2 0x13F JUMP JUMPDEST PUSH1 0x40 MLOAD PUSH2 0xAA SWAP2 SWAP1 PUSH2 0xEC6 JUMP JUMPDEST PUSH1 0x40 MLOAD DUP1 SWAP2 SUB SWAP1 RETURN JUMPDEST CALLVALUE DUP1 ISZERO PUSH2 0xBE JUMPI PUSH0 DUP1 REVERT JUMPDEST POP PUSH2 0xD9 PUSH1 0x4 DUP1 CALLDATASIZE SUB DUP2 ADD SWAP1 PUSH2 0xD4 SWAP2 SWAP1 PUSH2 0xEE6 JUMP JUMPDEST PUSH2 0x4A7 JUMP JUMPDEST STOP JUMPDEST PUSH2 0xE3 PUSH2 0x609 JUMP JUMPDEST PUSH1 0x40 MLOAD PUSH2 0xF0 SWAP2 SWAP1 PUSH2 0xBB9 JUMP JUMPDEST PUSH1 0x40 MLOAD DUP1 SWAP2 SUB SWAP1 RETURN JUMPDEST CALLVALUE DUP1 ISZERO PUSH2 0x104 JUMPI PUSH0 DUP1 REVERT JUMPDEST POP PUSH2 0x11F PUSH1 0x4 DUP1 CALLDATASIZE SUB DUP2 ADD SWAP1 PUSH2 0x11A SWAP2 SWAP1 PUSH2 0xEE6 JUMP JUMPDEST PUSH2 0x65E JUMP JUMPDEST PUSH1 0x40 MLOAD PUSH2 0x12F SWAP5 SWAP4 SWAP3 SWAP2 SWAP1 PUSH2 0xF2F JUMP JUMPDEST PUSH1 0x40 MLOAD DUP1 SWAP2 SUB SWAP1 RETURN JUMPDEST PUSH0 SELFBALANCE SWAP1 POP SWAP1 JUMP JUMPDEST PUSH1 0x60 PUSH2 0x14A CALLER PUSH2 0x740 JUMP JUMPDEST PUSH2 0x152 JUMPI PUSH0 DUP1 REVERT JUMPDEST PUSH1 0x60 PUSH1 0x2 PUSH1 0x40 MLOAD DUP1 PUSH1 0xA0 ADD PUSH1 0x40 MSTORE DUP1 CALLER PUSH20 0xFFFFFFFFFFFFFFFFFFFFFFFFFFFFFFFFFFFFFFFF AND DUP2 MSTORE PUSH1 0x20 ADD DUP7 PUSH20 0xFFFFFFFFFFFFFFFFFFFFFFFFFFFFFFFFFFFFFFFF AND DUP2 MSTORE PUSH1 0x20 ADD DUP6 DUP2 MSTORE PUSH1 0x20 ADD PUSH0 ISZERO ISZERO DUP2 MSTORE PUSH1 0x20 ADD DUP4 DUP2 MSTORE POP SWAP1 DUP1 PUSH1 0x1 DUP2 SLOAD ADD DUP1 DUP3 SSTORE DUP1 SWAP2 POP POP PUSH1 0x1 SWAP1 SUB SWAP1 PUSH0 MSTORE PUSH1 0x20 PUSH0 KECCAK256 SWAP1 PUSH1 0x5 MUL ADD PUSH0 SWAP1 SWAP2 SWAP1 SWAP2 SWAP1 SWAP2 POP PUSH0 DUP3 ADD MLOAD DUP2 PUSH0 ADD PUSH0 PUSH2 0x100 EXP DUP2 SLOAD DUP2 PUSH20 0xFFFFFFFFFFFFFFFFFFFFFFFFFFFFFFFFFFFFFFFF MUL NOT AND SWAP1 DUP4 PUSH20 0xFFFFFFFFFFFFFFFFFFFFFFFFFFFFFFFFFFFFFFFF AND MUL OR SWAP1 SSTORE POP PUSH1 0x20 DUP3 ADD MLOAD DUP2 PUSH1 0x1 ADD PUSH0 PUSH2 0x100 EXP DUP2 SLOAD DUP2 PUSH20 0xFFFFFFFFFFFFFFFFFFFFFFFFFFFFFFFFFFFFFFFF MUL NOT AND SWAP1 DUP4 PUSH20 0xFFFFFFFFFFFFFFFFFFFFFFFFFFFFFFFFFFFFFFFF AND MUL OR SWAP1 SSTORE POP PUSH1 0x40 DUP3 ADD MLOAD DUP2 PUSH1 0x2 ADD SSTORE PUSH1 0x60 DUP3 ADD MLOAD DUP2 PUSH1 0x3 ADD PUSH0 PUSH2 0x100 EXP DUP2 SLOAD DUP2 PUSH1 0xFF MUL NOT AND SWAP1 DUP4 ISZERO ISZERO MUL OR SWAP1 SSTORE POP PUSH1 0x80 DUP3 ADD MLOAD DUP2 PUSH1 0x4 ADD SWAP1 DUP1 MLOAD SWAP1 PUSH1 0x20 ADD SWAP1 PUSH2 0x2A0 SWAP3 SWAP2 SWAP1 PUSH2 0xAFF JUMP JUMPDEST POP POP POP PUSH32 0x99C4EC4ECFC26F7C8B27AEEE5443F92120FA2C4E91BA6020369AE71A4D44278 PUSH1 0x1 PUSH1 0x2 DUP1 SLOAD SWAP1 POP PUSH2 0x2D6 SWAP2 SWAP1 PUSH2 0xF9F JUMP JUMPDEST DUP5 CALLER DUP8 PUSH1 0x40 MLOAD PUSH2 0x2E9 SWAP5 SWAP4 SWAP3 SWAP2 SWAP1 PUSH2 0xFD2 JUMP JUMPDEST PUSH1 0x40 MLOAD DUP1 SWAP2 SUB SWAP1 LOG1 PUSH1 0x2 DUP1 SLOAD DUP1 PUSH1 0x20 MUL PUSH1 0x20 ADD PUSH1 0x40 MLOAD SWAP1 DUP2 ADD PUSH1 0x40 MSTORE DUP1 SWAP3 SWAP2 SWAP1 DUP2 DUP2 MSTORE PUSH1 0x20 ADD PUSH0 SWAP1 JUMPDEST DUP3 DUP3 LT ISZERO PUSH2 0x49A JUMPI DUP4 DUP3 SWAP1 PUSH0 MSTORE PUSH1 0x20 PUSH0 KECCAK256 SWAP1 PUSH1 0x5 MUL ADD PUSH1 0x40 MLOAD DUP1 PUSH1 0xA0 ADD PUSH1 0x40 MSTORE SWAP1 DUP2 PUSH0 DUP3 ADD PUSH0 SWAP1 SLOAD SWAP1 PUSH2 0x100 EXP SWAP1 DIV PUSH20 0xFFFFFFFFFFFFFFFFFFFFFFFFFFFFFFFFFFFFFFFF AND PUSH20 0xFFFFFFFFFFFFFFFFFFFFFFFFFFFFFFFFFFFFFFFF AND PUSH20 0xFFFFFFFFFFFFFFFFFFFFFFFFFFFFFFFFFFFFFFFF AND DUP2 MSTORE PUSH1 0x20 ADD PUSH1 0x1 DUP3 ADD PUSH0 SWAP1 SLOAD SWAP1 PUSH2 0x100 EXP SWAP1 DIV PUSH20 0xFFFFFFFFFFFFFFFFFFFFFFFFFFFFFFFFFFFFFFFF AND PUSH20 0xFFFFFFFFFFFFFFFFFFFFFFFFFFFFFFFFFFFFFFFF AND PUSH20 0xFFFFFFFFFFFFFFFFFFFFFFFFFFFFFFFFFFFFFFFF AND DUP2 MSTORE PUSH1 0x20 ADD PUSH1 0x2 DUP3 ADD SLOAD DUP2 MSTORE PUSH1 0x20 ADD PUSH1 0x3 DUP3 ADD PUSH0 SWAP1 SLOAD SWAP1 PUSH2 0x100 EXP SWAP1 DIV PUSH1 0xFF AND ISZERO ISZERO ISZERO ISZERO DUP2 MSTORE PUSH1 0x20 ADD PUSH1 0x4 DUP3 ADD DUP1 SLOAD DUP1 PUSH1 0x20 MUL PUSH1 0x20 ADD PUSH1 0x40 MLOAD SWAP1 DUP2 ADD PUSH1 0x40 MSTORE DUP1 SWAP3 SWAP2 SWAP1 DUP2 DUP2 MSTORE PUSH1 0x20 ADD DUP3 DUP1 SLOAD DUP1 ISZERO PUSH2 0x482 JUMPI PUSH1 0x20 MUL DUP3 ADD SWAP2 SWAP1 PUSH0 MSTORE PUSH1 0x20 PUSH0 KECCAK256 SWAP1 JUMPDEST DUP2 PUSH0 SWAP1 SLOAD SWAP1 PUSH2 0x100 EXP SWAP1 DIV PUSH20 0xFFFFFFFFFFFFFFFFFFFFFFFFFFFFFFFFFFFFFFFF AND PUSH20 0xFFFFFFFFFFFFFFFFFFFFFFFFFFFFFFFFFFFFFFFF AND DUP2 MSTORE PUSH1 0x20 ADD SWAP1 PUSH1 0x1 ADD SWAP1 DUP1 DUP4 GT PUSH2 0x439 JUMPI JUMPDEST POP POP POP POP POP DUP2 MSTORE POP POP DUP2 MSTORE PUSH1 0x20 ADD SWAP1 PUSH1 0x1 ADD SWAP1 PUSH2 0x312 JUMP JUMPDEST POP POP POP POP SWAP2 POP POP SWAP3 SWAP2 POP POP JUMP JUMPDEST PUSH2 0x4B0 CALLER PUSH2 0x740 JUMP JUMPDEST PUSH2 0x4B8 JUMPI PUSH0 DUP1 REVERT JUMPDEST PUSH1 0x2 DUP2 DUP2 SLOAD DUP2 LT PUSH2 0x4CC JUMPI PUSH2 0x4CB PUSH2 0x1015 JUMP JUMPDEST JUMPDEST SWAP1 PUSH0 MSTORE PUSH1 0x20 PUSH0 KECCAK256 SWAP1 PUSH1 0x5 MUL ADD PUSH1 0x3 ADD PUSH0 SWAP1 SLOAD SWAP1 PUSH2 0x100 EXP SWAP1 DIV PUSH1 0xFF AND PUSH2 0x606 JUMPI PUSH0 PUSH1 0x2 DUP3 DUP2 SLOAD DUP2 LT PUSH2 0x501 JUMPI PUSH2 0x500 PUSH2 0x1015 JUMP JUMPDEST JUMPDEST SWAP1 PUSH0 MSTORE PUSH1 0x20 PUSH0 KECCAK256 SWAP1 PUSH1 0x5 MUL ADD PUSH1 0x4 ADD DUP1 SLOAD SWAP1 POP SUB PUSH2 0x527 JUMPI PUSH2 0x522 DUP2 PUSH2 0x7E6 JUMP JUMPDEST PUSH2 0x605 JUMP JUMPDEST PUSH0 JUMPDEST PUSH1 0x2 DUP3 DUP2 SLOAD DUP2 LT PUSH2 0x53D JUMPI PUSH2 0x53C PUSH2 0x1015 JUMP JUMPDEST JUMPDEST SWAP1 PUSH0 MSTORE PUSH1 0x20 PUSH0 KECCAK256 SWAP1 PUSH1 0x5 MUL ADD PUSH1 0x4 ADD DUP1 SLOAD SWAP1 POP DUP2 LT ISZERO PUSH2 0x603 JUMPI CALLER PUSH20 0xFFFFFFFFFFFFFFFFFFFFFFFFFFFFFFFFFFFFFFFF AND PUSH1 0x2 DUP4 DUP2 SLOAD DUP2 LT PUSH2 0x582 JUMPI PUSH2 0x581 PUSH2 0x1015 JUMP JUMPDEST JUMPDEST SWAP1 PUSH0 MSTORE PUSH1 0x20 PUSH0 KECCAK256 SWAP1 PUSH1 0x5 MUL ADD PUSH1 0x4 ADD DUP3 DUP2 SLOAD DUP2 LT PUSH2 0x5A3 JUMPI PUSH2 0x5A2 PUSH2 0x1015 JUMP JUMPDEST JUMPDEST SWAP1 PUSH0 MSTORE PUSH1 0x20 PUSH0 KECCAK256 ADD PUSH0 SWAP1 SLOAD SWAP1 PUSH2 0x100 EXP SWAP1 DIV PUSH20 0xFFFFFFFFFFFFFFFFFFFFFFFFFFFFFFFFFFFFFFFF AND PUSH20 0xFFFFFFFFFFFFFFFFFFFFFFFFFFFFFFFFFFFFFFFF AND SUB ISZERO PUSH2 0x603 JUMPI PUSH2 0x5F0 DUP3 PUSH2 0x7E6 JUMP JUMPDEST DUP1 DUP1 PUSH2 0x5FB SWAP1 PUSH2 0x1042 JUMP JUMPDEST SWAP2 POP POP PUSH2 0x529 JUMP JUMPDEST POP JUMPDEST JUMPDEST POP JUMP JUMPDEST PUSH0 CALLER PUSH20 0xFFFFFFFFFFFFFFFFFFFFFFFFFFFFFFFFFFFFFFFF AND PUSH32 0xDB42E689D0C993B1EAAC62924E67D96C365C40778A39BEAAAF6865B061A93F32 CALLVALUE PUSH1 0x40 MLOAD PUSH2 0x650 SWAP2 SWAP1 PUSH2 0xBB9 JUMP JUMPDEST PUSH1 0x40 MLOAD DUP1 SWAP2 SUB SWAP1 LOG2 SELFBALANCE SWAP1 POP SWAP1 JUMP JUMPDEST PUSH0 DUP1 PUSH0 DUP1 PUSH2 0x66B CALLER PUSH2 0x740 JUMP JUMPDEST PUSH2 0x673 JUMPI PUSH0 DUP1 REVERT JUMPDEST PUSH1 0x2 DUP6 DUP2 SLOAD DUP2 LT PUSH2 0x687 JUMPI PUSH2 0x686 PUSH2 0x1015 JUMP JUMPDEST JUMPDEST SWAP1 PUSH0 MSTORE PUSH1 0x20 PUSH0 KECCAK256 SWAP1 PUSH1 0x5 MUL ADD PUSH1 0x1 ADD PUSH0 SWAP1 SLOAD SWAP1 PUSH2 0x100 EXP SWAP1 DIV PUSH20 0xFFFFFFFFFFFFFFFFFFFFFFFFFFFFFFFFFFFFFFFF AND PUSH1 0x2 DUP7 DUP2 SLOAD DUP2 LT PUSH2 0x6CA JUMPI PUSH2 0x6C9 PUSH2 0x1015 JUMP JUMPDEST JUMPDEST SWAP1 PUSH0 MSTORE PUSH1 0x20 PUSH0 KECCAK256 SWAP1 PUSH1 0x5 MUL ADD PUSH1 0x2 ADD SLOAD PUSH1 0x2 DUP8 DUP2 SLOAD DUP2 LT PUSH2 0x6EE JUMPI PUSH2 0x6ED PUSH2 0x1015 JUMP JUMPDEST JUMPDEST SWAP1 PUSH0 MSTORE PUSH1 0x20 PUSH0 KECCAK256 SWAP1 PUSH1 0x5 MUL ADD PUSH1 0x3 ADD PUSH0 SWAP1 SLOAD SWAP1 PUSH2 0x100 EXP SWAP1 DIV PUSH1 0xFF AND PUSH1 0x2 DUP9 DUP2 SLOAD DUP2 LT PUSH2 0x71E JUMPI PUSH2 0x71D PUSH2 0x1015 JUMP JUMPDEST JUMPDEST SWAP1 PUSH0 MSTORE PUSH1 0x20 PUSH0 KECCAK256 SWAP1 PUSH1 0x5 MUL ADD PUSH1 0x4 ADD DUP1 SLOAD SWAP1 POP SWAP4 POP SWAP4 POP SWAP4 POP SWAP4 POP SWAP2 SWAP4 POP SWAP2 SWAP4 JUMP JUMPDEST PUSH0 DUP1 PUSH0 SWAP1 POP JUMPDEST PUSH0 DUP1 SLOAD SWAP1 POP DUP2 LT ISZERO PUSH2 0x7DC JUMPI DUP3 PUSH20 0xFFFFFFFFFFFFFFFFFFFFFFFFFFFFFFFFFFFFFFFF AND PUSH0 DUP3 DUP2 SLOAD DUP2 LT PUSH2 0x77C JUMPI PUSH2 0x77B PUSH2 0x1015 JUMP JUMPDEST JUMPDEST SWAP1 PUSH0 MSTORE PUSH1 0x20 PUSH0 KECCAK256 ADD PUSH0 SWAP1 SLOAD SWAP1 PUSH2 0x100 EXP SWAP1 DIV PUSH20 0xFFFFFFFFFFFFFFFFFFFFFFFFFFFFFFFFFFFFFFFF AND PUSH20 0xFFFFFFFFFFFFFFFFFFFFFFFFFFFFFFFFFFFFFFFF AND SUB PUSH2 0x7C9 JUMPI PUSH1 0x1 SWAP2 POP POP PUSH2 0x7E1 JUMP JUMPDEST DUP1 DUP1 PUSH2 0x7D4 SWAP1 PUSH2 0x1042 JUMP JUMPDEST SWAP2 POP POP PUSH2 0x746 JUMP JUMPDEST POP PUSH0 SWAP1 POP JUMPDEST SWAP2 SWAP1 POP JUMP JUMPDEST PUSH2 0x7EF CALLER PUSH2 0x740 JUMP JUMPDEST PUSH2 0x7F7 JUMPI PUSH0 DUP1 REVERT JUMPDEST PUSH1 0x2 DUP2 DUP2 SLOAD DUP2 LT PUSH2 0x80B JUMPI PUSH2 0x80A PUSH2 0x1015 JUMP JUMPDEST JUMPDEST SWAP1 PUSH0 MSTORE PUSH1 0x20 PUSH0 KECCAK256 SWAP1 PUSH1 0x5 MUL ADD PUSH1 0x4 ADD CALLER SWAP1 DUP1 PUSH1 0x1 DUP2 SLOAD ADD DUP1 DUP3 SSTORE DUP1 SWAP2 POP POP PUSH1 0x1 SWAP1 SUB SWAP1 PUSH0 MSTORE PUSH1 0x20 PUSH0 KECCAK256 ADD PUSH0 SWAP1 SWAP2 SWAP1 SWAP2 SWAP1 SWAP2 PUSH2 0x100 EXP DUP2 SLOAD DUP2 PUSH20 0xFFFFFFFFFFFFFFFFFFFFFFFFFFFFFFFFFFFFFFFF MUL NOT AND SWAP1 DUP4 PUSH20 0xFFFFFFFFFFFFFFFFFFFFFFFFFFFFFFFFFFFFFFFF AND MUL OR SWAP1 SSTORE POP PUSH1 0x1 SLOAD PUSH1 0x2 DUP3 DUP2 SLOAD DUP2 LT PUSH2 0x88F JUMPI PUSH2 0x88E PUSH2 0x1015 JUMP JUMPDEST JUMPDEST SWAP1 PUSH0 MSTORE PUSH1 0x20 PUSH0 KECCAK256 SWAP1 PUSH1 0x5 MUL ADD PUSH1 0x4 ADD DUP1 SLOAD SWAP1 POP LT PUSH2 0xA0D JUMPI PUSH2 0x916 PUSH1 0x2 DUP3 DUP2 SLOAD DUP2 LT PUSH2 0x8BE JUMPI PUSH2 0x8BD PUSH2 0x1015 JUMP JUMPDEST JUMPDEST SWAP1 PUSH0 MSTORE PUSH1 0x20 PUSH0 KECCAK256 SWAP1 PUSH1 0x5 MUL ADD PUSH1 0x1 ADD PUSH0 SWAP1 SLOAD SWAP1 PUSH2 0x100 EXP SWAP1 DIV PUSH20 0xFFFFFFFFFFFFFFFFFFFFFFFFFFFFFFFFFFFFFFFF AND PUSH1 0x2 DUP4 DUP2 SLOAD DUP2 LT PUSH2 0x901 JUMPI PUSH2 0x900 PUSH2 0x1015 JUMP JUMPDEST JUMPDEST SWAP1 PUSH0 MSTORE PUSH1 0x20 PUSH0 KECCAK256 SWAP1 PUSH1 0x5 MUL ADD PUSH1 0x2 ADD SLOAD PUSH2 0xA10 JUMP JUMPDEST ISZERO PUSH2 0xA0C JUMPI PUSH1 0x1 PUSH1 0x2 DUP3 DUP2 SLOAD DUP2 LT PUSH2 0x931 JUMPI PUSH2 0x930 PUSH2 0x1015 JUMP JUMPDEST JUMPDEST SWAP1 PUSH0 MSTORE PUSH1 0x20 PUSH0 KECCAK256 SWAP1 PUSH1 0x5 MUL ADD PUSH1 0x3 ADD PUSH0 PUSH2 0x100 EXP DUP2 SLOAD DUP2 PUSH1 0xFF MUL NOT AND SWAP1 DUP4 ISZERO ISZERO MUL OR SWAP1 SSTORE POP CALLER PUSH20 0xFFFFFFFFFFFFFFFFFFFFFFFFFFFFFFFFFFFFFFFF AND PUSH32 0xBF4321AB09496F0DD20158DCA7B8EC3B797C0085EDFD58F98454AD82B61E7A0A PUSH1 0x2 DUP4 DUP2 SLOAD DUP2 LT PUSH2 0x9A2 JUMPI PUSH2 0x9A1 PUSH2 0x1015 JUMP JUMPDEST JUMPDEST SWAP1 PUSH0 MSTORE PUSH1 0x20 PUSH0 KECCAK256 SWAP1 PUSH1 0x5 MUL ADD PUSH1 0x2 ADD SLOAD PUSH1 0x2 DUP5 DUP2 SLOAD DUP2 LT PUSH2 0x9C6 JUMPI PUSH2 0x9C5 PUSH2 0x1015 JUMP JUMPDEST JUMPDEST SWAP1 PUSH0 MSTORE PUSH1 0x20 PUSH0 KECCAK256 SWAP1 PUSH1 0x5 MUL ADD PUSH1 0x1 ADD PUSH0 SWAP1 SLOAD SWAP1 PUSH2 0x100 EXP SWAP1 DIV PUSH20 0xFFFFFFFFFFFFFFFFFFFFFFFFFFFFFFFFFFFFFFFF AND PUSH1 0x40 MLOAD PUSH2 0xA03 SWAP3 SWAP2 SWAP1 PUSH2 0x10E4 JUMP JUMPDEST PUSH1 0x40 MLOAD DUP1 SWAP2 SUB SWAP1 LOG2 JUMPDEST JUMPDEST POP JUMP JUMPDEST PUSH0 PUSH2 0xA1A CALLER PUSH2 0x740 JUMP JUMPDEST PUSH2 0xA22 JUMPI PUSH0 DUP1 REVERT JUMPDEST DUP3 PUSH20 0xFFFFFFFFFFFFFFFFFFFFFFFFFFFFFFFFFFFFFFFF AND CALLER PUSH20 0xFFFFFFFFFFFFFFFFFFFFFFFFFFFFFFFFFFFFFFFF AND SUB PUSH2 0xA90 JUMPI PUSH1 0x40 MLOAD PUSH32 0x8C379A000000000000000000000000000000000000000000000000000000000 DUP2 MSTORE PUSH1 0x4 ADD PUSH2 0xA87 SWAP1 PUSH2 0x118B JUMP JUMPDEST PUSH1 0x40 MLOAD DUP1 SWAP2 SUB SWAP1 REVERT JUMPDEST PUSH0 SELFBALANCE SWAP1 POP DUP4 PUSH20 0xFFFFFFFFFFFFFFFFFFFFFFFFFFFFFFFFFFFFFFFF AND PUSH2 0x8FC DUP5 SWAP1 DUP2 ISZERO MUL SWAP1 PUSH1 0x40 MLOAD PUSH0 PUSH1 0x40 MLOAD DUP1 DUP4 SUB DUP2 DUP6 DUP9 DUP9 CALL SWAP4 POP POP POP POP ISZERO DUP1 ISZERO PUSH2 0xAD7 JUMPI RETURNDATASIZE PUSH0 DUP1 RETURNDATACOPY RETURNDATASIZE PUSH0 REVERT JUMPDEST POP DUP3 DUP2 PUSH2 0xAE4 SWAP2 SWAP1 PUSH2 0xF9F JUMP JUMPDEST SELFBALANCE SUB PUSH2 0xAF4 JUMPI PUSH1 0x1 SWAP2 POP POP PUSH2 0xAF9 JUMP JUMPDEST PUSH0 SWAP2 POP POP JUMPDEST SWAP3 SWAP2 POP POP JUMP JUMPDEST DUP3 DUP1 SLOAD DUP3 DUP3 SSTORE SWAP1 PUSH0 MSTORE PUSH1 0x20 PUSH0 KECCAK256 SWAP1 DUP2 ADD SWAP3 DUP3 ISZERO PUSH2 0xB75 JUMPI SWAP2 PUSH1 0x20 MUL DUP3 ADD JUMPDEST DUP3 DUP2 GT ISZERO PUSH2 0xB74 JUMPI DUP3 MLOAD DUP3 PUSH0 PUSH2 0x100 EXP DUP2 SLOAD DUP2 PUSH20 0xFFFFFFFFFFFFFFFFFFFFFFFFFFFFFFFFFFFFFFFF MUL NOT AND SWAP1 DUP4 PUSH20 0xFFFFFFFFFFFFFFFFFFFFFFFFFFFFFFFFFFFFFFFF AND MUL OR SWAP1 SSTORE POP SWAP2 PUSH1 0x20 ADD SWAP2 SWAP1 PUSH1 0x1 ADD SWAP1 PUSH2 0xB1D JUMP JUMPDEST JUMPDEST POP SWAP1 POP PUSH2 0xB82 SWAP2 SWAP1 PUSH2 0xB86 JUMP JUMPDEST POP SWAP1 JUMP JUMPDEST JUMPDEST DUP1 DUP3 GT ISZERO PUSH2 0xB9D JUMPI PUSH0 DUP2 PUSH0 SWAP1 SSTORE POP PUSH1 0x1 ADD PUSH2 0xB87 JUMP JUMPDEST POP SWAP1 JUMP JUMPDEST PUSH0 DUP2 SWAP1 POP SWAP2 SWAP1 POP JUMP JUMPDEST PUSH2 0xBB3 DUP2 PUSH2 0xBA1 JUMP JUMPDEST DUP3 MSTORE POP POP JUMP JUMPDEST PUSH0 PUSH1 0x20 DUP3 ADD SWAP1 POP PUSH2 0xBCC PUSH0 DUP4 ADD DUP5 PUSH2 0xBAA JUMP JUMPDEST SWAP3 SWAP2 POP POP JUMP JUMPDEST PUSH0 DUP1 REVERT JUMPDEST PUSH0 PUSH20 0xFFFFFFFFFFFFFFFFFFFFFFFFFFFFFFFFFFFFFFFF DUP3 AND SWAP1 POP SWAP2 SWAP1 POP JUMP JUMPDEST PUSH0 PUSH2 0xBFF DUP3 PUSH2 0xBD6 JUMP JUMPDEST SWAP1 POP SWAP2 SWAP1 POP JUMP JUMPDEST PUSH2 0xC0F DUP2 PUSH2 0xBF5 JUMP JUMPDEST DUP2 EQ PUSH2 0xC19 JUMPI PUSH0 DUP1 REVERT JUMPDEST POP JUMP JUMPDEST PUSH0 DUP2 CALLDATALOAD SWAP1 POP PUSH2 0xC2A DUP2 PUSH2 0xC06 JUMP JUMPDEST SWAP3 SWAP2 POP POP JUMP JUMPDEST PUSH2 0xC39 DUP2 PUSH2 0xBA1 JUMP JUMPDEST DUP2 EQ PUSH2 0xC43 JUMPI PUSH0 DUP1 REVERT JUMPDEST POP JUMP JUMPDEST PUSH0 DUP2 CALLDATALOAD SWAP1 POP PUSH2 0xC54 DUP2 PUSH2 0xC30 JUMP JUMPDEST SWAP3 SWAP2 POP POP JUMP JUMPDEST PUSH0 DUP1 PUSH1 0x40 DUP4 DUP6 SUB SLT ISZERO PUSH2 0xC70 JUMPI PUSH2 0xC6F PUSH2 0xBD2 JUMP JUMPDEST JUMPDEST PUSH0 PUSH2 0xC7D DUP6 DUP3 DUP7 ADD PUSH2 0xC1C JUMP JUMPDEST SWAP3 POP POP PUSH1 0x20 PUSH2 0xC8E DUP6 DUP3 DUP7 ADD PUSH2 0xC46 JUMP JUMPDEST SWAP2 POP POP SWAP3 POP SWAP3 SWAP1 POP JUMP JUMPDEST PUSH0 DUP2 MLOAD SWAP1 POP SWAP2 SWAP1 POP JUMP JUMPDEST PUSH0 DUP3 DUP3 MSTORE PUSH1 0x20 DUP3 ADD SWAP1 POP SWAP3 SWAP2 POP POP JUMP JUMPDEST PUSH0 DUP2 SWAP1 POP PUSH1 0x20 DUP3 ADD SWAP1 POP SWAP2 SWAP1 POP JUMP JUMPDEST PUSH0 PUSH2 0xCCB DUP3 PUSH2 0xBD6 JUMP JUMPDEST SWAP1 POP SWAP2 SWAP1 POP JUMP JUMPDEST PUSH2 0xCDB DUP2 PUSH2 0xCC1 JUMP JUMPDEST DUP3 MSTORE POP POP JUMP JUMPDEST PUSH2 0xCEA DUP2 PUSH2 0xBA1 JUMP JUMPDEST DUP3 MSTORE POP POP JUMP JUMPDEST PUSH0 DUP2 ISZERO ISZERO SWAP1 POP SWAP2 SWAP1 POP JUMP JUMPDEST PUSH2 0xD04 DUP2 PUSH2 0xCF0 JUMP JUMPDEST DUP3 MSTORE POP POP JUMP JUMPDEST PUSH0 DUP2 MLOAD SWAP1 POP SWAP2 SWAP1 POP JUMP JUMPDEST PUSH0 DUP3 DUP3 MSTORE PUSH1 0x20 DUP3 ADD SWAP1 POP SWAP3 SWAP2 POP POP JUMP JUMPDEST PUSH0 DUP2 SWAP1 POP PUSH1 0x20 DUP3 ADD SWAP1 POP SWAP2 SWAP1 POP JUMP JUMPDEST PUSH2 0xD3C DUP2 PUSH2 0xBF5 JUMP JUMPDEST DUP3 MSTORE POP POP JUMP JUMPDEST PUSH0 PUSH2 0xD4D DUP4 DUP4 PUSH2 0xD33 JUMP JUMPDEST PUSH1 0x20 DUP4 ADD SWAP1 POP SWAP3 SWAP2 POP POP JUMP JUMPDEST PUSH0 PUSH1 0x20 DUP3 ADD SWAP1 POP SWAP2 SWAP1 POP JUMP JUMPDEST PUSH0 PUSH2 0xD6F DUP3 PUSH2 0xD0A JUMP JUMPDEST PUSH2 0xD79 DUP2 DUP6 PUSH2 0xD14 JUMP JUMPDEST SWAP4 POP PUSH2 0xD84 DUP4 PUSH2 0xD24 JUMP JUMPDEST DUP1 PUSH0 JUMPDEST DUP4 DUP2 LT ISZERO PUSH2 0xDB4 JUMPI DUP2 MLOAD PUSH2 0xD9B DUP9 DUP3 PUSH2 0xD42 JUMP JUMPDEST SWAP8 POP PUSH2 0xDA6 DUP4 PUSH2 0xD59 JUMP JUMPDEST SWAP3 POP POP PUSH1 0x1 DUP2 ADD SWAP1 POP PUSH2 0xD87 JUMP JUMPDEST POP DUP6 SWAP4 POP POP POP POP SWAP3 SWAP2 POP POP JUMP JUMPDEST PUSH0 PUSH1 0xA0 DUP4 ADD PUSH0 DUP4 ADD MLOAD PUSH2 0xDD6 PUSH0 DUP7 ADD DUP3 PUSH2 0xCD2 JUMP JUMPDEST POP PUSH1 0x20 DUP4 ADD MLOAD PUSH2 0xDE9 PUSH1 0x20 DUP7 ADD DUP3 PUSH2 0xCD2 JUMP JUMPDEST POP PUSH1 0x40 DUP4 ADD MLOAD PUSH2 0xDFC PUSH1 0x40 DUP7 ADD DUP3 PUSH2 0xCE1 JUMP JUMPDEST POP PUSH1 0x60 DUP4 ADD MLOAD PUSH2 0xE0F PUSH1 0x60 DUP7 ADD DUP3 PUSH2 0xCFB JUMP JUMPDEST POP PUSH1 0x80 DUP4 ADD MLOAD DUP5 DUP3 SUB PUSH1 0x80 DUP7 ADD MSTORE PUSH2 0xE27 DUP3 DUP3 PUSH2 0xD65 JUMP JUMPDEST SWAP2 POP POP DUP1 SWAP2 POP POP SWAP3 SWAP2 POP POP JUMP JUMPDEST PUSH0 PUSH2 0xE3F DUP4 DUP4 PUSH2 0xDC1 JUMP JUMPDEST SWAP1 POP SWAP3 SWAP2 POP POP JUMP JUMPDEST PUSH0 PUSH1 0x20 DUP3 ADD SWAP1 POP SWAP2 SWAP1 POP JUMP JUMPDEST PUSH0 PUSH2 0xE5D DUP3 PUSH2 0xC98 JUMP JUMPDEST PUSH2 0xE67 DUP2 DUP6 PUSH2 0xCA2 JUMP JUMPDEST SWAP4 POP DUP4 PUSH1 0x20 DUP3 MUL DUP6 ADD PUSH2 0xE79 DUP6 PUSH2 0xCB2 JUMP JUMPDEST DUP1 PUSH0 JUMPDEST DUP6 DUP2 LT ISZERO PUSH2 0xEB4 JUMPI DUP5 DUP5 SUB DUP10 MSTORE DUP2 MLOAD PUSH2 0xE95 DUP6 DUP3 PUSH2 0xE34 JUMP JUMPDEST SWAP5 POP PUSH2 0xEA0 DUP4 PUSH2 0xE47 JUMP JUMPDEST SWAP3 POP PUSH1 0x20 DUP11 ADD SWAP10 POP POP PUSH1 0x1 DUP2 ADD SWAP1 POP PUSH2 0xE7C JUMP JUMPDEST POP DUP3 SWAP8 POP DUP8 SWAP6 POP POP POP POP POP POP SWAP3 SWAP2 POP POP JUMP JUMPDEST PUSH0 PUSH1 0x20 DUP3 ADD SWAP1 POP DUP2 DUP2 SUB PUSH0 DUP4 ADD MSTORE PUSH2 0xEDE DUP2 DUP5 PUSH2 0xE53 JUMP JUMPDEST SWAP1 POP SWAP3 SWAP2 POP POP JUMP JUMPDEST PUSH0 PUSH1 0x20 DUP3 DUP5 SUB SLT ISZERO PUSH2 0xEFB JUMPI PUSH2 0xEFA PUSH2 0xBD2 JUMP JUMPDEST JUMPDEST PUSH0 PUSH2 0xF08 DUP5 DUP3 DUP6 ADD PUSH2 0xC46 JUMP JUMPDEST SWAP2 POP POP SWAP3 SWAP2 POP POP JUMP JUMPDEST PUSH2 0xF1A DUP2 PUSH2 0xBF5 JUMP JUMPDEST DUP3 MSTORE POP POP JUMP JUMPDEST PUSH2 0xF29 DUP2 PUSH2 0xCF0 JUMP JUMPDEST DUP3 MSTORE POP POP JUMP JUMPDEST PUSH0 PUSH1 0x80 DUP3 ADD SWAP1 POP PUSH2 0xF42 PUSH0 DUP4 ADD DUP8 PUSH2 0xF11 JUMP JUMPDEST PUSH2 0xF4F PUSH1 0x20 DUP4 ADD DUP7 PUSH2 0xBAA JUMP JUMPDEST PUSH2 0xF5C PUSH1 0x40 DUP4 ADD DUP6 PUSH2 0xF20 JUMP JUMPDEST PUSH2 0xF69 PUSH1 0x60 DUP4 ADD DUP5 PUSH2 0xBAA JUMP JUMPDEST SWAP6 SWAP5 POP POP POP POP POP JUMP JUMPDEST PUSH32 0x4E487B7100000000000000000000000000000000000000000000000000000000 PUSH0 MSTORE PUSH1 0x11 PUSH1 0x4 MSTORE PUSH1 0x24 PUSH0 REVERT JUMPDEST PUSH0 PUSH2 0xFA9 DUP3 PUSH2 0xBA1 JUMP JUMPDEST SWAP2 POP PUSH2 0xFB4 DUP4 PUSH2 0xBA1 JUMP JUMPDEST SWAP3 POP DUP3 DUP3 SUB SWAP1 POP DUP2 DUP2 GT ISZERO PUSH2 0xFCC JUMPI PUSH2 0xFCB PUSH2 0xF72 JUMP JUMPDEST JUMPDEST SWAP3 SWAP2 POP POP JUMP JUMPDEST PUSH0 PUSH1 0x80 DUP3 ADD SWAP1 POP PUSH2 0xFE5 PUSH0 DUP4 ADD DUP8 PUSH2 0xBAA JUMP JUMPDEST PUSH2 0xFF2 PUSH1 0x20 DUP4 ADD DUP7 PUSH2 0xBAA JUMP JUMPDEST PUSH2 0xFFF PUSH1 0x40 DUP4 ADD DUP6 PUSH2 0xF11 JUMP JUMPDEST PUSH2 0x100C PUSH1 0x60 DUP4 ADD DUP5 PUSH2 0xF11 JUMP JUMPDEST SWAP6 SWAP5 POP POP POP POP POP JUMP JUMPDEST PUSH32 0x4E487B7100000000000000000000000000000000000000000000000000000000 PUSH0 MSTORE PUSH1 0x32 PUSH1 0x4 MSTORE PUSH1 0x24 PUSH0 REVERT JUMPDEST PUSH0 PUSH2 0x104C DUP3 PUSH2 0xBA1 JUMP JUMPDEST SWAP2 POP PUSH32 0xFFFFFFFFFFFFFFFFFFFFFFFFFFFFFFFFFFFFFFFFFFFFFFFFFFFFFFFFFFFFFFFF DUP3 SUB PUSH2 0x107E JUMPI PUSH2 0x107D PUSH2 0xF72 JUMP JUMPDEST JUMPDEST PUSH1 0x1 DUP3 ADD SWAP1 POP SWAP2 SWAP1 POP JUMP JUMPDEST PUSH0 DUP2 SWAP1 POP SWAP2 SWAP1 POP JUMP JUMPDEST PUSH0 PUSH2 0x10AC PUSH2 0x10A7 PUSH2 0x10A2 DUP5 PUSH2 0xBD6 JUMP JUMPDEST PUSH2 0x1089 JUMP JUMPDEST PUSH2 0xBD6 JUMP JUMPDEST SWAP1 POP SWAP2 SWAP1 POP JUMP JUMPDEST PUSH0 PUSH2 0x10BD DUP3 PUSH2 0x1092 JUMP JUMPDEST SWAP1 POP SWAP2 SWAP1 POP JUMP JUMPDEST PUSH0 PUSH2 0x10CE DUP3 PUSH2 0x10B3 JUMP JUMPDEST SWAP1 POP SWAP2 SWAP1 POP JUMP JUMPDEST PUSH2 0x10DE DUP2 PUSH2 0x10C4 JUMP JUMPDEST DUP3 MSTORE POP POP JUMP JUMPDEST PUSH0 PUSH1 0x40 DUP3 ADD SWAP1 POP PUSH2 0x10F7 PUSH0 DUP4 ADD DUP6 PUSH2 0xBAA JUMP JUMPDEST PUSH2 0x1104 PUSH1 0x20 DUP4 ADD DUP5 PUSH2 0x10D5 JUMP JUMPDEST SWAP4 SWAP3 POP POP POP JUMP JUMPDEST PUSH0 DUP3 DUP3 MSTORE PUSH1 0x20 DUP3 ADD SWAP1 POP SWAP3 SWAP2 POP POP JUMP JUMPDEST PUSH32 0x596F752063616E27742073656E64206D6F6E657920746F20796F757273656C66 PUSH0 DUP3 ADD MSTORE PUSH32 0x2E00000000000000000000000000000000000000000000000000000000000000 PUSH1 0x20 DUP3 ADD MSTORE POP JUMP JUMPDEST PUSH0 PUSH2 0x1175 PUSH1 0x21 DUP4 PUSH2 0x110B JUMP JUMPDEST SWAP2 POP PUSH2 0x1180 DUP3 PUSH2 0x111B JUMP JUMPDEST PUSH1 0x40 DUP3 ADD SWAP1 POP SWAP2 SWAP1 POP JUMP JUMPDEST PUSH0 PUSH1 0x20 DUP3 ADD SWAP1 POP DUP2 DUP2 SUB PUSH0 DUP4 ADD MSTORE PUSH2 0x11A2 DUP2 PUSH2 0x1169 JUMP JUMPDEST SWAP1 POP SWAP2 SWAP1 POP JUMP INVALID LOG2 PUSH5 0x6970667358 0x22 SLT KECCAK256 0xD PUSH30 0x483FD12C42984AA01EC0CA5E4BC78195319B31B098097D1FE8DC302E88BE PUSH5 0x736F6C6343 STOP ADDMOD ISZERO STOP CALLER "
				},
				"gasEstimates": {
					"creation": {
						"codeDepositCost": "915000",
						"executionCost": "infinite",
						"totalCost": "infinite"
					},
					"external": {
						"approve(uint256)": "infinite",
						"createTnx(address,uint256)": "infinite",
						"deposit()": "infinite",
						"getBalance()": "312",
						"getTrnx(uint256)": "infinite"
					},
					"internal": {
						"aprovedSuccess(uint256)": "infinite",
						"exists(address)": "infinite",
						"transfer(address,uint256)": "infinite"
					}
				},
				"methodIdentifiers": {
					"approve(uint256)": "b759f954",
					"createTnx(address,uint256)": "7d0b3805",
					"deposit()": "d0e30db0",
					"getBalance()": "12065fe0",
					"getTrnx(uint256)": "dddfec70"
				}
			},
			"storageLayout": {
				"storage": [
					{
						"astId": 4,
						"contract": "contracts/MultisigWallet.sol:MultisigWallet",
						"label": "owners",
						"offset": 0,
						"slot": "0",
						"type": "t_array(t_address)dyn_storage"
					},
					{
						"astId": 6,
						"contract": "contracts/MultisigWallet.sol:MultisigWallet",
						"label": "mininimum",
						"offset": 0,
						"slot": "1",
						"type": "t_uint256"
					},
					{
						"astId": 22,
						"contract": "contracts/MultisigWallet.sol:MultisigWallet",
						"label": "transfersScope",
						"offset": 0,
						"slot": "2",
						"type": "t_array(t_struct(Transfer)18_storage)dyn_storage"
					}
				],
				"types": {
					"t_address": {
						"encoding": "inplace",
						"label": "address",
						"numberOfBytes": "20"
					},
					"t_address_payable": {
						"encoding": "inplace",
						"label": "address payable",
						"numberOfBytes": "20"
					},
					"t_array(t_address)dyn_storage": {
						"base": "t_address",
						"encoding": "dynamic_array",
						"label": "address[]",
						"numberOfBytes": "32"
					},
					"t_array(t_struct(Transfer)18_storage)dyn_storage": {
						"base": "t_struct(Transfer)18_storage",
						"encoding": "dynamic_array",
						"label": "struct MultisigWallet.Transfer[]",
						"numberOfBytes": "32"
					},
					"t_bool": {
						"encoding": "inplace",
						"label": "bool",
						"numberOfBytes": "1"
					},
					"t_struct(Transfer)18_storage": {
						"encoding": "inplace",
						"label": "struct MultisigWallet.Transfer",
						"members": [
							{
								"astId": 8,
								"contract": "contracts/MultisigWallet.sol:MultisigWallet",
								"label": "sender",
								"offset": 0,
								"slot": "0",
								"type": "t_address_payable"
							},
							{
								"astId": 10,
								"contract": "contracts/MultisigWallet.sol:MultisigWallet",
								"label": "recipient",
								"offset": 0,
								"slot": "1",
								"type": "t_address_payable"
							},
							{
								"astId": 12,
								"contract": "contracts/MultisigWallet.sol:MultisigWallet",
								"label": "amount",
								"offset": 0,
								"slot": "2",
								"type": "t_uint256"
							},
							{
								"astId": 14,
								"contract": "contracts/MultisigWallet.sol:MultisigWallet",
								"label": "tnxSent",
								"offset": 0,
								"slot": "3",
								"type": "t_bool"
							},
							{
								"astId": 17,
								"contract": "contracts/MultisigWallet.sol:MultisigWallet",
								"label": "ownersAproved",
								"offset": 0,
								"slot": "4",
								"type": "t_array(t_address)dyn_storage"
							}
						],
						"numberOfBytes": "160"
					},
					"t_uint256": {
						"encoding": "inplace",
						"label": "uint256",
						"numberOfBytes": "32"
					}
				}
			},
			"userdoc": {
				"kind": "user",
				"methods": {},
				"version": 1
			}
		}
	}
}