{
	"contracts/MultisigWallet.sol": {
		"MultisigWallet": {
			"abi": [
				{
					"inputs": [
						{
							"internalType": "address[]",
							"name": "_owners",
							"type": "address[]"
						},
						{
							"internalType": "uint256",
							"name": "_minimum",
							"type": "uint256"
						}
					],
					"stateMutability": "nonpayable",
					"type": "constructor"
				},
				{
					"anonymous": false,
					"inputs": [
						{
							"indexed": false,
							"internalType": "uint256",
							"name": "_txid",
							"type": "uint256"
						},
						{
							"indexed": false,
							"internalType": "uint256",
							"name": "_amount",
							"type": "uint256"
						},
						{
							"indexed": false,
							"internalType": "address",
							"name": "_initiator",
							"type": "address"
						},
						{
							"indexed": false,
							"internalType": "address",
							"name": "_receiver",
							"type": "address"
						}
					],
					"name": "TransferRequestCreated",
					"type": "event"
				},
				{
					"anonymous": false,
					"inputs": [
						{
							"indexed": false,
							"internalType": "uint256",
							"name": "amount",
							"type": "uint256"
						},
						{
							"indexed": true,
							"internalType": "address",
							"name": "deliveredTo",
							"type": "address"
						}
					],
					"name": "balanceAdded",
					"type": "event"
				},
				{
					"anonymous": false,
					"inputs": [
						{
							"indexed": false,
							"internalType": "uint256",
							"name": "amount",
							"type": "uint256"
						},
						{
							"indexed": true,
							"internalType": "address",
							"name": "sentFrom",
							"type": "address"
						},
						{
							"indexed": false,
							"internalType": "address",
							"name": "deliveredTo",
							"type": "address"
						}
					],
					"name": "transferedAmounts",
					"type": "event"
				},
				{
					"inputs": [
						{
							"internalType": "uint256",
							"name": "_index",
							"type": "uint256"
						}
					],
					"name": "approve",
					"outputs": [],
					"stateMutability": "nonpayable",
					"type": "function"
				},
				{
					"inputs": [
						{
							"internalType": "address",
							"name": "recipient",
							"type": "address"
						},
						{
							"internalType": "uint256",
							"name": "amount",
							"type": "uint256"
						}
					],
					"name": "createTnx",
					"outputs": [
						{
							"components": [
								{
									"internalType": "address payable",
									"name": "sender",
									"type": "address"
								},
								{
									"internalType": "address payable",
									"name": "recipient",
									"type": "address"
								},
								{
									"internalType": "uint256",
									"name": "amount",
									"type": "uint256"
								},
								{
									"internalType": "bool",
									"name": "tnxSent",
									"type": "bool"
								},
								{
									"internalType": "address[]",
									"name": "ownersAproved",
									"type": "address[]"
								}
							],
							"internalType": "struct MultisigWallet.Transfer[]",
							"name": "",
							"type": "tuple[]"
						}
					],
					"stateMutability": "nonpayable",
					"type": "function"
				},
				{
					"inputs": [],
					"name": "deposit",
					"outputs": [
						{
							"internalType": "uint256",
							"name": "",
							"type": "uint256"
						}
					],
					"stateMutability": "payable",
					"type": "function"
				},
				{
					"inputs": [],
					"name": "getBalance",
					"outputs": [
						{
							"internalType": "uint256",
							"name": "",
							"type": "uint256"
						}
					],
					"stateMutability": "view",
					"type": "function"
				},
				{
					"inputs": [
						{
							"internalType": "uint256",
							"name": "_index",
							"type": "uint256"
						}
					],
					"name": "getTrnx",
					"outputs": [
						{
							"internalType": "address",
							"name": "",
							"type": "address"
						},
						{
							"internalType": "uint256",
							"name": "",
							"type": "uint256"
						},
						{
							"internalType": "bool",
							"name": "",
							"type": "bool"
						},
						{
							"internalType": "uint256",
							"name": "",
							"type": "uint256"
						}
					],
					"stateMutability": "view",
					"type": "function"
				}
			],
			"devdoc": {
				"kind": "dev",
				"methods": {},
				"version": 1
			},
			"evm": {
				"assembly": "    /* \"contracts/MultisigWallet.sol\":65:4420  contract MultisigWallet {... */\n  mstore(0x40, 0x80)\n    /* \"contracts/MultisigWallet.sol\":1014:1129  constructor(address[] memory _owners, uint _minimum){... */\n  callvalue\n  dup1\n  iszero\n  tag_1\n  jumpi\n  0x00\n  dup1\n  revert\ntag_1:\n  pop\n  mload(0x40)\n  sub(codesize, bytecodeSize)\n  dup1\n  bytecodeSize\n  dup4\n  codecopy\n  dup2\n  dup2\n  add\n  0x40\n  mstore\n  dup2\n  add\n  swap1\n  tag_2\n  swap2\n  swap1\n  tag_3\n  jump\t// in\ntag_2:\n    /* \"contracts/MultisigWallet.sol\":1085:1092  _owners */\n  dup2\n    /* \"contracts/MultisigWallet.sol\":1076:1082  owners */\n  0x00\n    /* \"contracts/MultisigWallet.sol\":1076:1092  owners = _owners */\n  swap1\n  dup1\n  mload\n  swap1\n  0x20\n  add\n  swap1\n  tag_6\n  swap3\n  swap2\n  swap1\n  tag_7\n  jump\t// in\ntag_6:\n  pop\n    /* \"contracts/MultisigWallet.sol\":1114:1122  _minimum */\n  dup1\n    /* \"contracts/MultisigWallet.sol\":1102:1111  mininimum */\n  0x01\n    /* \"contracts/MultisigWallet.sol\":1102:1122  mininimum = _minimum */\n  dup2\n  swap1\n  sstore\n  pop\n    /* \"contracts/MultisigWallet.sol\":1014:1129  constructor(address[] memory _owners, uint _minimum){... */\n  pop\n  pop\n    /* \"contracts/MultisigWallet.sol\":65:4420  contract MultisigWallet {... */\n  jump(tag_8)\ntag_7:\n  dup3\n  dup1\n  sload\n  dup3\n  dup3\n  sstore\n  swap1\n  0x00\n  mstore\n  keccak256(0x00, 0x20)\n  swap1\n  dup2\n  add\n  swap3\n  dup3\n  iszero\n  tag_9\n  jumpi\n  swap2\n  0x20\n  mul\n  dup3\n  add\ntag_10:\n  dup3\n  dup2\n  gt\n  iszero\n  tag_11\n  jumpi\n  dup3\n  mload\n  dup3\n  exp(0x0100, 0x00)\n  dup2\n  sload\n  dup2\n  0xffffffffffffffffffffffffffffffffffffffff\n  mul\n  not\n  and\n  swap1\n  dup4\n  0xffffffffffffffffffffffffffffffffffffffff\n  and\n  mul\n  or\n  swap1\n  sstore\n  pop\n  swap2\n  0x20\n  add\n  swap2\n  swap1\n  0x01\n  add\n  swap1\n  jump(tag_10)\ntag_11:\ntag_9:\n  pop\n  swap1\n  pop\n  tag_12\n  swap2\n  swap1\n  tag_13\n  jump\t// in\ntag_12:\n  pop\n  swap1\n  jump\t// out\ntag_13:\ntag_14:\n  dup1\n  dup3\n  gt\n  iszero\n  tag_15\n  jumpi\n  0x00\n  dup2\n  0x00\n  swap1\n  sstore\n  pop\n  0x01\n  add\n  jump(tag_14)\ntag_15:\n  pop\n  swap1\n  jump\t// out\n    /* \"#utility.yul\":7:82   */\ntag_16:\n    /* \"#utility.yul\":40:46   */\n  0x00\n    /* \"#utility.yul\":73:75   */\n  0x40\n    /* \"#utility.yul\":67:76   */\n  mload\n    /* \"#utility.yul\":57:76   */\n  swap1\n  pop\n    /* \"#utility.yul\":7:82   */\n  swap1\n  jump\t// out\n    /* \"#utility.yul\":88:205   */\ntag_17:\n    /* \"#utility.yul\":197:198   */\n  0x00\n    /* \"#utility.yul\":194:195   */\n  dup1\n    /* \"#utility.yul\":187:199   */\n  revert\n    /* \"#utility.yul\":211:328   */\ntag_18:\n    /* \"#utility.yul\":320:321   */\n  0x00\n    /* \"#utility.yul\":317:318   */\n  dup1\n    /* \"#utility.yul\":310:322   */\n  revert\n    /* \"#utility.yul\":334:451   */\ntag_19:\n    /* \"#utility.yul\":443:444   */\n  0x00\n    /* \"#utility.yul\":440:441   */\n  dup1\n    /* \"#utility.yul\":433:445   */\n  revert\n    /* \"#utility.yul\":457:559   */\ntag_20:\n    /* \"#utility.yul\":498:504   */\n  0x00\n    /* \"#utility.yul\":549:551   */\n  0x1f\n    /* \"#utility.yul\":545:552   */\n  not\n    /* \"#utility.yul\":540:542   */\n  0x1f\n    /* \"#utility.yul\":533:538   */\n  dup4\n    /* \"#utility.yul\":529:543   */\n  add\n    /* \"#utility.yul\":525:553   */\n  and\n    /* \"#utility.yul\":515:553   */\n  swap1\n  pop\n    /* \"#utility.yul\":457:559   */\n  swap2\n  swap1\n  pop\n  jump\t// out\n    /* \"#utility.yul\":565:745   */\ntag_21:\n    /* \"#utility.yul\":613:690   */\n  0x4e487b7100000000000000000000000000000000000000000000000000000000\n    /* \"#utility.yul\":610:611   */\n  0x00\n    /* \"#utility.yul\":603:691   */\n  mstore\n    /* \"#utility.yul\":710:714   */\n  0x41\n    /* \"#utility.yul\":707:708   */\n  0x04\n    /* \"#utility.yul\":700:715   */\n  mstore\n    /* \"#utility.yul\":734:738   */\n  0x24\n    /* \"#utility.yul\":731:732   */\n  0x00\n    /* \"#utility.yul\":724:739   */\n  revert\n    /* \"#utility.yul\":751:1032   */\ntag_22:\n    /* \"#utility.yul\":834:861   */\n  tag_43\n    /* \"#utility.yul\":856:860   */\n  dup3\n    /* \"#utility.yul\":834:861   */\n  tag_20\n  jump\t// in\ntag_43:\n    /* \"#utility.yul\":826:832   */\n  dup2\n    /* \"#utility.yul\":822:862   */\n  add\n    /* \"#utility.yul\":964:970   */\n  dup2\n    /* \"#utility.yul\":952:962   */\n  dup2\n    /* \"#utility.yul\":949:971   */\n  lt\n    /* \"#utility.yul\":928:946   */\n  0xffffffffffffffff\n    /* \"#utility.yul\":916:926   */\n  dup3\n    /* \"#utility.yul\":913:947   */\n  gt\n    /* \"#utility.yul\":910:972   */\n  or\n    /* \"#utility.yul\":907:995   */\n  iszero\n  tag_44\n  jumpi\n    /* \"#utility.yul\":975:993   */\n  tag_45\n  tag_21\n  jump\t// in\ntag_45:\n    /* \"#utility.yul\":907:995   */\ntag_44:\n    /* \"#utility.yul\":1015:1025   */\n  dup1\n    /* \"#utility.yul\":1011:1013   */\n  0x40\n    /* \"#utility.yul\":1004:1026   */\n  mstore\n    /* \"#utility.yul\":794:1032   */\n  pop\n    /* \"#utility.yul\":751:1032   */\n  pop\n  pop\n  jump\t// out\n    /* \"#utility.yul\":1038:1167   */\ntag_23:\n    /* \"#utility.yul\":1072:1078   */\n  0x00\n    /* \"#utility.yul\":1099:1119   */\n  tag_47\n  tag_16\n  jump\t// in\ntag_47:\n    /* \"#utility.yul\":1089:1119   */\n  swap1\n  pop\n    /* \"#utility.yul\":1128:1161   */\n  tag_48\n    /* \"#utility.yul\":1156:1160   */\n  dup3\n    /* \"#utility.yul\":1148:1154   */\n  dup3\n    /* \"#utility.yul\":1128:1161   */\n  tag_22\n  jump\t// in\ntag_48:\n    /* \"#utility.yul\":1038:1167   */\n  swap2\n  swap1\n  pop\n  jump\t// out\n    /* \"#utility.yul\":1173:1484   */\ntag_24:\n    /* \"#utility.yul\":1250:1254   */\n  0x00\n    /* \"#utility.yul\":1340:1358   */\n  0xffffffffffffffff\n    /* \"#utility.yul\":1332:1338   */\n  dup3\n    /* \"#utility.yul\":1329:1359   */\n  gt\n    /* \"#utility.yul\":1326:1382   */\n  iszero\n  tag_50\n  jumpi\n    /* \"#utility.yul\":1362:1380   */\n  tag_51\n  tag_21\n  jump\t// in\ntag_51:\n    /* \"#utility.yul\":1326:1382   */\ntag_50:\n    /* \"#utility.yul\":1412:1416   */\n  0x20\n    /* \"#utility.yul\":1404:1410   */\n  dup3\n    /* \"#utility.yul\":1400:1417   */\n  mul\n    /* \"#utility.yul\":1392:1417   */\n  swap1\n  pop\n    /* \"#utility.yul\":1472:1476   */\n  0x20\n    /* \"#utility.yul\":1466:1470   */\n  dup2\n    /* \"#utility.yul\":1462:1477   */\n  add\n    /* \"#utility.yul\":1454:1477   */\n  swap1\n  pop\n    /* \"#utility.yul\":1173:1484   */\n  swap2\n  swap1\n  pop\n  jump\t// out\n    /* \"#utility.yul\":1490:1607   */\ntag_25:\n    /* \"#utility.yul\":1599:1600   */\n  0x00\n    /* \"#utility.yul\":1596:1597   */\n  dup1\n    /* \"#utility.yul\":1589:1601   */\n  revert\n    /* \"#utility.yul\":1613:1739   */\ntag_26:\n    /* \"#utility.yul\":1650:1657   */\n  0x00\n    /* \"#utility.yul\":1690:1732   */\n  0xffffffffffffffffffffffffffffffffffffffff\n    /* \"#utility.yul\":1683:1688   */\n  dup3\n    /* \"#utility.yul\":1679:1733   */\n  and\n    /* \"#utility.yul\":1668:1733   */\n  swap1\n  pop\n    /* \"#utility.yul\":1613:1739   */\n  swap2\n  swap1\n  pop\n  jump\t// out\n    /* \"#utility.yul\":1745:1841   */\ntag_27:\n    /* \"#utility.yul\":1782:1789   */\n  0x00\n    /* \"#utility.yul\":1811:1835   */\n  tag_55\n    /* \"#utility.yul\":1829:1834   */\n  dup3\n    /* \"#utility.yul\":1811:1835   */\n  tag_26\n  jump\t// in\ntag_55:\n    /* \"#utility.yul\":1800:1835   */\n  swap1\n  pop\n    /* \"#utility.yul\":1745:1841   */\n  swap2\n  swap1\n  pop\n  jump\t// out\n    /* \"#utility.yul\":1847:1969   */\ntag_28:\n    /* \"#utility.yul\":1920:1944   */\n  tag_57\n    /* \"#utility.yul\":1938:1943   */\n  dup2\n    /* \"#utility.yul\":1920:1944   */\n  tag_27\n  jump\t// in\ntag_57:\n    /* \"#utility.yul\":1913:1918   */\n  dup2\n    /* \"#utility.yul\":1910:1945   */\n  eq\n    /* \"#utility.yul\":1900:1963   */\n  tag_58\n  jumpi\n    /* \"#utility.yul\":1959:1960   */\n  0x00\n    /* \"#utility.yul\":1956:1957   */\n  dup1\n    /* \"#utility.yul\":1949:1961   */\n  revert\n    /* \"#utility.yul\":1900:1963   */\ntag_58:\n    /* \"#utility.yul\":1847:1969   */\n  pop\n  jump\t// out\n    /* \"#utility.yul\":1975:2118   */\ntag_29:\n    /* \"#utility.yul\":2032:2037   */\n  0x00\n    /* \"#utility.yul\":2063:2069   */\n  dup2\n    /* \"#utility.yul\":2057:2070   */\n  mload\n    /* \"#utility.yul\":2048:2070   */\n  swap1\n  pop\n    /* \"#utility.yul\":2079:2112   */\n  tag_60\n    /* \"#utility.yul\":2106:2111   */\n  dup2\n    /* \"#utility.yul\":2079:2112   */\n  tag_28\n  jump\t// in\ntag_60:\n    /* \"#utility.yul\":1975:2118   */\n  swap3\n  swap2\n  pop\n  pop\n  jump\t// out\n    /* \"#utility.yul\":2141:2873   */\ntag_30:\n    /* \"#utility.yul\":2248:2253   */\n  0x00\n    /* \"#utility.yul\":2273:2354   */\n  tag_62\n    /* \"#utility.yul\":2289:2353   */\n  tag_63\n    /* \"#utility.yul\":2346:2352   */\n  dup5\n    /* \"#utility.yul\":2289:2353   */\n  tag_24\n  jump\t// in\ntag_63:\n    /* \"#utility.yul\":2273:2354   */\n  tag_23\n  jump\t// in\ntag_62:\n    /* \"#utility.yul\":2264:2354   */\n  swap1\n  pop\n    /* \"#utility.yul\":2374:2379   */\n  dup1\n    /* \"#utility.yul\":2403:2409   */\n  dup4\n    /* \"#utility.yul\":2396:2401   */\n  dup3\n    /* \"#utility.yul\":2389:2410   */\n  mstore\n    /* \"#utility.yul\":2437:2441   */\n  0x20\n    /* \"#utility.yul\":2430:2435   */\n  dup3\n    /* \"#utility.yul\":2426:2442   */\n  add\n    /* \"#utility.yul\":2419:2442   */\n  swap1\n  pop\n    /* \"#utility.yul\":2490:2494   */\n  0x20\n    /* \"#utility.yul\":2482:2488   */\n  dup5\n    /* \"#utility.yul\":2478:2495   */\n  mul\n    /* \"#utility.yul\":2470:2476   */\n  dup4\n    /* \"#utility.yul\":2466:2496   */\n  add\n    /* \"#utility.yul\":2519:2522   */\n  dup6\n    /* \"#utility.yul\":2511:2517   */\n  dup2\n    /* \"#utility.yul\":2508:2523   */\n  gt\n    /* \"#utility.yul\":2505:2627   */\n  iszero\n  tag_64\n  jumpi\n    /* \"#utility.yul\":2538:2617   */\n  tag_65\n  tag_25\n  jump\t// in\ntag_65:\n    /* \"#utility.yul\":2505:2627   */\ntag_64:\n    /* \"#utility.yul\":2653:2659   */\n  dup4\n    /* \"#utility.yul\":2636:2867   */\ntag_66:\n    /* \"#utility.yul\":2670:2676   */\n  dup2\n    /* \"#utility.yul\":2665:2668   */\n  dup2\n    /* \"#utility.yul\":2662:2677   */\n  lt\n    /* \"#utility.yul\":2636:2867   */\n  iszero\n  tag_68\n  jumpi\n    /* \"#utility.yul\":2745:2748   */\n  dup1\n    /* \"#utility.yul\":2774:2822   */\n  tag_69\n    /* \"#utility.yul\":2818:2821   */\n  dup9\n    /* \"#utility.yul\":2806:2816   */\n  dup3\n    /* \"#utility.yul\":2774:2822   */\n  tag_29\n  jump\t// in\ntag_69:\n    /* \"#utility.yul\":2769:2772   */\n  dup5\n    /* \"#utility.yul\":2762:2823   */\n  mstore\n    /* \"#utility.yul\":2852:2856   */\n  0x20\n    /* \"#utility.yul\":2847:2850   */\n  dup5\n    /* \"#utility.yul\":2843:2857   */\n  add\n    /* \"#utility.yul\":2836:2857   */\n  swap4\n  pop\n    /* \"#utility.yul\":2712:2867   */\n  pop\n    /* \"#utility.yul\":2696:2700   */\n  0x20\n    /* \"#utility.yul\":2691:2694   */\n  dup2\n    /* \"#utility.yul\":2687:2701   */\n  add\n    /* \"#utility.yul\":2680:2701   */\n  swap1\n  pop\n    /* \"#utility.yul\":2636:2867   */\n  jump(tag_66)\ntag_68:\n    /* \"#utility.yul\":2640:2661   */\n  pop\n    /* \"#utility.yul\":2254:2873   */\n  pop\n  pop\n    /* \"#utility.yul\":2141:2873   */\n  swap4\n  swap3\n  pop\n  pop\n  pop\n  jump\t// out\n    /* \"#utility.yul\":2896:3281   */\ntag_31:\n    /* \"#utility.yul\":2978:2983   */\n  0x00\n    /* \"#utility.yul\":3027:3030   */\n  dup3\n    /* \"#utility.yul\":3020:3024   */\n  0x1f\n    /* \"#utility.yul\":3012:3018   */\n  dup4\n    /* \"#utility.yul\":3008:3025   */\n  add\n    /* \"#utility.yul\":3004:3031   */\n  slt\n    /* \"#utility.yul\":2994:3116   */\n  tag_71\n  jumpi\n    /* \"#utility.yul\":3035:3114   */\n  tag_72\n  tag_19\n  jump\t// in\ntag_72:\n    /* \"#utility.yul\":2994:3116   */\ntag_71:\n    /* \"#utility.yul\":3145:3151   */\n  dup2\n    /* \"#utility.yul\":3139:3152   */\n  mload\n    /* \"#utility.yul\":3170:3275   */\n  tag_73\n    /* \"#utility.yul\":3271:3274   */\n  dup5\n    /* \"#utility.yul\":3263:3269   */\n  dup3\n    /* \"#utility.yul\":3256:3260   */\n  0x20\n    /* \"#utility.yul\":3248:3254   */\n  dup7\n    /* \"#utility.yul\":3244:3261   */\n  add\n    /* \"#utility.yul\":3170:3275   */\n  tag_30\n  jump\t// in\ntag_73:\n    /* \"#utility.yul\":3161:3275   */\n  swap2\n  pop\n    /* \"#utility.yul\":2984:3281   */\n  pop\n    /* \"#utility.yul\":2896:3281   */\n  swap3\n  swap2\n  pop\n  pop\n  jump\t// out\n    /* \"#utility.yul\":3287:3364   */\ntag_32:\n    /* \"#utility.yul\":3324:3331   */\n  0x00\n    /* \"#utility.yul\":3353:3358   */\n  dup2\n    /* \"#utility.yul\":3342:3358   */\n  swap1\n  pop\n    /* \"#utility.yul\":3287:3364   */\n  swap2\n  swap1\n  pop\n  jump\t// out\n    /* \"#utility.yul\":3370:3492   */\ntag_33:\n    /* \"#utility.yul\":3443:3467   */\n  tag_76\n    /* \"#utility.yul\":3461:3466   */\n  dup2\n    /* \"#utility.yul\":3443:3467   */\n  tag_32\n  jump\t// in\ntag_76:\n    /* \"#utility.yul\":3436:3441   */\n  dup2\n    /* \"#utility.yul\":3433:3468   */\n  eq\n    /* \"#utility.yul\":3423:3486   */\n  tag_77\n  jumpi\n    /* \"#utility.yul\":3482:3483   */\n  0x00\n    /* \"#utility.yul\":3479:3480   */\n  dup1\n    /* \"#utility.yul\":3472:3484   */\n  revert\n    /* \"#utility.yul\":3423:3486   */\ntag_77:\n    /* \"#utility.yul\":3370:3492   */\n  pop\n  jump\t// out\n    /* \"#utility.yul\":3498:3641   */\ntag_34:\n    /* \"#utility.yul\":3555:3560   */\n  0x00\n    /* \"#utility.yul\":3586:3592   */\n  dup2\n    /* \"#utility.yul\":3580:3593   */\n  mload\n    /* \"#utility.yul\":3571:3593   */\n  swap1\n  pop\n    /* \"#utility.yul\":3602:3635   */\n  tag_79\n    /* \"#utility.yul\":3629:3634   */\n  dup2\n    /* \"#utility.yul\":3602:3635   */\n  tag_33\n  jump\t// in\ntag_79:\n    /* \"#utility.yul\":3498:3641   */\n  swap3\n  swap2\n  pop\n  pop\n  jump\t// out\n    /* \"#utility.yul\":3647:4357   */\ntag_3:\n    /* \"#utility.yul\":3751:3757   */\n  0x00\n    /* \"#utility.yul\":3759:3765   */\n  dup1\n    /* \"#utility.yul\":3808:3810   */\n  0x40\n    /* \"#utility.yul\":3796:3805   */\n  dup4\n    /* \"#utility.yul\":3787:3794   */\n  dup6\n    /* \"#utility.yul\":3783:3806   */\n  sub\n    /* \"#utility.yul\":3779:3811   */\n  slt\n    /* \"#utility.yul\":3776:3895   */\n  iszero\n  tag_81\n  jumpi\n    /* \"#utility.yul\":3814:3893   */\n  tag_82\n  tag_17\n  jump\t// in\ntag_82:\n    /* \"#utility.yul\":3776:3895   */\ntag_81:\n    /* \"#utility.yul\":3955:3956   */\n  0x00\n    /* \"#utility.yul\":3944:3953   */\n  dup4\n    /* \"#utility.yul\":3940:3957   */\n  add\n    /* \"#utility.yul\":3934:3958   */\n  mload\n    /* \"#utility.yul\":3985:4003   */\n  0xffffffffffffffff\n    /* \"#utility.yul\":3977:3983   */\n  dup2\n    /* \"#utility.yul\":3974:4004   */\n  gt\n    /* \"#utility.yul\":3971:4088   */\n  iszero\n  tag_83\n  jumpi\n    /* \"#utility.yul\":4007:4086   */\n  tag_84\n  tag_18\n  jump\t// in\ntag_84:\n    /* \"#utility.yul\":3971:4088   */\ntag_83:\n    /* \"#utility.yul\":4112:4201   */\n  tag_85\n    /* \"#utility.yul\":4193:4200   */\n  dup6\n    /* \"#utility.yul\":4184:4190   */\n  dup3\n    /* \"#utility.yul\":4173:4182   */\n  dup7\n    /* \"#utility.yul\":4169:4191   */\n  add\n    /* \"#utility.yul\":4112:4201   */\n  tag_31\n  jump\t// in\ntag_85:\n    /* \"#utility.yul\":4102:4201   */\n  swap3\n  pop\n    /* \"#utility.yul\":3905:4211   */\n  pop\n    /* \"#utility.yul\":4250:4252   */\n  0x20\n    /* \"#utility.yul\":4276:4340   */\n  tag_86\n    /* \"#utility.yul\":4332:4339   */\n  dup6\n    /* \"#utility.yul\":4323:4329   */\n  dup3\n    /* \"#utility.yul\":4312:4321   */\n  dup7\n    /* \"#utility.yul\":4308:4330   */\n  add\n    /* \"#utility.yul\":4276:4340   */\n  tag_34\n  jump\t// in\ntag_86:\n    /* \"#utility.yul\":4266:4340   */\n  swap2\n  pop\n    /* \"#utility.yul\":4221:4350   */\n  pop\n    /* \"#utility.yul\":3647:4357   */\n  swap3\n  pop\n  swap3\n  swap1\n  pop\n  jump\t// out\n    /* \"contracts/MultisigWallet.sol\":65:4420  contract MultisigWallet {... */\ntag_8:\n  dataSize(sub_0)\n  dup1\n  dataOffset(sub_0)\n  0x00\n  codecopy\n  0x00\n  return\nstop\n\nsub_0: assembly {\n        /* \"contracts/MultisigWallet.sol\":65:4420  contract MultisigWallet {... */\n      mstore(0x40, 0x80)\n      jumpi(tag_1, lt(calldatasize, 0x04))\n      shr(0xe0, calldataload(0x00))\n      dup1\n      0x12065fe0\n      eq\n      tag_2\n      jumpi\n      dup1\n      0x7d0b3805\n      eq\n      tag_3\n      jumpi\n      dup1\n      0xb759f954\n      eq\n      tag_4\n      jumpi\n      dup1\n      0xd0e30db0\n      eq\n      tag_5\n      jumpi\n      dup1\n      0xdddfec70\n      eq\n      tag_6\n      jumpi\n    tag_1:\n      0x00\n      dup1\n      revert\n        /* \"contracts/MultisigWallet.sol\":4323:4417  function getBalance() public view returns (uint) {... */\n    tag_2:\n      callvalue\n      dup1\n      iszero\n      tag_7\n      jumpi\n      0x00\n      dup1\n      revert\n    tag_7:\n      pop\n      tag_8\n      tag_9\n      jump\t// in\n    tag_8:\n      mload(0x40)\n      tag_10\n      swap2\n      swap1\n      tag_11\n      jump\t// in\n    tag_10:\n      mload(0x40)\n      dup1\n      swap2\n      sub\n      swap1\n      return\n        /* \"contracts/MultisigWallet.sol\":1747:2126  function createTnx(address recipient, uint amount) public onlyOwners returns(Transfer[] memory) {... */\n    tag_3:\n      callvalue\n      dup1\n      iszero\n      tag_12\n      jumpi\n      0x00\n      dup1\n      revert\n    tag_12:\n      pop\n      tag_13\n      0x04\n      dup1\n      calldatasize\n      sub\n      dup2\n      add\n      swap1\n      tag_14\n      swap2\n      swap1\n      tag_15\n      jump\t// in\n    tag_14:\n      tag_16\n      jump\t// in\n    tag_13:\n      mload(0x40)\n      tag_17\n      swap2\n      swap1\n      tag_18\n      jump\t// in\n    tag_17:\n      mload(0x40)\n      dup1\n      swap2\n      sub\n      swap1\n      return\n        /* \"contracts/MultisigWallet.sol\":2508:3307  function approve(uint _index) public onlyOwners {... */\n    tag_4:\n      callvalue\n      dup1\n      iszero\n      tag_19\n      jumpi\n      0x00\n      dup1\n      revert\n    tag_19:\n      pop\n      tag_20\n      0x04\n      dup1\n      calldatasize\n      sub\n      dup2\n      add\n      swap1\n      tag_21\n      swap2\n      swap1\n      tag_22\n      jump\t// in\n    tag_21:\n      tag_23\n      jump\t// in\n    tag_20:\n      stop\n        /* \"contracts/MultisigWallet.sol\":1470:1658  function deposit() public payable returns (uint) {... */\n    tag_5:\n      tag_24\n      tag_25\n      jump\t// in\n    tag_24:\n      mload(0x40)\n      tag_26\n      swap2\n      swap1\n      tag_11\n      jump\t// in\n    tag_26:\n      mload(0x40)\n      dup1\n      swap2\n      sub\n      swap1\n      return\n        /* \"contracts/MultisigWallet.sol\":2184:2439  function getTrnx(uint _index) public view onlyOwners returns(address, uint, bool, uint) {... */\n    tag_6:\n      callvalue\n      dup1\n      iszero\n      tag_27\n      jumpi\n      0x00\n      dup1\n      revert\n    tag_27:\n      pop\n      tag_28\n      0x04\n      dup1\n      calldatasize\n      sub\n      dup2\n      add\n      swap1\n      tag_29\n      swap2\n      swap1\n      tag_22\n      jump\t// in\n    tag_29:\n      tag_30\n      jump\t// in\n    tag_28:\n      mload(0x40)\n      tag_31\n      swap5\n      swap4\n      swap3\n      swap2\n      swap1\n      tag_32\n      jump\t// in\n    tag_31:\n      mload(0x40)\n      dup1\n      swap2\n      sub\n      swap1\n      return\n        /* \"contracts/MultisigWallet.sol\":4323:4417  function getBalance() public view returns (uint) {... */\n    tag_9:\n        /* \"contracts/MultisigWallet.sol\":4366:4370  uint */\n      0x00\n        /* \"contracts/MultisigWallet.sol\":4389:4410  address(this).balance */\n      selfbalance\n        /* \"contracts/MultisigWallet.sol\":4382:4410  return address(this).balance */\n      swap1\n      pop\n        /* \"contracts/MultisigWallet.sol\":4323:4417  function getBalance() public view returns (uint) {... */\n      swap1\n      jump\t// out\n        /* \"contracts/MultisigWallet.sol\":1747:2126  function createTnx(address recipient, uint amount) public onlyOwners returns(Transfer[] memory) {... */\n    tag_16:\n        /* \"contracts/MultisigWallet.sol\":1824:1841  Transfer[] memory */\n      0x60\n        /* \"contracts/MultisigWallet.sol\":608:626  exists(msg.sender) */\n      tag_35\n        /* \"contracts/MultisigWallet.sol\":615:625  msg.sender */\n      caller\n        /* \"contracts/MultisigWallet.sol\":608:614  exists */\n      tag_36\n        /* \"contracts/MultisigWallet.sol\":608:626  exists(msg.sender) */\n      jump\t// in\n    tag_35:\n        /* \"contracts/MultisigWallet.sol\":600:627  require(exists(msg.sender)) */\n      tag_37\n      jumpi\n      0x00\n      dup1\n      revert\n    tag_37:\n        /* \"contracts/MultisigWallet.sol\":1853:1880  address[] memory emptyArray */\n      0x60\n        /* \"contracts/MultisigWallet.sol\":1890:1904  transfersScope */\n      0x02\n        /* \"contracts/MultisigWallet.sol\":1911:1988  Transfer(payable(msg.sender), payable(recipient), amount, false, emptyArray ) */\n      mload(0x40)\n      dup1\n      0xa0\n      add\n      0x40\n      mstore\n      dup1\n        /* \"contracts/MultisigWallet.sol\":1928:1938  msg.sender */\n      caller\n        /* \"contracts/MultisigWallet.sol\":1911:1988  Transfer(payable(msg.sender), payable(recipient), amount, false, emptyArray ) */\n      0xffffffffffffffffffffffffffffffffffffffff\n      and\n      dup2\n      mstore\n      0x20\n      add\n        /* \"contracts/MultisigWallet.sol\":1949:1958  recipient */\n      dup7\n        /* \"contracts/MultisigWallet.sol\":1911:1988  Transfer(payable(msg.sender), payable(recipient), amount, false, emptyArray ) */\n      0xffffffffffffffffffffffffffffffffffffffff\n      and\n      dup2\n      mstore\n      0x20\n      add\n        /* \"contracts/MultisigWallet.sol\":1961:1967  amount */\n      dup6\n        /* \"contracts/MultisigWallet.sol\":1911:1988  Transfer(payable(msg.sender), payable(recipient), amount, false, emptyArray ) */\n      dup2\n      mstore\n      0x20\n      add\n        /* \"contracts/MultisigWallet.sol\":1969:1974  false */\n      0x00\n        /* \"contracts/MultisigWallet.sol\":1911:1988  Transfer(payable(msg.sender), payable(recipient), amount, false, emptyArray ) */\n      iszero\n      iszero\n      dup2\n      mstore\n      0x20\n      add\n        /* \"contracts/MultisigWallet.sol\":1976:1986  emptyArray */\n      dup4\n        /* \"contracts/MultisigWallet.sol\":1911:1988  Transfer(payable(msg.sender), payable(recipient), amount, false, emptyArray ) */\n      dup2\n      mstore\n      pop\n        /* \"contracts/MultisigWallet.sol\":1890:1990  transfersScope.push( Transfer(payable(msg.sender), payable(recipient), amount, false, emptyArray ) ) */\n      swap1\n      dup1\n      0x01\n      dup2\n      sload\n      add\n      dup1\n      dup3\n      sstore\n      dup1\n      swap2\n      pop\n      pop\n      0x01\n      swap1\n      sub\n      swap1\n      0x00\n      mstore\n      keccak256(0x00, 0x20)\n      swap1\n      0x05\n      mul\n      add\n      0x00\n      swap1\n      swap2\n      swap1\n      swap2\n      swap1\n      swap2\n      pop\n      0x00\n      dup3\n      add\n      mload\n      dup2\n      0x00\n      add\n      exp(0x0100, 0x00)\n      dup2\n      sload\n      dup2\n      0xffffffffffffffffffffffffffffffffffffffff\n      mul\n      not\n      and\n      swap1\n      dup4\n      0xffffffffffffffffffffffffffffffffffffffff\n      and\n      mul\n      or\n      swap1\n      sstore\n      pop\n      0x20\n      dup3\n      add\n      mload\n      dup2\n      0x01\n      add\n      exp(0x0100, 0x00)\n      dup2\n      sload\n      dup2\n      0xffffffffffffffffffffffffffffffffffffffff\n      mul\n      not\n      and\n      swap1\n      dup4\n      0xffffffffffffffffffffffffffffffffffffffff\n      and\n      mul\n      or\n      swap1\n      sstore\n      pop\n      0x40\n      dup3\n      add\n      mload\n      dup2\n      0x02\n      add\n      sstore\n      0x60\n      dup3\n      add\n      mload\n      dup2\n      0x03\n      add\n      exp(0x0100, 0x00)\n      dup2\n      sload\n      dup2\n      0xff\n      mul\n      not\n      and\n      swap1\n      dup4\n      iszero\n      iszero\n      mul\n      or\n      swap1\n      sstore\n      pop\n      0x80\n      dup3\n      add\n      mload\n      dup2\n      0x04\n      add\n      swap1\n      dup1\n      mload\n      swap1\n      0x20\n      add\n      swap1\n      tag_40\n      swap3\n      swap2\n      swap1\n      tag_41\n      jump\t// in\n    tag_40:\n      pop\n      pop\n      pop\n        /* \"contracts/MultisigWallet.sol\":2005:2088  TransferRequestCreated( (transfersScope.length - 1), amount, msg.sender, recipient) */\n      0x099c4ec4ecfc26f7c8b27aeee5443f92120fa2c4e91ba6020369ae71a4d44278\n        /* \"contracts/MultisigWallet.sol\":2054:2055  1 */\n      0x01\n        /* \"contracts/MultisigWallet.sol\":2030:2044  transfersScope */\n      0x02\n        /* \"contracts/MultisigWallet.sol\":2030:2051  transfersScope.length */\n      dup1\n      sload\n      swap1\n      pop\n        /* \"contracts/MultisigWallet.sol\":2030:2055  transfersScope.length - 1 */\n      tag_42\n      swap2\n      swap1\n      tag_43\n      jump\t// in\n    tag_42:\n        /* \"contracts/MultisigWallet.sol\":2058:2064  amount */\n      dup5\n        /* \"contracts/MultisigWallet.sol\":2066:2076  msg.sender */\n      caller\n        /* \"contracts/MultisigWallet.sol\":2078:2087  recipient */\n      dup8\n        /* \"contracts/MultisigWallet.sol\":2005:2088  TransferRequestCreated( (transfersScope.length - 1), amount, msg.sender, recipient) */\n      mload(0x40)\n      tag_44\n      swap5\n      swap4\n      swap3\n      swap2\n      swap1\n      tag_45\n      jump\t// in\n    tag_44:\n      mload(0x40)\n      dup1\n      swap2\n      sub\n      swap1\n      log1\n        /* \"contracts/MultisigWallet.sol\":2105:2119  transfersScope */\n      0x02\n        /* \"contracts/MultisigWallet.sol\":2098:2119  return transfersScope */\n      dup1\n      sload\n      dup1\n      0x20\n      mul\n      0x20\n      add\n      mload(0x40)\n      swap1\n      dup2\n      add\n      0x40\n      mstore\n      dup1\n      swap3\n      swap2\n      swap1\n      dup2\n      dup2\n      mstore\n      0x20\n      add\n      0x00\n      swap1\n    tag_46:\n      dup3\n      dup3\n      lt\n      iszero\n      tag_47\n      jumpi\n      dup4\n      dup3\n      swap1\n      0x00\n      mstore\n      keccak256(0x00, 0x20)\n      swap1\n      0x05\n      mul\n      add\n      mload(0x40)\n      dup1\n      0xa0\n      add\n      0x40\n      mstore\n      swap1\n      dup2\n      0x00\n      dup3\n      add\n      0x00\n      swap1\n      sload\n      swap1\n      0x0100\n      exp\n      swap1\n      div\n      0xffffffffffffffffffffffffffffffffffffffff\n      and\n      0xffffffffffffffffffffffffffffffffffffffff\n      and\n      0xffffffffffffffffffffffffffffffffffffffff\n      and\n      dup2\n      mstore\n      0x20\n      add\n      0x01\n      dup3\n      add\n      0x00\n      swap1\n      sload\n      swap1\n      0x0100\n      exp\n      swap1\n      div\n      0xffffffffffffffffffffffffffffffffffffffff\n      and\n      0xffffffffffffffffffffffffffffffffffffffff\n      and\n      0xffffffffffffffffffffffffffffffffffffffff\n      and\n      dup2\n      mstore\n      0x20\n      add\n      0x02\n      dup3\n      add\n      sload\n      dup2\n      mstore\n      0x20\n      add\n      0x03\n      dup3\n      add\n      0x00\n      swap1\n      sload\n      swap1\n      0x0100\n      exp\n      swap1\n      div\n      0xff\n      and\n      iszero\n      iszero\n      iszero\n      iszero\n      dup2\n      mstore\n      0x20\n      add\n      0x04\n      dup3\n      add\n      dup1\n      sload\n      dup1\n      0x20\n      mul\n      0x20\n      add\n      mload(0x40)\n      swap1\n      dup2\n      add\n      0x40\n      mstore\n      dup1\n      swap3\n      swap2\n      swap1\n      dup2\n      dup2\n      mstore\n      0x20\n      add\n      dup3\n      dup1\n      sload\n      dup1\n      iszero\n      tag_49\n      jumpi\n      0x20\n      mul\n      dup3\n      add\n      swap2\n      swap1\n      0x00\n      mstore\n      keccak256(0x00, 0x20)\n      swap1\n    tag_50:\n      dup2\n      0x00\n      swap1\n      sload\n      swap1\n      0x0100\n      exp\n      swap1\n      div\n      0xffffffffffffffffffffffffffffffffffffffff\n      and\n      0xffffffffffffffffffffffffffffffffffffffff\n      and\n      dup2\n      mstore\n      0x20\n      add\n      swap1\n      0x01\n      add\n      swap1\n      dup1\n      dup4\n      gt\n      tag_50\n      jumpi\n    tag_49:\n      pop\n      pop\n      pop\n      pop\n      pop\n      dup2\n      mstore\n      pop\n      pop\n      dup2\n      mstore\n      0x20\n      add\n      swap1\n      0x01\n      add\n      swap1\n      jump(tag_46)\n    tag_47:\n      pop\n      pop\n      pop\n      pop\n      swap2\n      pop\n      pop\n        /* \"contracts/MultisigWallet.sol\":1747:2126  function createTnx(address recipient, uint amount) public onlyOwners returns(Transfer[] memory) {... */\n      swap3\n      swap2\n      pop\n      pop\n      jump\t// out\n        /* \"contracts/MultisigWallet.sol\":2508:3307  function approve(uint _index) public onlyOwners {... */\n    tag_23:\n        /* \"contracts/MultisigWallet.sol\":608:626  exists(msg.sender) */\n      tag_52\n        /* \"contracts/MultisigWallet.sol\":615:625  msg.sender */\n      caller\n        /* \"contracts/MultisigWallet.sol\":608:614  exists */\n      tag_36\n        /* \"contracts/MultisigWallet.sol\":608:626  exists(msg.sender) */\n      jump\t// in\n    tag_52:\n        /* \"contracts/MultisigWallet.sol\":600:627  require(exists(msg.sender)) */\n      tag_53\n      jumpi\n      0x00\n      dup1\n      revert\n    tag_53:\n        /* \"contracts/MultisigWallet.sol\":2580:2594  transfersScope */\n      0x02\n        /* \"contracts/MultisigWallet.sol\":2595:2601  _index */\n      dup2\n        /* \"contracts/MultisigWallet.sol\":2580:2602  transfersScope[_index] */\n      dup2\n      sload\n      dup2\n      lt\n      tag_55\n      jumpi\n      tag_56\n      tag_57\n      jump\t// in\n    tag_56:\n    tag_55:\n      swap1\n      0x00\n      mstore\n      keccak256(0x00, 0x20)\n      swap1\n      0x05\n      mul\n      add\n        /* \"contracts/MultisigWallet.sol\":2580:2610  transfersScope[_index].tnxSent */\n      0x03\n      add\n      0x00\n      swap1\n      sload\n      swap1\n      0x0100\n      exp\n      swap1\n      div\n      0xff\n      and\n        /* \"contracts/MultisigWallet.sol\":2575:3300  if( !transfersScope[_index].tnxSent ) {... */\n      tag_59\n      jumpi\n        /* \"contracts/MultisigWallet.sol\":2680:2681  0 */\n      0x00\n        /* \"contracts/MultisigWallet.sol\":2633:2647  transfersScope */\n      0x02\n        /* \"contracts/MultisigWallet.sol\":2648:2654  _index */\n      dup3\n        /* \"contracts/MultisigWallet.sol\":2633:2655  transfersScope[_index] */\n      dup2\n      sload\n      dup2\n      lt\n      tag_60\n      jumpi\n      tag_61\n      tag_57\n      jump\t// in\n    tag_61:\n    tag_60:\n      swap1\n      0x00\n      mstore\n      keccak256(0x00, 0x20)\n      swap1\n      0x05\n      mul\n      add\n        /* \"contracts/MultisigWallet.sol\":2633:2669  transfersScope[_index].ownersAproved */\n      0x04\n      add\n        /* \"contracts/MultisigWallet.sol\":2633:2676  transfersScope[_index].ownersAproved.length */\n      dup1\n      sload\n      swap1\n      pop\n        /* \"contracts/MultisigWallet.sol\":2633:2681  transfersScope[_index].ownersAproved.length == 0 */\n      sub\n        /* \"contracts/MultisigWallet.sol\":2628:3277  if ( transfersScope[_index].ownersAproved.length == 0 ) {... */\n      tag_63\n      jumpi\n        /* \"contracts/MultisigWallet.sol\":2703:2725  aprovedSuccess(_index) */\n      tag_64\n        /* \"contracts/MultisigWallet.sol\":2718:2724  _index */\n      dup2\n        /* \"contracts/MultisigWallet.sol\":2703:2717  aprovedSuccess */\n      tag_65\n        /* \"contracts/MultisigWallet.sol\":2703:2725  aprovedSuccess(_index) */\n      jump\t// in\n    tag_64:\n        /* \"contracts/MultisigWallet.sol\":2628:3277  if ( transfersScope[_index].ownersAproved.length == 0 ) {... */\n      jump(tag_66)\n    tag_63:\n        /* \"contracts/MultisigWallet.sol\":2862:2868  uint i */\n      0x00\n        /* \"contracts/MultisigWallet.sol\":2857:3262  for (uint i = 0; i < transfersScope[_index].ownersAproved.length; i++) {... */\n    tag_67:\n        /* \"contracts/MultisigWallet.sol\":2878:2892  transfersScope */\n      0x02\n        /* \"contracts/MultisigWallet.sol\":2893:2899  _index */\n      dup3\n        /* \"contracts/MultisigWallet.sol\":2878:2900  transfersScope[_index] */\n      dup2\n      sload\n      dup2\n      lt\n      tag_70\n      jumpi\n      tag_71\n      tag_57\n      jump\t// in\n    tag_71:\n    tag_70:\n      swap1\n      0x00\n      mstore\n      keccak256(0x00, 0x20)\n      swap1\n      0x05\n      mul\n      add\n        /* \"contracts/MultisigWallet.sol\":2878:2914  transfersScope[_index].ownersAproved */\n      0x04\n      add\n        /* \"contracts/MultisigWallet.sol\":2878:2921  transfersScope[_index].ownersAproved.length */\n      dup1\n      sload\n      swap1\n      pop\n        /* \"contracts/MultisigWallet.sol\":2874:2875  i */\n      dup2\n        /* \"contracts/MultisigWallet.sol\":2874:2921  i < transfersScope[_index].ownersAproved.length */\n      lt\n        /* \"contracts/MultisigWallet.sol\":2857:3262  for (uint i = 0; i < transfersScope[_index].ownersAproved.length; i++) {... */\n      iszero\n      tag_68\n      jumpi\n        /* \"contracts/MultisigWallet.sol\":3018:3028  msg.sender */\n      caller\n        /* \"contracts/MultisigWallet.sol\":2975:3028  transfersScope[_index].ownersAproved[i] == msg.sender */\n      0xffffffffffffffffffffffffffffffffffffffff\n      and\n        /* \"contracts/MultisigWallet.sol\":2975:2989  transfersScope */\n      0x02\n        /* \"contracts/MultisigWallet.sol\":2990:2996  _index */\n      dup4\n        /* \"contracts/MultisigWallet.sol\":2975:2997  transfersScope[_index] */\n      dup2\n      sload\n      dup2\n      lt\n      tag_73\n      jumpi\n      tag_74\n      tag_57\n      jump\t// in\n    tag_74:\n    tag_73:\n      swap1\n      0x00\n      mstore\n      keccak256(0x00, 0x20)\n      swap1\n      0x05\n      mul\n      add\n        /* \"contracts/MultisigWallet.sol\":2975:3011  transfersScope[_index].ownersAproved */\n      0x04\n      add\n        /* \"contracts/MultisigWallet.sol\":3012:3013  i */\n      dup3\n        /* \"contracts/MultisigWallet.sol\":2975:3014  transfersScope[_index].ownersAproved[i] */\n      dup2\n      sload\n      dup2\n      lt\n      tag_76\n      jumpi\n      tag_77\n      tag_57\n      jump\t// in\n    tag_77:\n    tag_76:\n      swap1\n      0x00\n      mstore\n      keccak256(0x00, 0x20)\n      add\n      0x00\n      swap1\n      sload\n      swap1\n      0x0100\n      exp\n      swap1\n      div\n      0xffffffffffffffffffffffffffffffffffffffff\n      and\n        /* \"contracts/MultisigWallet.sol\":2975:3028  transfersScope[_index].ownersAproved[i] == msg.sender */\n      0xffffffffffffffffffffffffffffffffffffffff\n      and\n      sub\n        /* \"contracts/MultisigWallet.sol\":2971:3244  if (transfersScope[_index].ownersAproved[i] == msg.sender) {... */\n      iszero\n        /* \"contracts/MultisigWallet.sol\":3139:3144  break */\n      tag_68\n        /* \"contracts/MultisigWallet.sol\":2971:3244  if (transfersScope[_index].ownersAproved[i] == msg.sender) {... */\n      jumpi\n        /* \"contracts/MultisigWallet.sol\":3199:3221  aprovedSuccess(_index) */\n      tag_81\n        /* \"contracts/MultisigWallet.sol\":3214:3220  _index */\n      dup3\n        /* \"contracts/MultisigWallet.sol\":3199:3213  aprovedSuccess */\n      tag_65\n        /* \"contracts/MultisigWallet.sol\":3199:3221  aprovedSuccess(_index) */\n      jump\t// in\n    tag_81:\n        /* \"contracts/MultisigWallet.sol\":2923:2926  i++ */\n      dup1\n      dup1\n      tag_82\n      swap1\n      tag_83\n      jump\t// in\n    tag_82:\n      swap2\n      pop\n      pop\n        /* \"contracts/MultisigWallet.sol\":2857:3262  for (uint i = 0; i < transfersScope[_index].ownersAproved.length; i++) {... */\n      jump(tag_67)\n    tag_68:\n      pop\n        /* \"contracts/MultisigWallet.sol\":2628:3277  if ( transfersScope[_index].ownersAproved.length == 0 ) {... */\n    tag_66:\n        /* \"contracts/MultisigWallet.sol\":2575:3300  if( !transfersScope[_index].tnxSent ) {... */\n    tag_59:\n        /* \"contracts/MultisigWallet.sol\":2508:3307  function approve(uint _index) public onlyOwners {... */\n      pop\n      jump\t// out\n        /* \"contracts/MultisigWallet.sol\":1470:1658  function deposit() public payable returns (uint) {... */\n    tag_25:\n        /* \"contracts/MultisigWallet.sol\":1513:1517  uint */\n      0x00\n        /* \"contracts/MultisigWallet.sol\":1602:1612  msg.sender */\n      caller\n        /* \"contracts/MultisigWallet.sol\":1578:1613  balanceAdded(msg.value, msg.sender) */\n      0xffffffffffffffffffffffffffffffffffffffff\n      and\n      0xdb42e689d0c993b1eaac62924e67d96c365c40778a39beaaaf6865b061a93f32\n        /* \"contracts/MultisigWallet.sol\":1591:1600  msg.value */\n      callvalue\n        /* \"contracts/MultisigWallet.sol\":1578:1613  balanceAdded(msg.value, msg.sender) */\n      mload(0x40)\n      tag_85\n      swap2\n      swap1\n      tag_11\n      jump\t// in\n    tag_85:\n      mload(0x40)\n      dup1\n      swap2\n      sub\n      swap1\n      log2\n        /* \"contracts/MultisigWallet.sol\":1630:1651  address(this).balance */\n      selfbalance\n        /* \"contracts/MultisigWallet.sol\":1623:1651  return address(this).balance */\n      swap1\n      pop\n        /* \"contracts/MultisigWallet.sol\":1470:1658  function deposit() public payable returns (uint) {... */\n      swap1\n      jump\t// out\n        /* \"contracts/MultisigWallet.sol\":2184:2439  function getTrnx(uint _index) public view onlyOwners returns(address, uint, bool, uint) {... */\n    tag_30:\n        /* \"contracts/MultisigWallet.sol\":2245:2252  address */\n      0x00\n        /* \"contracts/MultisigWallet.sol\":2254:2258  uint */\n      dup1\n        /* \"contracts/MultisigWallet.sol\":2260:2264  bool */\n      0x00\n        /* \"contracts/MultisigWallet.sol\":2266:2270  uint */\n      dup1\n        /* \"contracts/MultisigWallet.sol\":608:626  exists(msg.sender) */\n      tag_87\n        /* \"contracts/MultisigWallet.sol\":615:625  msg.sender */\n      caller\n        /* \"contracts/MultisigWallet.sol\":608:614  exists */\n      tag_36\n        /* \"contracts/MultisigWallet.sol\":608:626  exists(msg.sender) */\n      jump\t// in\n    tag_87:\n        /* \"contracts/MultisigWallet.sol\":600:627  require(exists(msg.sender)) */\n      tag_88\n      jumpi\n      0x00\n      dup1\n      revert\n    tag_88:\n        /* \"contracts/MultisigWallet.sol\":2290:2304  transfersScope */\n      0x02\n        /* \"contracts/MultisigWallet.sol\":2305:2311  _index */\n      dup6\n        /* \"contracts/MultisigWallet.sol\":2290:2312  transfersScope[_index] */\n      dup2\n      sload\n      dup2\n      lt\n      tag_90\n      jumpi\n      tag_91\n      tag_57\n      jump\t// in\n    tag_91:\n    tag_90:\n      swap1\n      0x00\n      mstore\n      keccak256(0x00, 0x20)\n      swap1\n      0x05\n      mul\n      add\n        /* \"contracts/MultisigWallet.sol\":2290:2322  transfersScope[_index].recipient */\n      0x01\n      add\n      0x00\n      swap1\n      sload\n      swap1\n      0x0100\n      exp\n      swap1\n      div\n      0xffffffffffffffffffffffffffffffffffffffff\n      and\n        /* \"contracts/MultisigWallet.sol\":2324:2338  transfersScope */\n      0x02\n        /* \"contracts/MultisigWallet.sol\":2339:2345  _index */\n      dup7\n        /* \"contracts/MultisigWallet.sol\":2324:2346  transfersScope[_index] */\n      dup2\n      sload\n      dup2\n      lt\n      tag_93\n      jumpi\n      tag_94\n      tag_57\n      jump\t// in\n    tag_94:\n    tag_93:\n      swap1\n      0x00\n      mstore\n      keccak256(0x00, 0x20)\n      swap1\n      0x05\n      mul\n      add\n        /* \"contracts/MultisigWallet.sol\":2324:2353  transfersScope[_index].amount */\n      0x02\n      add\n      sload\n        /* \"contracts/MultisigWallet.sol\":2355:2369  transfersScope */\n      0x02\n        /* \"contracts/MultisigWallet.sol\":2370:2376  _index */\n      dup8\n        /* \"contracts/MultisigWallet.sol\":2355:2377  transfersScope[_index] */\n      dup2\n      sload\n      dup2\n      lt\n      tag_96\n      jumpi\n      tag_97\n      tag_57\n      jump\t// in\n    tag_97:\n    tag_96:\n      swap1\n      0x00\n      mstore\n      keccak256(0x00, 0x20)\n      swap1\n      0x05\n      mul\n      add\n        /* \"contracts/MultisigWallet.sol\":2355:2385  transfersScope[_index].tnxSent */\n      0x03\n      add\n      0x00\n      swap1\n      sload\n      swap1\n      0x0100\n      exp\n      swap1\n      div\n      0xff\n      and\n        /* \"contracts/MultisigWallet.sol\":2387:2401  transfersScope */\n      0x02\n        /* \"contracts/MultisigWallet.sol\":2402:2408  _index */\n      dup9\n        /* \"contracts/MultisigWallet.sol\":2387:2409  transfersScope[_index] */\n      dup2\n      sload\n      dup2\n      lt\n      tag_99\n      jumpi\n      tag_100\n      tag_57\n      jump\t// in\n    tag_100:\n    tag_99:\n      swap1\n      0x00\n      mstore\n      keccak256(0x00, 0x20)\n      swap1\n      0x05\n      mul\n      add\n        /* \"contracts/MultisigWallet.sol\":2387:2423  transfersScope[_index].ownersAproved */\n      0x04\n      add\n        /* \"contracts/MultisigWallet.sol\":2387:2430  transfersScope[_index].ownersAproved.length */\n      dup1\n      sload\n      swap1\n      pop\n        /* \"contracts/MultisigWallet.sol\":2282:2432  return (transfersScope[_index].recipient, transfersScope[_index].amount, transfersScope[_index].tnxSent, transfersScope[_index].ownersAproved.length ) */\n      swap4\n      pop\n      swap4\n      pop\n      swap4\n      pop\n      swap4\n      pop\n        /* \"contracts/MultisigWallet.sol\":2184:2439  function getTrnx(uint _index) public view onlyOwners returns(address, uint, bool, uint) {... */\n      swap2\n      swap4\n      pop\n      swap2\n      swap4\n      jump\t// out\n        /* \"contracts/MultisigWallet.sol\":698:940  function exists(address oneOfowners) private view returns (bool) {... */\n    tag_36:\n        /* \"contracts/MultisigWallet.sol\":757:761  bool */\n      0x00\n        /* \"contracts/MultisigWallet.sol\":778:784  uint i */\n      dup1\n        /* \"contracts/MultisigWallet.sol\":787:788  0 */\n      0x00\n        /* \"contracts/MultisigWallet.sol\":778:788  uint i = 0 */\n      swap1\n      pop\n        /* \"contracts/MultisigWallet.sol\":773:912  for (uint i = 0; i < owners.length; i++) {... */\n    tag_103:\n        /* \"contracts/MultisigWallet.sol\":794:800  owners */\n      0x00\n        /* \"contracts/MultisigWallet.sol\":794:807  owners.length */\n      dup1\n      sload\n      swap1\n      pop\n        /* \"contracts/MultisigWallet.sol\":790:791  i */\n      dup2\n        /* \"contracts/MultisigWallet.sol\":790:807  i < owners.length */\n      lt\n        /* \"contracts/MultisigWallet.sol\":773:912  for (uint i = 0; i < owners.length; i++) {... */\n      iszero\n      tag_104\n      jumpi\n        /* \"contracts/MultisigWallet.sol\":845:856  oneOfowners */\n      dup3\n        /* \"contracts/MultisigWallet.sol\":832:856  owners[i] == oneOfowners */\n      0xffffffffffffffffffffffffffffffffffffffff\n      and\n        /* \"contracts/MultisigWallet.sol\":832:838  owners */\n      0x00\n        /* \"contracts/MultisigWallet.sol\":839:840  i */\n      dup3\n        /* \"contracts/MultisigWallet.sol\":832:841  owners[i] */\n      dup2\n      sload\n      dup2\n      lt\n      tag_106\n      jumpi\n      tag_107\n      tag_57\n      jump\t// in\n    tag_107:\n    tag_106:\n      swap1\n      0x00\n      mstore\n      keccak256(0x00, 0x20)\n      add\n      0x00\n      swap1\n      sload\n      swap1\n      0x0100\n      exp\n      swap1\n      div\n      0xffffffffffffffffffffffffffffffffffffffff\n      and\n        /* \"contracts/MultisigWallet.sol\":832:856  owners[i] == oneOfowners */\n      0xffffffffffffffffffffffffffffffffffffffff\n      and\n      sub\n        /* \"contracts/MultisigWallet.sol\":828:902  if (owners[i] == oneOfowners) {... */\n      tag_109\n      jumpi\n        /* \"contracts/MultisigWallet.sol\":883:887  true */\n      0x01\n        /* \"contracts/MultisigWallet.sol\":876:887  return true */\n      swap2\n      pop\n      pop\n      jump(tag_102)\n        /* \"contracts/MultisigWallet.sol\":828:902  if (owners[i] == oneOfowners) {... */\n    tag_109:\n        /* \"contracts/MultisigWallet.sol\":809:812  i++ */\n      dup1\n      dup1\n      tag_110\n      swap1\n      tag_83\n      jump\t// in\n    tag_110:\n      swap2\n      pop\n      pop\n        /* \"contracts/MultisigWallet.sol\":773:912  for (uint i = 0; i < owners.length; i++) {... */\n      jump(tag_103)\n    tag_104:\n      pop\n        /* \"contracts/MultisigWallet.sol\":928:933  false */\n      0x00\n        /* \"contracts/MultisigWallet.sol\":921:933  return false */\n      swap1\n      pop\n        /* \"contracts/MultisigWallet.sol\":698:940  function exists(address oneOfowners) private view returns (bool) {... */\n    tag_102:\n      swap2\n      swap1\n      pop\n      jump\t// out\n        /* \"contracts/MultisigWallet.sol\":3313:3738  function aprovedSuccess(uint _index) private onlyOwners {... */\n    tag_65:\n        /* \"contracts/MultisigWallet.sol\":608:626  exists(msg.sender) */\n      tag_112\n        /* \"contracts/MultisigWallet.sol\":615:625  msg.sender */\n      caller\n        /* \"contracts/MultisigWallet.sol\":608:614  exists */\n      tag_36\n        /* \"contracts/MultisigWallet.sol\":608:626  exists(msg.sender) */\n      jump\t// in\n    tag_112:\n        /* \"contracts/MultisigWallet.sol\":600:627  require(exists(msg.sender)) */\n      tag_113\n      jumpi\n      0x00\n      dup1\n      revert\n    tag_113:\n        /* \"contracts/MultisigWallet.sol\":3379:3393  transfersScope */\n      0x02\n        /* \"contracts/MultisigWallet.sol\":3394:3400  _index */\n      dup2\n        /* \"contracts/MultisigWallet.sol\":3379:3401  transfersScope[_index] */\n      dup2\n      sload\n      dup2\n      lt\n      tag_115\n      jumpi\n      tag_116\n      tag_57\n      jump\t// in\n    tag_116:\n    tag_115:\n      swap1\n      0x00\n      mstore\n      keccak256(0x00, 0x20)\n      swap1\n      0x05\n      mul\n      add\n        /* \"contracts/MultisigWallet.sol\":3379:3415  transfersScope[_index].ownersAproved */\n      0x04\n      add\n        /* \"contracts/MultisigWallet.sol\":3421:3431  msg.sender */\n      caller\n        /* \"contracts/MultisigWallet.sol\":3379:3432  transfersScope[_index].ownersAproved.push(msg.sender) */\n      swap1\n      dup1\n      0x01\n      dup2\n      sload\n      add\n      dup1\n      dup3\n      sstore\n      dup1\n      swap2\n      pop\n      pop\n      0x01\n      swap1\n      sub\n      swap1\n      0x00\n      mstore\n      keccak256(0x00, 0x20)\n      add\n      0x00\n      swap1\n      swap2\n      swap1\n      swap2\n      swap1\n      swap2\n      0x0100\n      exp\n      dup2\n      sload\n      dup2\n      0xffffffffffffffffffffffffffffffffffffffff\n      mul\n      not\n      and\n      swap1\n      dup4\n      0xffffffffffffffffffffffffffffffffffffffff\n      and\n      mul\n      or\n      swap1\n      sstore\n      pop\n        /* \"contracts/MultisigWallet.sol\":3545:3554  mininimum */\n      sload(0x01)\n        /* \"contracts/MultisigWallet.sol\":3498:3512  transfersScope */\n      0x02\n        /* \"contracts/MultisigWallet.sol\":3513:3519  _index */\n      dup3\n        /* \"contracts/MultisigWallet.sol\":3498:3520  transfersScope[_index] */\n      dup2\n      sload\n      dup2\n      lt\n      tag_119\n      jumpi\n      tag_120\n      tag_57\n      jump\t// in\n    tag_120:\n    tag_119:\n      swap1\n      0x00\n      mstore\n      keccak256(0x00, 0x20)\n      swap1\n      0x05\n      mul\n      add\n        /* \"contracts/MultisigWallet.sol\":3498:3534  transfersScope[_index].ownersAproved */\n      0x04\n      add\n        /* \"contracts/MultisigWallet.sol\":3498:3541  transfersScope[_index].ownersAproved.length */\n      dup1\n      sload\n      swap1\n      pop\n        /* \"contracts/MultisigWallet.sol\":3498:3554  transfersScope[_index].ownersAproved.length >= mininimum */\n      lt\n        /* \"contracts/MultisigWallet.sol\":3494:3732  if( transfersScope[_index].ownersAproved.length >= mininimum ) {... */\n      tag_122\n      jumpi\n        /* \"contracts/MultisigWallet.sol\":3576:3649  transfer(transfersScope[_index].recipient, transfersScope[_index].amount) */\n      tag_123\n        /* \"contracts/MultisigWallet.sol\":3585:3599  transfersScope */\n      0x02\n        /* \"contracts/MultisigWallet.sol\":3600:3606  _index */\n      dup3\n        /* \"contracts/MultisigWallet.sol\":3585:3607  transfersScope[_index] */\n      dup2\n      sload\n      dup2\n      lt\n      tag_124\n      jumpi\n      tag_125\n      tag_57\n      jump\t// in\n    tag_125:\n    tag_124:\n      swap1\n      0x00\n      mstore\n      keccak256(0x00, 0x20)\n      swap1\n      0x05\n      mul\n      add\n        /* \"contracts/MultisigWallet.sol\":3585:3617  transfersScope[_index].recipient */\n      0x01\n      add\n      0x00\n      swap1\n      sload\n      swap1\n      0x0100\n      exp\n      swap1\n      div\n      0xffffffffffffffffffffffffffffffffffffffff\n      and\n        /* \"contracts/MultisigWallet.sol\":3619:3633  transfersScope */\n      0x02\n        /* \"contracts/MultisigWallet.sol\":3634:3640  _index */\n      dup4\n        /* \"contracts/MultisigWallet.sol\":3619:3641  transfersScope[_index] */\n      dup2\n      sload\n      dup2\n      lt\n      tag_127\n      jumpi\n      tag_128\n      tag_57\n      jump\t// in\n    tag_128:\n    tag_127:\n      swap1\n      0x00\n      mstore\n      keccak256(0x00, 0x20)\n      swap1\n      0x05\n      mul\n      add\n        /* \"contracts/MultisigWallet.sol\":3619:3648  transfersScope[_index].amount */\n      0x02\n      add\n      sload\n        /* \"contracts/MultisigWallet.sol\":3576:3584  transfer */\n      tag_130\n        /* \"contracts/MultisigWallet.sol\":3576:3649  transfer(transfersScope[_index].recipient, transfersScope[_index].amount) */\n      jump\t// in\n    tag_123:\n        /* \"contracts/MultisigWallet.sol\":3571:3722  if ( transfer(transfersScope[_index].recipient, transfersScope[_index].amount) ) {... */\n      iszero\n      tag_131\n      jumpi\n        /* \"contracts/MultisigWallet.sol\":3703:3707  true */\n      0x01\n        /* \"contracts/MultisigWallet.sol\":3670:3684  transfersScope */\n      0x02\n        /* \"contracts/MultisigWallet.sol\":3685:3691  _index */\n      dup3\n        /* \"contracts/MultisigWallet.sol\":3670:3692  transfersScope[_index] */\n      dup2\n      sload\n      dup2\n      lt\n      tag_132\n      jumpi\n      tag_133\n      tag_57\n      jump\t// in\n    tag_133:\n    tag_132:\n      swap1\n      0x00\n      mstore\n      keccak256(0x00, 0x20)\n      swap1\n      0x05\n      mul\n      add\n        /* \"contracts/MultisigWallet.sol\":3670:3700  transfersScope[_index].tnxSent */\n      0x03\n      add\n      0x00\n        /* \"contracts/MultisigWallet.sol\":3670:3707  transfersScope[_index].tnxSent = true */\n      0x0100\n      exp\n      dup2\n      sload\n      dup2\n      0xff\n      mul\n      not\n      and\n      swap1\n      dup4\n      iszero\n      iszero\n      mul\n      or\n      swap1\n      sstore\n      pop\n        /* \"contracts/MultisigWallet.sol\":3571:3722  if ( transfer(transfersScope[_index].recipient, transfersScope[_index].amount) ) {... */\n    tag_131:\n        /* \"contracts/MultisigWallet.sol\":3494:3732  if( transfersScope[_index].ownersAproved.length >= mininimum ) {... */\n    tag_122:\n        /* \"contracts/MultisigWallet.sol\":3313:3738  function aprovedSuccess(uint _index) private onlyOwners {... */\n      pop\n      jump\t// out\n        /* \"contracts/MultisigWallet.sol\":3787:4317  function transfer(address recipient, uint amount) private onlyOwners returns(bool){... */\n    tag_130:\n        /* \"contracts/MultisigWallet.sol\":3864:3868  bool */\n      0x00\n        /* \"contracts/MultisigWallet.sol\":608:626  exists(msg.sender) */\n      tag_136\n        /* \"contracts/MultisigWallet.sol\":615:625  msg.sender */\n      caller\n        /* \"contracts/MultisigWallet.sol\":608:614  exists */\n      tag_36\n        /* \"contracts/MultisigWallet.sol\":608:626  exists(msg.sender) */\n      jump\t// in\n    tag_136:\n        /* \"contracts/MultisigWallet.sol\":600:627  require(exists(msg.sender)) */\n      tag_137\n      jumpi\n      0x00\n      dup1\n      revert\n    tag_137:\n        /* \"contracts/MultisigWallet.sol\":3937:3946  recipient */\n      dup3\n        /* \"contracts/MultisigWallet.sol\":3923:3946  msg.sender != recipient */\n      0xffffffffffffffffffffffffffffffffffffffff\n      and\n        /* \"contracts/MultisigWallet.sol\":3923:3933  msg.sender */\n      caller\n        /* \"contracts/MultisigWallet.sol\":3923:3946  msg.sender != recipient */\n      0xffffffffffffffffffffffffffffffffffffffff\n      and\n      sub\n        /* \"contracts/MultisigWallet.sol\":3915:3984  require(msg.sender != recipient, \"You can't send money to yourself.\") */\n      tag_139\n      jumpi\n      mload(0x40)\n      0x08c379a000000000000000000000000000000000000000000000000000000000\n      dup2\n      mstore\n      0x04\n      add\n      tag_140\n      swap1\n      tag_141\n      jump\t// in\n    tag_140:\n      mload(0x40)\n      dup1\n      swap2\n      sub\n      swap1\n      revert\n    tag_139:\n        /* \"contracts/MultisigWallet.sol\":3995:4021  uint previousSenderBalance */\n      0x00\n        /* \"contracts/MultisigWallet.sol\":4024:4045  address(this).balance */\n      selfbalance\n        /* \"contracts/MultisigWallet.sol\":3995:4045  uint previousSenderBalance = address(this).balance */\n      swap1\n      pop\n        /* \"contracts/MultisigWallet.sol\":4064:4073  recipient */\n      dup4\n        /* \"contracts/MultisigWallet.sol\":4055:4083  payable (recipient).transfer */\n      0xffffffffffffffffffffffffffffffffffffffff\n      and\n        /* \"contracts/MultisigWallet.sol\":4055:4091  payable (recipient).transfer(amount) */\n      0x08fc\n        /* \"contracts/MultisigWallet.sol\":4084:4090  amount */\n      dup5\n        /* \"contracts/MultisigWallet.sol\":4055:4091  payable (recipient).transfer(amount) */\n      swap1\n      dup2\n      iszero\n      mul\n      swap1\n      mload(0x40)\n      0x00\n      mload(0x40)\n      dup1\n      dup4\n      sub\n      dup2\n      dup6\n      dup9\n      dup9\n      call\n      swap4\n      pop\n      pop\n      pop\n      pop\n      iszero\n      dup1\n      iszero\n      tag_143\n      jumpi\n      returndatasize\n      0x00\n      dup1\n      returndatacopy\n      revert(0x00, returndatasize)\n    tag_143:\n      pop\n        /* \"contracts/MultisigWallet.sol\":4133:4143  msg.sender */\n      caller\n        /* \"contracts/MultisigWallet.sol\":4107:4155  transferedAmounts(amount, msg.sender, recipient) */\n      0xffffffffffffffffffffffffffffffffffffffff\n      and\n      0xbf4321ab09496f0dd20158dca7b8ec3b797c0085edfd58f98454ad82b61e7a0a\n        /* \"contracts/MultisigWallet.sol\":4125:4131  amount */\n      dup5\n        /* \"contracts/MultisigWallet.sol\":4145:4154  recipient */\n      dup7\n        /* \"contracts/MultisigWallet.sol\":4107:4155  transferedAmounts(amount, msg.sender, recipient) */\n      mload(0x40)\n      tag_144\n      swap3\n      swap2\n      swap1\n      tag_145\n      jump\t// in\n    tag_144:\n      mload(0x40)\n      dup1\n      swap2\n      sub\n      swap1\n      log2\n        /* \"contracts/MultisigWallet.sol\":4221:4227  amount */\n      dup3\n        /* \"contracts/MultisigWallet.sol\":4197:4218  previousSenderBalance */\n      dup2\n        /* \"contracts/MultisigWallet.sol\":4197:4227  previousSenderBalance - amount */\n      tag_146\n      swap2\n      swap1\n      tag_43\n      jump\t// in\n    tag_146:\n        /* \"contracts/MultisigWallet.sol\":4172:4193  address(this).balance */\n      selfbalance\n        /* \"contracts/MultisigWallet.sol\":4172:4227  address(this).balance == previousSenderBalance - amount */\n      sub\n        /* \"contracts/MultisigWallet.sol\":4166:4310  if ( (address(this).balance == previousSenderBalance - amount) ) {... */\n      tag_147\n      jumpi\n        /* \"contracts/MultisigWallet.sol\":4252:4256  true */\n      0x01\n        /* \"contracts/MultisigWallet.sol\":4245:4256  return true */\n      swap2\n      pop\n      pop\n      jump(tag_138)\n        /* \"contracts/MultisigWallet.sol\":4166:4310  if ( (address(this).balance == previousSenderBalance - amount) ) {... */\n    tag_147:\n        /* \"contracts/MultisigWallet.sol\":4294:4299  false */\n      0x00\n        /* \"contracts/MultisigWallet.sol\":4287:4299  return false */\n      swap2\n      pop\n      pop\n        /* \"contracts/MultisigWallet.sol\":637:638  _ */\n    tag_138:\n        /* \"contracts/MultisigWallet.sol\":3787:4317  function transfer(address recipient, uint amount) private onlyOwners returns(bool){... */\n      swap3\n      swap2\n      pop\n      pop\n      jump\t// out\n    tag_41:\n      dup3\n      dup1\n      sload\n      dup3\n      dup3\n      sstore\n      swap1\n      0x00\n      mstore\n      keccak256(0x00, 0x20)\n      swap1\n      dup2\n      add\n      swap3\n      dup3\n      iszero\n      tag_149\n      jumpi\n      swap2\n      0x20\n      mul\n      dup3\n      add\n    tag_150:\n      dup3\n      dup2\n      gt\n      iszero\n      tag_151\n      jumpi\n      dup3\n      mload\n      dup3\n      exp(0x0100, 0x00)\n      dup2\n      sload\n      dup2\n      0xffffffffffffffffffffffffffffffffffffffff\n      mul\n      not\n      and\n      swap1\n      dup4\n      0xffffffffffffffffffffffffffffffffffffffff\n      and\n      mul\n      or\n      swap1\n      sstore\n      pop\n      swap2\n      0x20\n      add\n      swap2\n      swap1\n      0x01\n      add\n      swap1\n      jump(tag_150)\n    tag_151:\n    tag_149:\n      pop\n      swap1\n      pop\n      tag_152\n      swap2\n      swap1\n      tag_153\n      jump\t// in\n    tag_152:\n      pop\n      swap1\n      jump\t// out\n    tag_153:\n    tag_154:\n      dup1\n      dup3\n      gt\n      iszero\n      tag_155\n      jumpi\n      0x00\n      dup2\n      0x00\n      swap1\n      sstore\n      pop\n      0x01\n      add\n      jump(tag_154)\n    tag_155:\n      pop\n      swap1\n      jump\t// out\n        /* \"#utility.yul\":7:84   */\n    tag_156:\n        /* \"#utility.yul\":44:51   */\n      0x00\n        /* \"#utility.yul\":73:78   */\n      dup2\n        /* \"#utility.yul\":62:78   */\n      swap1\n      pop\n        /* \"#utility.yul\":7:84   */\n      swap2\n      swap1\n      pop\n      jump\t// out\n        /* \"#utility.yul\":90:208   */\n    tag_157:\n        /* \"#utility.yul\":177:201   */\n      tag_195\n        /* \"#utility.yul\":195:200   */\n      dup2\n        /* \"#utility.yul\":177:201   */\n      tag_156\n      jump\t// in\n    tag_195:\n        /* \"#utility.yul\":172:175   */\n      dup3\n        /* \"#utility.yul\":165:202   */\n      mstore\n        /* \"#utility.yul\":90:208   */\n      pop\n      pop\n      jump\t// out\n        /* \"#utility.yul\":214:436   */\n    tag_11:\n        /* \"#utility.yul\":307:311   */\n      0x00\n        /* \"#utility.yul\":345:347   */\n      0x20\n        /* \"#utility.yul\":334:343   */\n      dup3\n        /* \"#utility.yul\":330:348   */\n      add\n        /* \"#utility.yul\":322:348   */\n      swap1\n      pop\n        /* \"#utility.yul\":358:429   */\n      tag_197\n        /* \"#utility.yul\":426:427   */\n      0x00\n        /* \"#utility.yul\":415:424   */\n      dup4\n        /* \"#utility.yul\":411:428   */\n      add\n        /* \"#utility.yul\":402:408   */\n      dup5\n        /* \"#utility.yul\":358:429   */\n      tag_157\n      jump\t// in\n    tag_197:\n        /* \"#utility.yul\":214:436   */\n      swap3\n      swap2\n      pop\n      pop\n      jump\t// out\n        /* \"#utility.yul\":523:640   */\n    tag_159:\n        /* \"#utility.yul\":632:633   */\n      0x00\n        /* \"#utility.yul\":629:630   */\n      dup1\n        /* \"#utility.yul\":622:634   */\n      revert\n        /* \"#utility.yul\":769:895   */\n    tag_161:\n        /* \"#utility.yul\":806:813   */\n      0x00\n        /* \"#utility.yul\":846:888   */\n      0xffffffffffffffffffffffffffffffffffffffff\n        /* \"#utility.yul\":839:844   */\n      dup3\n        /* \"#utility.yul\":835:889   */\n      and\n        /* \"#utility.yul\":824:889   */\n      swap1\n      pop\n        /* \"#utility.yul\":769:895   */\n      swap2\n      swap1\n      pop\n      jump\t// out\n        /* \"#utility.yul\":901:997   */\n    tag_162:\n        /* \"#utility.yul\":938:945   */\n      0x00\n        /* \"#utility.yul\":967:991   */\n      tag_203\n        /* \"#utility.yul\":985:990   */\n      dup3\n        /* \"#utility.yul\":967:991   */\n      tag_161\n      jump\t// in\n    tag_203:\n        /* \"#utility.yul\":956:991   */\n      swap1\n      pop\n        /* \"#utility.yul\":901:997   */\n      swap2\n      swap1\n      pop\n      jump\t// out\n        /* \"#utility.yul\":1003:1125   */\n    tag_163:\n        /* \"#utility.yul\":1076:1100   */\n      tag_205\n        /* \"#utility.yul\":1094:1099   */\n      dup2\n        /* \"#utility.yul\":1076:1100   */\n      tag_162\n      jump\t// in\n    tag_205:\n        /* \"#utility.yul\":1069:1074   */\n      dup2\n        /* \"#utility.yul\":1066:1101   */\n      eq\n        /* \"#utility.yul\":1056:1119   */\n      tag_206\n      jumpi\n        /* \"#utility.yul\":1115:1116   */\n      0x00\n        /* \"#utility.yul\":1112:1113   */\n      dup1\n        /* \"#utility.yul\":1105:1117   */\n      revert\n        /* \"#utility.yul\":1056:1119   */\n    tag_206:\n        /* \"#utility.yul\":1003:1125   */\n      pop\n      jump\t// out\n        /* \"#utility.yul\":1131:1270   */\n    tag_164:\n        /* \"#utility.yul\":1177:1182   */\n      0x00\n        /* \"#utility.yul\":1215:1221   */\n      dup2\n        /* \"#utility.yul\":1202:1222   */\n      calldataload\n        /* \"#utility.yul\":1193:1222   */\n      swap1\n      pop\n        /* \"#utility.yul\":1231:1264   */\n      tag_208\n        /* \"#utility.yul\":1258:1263   */\n      dup2\n        /* \"#utility.yul\":1231:1264   */\n      tag_163\n      jump\t// in\n    tag_208:\n        /* \"#utility.yul\":1131:1270   */\n      swap3\n      swap2\n      pop\n      pop\n      jump\t// out\n        /* \"#utility.yul\":1276:1398   */\n    tag_165:\n        /* \"#utility.yul\":1349:1373   */\n      tag_210\n        /* \"#utility.yul\":1367:1372   */\n      dup2\n        /* \"#utility.yul\":1349:1373   */\n      tag_156\n      jump\t// in\n    tag_210:\n        /* \"#utility.yul\":1342:1347   */\n      dup2\n        /* \"#utility.yul\":1339:1374   */\n      eq\n        /* \"#utility.yul\":1329:1392   */\n      tag_211\n      jumpi\n        /* \"#utility.yul\":1388:1389   */\n      0x00\n        /* \"#utility.yul\":1385:1386   */\n      dup1\n        /* \"#utility.yul\":1378:1390   */\n      revert\n        /* \"#utility.yul\":1329:1392   */\n    tag_211:\n        /* \"#utility.yul\":1276:1398   */\n      pop\n      jump\t// out\n        /* \"#utility.yul\":1404:1543   */\n    tag_166:\n        /* \"#utility.yul\":1450:1455   */\n      0x00\n        /* \"#utility.yul\":1488:1494   */\n      dup2\n        /* \"#utility.yul\":1475:1495   */\n      calldataload\n        /* \"#utility.yul\":1466:1495   */\n      swap1\n      pop\n        /* \"#utility.yul\":1504:1537   */\n      tag_213\n        /* \"#utility.yul\":1531:1536   */\n      dup2\n        /* \"#utility.yul\":1504:1537   */\n      tag_165\n      jump\t// in\n    tag_213:\n        /* \"#utility.yul\":1404:1543   */\n      swap3\n      swap2\n      pop\n      pop\n      jump\t// out\n        /* \"#utility.yul\":1549:2023   */\n    tag_15:\n        /* \"#utility.yul\":1617:1623   */\n      0x00\n        /* \"#utility.yul\":1625:1631   */\n      dup1\n        /* \"#utility.yul\":1674:1676   */\n      0x40\n        /* \"#utility.yul\":1662:1671   */\n      dup4\n        /* \"#utility.yul\":1653:1660   */\n      dup6\n        /* \"#utility.yul\":1649:1672   */\n      sub\n        /* \"#utility.yul\":1645:1677   */\n      slt\n        /* \"#utility.yul\":1642:1761   */\n      iszero\n      tag_215\n      jumpi\n        /* \"#utility.yul\":1680:1759   */\n      tag_216\n      tag_159\n      jump\t// in\n    tag_216:\n        /* \"#utility.yul\":1642:1761   */\n    tag_215:\n        /* \"#utility.yul\":1800:1801   */\n      0x00\n        /* \"#utility.yul\":1825:1878   */\n      tag_217\n        /* \"#utility.yul\":1870:1877   */\n      dup6\n        /* \"#utility.yul\":1861:1867   */\n      dup3\n        /* \"#utility.yul\":1850:1859   */\n      dup7\n        /* \"#utility.yul\":1846:1868   */\n      add\n        /* \"#utility.yul\":1825:1878   */\n      tag_164\n      jump\t// in\n    tag_217:\n        /* \"#utility.yul\":1815:1878   */\n      swap3\n      pop\n        /* \"#utility.yul\":1771:1888   */\n      pop\n        /* \"#utility.yul\":1927:1929   */\n      0x20\n        /* \"#utility.yul\":1953:2006   */\n      tag_218\n        /* \"#utility.yul\":1998:2005   */\n      dup6\n        /* \"#utility.yul\":1989:1995   */\n      dup3\n        /* \"#utility.yul\":1978:1987   */\n      dup7\n        /* \"#utility.yul\":1974:1996   */\n      add\n        /* \"#utility.yul\":1953:2006   */\n      tag_166\n      jump\t// in\n    tag_218:\n        /* \"#utility.yul\":1943:2006   */\n      swap2\n      pop\n        /* \"#utility.yul\":1898:2016   */\n      pop\n        /* \"#utility.yul\":1549:2023   */\n      swap3\n      pop\n      swap3\n      swap1\n      pop\n      jump\t// out\n        /* \"#utility.yul\":2029:2167   */\n    tag_167:\n        /* \"#utility.yul\":2120:2126   */\n      0x00\n        /* \"#utility.yul\":2154:2159   */\n      dup2\n        /* \"#utility.yul\":2148:2160   */\n      mload\n        /* \"#utility.yul\":2138:2160   */\n      swap1\n      pop\n        /* \"#utility.yul\":2029:2167   */\n      swap2\n      swap1\n      pop\n      jump\t// out\n        /* \"#utility.yul\":2173:2381   */\n    tag_168:\n        /* \"#utility.yul\":2296:2307   */\n      0x00\n        /* \"#utility.yul\":2330:2336   */\n      dup3\n        /* \"#utility.yul\":2325:2328   */\n      dup3\n        /* \"#utility.yul\":2318:2337   */\n      mstore\n        /* \"#utility.yul\":2370:2374   */\n      0x20\n        /* \"#utility.yul\":2365:2368   */\n      dup3\n        /* \"#utility.yul\":2361:2375   */\n      add\n        /* \"#utility.yul\":2346:2375   */\n      swap1\n      pop\n        /* \"#utility.yul\":2173:2381   */\n      swap3\n      swap2\n      pop\n      pop\n      jump\t// out\n        /* \"#utility.yul\":2387:2543   */\n    tag_169:\n        /* \"#utility.yul\":2478:2482   */\n      0x00\n        /* \"#utility.yul\":2501:2504   */\n      dup2\n        /* \"#utility.yul\":2493:2504   */\n      swap1\n      pop\n        /* \"#utility.yul\":2531:2535   */\n      0x20\n        /* \"#utility.yul\":2526:2529   */\n      dup3\n        /* \"#utility.yul\":2522:2536   */\n      add\n        /* \"#utility.yul\":2514:2536   */\n      swap1\n      pop\n        /* \"#utility.yul\":2387:2543   */\n      swap2\n      swap1\n      pop\n      jump\t// out\n        /* \"#utility.yul\":2549:2653   */\n    tag_170:\n        /* \"#utility.yul\":2594:2601   */\n      0x00\n        /* \"#utility.yul\":2623:2647   */\n      tag_223\n        /* \"#utility.yul\":2641:2646   */\n      dup3\n        /* \"#utility.yul\":2623:2647   */\n      tag_161\n      jump\t// in\n    tag_223:\n        /* \"#utility.yul\":2612:2647   */\n      swap1\n      pop\n        /* \"#utility.yul\":2549:2653   */\n      swap2\n      swap1\n      pop\n      jump\t// out\n        /* \"#utility.yul\":2659:2791   */\n    tag_171:\n        /* \"#utility.yul\":2752:2784   */\n      tag_225\n        /* \"#utility.yul\":2778:2783   */\n      dup2\n        /* \"#utility.yul\":2752:2784   */\n      tag_170\n      jump\t// in\n    tag_225:\n        /* \"#utility.yul\":2747:2750   */\n      dup3\n        /* \"#utility.yul\":2740:2785   */\n      mstore\n        /* \"#utility.yul\":2659:2791   */\n      pop\n      pop\n      jump\t// out\n        /* \"#utility.yul\":2797:2905   */\n    tag_172:\n        /* \"#utility.yul\":2874:2898   */\n      tag_227\n        /* \"#utility.yul\":2892:2897   */\n      dup2\n        /* \"#utility.yul\":2874:2898   */\n      tag_156\n      jump\t// in\n    tag_227:\n        /* \"#utility.yul\":2869:2872   */\n      dup3\n        /* \"#utility.yul\":2862:2899   */\n      mstore\n        /* \"#utility.yul\":2797:2905   */\n      pop\n      pop\n      jump\t// out\n        /* \"#utility.yul\":2911:3001   */\n    tag_173:\n        /* \"#utility.yul\":2945:2952   */\n      0x00\n        /* \"#utility.yul\":2988:2993   */\n      dup2\n        /* \"#utility.yul\":2981:2994   */\n      iszero\n        /* \"#utility.yul\":2974:2995   */\n      iszero\n        /* \"#utility.yul\":2963:2995   */\n      swap1\n      pop\n        /* \"#utility.yul\":2911:3001   */\n      swap2\n      swap1\n      pop\n      jump\t// out\n        /* \"#utility.yul\":3007:3106   */\n    tag_174:\n        /* \"#utility.yul\":3078:3099   */\n      tag_230\n        /* \"#utility.yul\":3093:3098   */\n      dup2\n        /* \"#utility.yul\":3078:3099   */\n      tag_173\n      jump\t// in\n    tag_230:\n        /* \"#utility.yul\":3073:3076   */\n      dup3\n        /* \"#utility.yul\":3066:3100   */\n      mstore\n        /* \"#utility.yul\":3007:3106   */\n      pop\n      pop\n      jump\t// out\n        /* \"#utility.yul\":3112:3226   */\n    tag_175:\n        /* \"#utility.yul\":3179:3185   */\n      0x00\n        /* \"#utility.yul\":3213:3218   */\n      dup2\n        /* \"#utility.yul\":3207:3219   */\n      mload\n        /* \"#utility.yul\":3197:3219   */\n      swap1\n      pop\n        /* \"#utility.yul\":3112:3226   */\n      swap2\n      swap1\n      pop\n      jump\t// out\n        /* \"#utility.yul\":3232:3406   */\n    tag_176:\n        /* \"#utility.yul\":3321:3332   */\n      0x00\n        /* \"#utility.yul\":3355:3361   */\n      dup3\n        /* \"#utility.yul\":3350:3353   */\n      dup3\n        /* \"#utility.yul\":3343:3362   */\n      mstore\n        /* \"#utility.yul\":3395:3399   */\n      0x20\n        /* \"#utility.yul\":3390:3393   */\n      dup3\n        /* \"#utility.yul\":3386:3400   */\n      add\n        /* \"#utility.yul\":3371:3400   */\n      swap1\n      pop\n        /* \"#utility.yul\":3232:3406   */\n      swap3\n      swap2\n      pop\n      pop\n      jump\t// out\n        /* \"#utility.yul\":3412:3544   */\n    tag_177:\n        /* \"#utility.yul\":3479:3483   */\n      0x00\n        /* \"#utility.yul\":3502:3505   */\n      dup2\n        /* \"#utility.yul\":3494:3505   */\n      swap1\n      pop\n        /* \"#utility.yul\":3532:3536   */\n      0x20\n        /* \"#utility.yul\":3527:3530   */\n      dup3\n        /* \"#utility.yul\":3523:3537   */\n      add\n        /* \"#utility.yul\":3515:3537   */\n      swap1\n      pop\n        /* \"#utility.yul\":3412:3544   */\n      swap2\n      swap1\n      pop\n      jump\t// out\n        /* \"#utility.yul\":3550:3658   */\n    tag_178:\n        /* \"#utility.yul\":3627:3651   */\n      tag_235\n        /* \"#utility.yul\":3645:3650   */\n      dup2\n        /* \"#utility.yul\":3627:3651   */\n      tag_162\n      jump\t// in\n    tag_235:\n        /* \"#utility.yul\":3622:3625   */\n      dup3\n        /* \"#utility.yul\":3615:3652   */\n      mstore\n        /* \"#utility.yul\":3550:3658   */\n      pop\n      pop\n      jump\t// out\n        /* \"#utility.yul\":3664:3843   */\n    tag_179:\n        /* \"#utility.yul\":3733:3743   */\n      0x00\n        /* \"#utility.yul\":3754:3800   */\n      tag_237\n        /* \"#utility.yul\":3796:3799   */\n      dup4\n        /* \"#utility.yul\":3788:3794   */\n      dup4\n        /* \"#utility.yul\":3754:3800   */\n      tag_178\n      jump\t// in\n    tag_237:\n        /* \"#utility.yul\":3832:3836   */\n      0x20\n        /* \"#utility.yul\":3827:3830   */\n      dup4\n        /* \"#utility.yul\":3823:3837   */\n      add\n        /* \"#utility.yul\":3809:3837   */\n      swap1\n      pop\n        /* \"#utility.yul\":3664:3843   */\n      swap3\n      swap2\n      pop\n      pop\n      jump\t// out\n        /* \"#utility.yul\":3849:3962   */\n    tag_180:\n        /* \"#utility.yul\":3919:3923   */\n      0x00\n        /* \"#utility.yul\":3951:3955   */\n      0x20\n        /* \"#utility.yul\":3946:3949   */\n      dup3\n        /* \"#utility.yul\":3942:3956   */\n      add\n        /* \"#utility.yul\":3934:3956   */\n      swap1\n      pop\n        /* \"#utility.yul\":3849:3962   */\n      swap2\n      swap1\n      pop\n      jump\t// out\n        /* \"#utility.yul\":3998:4710   */\n    tag_181:\n        /* \"#utility.yul\":4107:4110   */\n      0x00\n        /* \"#utility.yul\":4136:4190   */\n      tag_240\n        /* \"#utility.yul\":4184:4189   */\n      dup3\n        /* \"#utility.yul\":4136:4190   */\n      tag_175\n      jump\t// in\n    tag_240:\n        /* \"#utility.yul\":4206:4282   */\n      tag_241\n        /* \"#utility.yul\":4275:4281   */\n      dup2\n        /* \"#utility.yul\":4270:4273   */\n      dup6\n        /* \"#utility.yul\":4206:4282   */\n      tag_176\n      jump\t// in\n    tag_241:\n        /* \"#utility.yul\":4199:4282   */\n      swap4\n      pop\n        /* \"#utility.yul\":4306:4362   */\n      tag_242\n        /* \"#utility.yul\":4356:4361   */\n      dup4\n        /* \"#utility.yul\":4306:4362   */\n      tag_177\n      jump\t// in\n    tag_242:\n        /* \"#utility.yul\":4385:4392   */\n      dup1\n        /* \"#utility.yul\":4416:4417   */\n      0x00\n        /* \"#utility.yul\":4401:4685   */\n    tag_243:\n        /* \"#utility.yul\":4426:4432   */\n      dup4\n        /* \"#utility.yul\":4423:4424   */\n      dup2\n        /* \"#utility.yul\":4420:4433   */\n      lt\n        /* \"#utility.yul\":4401:4685   */\n      iszero\n      tag_245\n      jumpi\n        /* \"#utility.yul\":4502:4508   */\n      dup2\n        /* \"#utility.yul\":4496:4509   */\n      mload\n        /* \"#utility.yul\":4529:4592   */\n      tag_246\n        /* \"#utility.yul\":4588:4591   */\n      dup9\n        /* \"#utility.yul\":4573:4586   */\n      dup3\n        /* \"#utility.yul\":4529:4592   */\n      tag_179\n      jump\t// in\n    tag_246:\n        /* \"#utility.yul\":4522:4592   */\n      swap8\n      pop\n        /* \"#utility.yul\":4615:4675   */\n      tag_247\n        /* \"#utility.yul\":4668:4674   */\n      dup4\n        /* \"#utility.yul\":4615:4675   */\n      tag_180\n      jump\t// in\n    tag_247:\n        /* \"#utility.yul\":4605:4675   */\n      swap3\n      pop\n        /* \"#utility.yul\":4461:4685   */\n      pop\n        /* \"#utility.yul\":4448:4449   */\n      0x01\n        /* \"#utility.yul\":4445:4446   */\n      dup2\n        /* \"#utility.yul\":4441:4450   */\n      add\n        /* \"#utility.yul\":4436:4450   */\n      swap1\n      pop\n        /* \"#utility.yul\":4401:4685   */\n      jump(tag_243)\n    tag_245:\n        /* \"#utility.yul\":4405:4419   */\n      pop\n        /* \"#utility.yul\":4701:4704   */\n      dup6\n        /* \"#utility.yul\":4694:4704   */\n      swap4\n      pop\n        /* \"#utility.yul\":4112:4710   */\n      pop\n      pop\n      pop\n        /* \"#utility.yul\":3998:4710   */\n      swap3\n      swap2\n      pop\n      pop\n      jump\t// out\n        /* \"#utility.yul\":4788:5981   */\n    tag_182:\n        /* \"#utility.yul\":4895:4898   */\n      0x00\n        /* \"#utility.yul\":4931:4935   */\n      0xa0\n        /* \"#utility.yul\":4926:4929   */\n      dup4\n        /* \"#utility.yul\":4922:4936   */\n      add\n        /* \"#utility.yul\":5020:5024   */\n      0x00\n        /* \"#utility.yul\":5013:5018   */\n      dup4\n        /* \"#utility.yul\":5009:5025   */\n      add\n        /* \"#utility.yul\":5003:5026   */\n      mload\n        /* \"#utility.yul\":5039:5118   */\n      tag_249\n        /* \"#utility.yul\":5112:5116   */\n      0x00\n        /* \"#utility.yul\":5107:5110   */\n      dup7\n        /* \"#utility.yul\":5103:5117   */\n      add\n        /* \"#utility.yul\":5089:5101   */\n      dup3\n        /* \"#utility.yul\":5039:5118   */\n      tag_171\n      jump\t// in\n    tag_249:\n        /* \"#utility.yul\":4946:5128   */\n      pop\n        /* \"#utility.yul\":5215:5219   */\n      0x20\n        /* \"#utility.yul\":5208:5213   */\n      dup4\n        /* \"#utility.yul\":5204:5220   */\n      add\n        /* \"#utility.yul\":5198:5221   */\n      mload\n        /* \"#utility.yul\":5234:5313   */\n      tag_250\n        /* \"#utility.yul\":5307:5311   */\n      0x20\n        /* \"#utility.yul\":5302:5305   */\n      dup7\n        /* \"#utility.yul\":5298:5312   */\n      add\n        /* \"#utility.yul\":5284:5296   */\n      dup3\n        /* \"#utility.yul\":5234:5313   */\n      tag_171\n      jump\t// in\n    tag_250:\n        /* \"#utility.yul\":5138:5323   */\n      pop\n        /* \"#utility.yul\":5407:5411   */\n      0x40\n        /* \"#utility.yul\":5400:5405   */\n      dup4\n        /* \"#utility.yul\":5396:5412   */\n      add\n        /* \"#utility.yul\":5390:5413   */\n      mload\n        /* \"#utility.yul\":5426:5489   */\n      tag_251\n        /* \"#utility.yul\":5483:5487   */\n      0x40\n        /* \"#utility.yul\":5478:5481   */\n      dup7\n        /* \"#utility.yul\":5474:5488   */\n      add\n        /* \"#utility.yul\":5460:5472   */\n      dup3\n        /* \"#utility.yul\":5426:5489   */\n      tag_172\n      jump\t// in\n    tag_251:\n        /* \"#utility.yul\":5333:5499   */\n      pop\n        /* \"#utility.yul\":5584:5588   */\n      0x60\n        /* \"#utility.yul\":5577:5582   */\n      dup4\n        /* \"#utility.yul\":5573:5589   */\n      add\n        /* \"#utility.yul\":5567:5590   */\n      mload\n        /* \"#utility.yul\":5603:5660   */\n      tag_252\n        /* \"#utility.yul\":5654:5658   */\n      0x60\n        /* \"#utility.yul\":5649:5652   */\n      dup7\n        /* \"#utility.yul\":5645:5659   */\n      add\n        /* \"#utility.yul\":5631:5643   */\n      dup3\n        /* \"#utility.yul\":5603:5660   */\n      tag_174\n      jump\t// in\n    tag_252:\n        /* \"#utility.yul\":5509:5670   */\n      pop\n        /* \"#utility.yul\":5761:5765   */\n      0x80\n        /* \"#utility.yul\":5754:5759   */\n      dup4\n        /* \"#utility.yul\":5750:5766   */\n      add\n        /* \"#utility.yul\":5744:5767   */\n      mload\n        /* \"#utility.yul\":5814:5817   */\n      dup5\n        /* \"#utility.yul\":5808:5812   */\n      dup3\n        /* \"#utility.yul\":5804:5818   */\n      sub\n        /* \"#utility.yul\":5797:5801   */\n      0x80\n        /* \"#utility.yul\":5792:5795   */\n      dup7\n        /* \"#utility.yul\":5788:5802   */\n      add\n        /* \"#utility.yul\":5781:5819   */\n      mstore\n        /* \"#utility.yul\":5840:5943   */\n      tag_253\n        /* \"#utility.yul\":5938:5942   */\n      dup3\n        /* \"#utility.yul\":5924:5936   */\n      dup3\n        /* \"#utility.yul\":5840:5943   */\n      tag_181\n      jump\t// in\n    tag_253:\n        /* \"#utility.yul\":5832:5943   */\n      swap2\n      pop\n        /* \"#utility.yul\":5680:5954   */\n      pop\n        /* \"#utility.yul\":5971:5975   */\n      dup1\n        /* \"#utility.yul\":5964:5975   */\n      swap2\n      pop\n        /* \"#utility.yul\":4900:5981   */\n      pop\n        /* \"#utility.yul\":4788:5981   */\n      swap3\n      swap2\n      pop\n      pop\n      jump\t// out\n        /* \"#utility.yul\":5987:6239   */\n    tag_183:\n        /* \"#utility.yul\":6104:6114   */\n      0x00\n        /* \"#utility.yul\":6139:6233   */\n      tag_255\n        /* \"#utility.yul\":6229:6232   */\n      dup4\n        /* \"#utility.yul\":6221:6227   */\n      dup4\n        /* \"#utility.yul\":6139:6233   */\n      tag_182\n      jump\t// in\n    tag_255:\n        /* \"#utility.yul\":6125:6233   */\n      swap1\n      pop\n        /* \"#utility.yul\":5987:6239   */\n      swap3\n      swap2\n      pop\n      pop\n      jump\t// out\n        /* \"#utility.yul\":6245:6382   */\n    tag_184:\n        /* \"#utility.yul\":6339:6343   */\n      0x00\n        /* \"#utility.yul\":6371:6375   */\n      0x20\n        /* \"#utility.yul\":6366:6369   */\n      dup3\n        /* \"#utility.yul\":6362:6376   */\n      add\n        /* \"#utility.yul\":6354:6376   */\n      swap1\n      pop\n        /* \"#utility.yul\":6245:6382   */\n      swap2\n      swap1\n      pop\n      jump\t// out\n        /* \"#utility.yul\":6464:7567   */\n    tag_185:\n        /* \"#utility.yul\":6631:6634   */\n      0x00\n        /* \"#utility.yul\":6660:6738   */\n      tag_258\n        /* \"#utility.yul\":6732:6737   */\n      dup3\n        /* \"#utility.yul\":6660:6738   */\n      tag_167\n      jump\t// in\n    tag_258:\n        /* \"#utility.yul\":6754:6864   */\n      tag_259\n        /* \"#utility.yul\":6857:6863   */\n      dup2\n        /* \"#utility.yul\":6852:6855   */\n      dup6\n        /* \"#utility.yul\":6754:6864   */\n      tag_168\n      jump\t// in\n    tag_259:\n        /* \"#utility.yul\":6747:6864   */\n      swap4\n      pop\n        /* \"#utility.yul\":6890:6893   */\n      dup4\n        /* \"#utility.yul\":6935:6939   */\n      0x20\n        /* \"#utility.yul\":6927:6933   */\n      dup3\n        /* \"#utility.yul\":6923:6940   */\n      mul\n        /* \"#utility.yul\":6918:6921   */\n      dup6\n        /* \"#utility.yul\":6914:6941   */\n      add\n        /* \"#utility.yul\":6965:7045   */\n      tag_260\n        /* \"#utility.yul\":7039:7044   */\n      dup6\n        /* \"#utility.yul\":6965:7045   */\n      tag_169\n      jump\t// in\n    tag_260:\n        /* \"#utility.yul\":7068:7075   */\n      dup1\n        /* \"#utility.yul\":7099:7100   */\n      0x00\n        /* \"#utility.yul\":7084:7522   */\n    tag_261:\n        /* \"#utility.yul\":7109:7115   */\n      dup6\n        /* \"#utility.yul\":7106:7107   */\n      dup2\n        /* \"#utility.yul\":7103:7116   */\n      lt\n        /* \"#utility.yul\":7084:7522   */\n      iszero\n      tag_263\n      jumpi\n        /* \"#utility.yul\":7180:7189   */\n      dup5\n        /* \"#utility.yul\":7174:7178   */\n      dup5\n        /* \"#utility.yul\":7170:7190   */\n      sub\n        /* \"#utility.yul\":7165:7168   */\n      dup10\n        /* \"#utility.yul\":7158:7191   */\n      mstore\n        /* \"#utility.yul\":7231:7237   */\n      dup2\n        /* \"#utility.yul\":7225:7238   */\n      mload\n        /* \"#utility.yul\":7259:7371   */\n      tag_264\n        /* \"#utility.yul\":7366:7370   */\n      dup6\n        /* \"#utility.yul\":7351:7364   */\n      dup3\n        /* \"#utility.yul\":7259:7371   */\n      tag_183\n      jump\t// in\n    tag_264:\n        /* \"#utility.yul\":7251:7371   */\n      swap5\n      pop\n        /* \"#utility.yul\":7394:7478   */\n      tag_265\n        /* \"#utility.yul\":7471:7477   */\n      dup4\n        /* \"#utility.yul\":7394:7478   */\n      tag_184\n      jump\t// in\n    tag_265:\n        /* \"#utility.yul\":7384:7478   */\n      swap3\n      pop\n        /* \"#utility.yul\":7507:7511   */\n      0x20\n        /* \"#utility.yul\":7502:7505   */\n      dup11\n        /* \"#utility.yul\":7498:7512   */\n      add\n        /* \"#utility.yul\":7491:7512   */\n      swap10\n      pop\n        /* \"#utility.yul\":7144:7522   */\n      pop\n        /* \"#utility.yul\":7131:7132   */\n      0x01\n        /* \"#utility.yul\":7128:7129   */\n      dup2\n        /* \"#utility.yul\":7124:7133   */\n      add\n        /* \"#utility.yul\":7119:7133   */\n      swap1\n      pop\n        /* \"#utility.yul\":7084:7522   */\n      jump(tag_261)\n    tag_263:\n        /* \"#utility.yul\":7088:7102   */\n      pop\n        /* \"#utility.yul\":7538:7542   */\n      dup3\n        /* \"#utility.yul\":7531:7542   */\n      swap8\n      pop\n        /* \"#utility.yul\":7558:7561   */\n      dup8\n        /* \"#utility.yul\":7551:7561   */\n      swap6\n      pop\n        /* \"#utility.yul\":6636:7567   */\n      pop\n      pop\n      pop\n      pop\n      pop\n        /* \"#utility.yul\":6464:7567   */\n      swap3\n      swap2\n      pop\n      pop\n      jump\t// out\n        /* \"#utility.yul\":7573:8042   */\n    tag_18:\n        /* \"#utility.yul\":7764:7768   */\n      0x00\n        /* \"#utility.yul\":7802:7804   */\n      0x20\n        /* \"#utility.yul\":7791:7800   */\n      dup3\n        /* \"#utility.yul\":7787:7805   */\n      add\n        /* \"#utility.yul\":7779:7805   */\n      swap1\n      pop\n        /* \"#utility.yul\":7851:7860   */\n      dup2\n        /* \"#utility.yul\":7845:7849   */\n      dup2\n        /* \"#utility.yul\":7841:7861   */\n      sub\n        /* \"#utility.yul\":7837:7838   */\n      0x00\n        /* \"#utility.yul\":7826:7835   */\n      dup4\n        /* \"#utility.yul\":7822:7839   */\n      add\n        /* \"#utility.yul\":7815:7862   */\n      mstore\n        /* \"#utility.yul\":7879:8035   */\n      tag_267\n        /* \"#utility.yul\":8030:8034   */\n      dup2\n        /* \"#utility.yul\":8021:8027   */\n      dup5\n        /* \"#utility.yul\":7879:8035   */\n      tag_185\n      jump\t// in\n    tag_267:\n        /* \"#utility.yul\":7871:8035   */\n      swap1\n      pop\n        /* \"#utility.yul\":7573:8042   */\n      swap3\n      swap2\n      pop\n      pop\n      jump\t// out\n        /* \"#utility.yul\":8048:8377   */\n    tag_22:\n        /* \"#utility.yul\":8107:8113   */\n      0x00\n        /* \"#utility.yul\":8156:8158   */\n      0x20\n        /* \"#utility.yul\":8144:8153   */\n      dup3\n        /* \"#utility.yul\":8135:8142   */\n      dup5\n        /* \"#utility.yul\":8131:8154   */\n      sub\n        /* \"#utility.yul\":8127:8159   */\n      slt\n        /* \"#utility.yul\":8124:8243   */\n      iszero\n      tag_269\n      jumpi\n        /* \"#utility.yul\":8162:8241   */\n      tag_270\n      tag_159\n      jump\t// in\n    tag_270:\n        /* \"#utility.yul\":8124:8243   */\n    tag_269:\n        /* \"#utility.yul\":8282:8283   */\n      0x00\n        /* \"#utility.yul\":8307:8360   */\n      tag_271\n        /* \"#utility.yul\":8352:8359   */\n      dup5\n        /* \"#utility.yul\":8343:8349   */\n      dup3\n        /* \"#utility.yul\":8332:8341   */\n      dup6\n        /* \"#utility.yul\":8328:8350   */\n      add\n        /* \"#utility.yul\":8307:8360   */\n      tag_166\n      jump\t// in\n    tag_271:\n        /* \"#utility.yul\":8297:8360   */\n      swap2\n      pop\n        /* \"#utility.yul\":8253:8370   */\n      pop\n        /* \"#utility.yul\":8048:8377   */\n      swap3\n      swap2\n      pop\n      pop\n      jump\t// out\n        /* \"#utility.yul\":8383:8501   */\n    tag_186:\n        /* \"#utility.yul\":8470:8494   */\n      tag_273\n        /* \"#utility.yul\":8488:8493   */\n      dup2\n        /* \"#utility.yul\":8470:8494   */\n      tag_162\n      jump\t// in\n    tag_273:\n        /* \"#utility.yul\":8465:8468   */\n      dup3\n        /* \"#utility.yul\":8458:8495   */\n      mstore\n        /* \"#utility.yul\":8383:8501   */\n      pop\n      pop\n      jump\t// out\n        /* \"#utility.yul\":8507:8616   */\n    tag_187:\n        /* \"#utility.yul\":8588:8609   */\n      tag_275\n        /* \"#utility.yul\":8603:8608   */\n      dup2\n        /* \"#utility.yul\":8588:8609   */\n      tag_173\n      jump\t// in\n    tag_275:\n        /* \"#utility.yul\":8583:8586   */\n      dup3\n        /* \"#utility.yul\":8576:8610   */\n      mstore\n        /* \"#utility.yul\":8507:8616   */\n      pop\n      pop\n      jump\t// out\n        /* \"#utility.yul\":8622:9163   */\n    tag_32:\n        /* \"#utility.yul\":8793:8797   */\n      0x00\n        /* \"#utility.yul\":8831:8834   */\n      0x80\n        /* \"#utility.yul\":8820:8829   */\n      dup3\n        /* \"#utility.yul\":8816:8835   */\n      add\n        /* \"#utility.yul\":8808:8835   */\n      swap1\n      pop\n        /* \"#utility.yul\":8845:8916   */\n      tag_277\n        /* \"#utility.yul\":8913:8914   */\n      0x00\n        /* \"#utility.yul\":8902:8911   */\n      dup4\n        /* \"#utility.yul\":8898:8915   */\n      add\n        /* \"#utility.yul\":8889:8895   */\n      dup8\n        /* \"#utility.yul\":8845:8916   */\n      tag_186\n      jump\t// in\n    tag_277:\n        /* \"#utility.yul\":8926:8998   */\n      tag_278\n        /* \"#utility.yul\":8994:8996   */\n      0x20\n        /* \"#utility.yul\":8983:8992   */\n      dup4\n        /* \"#utility.yul\":8979:8997   */\n      add\n        /* \"#utility.yul\":8970:8976   */\n      dup7\n        /* \"#utility.yul\":8926:8998   */\n      tag_157\n      jump\t// in\n    tag_278:\n        /* \"#utility.yul\":9008:9074   */\n      tag_279\n        /* \"#utility.yul\":9070:9072   */\n      0x40\n        /* \"#utility.yul\":9059:9068   */\n      dup4\n        /* \"#utility.yul\":9055:9073   */\n      add\n        /* \"#utility.yul\":9046:9052   */\n      dup6\n        /* \"#utility.yul\":9008:9074   */\n      tag_187\n      jump\t// in\n    tag_279:\n        /* \"#utility.yul\":9084:9156   */\n      tag_280\n        /* \"#utility.yul\":9152:9154   */\n      0x60\n        /* \"#utility.yul\":9141:9150   */\n      dup4\n        /* \"#utility.yul\":9137:9155   */\n      add\n        /* \"#utility.yul\":9128:9134   */\n      dup5\n        /* \"#utility.yul\":9084:9156   */\n      tag_157\n      jump\t// in\n    tag_280:\n        /* \"#utility.yul\":8622:9163   */\n      swap6\n      swap5\n      pop\n      pop\n      pop\n      pop\n      pop\n      jump\t// out\n        /* \"#utility.yul\":9169:9349   */\n    tag_188:\n        /* \"#utility.yul\":9217:9294   */\n      0x4e487b7100000000000000000000000000000000000000000000000000000000\n        /* \"#utility.yul\":9214:9215   */\n      0x00\n        /* \"#utility.yul\":9207:9295   */\n      mstore\n        /* \"#utility.yul\":9314:9318   */\n      0x11\n        /* \"#utility.yul\":9311:9312   */\n      0x04\n        /* \"#utility.yul\":9304:9319   */\n      mstore\n        /* \"#utility.yul\":9338:9342   */\n      0x24\n        /* \"#utility.yul\":9335:9336   */\n      0x00\n        /* \"#utility.yul\":9328:9343   */\n      revert\n        /* \"#utility.yul\":9355:9549   */\n    tag_43:\n        /* \"#utility.yul\":9395:9399   */\n      0x00\n        /* \"#utility.yul\":9415:9435   */\n      tag_283\n        /* \"#utility.yul\":9433:9434   */\n      dup3\n        /* \"#utility.yul\":9415:9435   */\n      tag_156\n      jump\t// in\n    tag_283:\n        /* \"#utility.yul\":9410:9435   */\n      swap2\n      pop\n        /* \"#utility.yul\":9449:9469   */\n      tag_284\n        /* \"#utility.yul\":9467:9468   */\n      dup4\n        /* \"#utility.yul\":9449:9469   */\n      tag_156\n      jump\t// in\n    tag_284:\n        /* \"#utility.yul\":9444:9469   */\n      swap3\n      pop\n        /* \"#utility.yul\":9493:9494   */\n      dup3\n        /* \"#utility.yul\":9490:9491   */\n      dup3\n        /* \"#utility.yul\":9486:9495   */\n      sub\n        /* \"#utility.yul\":9478:9495   */\n      swap1\n      pop\n        /* \"#utility.yul\":9517:9518   */\n      dup2\n        /* \"#utility.yul\":9511:9515   */\n      dup2\n        /* \"#utility.yul\":9508:9519   */\n      gt\n        /* \"#utility.yul\":9505:9542   */\n      iszero\n      tag_285\n      jumpi\n        /* \"#utility.yul\":9522:9540   */\n      tag_286\n      tag_188\n      jump\t// in\n    tag_286:\n        /* \"#utility.yul\":9505:9542   */\n    tag_285:\n        /* \"#utility.yul\":9355:9549   */\n      swap3\n      swap2\n      pop\n      pop\n      jump\t// out\n        /* \"#utility.yul\":9555:10108   */\n    tag_45:\n        /* \"#utility.yul\":9732:9736   */\n      0x00\n        /* \"#utility.yul\":9770:9773   */\n      0x80\n        /* \"#utility.yul\":9759:9768   */\n      dup3\n        /* \"#utility.yul\":9755:9774   */\n      add\n        /* \"#utility.yul\":9747:9774   */\n      swap1\n      pop\n        /* \"#utility.yul\":9784:9855   */\n      tag_288\n        /* \"#utility.yul\":9852:9853   */\n      0x00\n        /* \"#utility.yul\":9841:9850   */\n      dup4\n        /* \"#utility.yul\":9837:9854   */\n      add\n        /* \"#utility.yul\":9828:9834   */\n      dup8\n        /* \"#utility.yul\":9784:9855   */\n      tag_157\n      jump\t// in\n    tag_288:\n        /* \"#utility.yul\":9865:9937   */\n      tag_289\n        /* \"#utility.yul\":9933:9935   */\n      0x20\n        /* \"#utility.yul\":9922:9931   */\n      dup4\n        /* \"#utility.yul\":9918:9936   */\n      add\n        /* \"#utility.yul\":9909:9915   */\n      dup7\n        /* \"#utility.yul\":9865:9937   */\n      tag_157\n      jump\t// in\n    tag_289:\n        /* \"#utility.yul\":9947:10019   */\n      tag_290\n        /* \"#utility.yul\":10015:10017   */\n      0x40\n        /* \"#utility.yul\":10004:10013   */\n      dup4\n        /* \"#utility.yul\":10000:10018   */\n      add\n        /* \"#utility.yul\":9991:9997   */\n      dup6\n        /* \"#utility.yul\":9947:10019   */\n      tag_186\n      jump\t// in\n    tag_290:\n        /* \"#utility.yul\":10029:10101   */\n      tag_291\n        /* \"#utility.yul\":10097:10099   */\n      0x60\n        /* \"#utility.yul\":10086:10095   */\n      dup4\n        /* \"#utility.yul\":10082:10100   */\n      add\n        /* \"#utility.yul\":10073:10079   */\n      dup5\n        /* \"#utility.yul\":10029:10101   */\n      tag_186\n      jump\t// in\n    tag_291:\n        /* \"#utility.yul\":9555:10108   */\n      swap6\n      swap5\n      pop\n      pop\n      pop\n      pop\n      pop\n      jump\t// out\n        /* \"#utility.yul\":10114:10294   */\n    tag_57:\n        /* \"#utility.yul\":10162:10239   */\n      0x4e487b7100000000000000000000000000000000000000000000000000000000\n        /* \"#utility.yul\":10159:10160   */\n      0x00\n        /* \"#utility.yul\":10152:10240   */\n      mstore\n        /* \"#utility.yul\":10259:10263   */\n      0x32\n        /* \"#utility.yul\":10256:10257   */\n      0x04\n        /* \"#utility.yul\":10249:10264   */\n      mstore\n        /* \"#utility.yul\":10283:10287   */\n      0x24\n        /* \"#utility.yul\":10280:10281   */\n      0x00\n        /* \"#utility.yul\":10273:10288   */\n      revert\n        /* \"#utility.yul\":10300:10533   */\n    tag_83:\n        /* \"#utility.yul\":10339:10342   */\n      0x00\n        /* \"#utility.yul\":10362:10386   */\n      tag_294\n        /* \"#utility.yul\":10380:10385   */\n      dup3\n        /* \"#utility.yul\":10362:10386   */\n      tag_156\n      jump\t// in\n    tag_294:\n        /* \"#utility.yul\":10353:10386   */\n      swap2\n      pop\n        /* \"#utility.yul\":10408:10474   */\n      0xffffffffffffffffffffffffffffffffffffffffffffffffffffffffffffffff\n        /* \"#utility.yul\":10401:10406   */\n      dup3\n        /* \"#utility.yul\":10398:10475   */\n      sub\n        /* \"#utility.yul\":10395:10498   */\n      tag_295\n      jumpi\n        /* \"#utility.yul\":10478:10496   */\n      tag_296\n      tag_188\n      jump\t// in\n    tag_296:\n        /* \"#utility.yul\":10395:10498   */\n    tag_295:\n        /* \"#utility.yul\":10525:10526   */\n      0x01\n        /* \"#utility.yul\":10518:10523   */\n      dup3\n        /* \"#utility.yul\":10514:10527   */\n      add\n        /* \"#utility.yul\":10507:10527   */\n      swap1\n      pop\n        /* \"#utility.yul\":10300:10533   */\n      swap2\n      swap1\n      pop\n      jump\t// out\n        /* \"#utility.yul\":10539:10708   */\n    tag_189:\n        /* \"#utility.yul\":10623:10634   */\n      0x00\n        /* \"#utility.yul\":10657:10663   */\n      dup3\n        /* \"#utility.yul\":10652:10655   */\n      dup3\n        /* \"#utility.yul\":10645:10664   */\n      mstore\n        /* \"#utility.yul\":10697:10701   */\n      0x20\n        /* \"#utility.yul\":10692:10695   */\n      dup3\n        /* \"#utility.yul\":10688:10702   */\n      add\n        /* \"#utility.yul\":10673:10702   */\n      swap1\n      pop\n        /* \"#utility.yul\":10539:10708   */\n      swap3\n      swap2\n      pop\n      pop\n      jump\t// out\n        /* \"#utility.yul\":10714:10934   */\n    tag_190:\n        /* \"#utility.yul\":10854:10888   */\n      0x596f752063616e27742073656e64206d6f6e657920746f20796f757273656c66\n        /* \"#utility.yul\":10850:10851   */\n      0x00\n        /* \"#utility.yul\":10842:10848   */\n      dup3\n        /* \"#utility.yul\":10838:10852   */\n      add\n        /* \"#utility.yul\":10831:10889   */\n      mstore\n        /* \"#utility.yul\":10923:10926   */\n      0x2e00000000000000000000000000000000000000000000000000000000000000\n        /* \"#utility.yul\":10918:10920   */\n      0x20\n        /* \"#utility.yul\":10910:10916   */\n      dup3\n        /* \"#utility.yul\":10906:10921   */\n      add\n        /* \"#utility.yul\":10899:10927   */\n      mstore\n        /* \"#utility.yul\":10714:10934   */\n      pop\n      jump\t// out\n        /* \"#utility.yul\":10940:11306   */\n    tag_191:\n        /* \"#utility.yul\":11082:11085   */\n      0x00\n        /* \"#utility.yul\":11103:11170   */\n      tag_300\n        /* \"#utility.yul\":11167:11169   */\n      0x21\n        /* \"#utility.yul\":11162:11165   */\n      dup4\n        /* \"#utility.yul\":11103:11170   */\n      tag_189\n      jump\t// in\n    tag_300:\n        /* \"#utility.yul\":11096:11170   */\n      swap2\n      pop\n        /* \"#utility.yul\":11179:11272   */\n      tag_301\n        /* \"#utility.yul\":11268:11271   */\n      dup3\n        /* \"#utility.yul\":11179:11272   */\n      tag_190\n      jump\t// in\n    tag_301:\n        /* \"#utility.yul\":11297:11299   */\n      0x40\n        /* \"#utility.yul\":11292:11295   */\n      dup3\n        /* \"#utility.yul\":11288:11300   */\n      add\n        /* \"#utility.yul\":11281:11300   */\n      swap1\n      pop\n        /* \"#utility.yul\":10940:11306   */\n      swap2\n      swap1\n      pop\n      jump\t// out\n        /* \"#utility.yul\":11312:11731   */\n    tag_141:\n        /* \"#utility.yul\":11478:11482   */\n      0x00\n        /* \"#utility.yul\":11516:11518   */\n      0x20\n        /* \"#utility.yul\":11505:11514   */\n      dup3\n        /* \"#utility.yul\":11501:11519   */\n      add\n        /* \"#utility.yul\":11493:11519   */\n      swap1\n      pop\n        /* \"#utility.yul\":11565:11574   */\n      dup2\n        /* \"#utility.yul\":11559:11563   */\n      dup2\n        /* \"#utility.yul\":11555:11575   */\n      sub\n        /* \"#utility.yul\":11551:11552   */\n      0x00\n        /* \"#utility.yul\":11540:11549   */\n      dup4\n        /* \"#utility.yul\":11536:11553   */\n      add\n        /* \"#utility.yul\":11529:11576   */\n      mstore\n        /* \"#utility.yul\":11593:11724   */\n      tag_303\n        /* \"#utility.yul\":11719:11723   */\n      dup2\n        /* \"#utility.yul\":11593:11724   */\n      tag_191\n      jump\t// in\n    tag_303:\n        /* \"#utility.yul\":11585:11724   */\n      swap1\n      pop\n        /* \"#utility.yul\":11312:11731   */\n      swap2\n      swap1\n      pop\n      jump\t// out\n        /* \"#utility.yul\":11737:12069   */\n    tag_145:\n        /* \"#utility.yul\":11858:11862   */\n      0x00\n        /* \"#utility.yul\":11896:11898   */\n      0x40\n        /* \"#utility.yul\":11885:11894   */\n      dup3\n        /* \"#utility.yul\":11881:11899   */\n      add\n        /* \"#utility.yul\":11873:11899   */\n      swap1\n      pop\n        /* \"#utility.yul\":11909:11980   */\n      tag_305\n        /* \"#utility.yul\":11977:11978   */\n      0x00\n        /* \"#utility.yul\":11966:11975   */\n      dup4\n        /* \"#utility.yul\":11962:11979   */\n      add\n        /* \"#utility.yul\":11953:11959   */\n      dup6\n        /* \"#utility.yul\":11909:11980   */\n      tag_157\n      jump\t// in\n    tag_305:\n        /* \"#utility.yul\":11990:12062   */\n      tag_306\n        /* \"#utility.yul\":12058:12060   */\n      0x20\n        /* \"#utility.yul\":12047:12056   */\n      dup4\n        /* \"#utility.yul\":12043:12061   */\n      add\n        /* \"#utility.yul\":12034:12040   */\n      dup5\n        /* \"#utility.yul\":11990:12062   */\n      tag_186\n      jump\t// in\n    tag_306:\n        /* \"#utility.yul\":11737:12069   */\n      swap4\n      swap3\n      pop\n      pop\n      pop\n      jump\t// out\n\n    auxdata: 0xa2646970667358221220a6325820c4f5c4bbae85d04e1cce04b5de6da72b0484c1ff42baa29176c322f864736f6c63430008150033\n}\n",
				"bytecode": {
					"linkReferences": {},
					"object": "608060405234801562000010575f80fd5b50604051620014ad380380620014ad83398181016040528101906200003691906200031c565b815f90805190602001906200004d9291906200005d565b5080600181905550505062000380565b828054828255905f5260205f20908101928215620000d6579160200282015b82811115620000d5578251825f6101000a81548173ffffffffffffffffffffffffffffffffffffffff021916908373ffffffffffffffffffffffffffffffffffffffff160217905550916020019190600101906200007c565b5b509050620000e59190620000e9565b5090565b5b8082111562000102575f815f905550600101620000ea565b5090565b5f604051905090565b5f80fd5b5f80fd5b5f80fd5b5f601f19601f8301169050919050565b7f4e487b71000000000000000000000000000000000000000000000000000000005f52604160045260245ffd5b62000163826200011b565b810181811067ffffffffffffffff821117156200018557620001846200012b565b5b80604052505050565b5f6200019962000106565b9050620001a7828262000158565b919050565b5f67ffffffffffffffff821115620001c957620001c86200012b565b5b602082029050602081019050919050565b5f80fd5b5f73ffffffffffffffffffffffffffffffffffffffff82169050919050565b5f6200020982620001de565b9050919050565b6200021b81620001fd565b811462000226575f80fd5b50565b5f81519050620002398162000210565b92915050565b5f620002556200024f84620001ac565b6200018e565b905080838252602082019050602084028301858111156200027b576200027a620001da565b5b835b81811015620002a8578062000293888262000229565b8452602084019350506020810190506200027d565b5050509392505050565b5f82601f830112620002c957620002c862000117565b5b8151620002db8482602086016200023f565b91505092915050565b5f819050919050565b620002f881620002e4565b811462000303575f80fd5b50565b5f815190506200031681620002ed565b92915050565b5f80604083850312156200033557620003346200010f565b5b5f83015167ffffffffffffffff81111562000355576200035462000113565b5b6200036385828601620002b2565b9250506020620003768582860162000306565b9150509250929050565b61111f806200038e5f395ff3fe608060405260043610610049575f3560e01c806312065fe01461004d5780637d0b380514610077578063b759f954146100b3578063d0e30db0146100db578063dddfec70146100f9575b5f80fd5b348015610058575f80fd5b50610061610138565b60405161006e9190610b54565b60405180910390f35b348015610082575f80fd5b5061009d60048036038101906100989190610bf5565b61013f565b6040516100aa9190610e61565b60405180910390f35b3480156100be575f80fd5b506100d960048036038101906100d49190610e81565b6104a7565b005b6100e3610609565b6040516100f09190610b54565b60405180910390f35b348015610104575f80fd5b5061011f600480360381019061011a9190610e81565b61065e565b60405161012f9493929190610eca565b60405180910390f35b5f47905090565b606061014a33610740565b610152575f80fd5b606060026040518060a001604052803373ffffffffffffffffffffffffffffffffffffffff1681526020018673ffffffffffffffffffffffffffffffffffffffff1681526020018581526020015f1515815260200183815250908060018154018082558091505060019003905f5260205f2090600502015f909190919091505f820151815f015f6101000a81548173ffffffffffffffffffffffffffffffffffffffff021916908373ffffffffffffffffffffffffffffffffffffffff1602179055506020820151816001015f6101000a81548173ffffffffffffffffffffffffffffffffffffffff021916908373ffffffffffffffffffffffffffffffffffffffff160217905550604082015181600201556060820151816003015f6101000a81548160ff02191690831515021790555060808201518160040190805190602001906102a0929190610a9a565b5050507f099c4ec4ecfc26f7c8b27aeee5443f92120fa2c4e91ba6020369ae71a4d4427860016002805490506102d69190610f3a565b8433876040516102e99493929190610f6d565b60405180910390a16002805480602002602001604051908101604052809291908181526020015f905b8282101561049a578382905f5260205f2090600502016040518060a00160405290815f82015f9054906101000a900473ffffffffffffffffffffffffffffffffffffffff1673ffffffffffffffffffffffffffffffffffffffff1673ffffffffffffffffffffffffffffffffffffffff168152602001600182015f9054906101000a900473ffffffffffffffffffffffffffffffffffffffff1673ffffffffffffffffffffffffffffffffffffffff1673ffffffffffffffffffffffffffffffffffffffff16815260200160028201548152602001600382015f9054906101000a900460ff161515151581526020016004820180548060200260200160405190810160405280929190818152602001828054801561048257602002820191905f5260205f20905b815f9054906101000a900473ffffffffffffffffffffffffffffffffffffffff1673ffffffffffffffffffffffffffffffffffffffff1681526020019060010190808311610439575b50505050508152505081526020019060010190610312565b5050505091505092915050565b6104b033610740565b6104b8575f80fd5b600281815481106104cc576104cb610fb0565b5b905f5260205f2090600502016003015f9054906101000a900460ff16610606575f6002828154811061050157610500610fb0565b5b905f5260205f209060050201600401805490500361052757610522816107e6565b610605565b5f5b6002828154811061053d5761053c610fb0565b5b905f5260205f20906005020160040180549050811015610603573373ffffffffffffffffffffffffffffffffffffffff166002838154811061058257610581610fb0565b5b905f5260205f20906005020160040182815481106105a3576105a2610fb0565b5b905f5260205f20015f9054906101000a900473ffffffffffffffffffffffffffffffffffffffff1673ffffffffffffffffffffffffffffffffffffffff160315610603576105f0826107e6565b80806105fb90610fdd565b915050610529565b505b5b50565b5f3373ffffffffffffffffffffffffffffffffffffffff167fdb42e689d0c993b1eaac62924e67d96c365c40778a39beaaaf6865b061a93f32346040516106509190610b54565b60405180910390a247905090565b5f805f8061066b33610740565b610673575f80fd5b6002858154811061068757610686610fb0565b5b905f5260205f2090600502016001015f9054906101000a900473ffffffffffffffffffffffffffffffffffffffff16600286815481106106ca576106c9610fb0565b5b905f5260205f20906005020160020154600287815481106106ee576106ed610fb0565b5b905f5260205f2090600502016003015f9054906101000a900460ff166002888154811061071e5761071d610fb0565b5b905f5260205f2090600502016004018054905093509350935093509193509193565b5f805f90505b5f805490508110156107dc578273ffffffffffffffffffffffffffffffffffffffff165f828154811061077c5761077b610fb0565b5b905f5260205f20015f9054906101000a900473ffffffffffffffffffffffffffffffffffffffff1673ffffffffffffffffffffffffffffffffffffffff16036107c95760019150506107e1565b80806107d490610fdd565b915050610746565b505f90505b919050565b6107ef33610740565b6107f7575f80fd5b6002818154811061080b5761080a610fb0565b5b905f5260205f20906005020160040133908060018154018082558091505060019003905f5260205f20015f9091909190916101000a81548173ffffffffffffffffffffffffffffffffffffffff021916908373ffffffffffffffffffffffffffffffffffffffff1602179055506001546002828154811061088f5761088e610fb0565b5b905f5260205f209060050201600401805490501061095857610916600282815481106108be576108bd610fb0565b5b905f5260205f2090600502016001015f9054906101000a900473ffffffffffffffffffffffffffffffffffffffff166002838154811061090157610900610fb0565b5b905f5260205f2090600502016002015461095b565b156109575760016002828154811061093157610930610fb0565b5b905f5260205f2090600502016003015f6101000a81548160ff0219169083151502179055505b5b50565b5f61096533610740565b61096d575f80fd5b8273ffffffffffffffffffffffffffffffffffffffff163373ffffffffffffffffffffffffffffffffffffffff16036109db576040517f08c379a00000000000000000000000000000000000000000000000000000000081526004016109d2906110a4565b60405180910390fd5b5f4790508373ffffffffffffffffffffffffffffffffffffffff166108fc8490811502906040515f60405180830381858888f19350505050158015610a22573d5f803e3d5ffd5b503373ffffffffffffffffffffffffffffffffffffffff167fbf4321ab09496f0dd20158dca7b8ec3b797c0085edfd58f98454ad82b61e7a0a8486604051610a6b9291906110c2565b60405180910390a28281610a7f9190610f3a565b4703610a8f576001915050610a94565b5f9150505b92915050565b828054828255905f5260205f20908101928215610b10579160200282015b82811115610b0f578251825f6101000a81548173ffffffffffffffffffffffffffffffffffffffff021916908373ffffffffffffffffffffffffffffffffffffffff16021790555091602001919060010190610ab8565b5b509050610b1d9190610b21565b5090565b5b80821115610b38575f815f905550600101610b22565b5090565b5f819050919050565b610b4e81610b3c565b82525050565b5f602082019050610b675f830184610b45565b92915050565b5f80fd5b5f73ffffffffffffffffffffffffffffffffffffffff82169050919050565b5f610b9a82610b71565b9050919050565b610baa81610b90565b8114610bb4575f80fd5b50565b5f81359050610bc581610ba1565b92915050565b610bd481610b3c565b8114610bde575f80fd5b50565b5f81359050610bef81610bcb565b92915050565b5f8060408385031215610c0b57610c0a610b6d565b5b5f610c1885828601610bb7565b9250506020610c2985828601610be1565b9150509250929050565b5f81519050919050565b5f82825260208201905092915050565b5f819050602082019050919050565b5f610c6682610b71565b9050919050565b610c7681610c5c565b82525050565b610c8581610b3c565b82525050565b5f8115159050919050565b610c9f81610c8b565b82525050565b5f81519050919050565b5f82825260208201905092915050565b5f819050602082019050919050565b610cd781610b90565b82525050565b5f610ce88383610cce565b60208301905092915050565b5f602082019050919050565b5f610d0a82610ca5565b610d148185610caf565b9350610d1f83610cbf565b805f5b83811015610d4f578151610d368882610cdd565b9750610d4183610cf4565b925050600181019050610d22565b5085935050505092915050565b5f60a083015f830151610d715f860182610c6d565b506020830151610d846020860182610c6d565b506040830151610d976040860182610c7c565b506060830151610daa6060860182610c96565b5060808301518482036080860152610dc28282610d00565b9150508091505092915050565b5f610dda8383610d5c565b905092915050565b5f602082019050919050565b5f610df882610c33565b610e028185610c3d565b935083602082028501610e1485610c4d565b805f5b85811015610e4f5784840389528151610e308582610dcf565b9450610e3b83610de2565b925060208a01995050600181019050610e17565b50829750879550505050505092915050565b5f6020820190508181035f830152610e798184610dee565b905092915050565b5f60208284031215610e9657610e95610b6d565b5b5f610ea384828501610be1565b91505092915050565b610eb581610b90565b82525050565b610ec481610c8b565b82525050565b5f608082019050610edd5f830187610eac565b610eea6020830186610b45565b610ef76040830185610ebb565b610f046060830184610b45565b95945050505050565b7f4e487b71000000000000000000000000000000000000000000000000000000005f52601160045260245ffd5b5f610f4482610b3c565b9150610f4f83610b3c565b9250828203905081811115610f6757610f66610f0d565b5b92915050565b5f608082019050610f805f830187610b45565b610f8d6020830186610b45565b610f9a6040830185610eac565b610fa76060830184610eac565b95945050505050565b7f4e487b71000000000000000000000000000000000000000000000000000000005f52603260045260245ffd5b5f610fe782610b3c565b91507fffffffffffffffffffffffffffffffffffffffffffffffffffffffffffffffff820361101957611018610f0d565b5b600182019050919050565b5f82825260208201905092915050565b7f596f752063616e27742073656e64206d6f6e657920746f20796f757273656c665f8201527f2e00000000000000000000000000000000000000000000000000000000000000602082015250565b5f61108e602183611024565b915061109982611034565b604082019050919050565b5f6020820190508181035f8301526110bb81611082565b9050919050565b5f6040820190506110d55f830185610b45565b6110e26020830184610eac565b939250505056fea2646970667358221220a6325820c4f5c4bbae85d04e1cce04b5de6da72b0484c1ff42baa29176c322f864736f6c63430008150033",
					"opcodes": "PUSH1 0x80 PUSH1 0x40 MSTORE CALLVALUE DUP1 ISZERO PUSH3 0x10 JUMPI PUSH0 DUP1 REVERT JUMPDEST POP PUSH1 0x40 MLOAD PUSH3 0x14AD CODESIZE SUB DUP1 PUSH3 0x14AD DUP4 CODECOPY DUP2 DUP2 ADD PUSH1 0x40 MSTORE DUP2 ADD SWAP1 PUSH3 0x36 SWAP2 SWAP1 PUSH3 0x31C JUMP JUMPDEST DUP2 PUSH0 SWAP1 DUP1 MLOAD SWAP1 PUSH1 0x20 ADD SWAP1 PUSH3 0x4D SWAP3 SWAP2 SWAP1 PUSH3 0x5D JUMP JUMPDEST POP DUP1 PUSH1 0x1 DUP2 SWAP1 SSTORE POP POP POP PUSH3 0x380 JUMP JUMPDEST DUP3 DUP1 SLOAD DUP3 DUP3 SSTORE SWAP1 PUSH0 MSTORE PUSH1 0x20 PUSH0 KECCAK256 SWAP1 DUP2 ADD SWAP3 DUP3 ISZERO PUSH3 0xD6 JUMPI SWAP2 PUSH1 0x20 MUL DUP3 ADD JUMPDEST DUP3 DUP2 GT ISZERO PUSH3 0xD5 JUMPI DUP3 MLOAD DUP3 PUSH0 PUSH2 0x100 EXP DUP2 SLOAD DUP2 PUSH20 0xFFFFFFFFFFFFFFFFFFFFFFFFFFFFFFFFFFFFFFFF MUL NOT AND SWAP1 DUP4 PUSH20 0xFFFFFFFFFFFFFFFFFFFFFFFFFFFFFFFFFFFFFFFF AND MUL OR SWAP1 SSTORE POP SWAP2 PUSH1 0x20 ADD SWAP2 SWAP1 PUSH1 0x1 ADD SWAP1 PUSH3 0x7C JUMP JUMPDEST JUMPDEST POP SWAP1 POP PUSH3 0xE5 SWAP2 SWAP1 PUSH3 0xE9 JUMP JUMPDEST POP SWAP1 JUMP JUMPDEST JUMPDEST DUP1 DUP3 GT ISZERO PUSH3 0x102 JUMPI PUSH0 DUP2 PUSH0 SWAP1 SSTORE POP PUSH1 0x1 ADD PUSH3 0xEA JUMP JUMPDEST POP SWAP1 JUMP JUMPDEST PUSH0 PUSH1 0x40 MLOAD SWAP1 POP SWAP1 JUMP JUMPDEST PUSH0 DUP1 REVERT JUMPDEST PUSH0 DUP1 REVERT JUMPDEST PUSH0 DUP1 REVERT JUMPDEST PUSH0 PUSH1 0x1F NOT PUSH1 0x1F DUP4 ADD AND SWAP1 POP SWAP2 SWAP1 POP JUMP JUMPDEST PUSH32 0x4E487B7100000000000000000000000000000000000000000000000000000000 PUSH0 MSTORE PUSH1 0x41 PUSH1 0x4 MSTORE PUSH1 0x24 PUSH0 REVERT JUMPDEST PUSH3 0x163 DUP3 PUSH3 0x11B JUMP JUMPDEST DUP2 ADD DUP2 DUP2 LT PUSH8 0xFFFFFFFFFFFFFFFF DUP3 GT OR ISZERO PUSH3 0x185 JUMPI PUSH3 0x184 PUSH3 0x12B JUMP JUMPDEST JUMPDEST DUP1 PUSH1 0x40 MSTORE POP POP POP JUMP JUMPDEST PUSH0 PUSH3 0x199 PUSH3 0x106 JUMP JUMPDEST SWAP1 POP PUSH3 0x1A7 DUP3 DUP3 PUSH3 0x158 JUMP JUMPDEST SWAP2 SWAP1 POP JUMP JUMPDEST PUSH0 PUSH8 0xFFFFFFFFFFFFFFFF DUP3 GT ISZERO PUSH3 0x1C9 JUMPI PUSH3 0x1C8 PUSH3 0x12B JUMP JUMPDEST JUMPDEST PUSH1 0x20 DUP3 MUL SWAP1 POP PUSH1 0x20 DUP2 ADD SWAP1 POP SWAP2 SWAP1 POP JUMP JUMPDEST PUSH0 DUP1 REVERT JUMPDEST PUSH0 PUSH20 0xFFFFFFFFFFFFFFFFFFFFFFFFFFFFFFFFFFFFFFFF DUP3 AND SWAP1 POP SWAP2 SWAP1 POP JUMP JUMPDEST PUSH0 PUSH3 0x209 DUP3 PUSH3 0x1DE JUMP JUMPDEST SWAP1 POP SWAP2 SWAP1 POP JUMP JUMPDEST PUSH3 0x21B DUP2 PUSH3 0x1FD JUMP JUMPDEST DUP2 EQ PUSH3 0x226 JUMPI PUSH0 DUP1 REVERT JUMPDEST POP JUMP JUMPDEST PUSH0 DUP2 MLOAD SWAP1 POP PUSH3 0x239 DUP2 PUSH3 0x210 JUMP JUMPDEST SWAP3 SWAP2 POP POP JUMP JUMPDEST PUSH0 PUSH3 0x255 PUSH3 0x24F DUP5 PUSH3 0x1AC JUMP JUMPDEST PUSH3 0x18E JUMP JUMPDEST SWAP1 POP DUP1 DUP4 DUP3 MSTORE PUSH1 0x20 DUP3 ADD SWAP1 POP PUSH1 0x20 DUP5 MUL DUP4 ADD DUP6 DUP2 GT ISZERO PUSH3 0x27B JUMPI PUSH3 0x27A PUSH3 0x1DA JUMP JUMPDEST JUMPDEST DUP4 JUMPDEST DUP2 DUP2 LT ISZERO PUSH3 0x2A8 JUMPI DUP1 PUSH3 0x293 DUP9 DUP3 PUSH3 0x229 JUMP JUMPDEST DUP5 MSTORE PUSH1 0x20 DUP5 ADD SWAP4 POP POP PUSH1 0x20 DUP2 ADD SWAP1 POP PUSH3 0x27D JUMP JUMPDEST POP POP POP SWAP4 SWAP3 POP POP POP JUMP JUMPDEST PUSH0 DUP3 PUSH1 0x1F DUP4 ADD SLT PUSH3 0x2C9 JUMPI PUSH3 0x2C8 PUSH3 0x117 JUMP JUMPDEST JUMPDEST DUP2 MLOAD PUSH3 0x2DB DUP5 DUP3 PUSH1 0x20 DUP7 ADD PUSH3 0x23F JUMP JUMPDEST SWAP2 POP POP SWAP3 SWAP2 POP POP JUMP JUMPDEST PUSH0 DUP2 SWAP1 POP SWAP2 SWAP1 POP JUMP JUMPDEST PUSH3 0x2F8 DUP2 PUSH3 0x2E4 JUMP JUMPDEST DUP2 EQ PUSH3 0x303 JUMPI PUSH0 DUP1 REVERT JUMPDEST POP JUMP JUMPDEST PUSH0 DUP2 MLOAD SWAP1 POP PUSH3 0x316 DUP2 PUSH3 0x2ED JUMP JUMPDEST SWAP3 SWAP2 POP POP JUMP JUMPDEST PUSH0 DUP1 PUSH1 0x40 DUP4 DUP6 SUB SLT ISZERO PUSH3 0x335 JUMPI PUSH3 0x334 PUSH3 0x10F JUMP JUMPDEST JUMPDEST PUSH0 DUP4 ADD MLOAD PUSH8 0xFFFFFFFFFFFFFFFF DUP2 GT ISZERO PUSH3 0x355 JUMPI PUSH3 0x354 PUSH3 0x113 JUMP JUMPDEST JUMPDEST PUSH3 0x363 DUP6 DUP3 DUP7 ADD PUSH3 0x2B2 JUMP JUMPDEST SWAP3 POP POP PUSH1 0x20 PUSH3 0x376 DUP6 DUP3 DUP7 ADD PUSH3 0x306 JUMP JUMPDEST SWAP2 POP POP SWAP3 POP SWAP3 SWAP1 POP JUMP JUMPDEST PUSH2 0x111F DUP1 PUSH3 0x38E PUSH0 CODECOPY PUSH0 RETURN INVALID PUSH1 0x80 PUSH1 0x40 MSTORE PUSH1 0x4 CALLDATASIZE LT PUSH2 0x49 JUMPI PUSH0 CALLDATALOAD PUSH1 0xE0 SHR DUP1 PUSH4 0x12065FE0 EQ PUSH2 0x4D JUMPI DUP1 PUSH4 0x7D0B3805 EQ PUSH2 0x77 JUMPI DUP1 PUSH4 0xB759F954 EQ PUSH2 0xB3 JUMPI DUP1 PUSH4 0xD0E30DB0 EQ PUSH2 0xDB JUMPI DUP1 PUSH4 0xDDDFEC70 EQ PUSH2 0xF9 JUMPI JUMPDEST PUSH0 DUP1 REVERT JUMPDEST CALLVALUE DUP1 ISZERO PUSH2 0x58 JUMPI PUSH0 DUP1 REVERT JUMPDEST POP PUSH2 0x61 PUSH2 0x138 JUMP JUMPDEST PUSH1 0x40 MLOAD PUSH2 0x6E SWAP2 SWAP1 PUSH2 0xB54 JUMP JUMPDEST PUSH1 0x40 MLOAD DUP1 SWAP2 SUB SWAP1 RETURN JUMPDEST CALLVALUE DUP1 ISZERO PUSH2 0x82 JUMPI PUSH0 DUP1 REVERT JUMPDEST POP PUSH2 0x9D PUSH1 0x4 DUP1 CALLDATASIZE SUB DUP2 ADD SWAP1 PUSH2 0x98 SWAP2 SWAP1 PUSH2 0xBF5 JUMP JUMPDEST PUSH2 0x13F JUMP JUMPDEST PUSH1 0x40 MLOAD PUSH2 0xAA SWAP2 SWAP1 PUSH2 0xE61 JUMP JUMPDEST PUSH1 0x40 MLOAD DUP1 SWAP2 SUB SWAP1 RETURN JUMPDEST CALLVALUE DUP1 ISZERO PUSH2 0xBE JUMPI PUSH0 DUP1 REVERT JUMPDEST POP PUSH2 0xD9 PUSH1 0x4 DUP1 CALLDATASIZE SUB DUP2 ADD SWAP1 PUSH2 0xD4 SWAP2 SWAP1 PUSH2 0xE81 JUMP JUMPDEST PUSH2 0x4A7 JUMP JUMPDEST STOP JUMPDEST PUSH2 0xE3 PUSH2 0x609 JUMP JUMPDEST PUSH1 0x40 MLOAD PUSH2 0xF0 SWAP2 SWAP1 PUSH2 0xB54 JUMP JUMPDEST PUSH1 0x40 MLOAD DUP1 SWAP2 SUB SWAP1 RETURN JUMPDEST CALLVALUE DUP1 ISZERO PUSH2 0x104 JUMPI PUSH0 DUP1 REVERT JUMPDEST POP PUSH2 0x11F PUSH1 0x4 DUP1 CALLDATASIZE SUB DUP2 ADD SWAP1 PUSH2 0x11A SWAP2 SWAP1 PUSH2 0xE81 JUMP JUMPDEST PUSH2 0x65E JUMP JUMPDEST PUSH1 0x40 MLOAD PUSH2 0x12F SWAP5 SWAP4 SWAP3 SWAP2 SWAP1 PUSH2 0xECA JUMP JUMPDEST PUSH1 0x40 MLOAD DUP1 SWAP2 SUB SWAP1 RETURN JUMPDEST PUSH0 SELFBALANCE SWAP1 POP SWAP1 JUMP JUMPDEST PUSH1 0x60 PUSH2 0x14A CALLER PUSH2 0x740 JUMP JUMPDEST PUSH2 0x152 JUMPI PUSH0 DUP1 REVERT JUMPDEST PUSH1 0x60 PUSH1 0x2 PUSH1 0x40 MLOAD DUP1 PUSH1 0xA0 ADD PUSH1 0x40 MSTORE DUP1 CALLER PUSH20 0xFFFFFFFFFFFFFFFFFFFFFFFFFFFFFFFFFFFFFFFF AND DUP2 MSTORE PUSH1 0x20 ADD DUP7 PUSH20 0xFFFFFFFFFFFFFFFFFFFFFFFFFFFFFFFFFFFFFFFF AND DUP2 MSTORE PUSH1 0x20 ADD DUP6 DUP2 MSTORE PUSH1 0x20 ADD PUSH0 ISZERO ISZERO DUP2 MSTORE PUSH1 0x20 ADD DUP4 DUP2 MSTORE POP SWAP1 DUP1 PUSH1 0x1 DUP2 SLOAD ADD DUP1 DUP3 SSTORE DUP1 SWAP2 POP POP PUSH1 0x1 SWAP1 SUB SWAP1 PUSH0 MSTORE PUSH1 0x20 PUSH0 KECCAK256 SWAP1 PUSH1 0x5 MUL ADD PUSH0 SWAP1 SWAP2 SWAP1 SWAP2 SWAP1 SWAP2 POP PUSH0 DUP3 ADD MLOAD DUP2 PUSH0 ADD PUSH0 PUSH2 0x100 EXP DUP2 SLOAD DUP2 PUSH20 0xFFFFFFFFFFFFFFFFFFFFFFFFFFFFFFFFFFFFFFFF MUL NOT AND SWAP1 DUP4 PUSH20 0xFFFFFFFFFFFFFFFFFFFFFFFFFFFFFFFFFFFFFFFF AND MUL OR SWAP1 SSTORE POP PUSH1 0x20 DUP3 ADD MLOAD DUP2 PUSH1 0x1 ADD PUSH0 PUSH2 0x100 EXP DUP2 SLOAD DUP2 PUSH20 0xFFFFFFFFFFFFFFFFFFFFFFFFFFFFFFFFFFFFFFFF MUL NOT AND SWAP1 DUP4 PUSH20 0xFFFFFFFFFFFFFFFFFFFFFFFFFFFFFFFFFFFFFFFF AND MUL OR SWAP1 SSTORE POP PUSH1 0x40 DUP3 ADD MLOAD DUP2 PUSH1 0x2 ADD SSTORE PUSH1 0x60 DUP3 ADD MLOAD DUP2 PUSH1 0x3 ADD PUSH0 PUSH2 0x100 EXP DUP2 SLOAD DUP2 PUSH1 0xFF MUL NOT AND SWAP1 DUP4 ISZERO ISZERO MUL OR SWAP1 SSTORE POP PUSH1 0x80 DUP3 ADD MLOAD DUP2 PUSH1 0x4 ADD SWAP1 DUP1 MLOAD SWAP1 PUSH1 0x20 ADD SWAP1 PUSH2 0x2A0 SWAP3 SWAP2 SWAP1 PUSH2 0xA9A JUMP JUMPDEST POP POP POP PUSH32 0x99C4EC4ECFC26F7C8B27AEEE5443F92120FA2C4E91BA6020369AE71A4D44278 PUSH1 0x1 PUSH1 0x2 DUP1 SLOAD SWAP1 POP PUSH2 0x2D6 SWAP2 SWAP1 PUSH2 0xF3A JUMP JUMPDEST DUP5 CALLER DUP8 PUSH1 0x40 MLOAD PUSH2 0x2E9 SWAP5 SWAP4 SWAP3 SWAP2 SWAP1 PUSH2 0xF6D JUMP JUMPDEST PUSH1 0x40 MLOAD DUP1 SWAP2 SUB SWAP1 LOG1 PUSH1 0x2 DUP1 SLOAD DUP1 PUSH1 0x20 MUL PUSH1 0x20 ADD PUSH1 0x40 MLOAD SWAP1 DUP2 ADD PUSH1 0x40 MSTORE DUP1 SWAP3 SWAP2 SWAP1 DUP2 DUP2 MSTORE PUSH1 0x20 ADD PUSH0 SWAP1 JUMPDEST DUP3 DUP3 LT ISZERO PUSH2 0x49A JUMPI DUP4 DUP3 SWAP1 PUSH0 MSTORE PUSH1 0x20 PUSH0 KECCAK256 SWAP1 PUSH1 0x5 MUL ADD PUSH1 0x40 MLOAD DUP1 PUSH1 0xA0 ADD PUSH1 0x40 MSTORE SWAP1 DUP2 PUSH0 DUP3 ADD PUSH0 SWAP1 SLOAD SWAP1 PUSH2 0x100 EXP SWAP1 DIV PUSH20 0xFFFFFFFFFFFFFFFFFFFFFFFFFFFFFFFFFFFFFFFF AND PUSH20 0xFFFFFFFFFFFFFFFFFFFFFFFFFFFFFFFFFFFFFFFF AND PUSH20 0xFFFFFFFFFFFFFFFFFFFFFFFFFFFFFFFFFFFFFFFF AND DUP2 MSTORE PUSH1 0x20 ADD PUSH1 0x1 DUP3 ADD PUSH0 SWAP1 SLOAD SWAP1 PUSH2 0x100 EXP SWAP1 DIV PUSH20 0xFFFFFFFFFFFFFFFFFFFFFFFFFFFFFFFFFFFFFFFF AND PUSH20 0xFFFFFFFFFFFFFFFFFFFFFFFFFFFFFFFFFFFFFFFF AND PUSH20 0xFFFFFFFFFFFFFFFFFFFFFFFFFFFFFFFFFFFFFFFF AND DUP2 MSTORE PUSH1 0x20 ADD PUSH1 0x2 DUP3 ADD SLOAD DUP2 MSTORE PUSH1 0x20 ADD PUSH1 0x3 DUP3 ADD PUSH0 SWAP1 SLOAD SWAP1 PUSH2 0x100 EXP SWAP1 DIV PUSH1 0xFF AND ISZERO ISZERO ISZERO ISZERO DUP2 MSTORE PUSH1 0x20 ADD PUSH1 0x4 DUP3 ADD DUP1 SLOAD DUP1 PUSH1 0x20 MUL PUSH1 0x20 ADD PUSH1 0x40 MLOAD SWAP1 DUP2 ADD PUSH1 0x40 MSTORE DUP1 SWAP3 SWAP2 SWAP1 DUP2 DUP2 MSTORE PUSH1 0x20 ADD DUP3 DUP1 SLOAD DUP1 ISZERO PUSH2 0x482 JUMPI PUSH1 0x20 MUL DUP3 ADD SWAP2 SWAP1 PUSH0 MSTORE PUSH1 0x20 PUSH0 KECCAK256 SWAP1 JUMPDEST DUP2 PUSH0 SWAP1 SLOAD SWAP1 PUSH2 0x100 EXP SWAP1 DIV PUSH20 0xFFFFFFFFFFFFFFFFFFFFFFFFFFFFFFFFFFFFFFFF AND PUSH20 0xFFFFFFFFFFFFFFFFFFFFFFFFFFFFFFFFFFFFFFFF AND DUP2 MSTORE PUSH1 0x20 ADD SWAP1 PUSH1 0x1 ADD SWAP1 DUP1 DUP4 GT PUSH2 0x439 JUMPI JUMPDEST POP POP POP POP POP DUP2 MSTORE POP POP DUP2 MSTORE PUSH1 0x20 ADD SWAP1 PUSH1 0x1 ADD SWAP1 PUSH2 0x312 JUMP JUMPDEST POP POP POP POP SWAP2 POP POP SWAP3 SWAP2 POP POP JUMP JUMPDEST PUSH2 0x4B0 CALLER PUSH2 0x740 JUMP JUMPDEST PUSH2 0x4B8 JUMPI PUSH0 DUP1 REVERT JUMPDEST PUSH1 0x2 DUP2 DUP2 SLOAD DUP2 LT PUSH2 0x4CC JUMPI PUSH2 0x4CB PUSH2 0xFB0 JUMP JUMPDEST JUMPDEST SWAP1 PUSH0 MSTORE PUSH1 0x20 PUSH0 KECCAK256 SWAP1 PUSH1 0x5 MUL ADD PUSH1 0x3 ADD PUSH0 SWAP1 SLOAD SWAP1 PUSH2 0x100 EXP SWAP1 DIV PUSH1 0xFF AND PUSH2 0x606 JUMPI PUSH0 PUSH1 0x2 DUP3 DUP2 SLOAD DUP2 LT PUSH2 0x501 JUMPI PUSH2 0x500 PUSH2 0xFB0 JUMP JUMPDEST JUMPDEST SWAP1 PUSH0 MSTORE PUSH1 0x20 PUSH0 KECCAK256 SWAP1 PUSH1 0x5 MUL ADD PUSH1 0x4 ADD DUP1 SLOAD SWAP1 POP SUB PUSH2 0x527 JUMPI PUSH2 0x522 DUP2 PUSH2 0x7E6 JUMP JUMPDEST PUSH2 0x605 JUMP JUMPDEST PUSH0 JUMPDEST PUSH1 0x2 DUP3 DUP2 SLOAD DUP2 LT PUSH2 0x53D JUMPI PUSH2 0x53C PUSH2 0xFB0 JUMP JUMPDEST JUMPDEST SWAP1 PUSH0 MSTORE PUSH1 0x20 PUSH0 KECCAK256 SWAP1 PUSH1 0x5 MUL ADD PUSH1 0x4 ADD DUP1 SLOAD SWAP1 POP DUP2 LT ISZERO PUSH2 0x603 JUMPI CALLER PUSH20 0xFFFFFFFFFFFFFFFFFFFFFFFFFFFFFFFFFFFFFFFF AND PUSH1 0x2 DUP4 DUP2 SLOAD DUP2 LT PUSH2 0x582 JUMPI PUSH2 0x581 PUSH2 0xFB0 JUMP JUMPDEST JUMPDEST SWAP1 PUSH0 MSTORE PUSH1 0x20 PUSH0 KECCAK256 SWAP1 PUSH1 0x5 MUL ADD PUSH1 0x4 ADD DUP3 DUP2 SLOAD DUP2 LT PUSH2 0x5A3 JUMPI PUSH2 0x5A2 PUSH2 0xFB0 JUMP JUMPDEST JUMPDEST SWAP1 PUSH0 MSTORE PUSH1 0x20 PUSH0 KECCAK256 ADD PUSH0 SWAP1 SLOAD SWAP1 PUSH2 0x100 EXP SWAP1 DIV PUSH20 0xFFFFFFFFFFFFFFFFFFFFFFFFFFFFFFFFFFFFFFFF AND PUSH20 0xFFFFFFFFFFFFFFFFFFFFFFFFFFFFFFFFFFFFFFFF AND SUB ISZERO PUSH2 0x603 JUMPI PUSH2 0x5F0 DUP3 PUSH2 0x7E6 JUMP JUMPDEST DUP1 DUP1 PUSH2 0x5FB SWAP1 PUSH2 0xFDD JUMP JUMPDEST SWAP2 POP POP PUSH2 0x529 JUMP JUMPDEST POP JUMPDEST JUMPDEST POP JUMP JUMPDEST PUSH0 CALLER PUSH20 0xFFFFFFFFFFFFFFFFFFFFFFFFFFFFFFFFFFFFFFFF AND PUSH32 0xDB42E689D0C993B1EAAC62924E67D96C365C40778A39BEAAAF6865B061A93F32 CALLVALUE PUSH1 0x40 MLOAD PUSH2 0x650 SWAP2 SWAP1 PUSH2 0xB54 JUMP JUMPDEST PUSH1 0x40 MLOAD DUP1 SWAP2 SUB SWAP1 LOG2 SELFBALANCE SWAP1 POP SWAP1 JUMP JUMPDEST PUSH0 DUP1 PUSH0 DUP1 PUSH2 0x66B CALLER PUSH2 0x740 JUMP JUMPDEST PUSH2 0x673 JUMPI PUSH0 DUP1 REVERT JUMPDEST PUSH1 0x2 DUP6 DUP2 SLOAD DUP2 LT PUSH2 0x687 JUMPI PUSH2 0x686 PUSH2 0xFB0 JUMP JUMPDEST JUMPDEST SWAP1 PUSH0 MSTORE PUSH1 0x20 PUSH0 KECCAK256 SWAP1 PUSH1 0x5 MUL ADD PUSH1 0x1 ADD PUSH0 SWAP1 SLOAD SWAP1 PUSH2 0x100 EXP SWAP1 DIV PUSH20 0xFFFFFFFFFFFFFFFFFFFFFFFFFFFFFFFFFFFFFFFF AND PUSH1 0x2 DUP7 DUP2 SLOAD DUP2 LT PUSH2 0x6CA JUMPI PUSH2 0x6C9 PUSH2 0xFB0 JUMP JUMPDEST JUMPDEST SWAP1 PUSH0 MSTORE PUSH1 0x20 PUSH0 KECCAK256 SWAP1 PUSH1 0x5 MUL ADD PUSH1 0x2 ADD SLOAD PUSH1 0x2 DUP8 DUP2 SLOAD DUP2 LT PUSH2 0x6EE JUMPI PUSH2 0x6ED PUSH2 0xFB0 JUMP JUMPDEST JUMPDEST SWAP1 PUSH0 MSTORE PUSH1 0x20 PUSH0 KECCAK256 SWAP1 PUSH1 0x5 MUL ADD PUSH1 0x3 ADD PUSH0 SWAP1 SLOAD SWAP1 PUSH2 0x100 EXP SWAP1 DIV PUSH1 0xFF AND PUSH1 0x2 DUP9 DUP2 SLOAD DUP2 LT PUSH2 0x71E JUMPI PUSH2 0x71D PUSH2 0xFB0 JUMP JUMPDEST JUMPDEST SWAP1 PUSH0 MSTORE PUSH1 0x20 PUSH0 KECCAK256 SWAP1 PUSH1 0x5 MUL ADD PUSH1 0x4 ADD DUP1 SLOAD SWAP1 POP SWAP4 POP SWAP4 POP SWAP4 POP SWAP4 POP SWAP2 SWAP4 POP SWAP2 SWAP4 JUMP JUMPDEST PUSH0 DUP1 PUSH0 SWAP1 POP JUMPDEST PUSH0 DUP1 SLOAD SWAP1 POP DUP2 LT ISZERO PUSH2 0x7DC JUMPI DUP3 PUSH20 0xFFFFFFFFFFFFFFFFFFFFFFFFFFFFFFFFFFFFFFFF AND PUSH0 DUP3 DUP2 SLOAD DUP2 LT PUSH2 0x77C JUMPI PUSH2 0x77B PUSH2 0xFB0 JUMP JUMPDEST JUMPDEST SWAP1 PUSH0 MSTORE PUSH1 0x20 PUSH0 KECCAK256 ADD PUSH0 SWAP1 SLOAD SWAP1 PUSH2 0x100 EXP SWAP1 DIV PUSH20 0xFFFFFFFFFFFFFFFFFFFFFFFFFFFFFFFFFFFFFFFF AND PUSH20 0xFFFFFFFFFFFFFFFFFFFFFFFFFFFFFFFFFFFFFFFF AND SUB PUSH2 0x7C9 JUMPI PUSH1 0x1 SWAP2 POP POP PUSH2 0x7E1 JUMP JUMPDEST DUP1 DUP1 PUSH2 0x7D4 SWAP1 PUSH2 0xFDD JUMP JUMPDEST SWAP2 POP POP PUSH2 0x746 JUMP JUMPDEST POP PUSH0 SWAP1 POP JUMPDEST SWAP2 SWAP1 POP JUMP JUMPDEST PUSH2 0x7EF CALLER PUSH2 0x740 JUMP JUMPDEST PUSH2 0x7F7 JUMPI PUSH0 DUP1 REVERT JUMPDEST PUSH1 0x2 DUP2 DUP2 SLOAD DUP2 LT PUSH2 0x80B JUMPI PUSH2 0x80A PUSH2 0xFB0 JUMP JUMPDEST JUMPDEST SWAP1 PUSH0 MSTORE PUSH1 0x20 PUSH0 KECCAK256 SWAP1 PUSH1 0x5 MUL ADD PUSH1 0x4 ADD CALLER SWAP1 DUP1 PUSH1 0x1 DUP2 SLOAD ADD DUP1 DUP3 SSTORE DUP1 SWAP2 POP POP PUSH1 0x1 SWAP1 SUB SWAP1 PUSH0 MSTORE PUSH1 0x20 PUSH0 KECCAK256 ADD PUSH0 SWAP1 SWAP2 SWAP1 SWAP2 SWAP1 SWAP2 PUSH2 0x100 EXP DUP2 SLOAD DUP2 PUSH20 0xFFFFFFFFFFFFFFFFFFFFFFFFFFFFFFFFFFFFFFFF MUL NOT AND SWAP1 DUP4 PUSH20 0xFFFFFFFFFFFFFFFFFFFFFFFFFFFFFFFFFFFFFFFF AND MUL OR SWAP1 SSTORE POP PUSH1 0x1 SLOAD PUSH1 0x2 DUP3 DUP2 SLOAD DUP2 LT PUSH2 0x88F JUMPI PUSH2 0x88E PUSH2 0xFB0 JUMP JUMPDEST JUMPDEST SWAP1 PUSH0 MSTORE PUSH1 0x20 PUSH0 KECCAK256 SWAP1 PUSH1 0x5 MUL ADD PUSH1 0x4 ADD DUP1 SLOAD SWAP1 POP LT PUSH2 0x958 JUMPI PUSH2 0x916 PUSH1 0x2 DUP3 DUP2 SLOAD DUP2 LT PUSH2 0x8BE JUMPI PUSH2 0x8BD PUSH2 0xFB0 JUMP JUMPDEST JUMPDEST SWAP1 PUSH0 MSTORE PUSH1 0x20 PUSH0 KECCAK256 SWAP1 PUSH1 0x5 MUL ADD PUSH1 0x1 ADD PUSH0 SWAP1 SLOAD SWAP1 PUSH2 0x100 EXP SWAP1 DIV PUSH20 0xFFFFFFFFFFFFFFFFFFFFFFFFFFFFFFFFFFFFFFFF AND PUSH1 0x2 DUP4 DUP2 SLOAD DUP2 LT PUSH2 0x901 JUMPI PUSH2 0x900 PUSH2 0xFB0 JUMP JUMPDEST JUMPDEST SWAP1 PUSH0 MSTORE PUSH1 0x20 PUSH0 KECCAK256 SWAP1 PUSH1 0x5 MUL ADD PUSH1 0x2 ADD SLOAD PUSH2 0x95B JUMP JUMPDEST ISZERO PUSH2 0x957 JUMPI PUSH1 0x1 PUSH1 0x2 DUP3 DUP2 SLOAD DUP2 LT PUSH2 0x931 JUMPI PUSH2 0x930 PUSH2 0xFB0 JUMP JUMPDEST JUMPDEST SWAP1 PUSH0 MSTORE PUSH1 0x20 PUSH0 KECCAK256 SWAP1 PUSH1 0x5 MUL ADD PUSH1 0x3 ADD PUSH0 PUSH2 0x100 EXP DUP2 SLOAD DUP2 PUSH1 0xFF MUL NOT AND SWAP1 DUP4 ISZERO ISZERO MUL OR SWAP1 SSTORE POP JUMPDEST JUMPDEST POP JUMP JUMPDEST PUSH0 PUSH2 0x965 CALLER PUSH2 0x740 JUMP JUMPDEST PUSH2 0x96D JUMPI PUSH0 DUP1 REVERT JUMPDEST DUP3 PUSH20 0xFFFFFFFFFFFFFFFFFFFFFFFFFFFFFFFFFFFFFFFF AND CALLER PUSH20 0xFFFFFFFFFFFFFFFFFFFFFFFFFFFFFFFFFFFFFFFF AND SUB PUSH2 0x9DB JUMPI PUSH1 0x40 MLOAD PUSH32 0x8C379A000000000000000000000000000000000000000000000000000000000 DUP2 MSTORE PUSH1 0x4 ADD PUSH2 0x9D2 SWAP1 PUSH2 0x10A4 JUMP JUMPDEST PUSH1 0x40 MLOAD DUP1 SWAP2 SUB SWAP1 REVERT JUMPDEST PUSH0 SELFBALANCE SWAP1 POP DUP4 PUSH20 0xFFFFFFFFFFFFFFFFFFFFFFFFFFFFFFFFFFFFFFFF AND PUSH2 0x8FC DUP5 SWAP1 DUP2 ISZERO MUL SWAP1 PUSH1 0x40 MLOAD PUSH0 PUSH1 0x40 MLOAD DUP1 DUP4 SUB DUP2 DUP6 DUP9 DUP9 CALL SWAP4 POP POP POP POP ISZERO DUP1 ISZERO PUSH2 0xA22 JUMPI RETURNDATASIZE PUSH0 DUP1 RETURNDATACOPY RETURNDATASIZE PUSH0 REVERT JUMPDEST POP CALLER PUSH20 0xFFFFFFFFFFFFFFFFFFFFFFFFFFFFFFFFFFFFFFFF AND PUSH32 0xBF4321AB09496F0DD20158DCA7B8EC3B797C0085EDFD58F98454AD82B61E7A0A DUP5 DUP7 PUSH1 0x40 MLOAD PUSH2 0xA6B SWAP3 SWAP2 SWAP1 PUSH2 0x10C2 JUMP JUMPDEST PUSH1 0x40 MLOAD DUP1 SWAP2 SUB SWAP1 LOG2 DUP3 DUP2 PUSH2 0xA7F SWAP2 SWAP1 PUSH2 0xF3A JUMP JUMPDEST SELFBALANCE SUB PUSH2 0xA8F JUMPI PUSH1 0x1 SWAP2 POP POP PUSH2 0xA94 JUMP JUMPDEST PUSH0 SWAP2 POP POP JUMPDEST SWAP3 SWAP2 POP POP JUMP JUMPDEST DUP3 DUP1 SLOAD DUP3 DUP3 SSTORE SWAP1 PUSH0 MSTORE PUSH1 0x20 PUSH0 KECCAK256 SWAP1 DUP2 ADD SWAP3 DUP3 ISZERO PUSH2 0xB10 JUMPI SWAP2 PUSH1 0x20 MUL DUP3 ADD JUMPDEST DUP3 DUP2 GT ISZERO PUSH2 0xB0F JUMPI DUP3 MLOAD DUP3 PUSH0 PUSH2 0x100 EXP DUP2 SLOAD DUP2 PUSH20 0xFFFFFFFFFFFFFFFFFFFFFFFFFFFFFFFFFFFFFFFF MUL NOT AND SWAP1 DUP4 PUSH20 0xFFFFFFFFFFFFFFFFFFFFFFFFFFFFFFFFFFFFFFFF AND MUL OR SWAP1 SSTORE POP SWAP2 PUSH1 0x20 ADD SWAP2 SWAP1 PUSH1 0x1 ADD SWAP1 PUSH2 0xAB8 JUMP JUMPDEST JUMPDEST POP SWAP1 POP PUSH2 0xB1D SWAP2 SWAP1 PUSH2 0xB21 JUMP JUMPDEST POP SWAP1 JUMP JUMPDEST JUMPDEST DUP1 DUP3 GT ISZERO PUSH2 0xB38 JUMPI PUSH0 DUP2 PUSH0 SWAP1 SSTORE POP PUSH1 0x1 ADD PUSH2 0xB22 JUMP JUMPDEST POP SWAP1 JUMP JUMPDEST PUSH0 DUP2 SWAP1 POP SWAP2 SWAP1 POP JUMP JUMPDEST PUSH2 0xB4E DUP2 PUSH2 0xB3C JUMP JUMPDEST DUP3 MSTORE POP POP JUMP JUMPDEST PUSH0 PUSH1 0x20 DUP3 ADD SWAP1 POP PUSH2 0xB67 PUSH0 DUP4 ADD DUP5 PUSH2 0xB45 JUMP JUMPDEST SWAP3 SWAP2 POP POP JUMP JUMPDEST PUSH0 DUP1 REVERT JUMPDEST PUSH0 PUSH20 0xFFFFFFFFFFFFFFFFFFFFFFFFFFFFFFFFFFFFFFFF DUP3 AND SWAP1 POP SWAP2 SWAP1 POP JUMP JUMPDEST PUSH0 PUSH2 0xB9A DUP3 PUSH2 0xB71 JUMP JUMPDEST SWAP1 POP SWAP2 SWAP1 POP JUMP JUMPDEST PUSH2 0xBAA DUP2 PUSH2 0xB90 JUMP JUMPDEST DUP2 EQ PUSH2 0xBB4 JUMPI PUSH0 DUP1 REVERT JUMPDEST POP JUMP JUMPDEST PUSH0 DUP2 CALLDATALOAD SWAP1 POP PUSH2 0xBC5 DUP2 PUSH2 0xBA1 JUMP JUMPDEST SWAP3 SWAP2 POP POP JUMP JUMPDEST PUSH2 0xBD4 DUP2 PUSH2 0xB3C JUMP JUMPDEST DUP2 EQ PUSH2 0xBDE JUMPI PUSH0 DUP1 REVERT JUMPDEST POP JUMP JUMPDEST PUSH0 DUP2 CALLDATALOAD SWAP1 POP PUSH2 0xBEF DUP2 PUSH2 0xBCB JUMP JUMPDEST SWAP3 SWAP2 POP POP JUMP JUMPDEST PUSH0 DUP1 PUSH1 0x40 DUP4 DUP6 SUB SLT ISZERO PUSH2 0xC0B JUMPI PUSH2 0xC0A PUSH2 0xB6D JUMP JUMPDEST JUMPDEST PUSH0 PUSH2 0xC18 DUP6 DUP3 DUP7 ADD PUSH2 0xBB7 JUMP JUMPDEST SWAP3 POP POP PUSH1 0x20 PUSH2 0xC29 DUP6 DUP3 DUP7 ADD PUSH2 0xBE1 JUMP JUMPDEST SWAP2 POP POP SWAP3 POP SWAP3 SWAP1 POP JUMP JUMPDEST PUSH0 DUP2 MLOAD SWAP1 POP SWAP2 SWAP1 POP JUMP JUMPDEST PUSH0 DUP3 DUP3 MSTORE PUSH1 0x20 DUP3 ADD SWAP1 POP SWAP3 SWAP2 POP POP JUMP JUMPDEST PUSH0 DUP2 SWAP1 POP PUSH1 0x20 DUP3 ADD SWAP1 POP SWAP2 SWAP1 POP JUMP JUMPDEST PUSH0 PUSH2 0xC66 DUP3 PUSH2 0xB71 JUMP JUMPDEST SWAP1 POP SWAP2 SWAP1 POP JUMP JUMPDEST PUSH2 0xC76 DUP2 PUSH2 0xC5C JUMP JUMPDEST DUP3 MSTORE POP POP JUMP JUMPDEST PUSH2 0xC85 DUP2 PUSH2 0xB3C JUMP JUMPDEST DUP3 MSTORE POP POP JUMP JUMPDEST PUSH0 DUP2 ISZERO ISZERO SWAP1 POP SWAP2 SWAP1 POP JUMP JUMPDEST PUSH2 0xC9F DUP2 PUSH2 0xC8B JUMP JUMPDEST DUP3 MSTORE POP POP JUMP JUMPDEST PUSH0 DUP2 MLOAD SWAP1 POP SWAP2 SWAP1 POP JUMP JUMPDEST PUSH0 DUP3 DUP3 MSTORE PUSH1 0x20 DUP3 ADD SWAP1 POP SWAP3 SWAP2 POP POP JUMP JUMPDEST PUSH0 DUP2 SWAP1 POP PUSH1 0x20 DUP3 ADD SWAP1 POP SWAP2 SWAP1 POP JUMP JUMPDEST PUSH2 0xCD7 DUP2 PUSH2 0xB90 JUMP JUMPDEST DUP3 MSTORE POP POP JUMP JUMPDEST PUSH0 PUSH2 0xCE8 DUP4 DUP4 PUSH2 0xCCE JUMP JUMPDEST PUSH1 0x20 DUP4 ADD SWAP1 POP SWAP3 SWAP2 POP POP JUMP JUMPDEST PUSH0 PUSH1 0x20 DUP3 ADD SWAP1 POP SWAP2 SWAP1 POP JUMP JUMPDEST PUSH0 PUSH2 0xD0A DUP3 PUSH2 0xCA5 JUMP JUMPDEST PUSH2 0xD14 DUP2 DUP6 PUSH2 0xCAF JUMP JUMPDEST SWAP4 POP PUSH2 0xD1F DUP4 PUSH2 0xCBF JUMP JUMPDEST DUP1 PUSH0 JUMPDEST DUP4 DUP2 LT ISZERO PUSH2 0xD4F JUMPI DUP2 MLOAD PUSH2 0xD36 DUP9 DUP3 PUSH2 0xCDD JUMP JUMPDEST SWAP8 POP PUSH2 0xD41 DUP4 PUSH2 0xCF4 JUMP JUMPDEST SWAP3 POP POP PUSH1 0x1 DUP2 ADD SWAP1 POP PUSH2 0xD22 JUMP JUMPDEST POP DUP6 SWAP4 POP POP POP POP SWAP3 SWAP2 POP POP JUMP JUMPDEST PUSH0 PUSH1 0xA0 DUP4 ADD PUSH0 DUP4 ADD MLOAD PUSH2 0xD71 PUSH0 DUP7 ADD DUP3 PUSH2 0xC6D JUMP JUMPDEST POP PUSH1 0x20 DUP4 ADD MLOAD PUSH2 0xD84 PUSH1 0x20 DUP7 ADD DUP3 PUSH2 0xC6D JUMP JUMPDEST POP PUSH1 0x40 DUP4 ADD MLOAD PUSH2 0xD97 PUSH1 0x40 DUP7 ADD DUP3 PUSH2 0xC7C JUMP JUMPDEST POP PUSH1 0x60 DUP4 ADD MLOAD PUSH2 0xDAA PUSH1 0x60 DUP7 ADD DUP3 PUSH2 0xC96 JUMP JUMPDEST POP PUSH1 0x80 DUP4 ADD MLOAD DUP5 DUP3 SUB PUSH1 0x80 DUP7 ADD MSTORE PUSH2 0xDC2 DUP3 DUP3 PUSH2 0xD00 JUMP JUMPDEST SWAP2 POP POP DUP1 SWAP2 POP POP SWAP3 SWAP2 POP POP JUMP JUMPDEST PUSH0 PUSH2 0xDDA DUP4 DUP4 PUSH2 0xD5C JUMP JUMPDEST SWAP1 POP SWAP3 SWAP2 POP POP JUMP JUMPDEST PUSH0 PUSH1 0x20 DUP3 ADD SWAP1 POP SWAP2 SWAP1 POP JUMP JUMPDEST PUSH0 PUSH2 0xDF8 DUP3 PUSH2 0xC33 JUMP JUMPDEST PUSH2 0xE02 DUP2 DUP6 PUSH2 0xC3D JUMP JUMPDEST SWAP4 POP DUP4 PUSH1 0x20 DUP3 MUL DUP6 ADD PUSH2 0xE14 DUP6 PUSH2 0xC4D JUMP JUMPDEST DUP1 PUSH0 JUMPDEST DUP6 DUP2 LT ISZERO PUSH2 0xE4F JUMPI DUP5 DUP5 SUB DUP10 MSTORE DUP2 MLOAD PUSH2 0xE30 DUP6 DUP3 PUSH2 0xDCF JUMP JUMPDEST SWAP5 POP PUSH2 0xE3B DUP4 PUSH2 0xDE2 JUMP JUMPDEST SWAP3 POP PUSH1 0x20 DUP11 ADD SWAP10 POP POP PUSH1 0x1 DUP2 ADD SWAP1 POP PUSH2 0xE17 JUMP JUMPDEST POP DUP3 SWAP8 POP DUP8 SWAP6 POP POP POP POP POP POP SWAP3 SWAP2 POP POP JUMP JUMPDEST PUSH0 PUSH1 0x20 DUP3 ADD SWAP1 POP DUP2 DUP2 SUB PUSH0 DUP4 ADD MSTORE PUSH2 0xE79 DUP2 DUP5 PUSH2 0xDEE JUMP JUMPDEST SWAP1 POP SWAP3 SWAP2 POP POP JUMP JUMPDEST PUSH0 PUSH1 0x20 DUP3 DUP5 SUB SLT ISZERO PUSH2 0xE96 JUMPI PUSH2 0xE95 PUSH2 0xB6D JUMP JUMPDEST JUMPDEST PUSH0 PUSH2 0xEA3 DUP5 DUP3 DUP6 ADD PUSH2 0xBE1 JUMP JUMPDEST SWAP2 POP POP SWAP3 SWAP2 POP POP JUMP JUMPDEST PUSH2 0xEB5 DUP2 PUSH2 0xB90 JUMP JUMPDEST DUP3 MSTORE POP POP JUMP JUMPDEST PUSH2 0xEC4 DUP2 PUSH2 0xC8B JUMP JUMPDEST DUP3 MSTORE POP POP JUMP JUMPDEST PUSH0 PUSH1 0x80 DUP3 ADD SWAP1 POP PUSH2 0xEDD PUSH0 DUP4 ADD DUP8 PUSH2 0xEAC JUMP JUMPDEST PUSH2 0xEEA PUSH1 0x20 DUP4 ADD DUP7 PUSH2 0xB45 JUMP JUMPDEST PUSH2 0xEF7 PUSH1 0x40 DUP4 ADD DUP6 PUSH2 0xEBB JUMP JUMPDEST PUSH2 0xF04 PUSH1 0x60 DUP4 ADD DUP5 PUSH2 0xB45 JUMP JUMPDEST SWAP6 SWAP5 POP POP POP POP POP JUMP JUMPDEST PUSH32 0x4E487B7100000000000000000000000000000000000000000000000000000000 PUSH0 MSTORE PUSH1 0x11 PUSH1 0x4 MSTORE PUSH1 0x24 PUSH0 REVERT JUMPDEST PUSH0 PUSH2 0xF44 DUP3 PUSH2 0xB3C JUMP JUMPDEST SWAP2 POP PUSH2 0xF4F DUP4 PUSH2 0xB3C JUMP JUMPDEST SWAP3 POP DUP3 DUP3 SUB SWAP1 POP DUP2 DUP2 GT ISZERO PUSH2 0xF67 JUMPI PUSH2 0xF66 PUSH2 0xF0D JUMP JUMPDEST JUMPDEST SWAP3 SWAP2 POP POP JUMP JUMPDEST PUSH0 PUSH1 0x80 DUP3 ADD SWAP1 POP PUSH2 0xF80 PUSH0 DUP4 ADD DUP8 PUSH2 0xB45 JUMP JUMPDEST PUSH2 0xF8D PUSH1 0x20 DUP4 ADD DUP7 PUSH2 0xB45 JUMP JUMPDEST PUSH2 0xF9A PUSH1 0x40 DUP4 ADD DUP6 PUSH2 0xEAC JUMP JUMPDEST PUSH2 0xFA7 PUSH1 0x60 DUP4 ADD DUP5 PUSH2 0xEAC JUMP JUMPDEST SWAP6 SWAP5 POP POP POP POP POP JUMP JUMPDEST PUSH32 0x4E487B7100000000000000000000000000000000000000000000000000000000 PUSH0 MSTORE PUSH1 0x32 PUSH1 0x4 MSTORE PUSH1 0x24 PUSH0 REVERT JUMPDEST PUSH0 PUSH2 0xFE7 DUP3 PUSH2 0xB3C JUMP JUMPDEST SWAP2 POP PUSH32 0xFFFFFFFFFFFFFFFFFFFFFFFFFFFFFFFFFFFFFFFFFFFFFFFFFFFFFFFFFFFFFFFF DUP3 SUB PUSH2 0x1019 JUMPI PUSH2 0x1018 PUSH2 0xF0D JUMP JUMPDEST JUMPDEST PUSH1 0x1 DUP3 ADD SWAP1 POP SWAP2 SWAP1 POP JUMP JUMPDEST PUSH0 DUP3 DUP3 MSTORE PUSH1 0x20 DUP3 ADD SWAP1 POP SWAP3 SWAP2 POP POP JUMP JUMPDEST PUSH32 0x596F752063616E27742073656E64206D6F6E657920746F20796F757273656C66 PUSH0 DUP3 ADD MSTORE PUSH32 0x2E00000000000000000000000000000000000000000000000000000000000000 PUSH1 0x20 DUP3 ADD MSTORE POP JUMP JUMPDEST PUSH0 PUSH2 0x108E PUSH1 0x21 DUP4 PUSH2 0x1024 JUMP JUMPDEST SWAP2 POP PUSH2 0x1099 DUP3 PUSH2 0x1034 JUMP JUMPDEST PUSH1 0x40 DUP3 ADD SWAP1 POP SWAP2 SWAP1 POP JUMP JUMPDEST PUSH0 PUSH1 0x20 DUP3 ADD SWAP1 POP DUP2 DUP2 SUB PUSH0 DUP4 ADD MSTORE PUSH2 0x10BB DUP2 PUSH2 0x1082 JUMP JUMPDEST SWAP1 POP SWAP2 SWAP1 POP JUMP JUMPDEST PUSH0 PUSH1 0x40 DUP3 ADD SWAP1 POP PUSH2 0x10D5 PUSH0 DUP4 ADD DUP6 PUSH2 0xB45 JUMP JUMPDEST PUSH2 0x10E2 PUSH1 0x20 DUP4 ADD DUP5 PUSH2 0xEAC JUMP JUMPDEST SWAP4 SWAP3 POP POP POP JUMP INVALID LOG2 PUSH5 0x6970667358 0x22 SLT KECCAK256 0xA6 ORIGIN PC KECCAK256 0xC4 CREATE2 0xC4 0xBB 0xAE DUP6 0xD0 0x4E SHR 0xCE DIV 0xB5 0xDE PUSH14 0xA72B0484C1FF42BAA29176C322F8 PUSH5 0x736F6C6343 STOP ADDMOD ISZERO STOP CALLER "
				},
				"gasEstimates": {
					"creation": {
						"codeDepositCost": "876600",
						"executionCost": "infinite",
						"totalCost": "infinite"
					},
					"external": {
						"approve(uint256)": "infinite",
						"createTnx(address,uint256)": "infinite",
						"deposit()": "infinite",
						"getBalance()": "312",
						"getTrnx(uint256)": "infinite"
					},
					"internal": {
						"aprovedSuccess(uint256)": "infinite",
						"exists(address)": "infinite",
						"transfer(address,uint256)": "infinite"
					}
				},
				"methodIdentifiers": {
					"approve(uint256)": "b759f954",
					"createTnx(address,uint256)": "7d0b3805",
					"deposit()": "d0e30db0",
					"getBalance()": "12065fe0",
					"getTrnx(uint256)": "dddfec70"
				}
			},
			"storageLayout": {
				"storage": [
					{
						"astId": 4,
						"contract": "contracts/MultisigWallet.sol:MultisigWallet",
						"label": "owners",
						"offset": 0,
						"slot": "0",
						"type": "t_array(t_address)dyn_storage"
					},
					{
						"astId": 6,
						"contract": "contracts/MultisigWallet.sol:MultisigWallet",
						"label": "mininimum",
						"offset": 0,
						"slot": "1",
						"type": "t_uint256"
					},
					{
						"astId": 22,
						"contract": "contracts/MultisigWallet.sol:MultisigWallet",
						"label": "transfersScope",
						"offset": 0,
						"slot": "2",
						"type": "t_array(t_struct(Transfer)18_storage)dyn_storage"
					}
				],
				"types": {
					"t_address": {
						"encoding": "inplace",
						"label": "address",
						"numberOfBytes": "20"
					},
					"t_address_payable": {
						"encoding": "inplace",
						"label": "address payable",
						"numberOfBytes": "20"
					},
					"t_array(t_address)dyn_storage": {
						"base": "t_address",
						"encoding": "dynamic_array",
						"label": "address[]",
						"numberOfBytes": "32"
					},
					"t_array(t_struct(Transfer)18_storage)dyn_storage": {
						"base": "t_struct(Transfer)18_storage",
						"encoding": "dynamic_array",
						"label": "struct MultisigWallet.Transfer[]",
						"numberOfBytes": "32"
					},
					"t_bool": {
						"encoding": "inplace",
						"label": "bool",
						"numberOfBytes": "1"
					},
					"t_struct(Transfer)18_storage": {
						"encoding": "inplace",
						"label": "struct MultisigWallet.Transfer",
						"members": [
							{
								"astId": 8,
								"contract": "contracts/MultisigWallet.sol:MultisigWallet",
								"label": "sender",
								"offset": 0,
								"slot": "0",
								"type": "t_address_payable"
							},
							{
								"astId": 10,
								"contract": "contracts/MultisigWallet.sol:MultisigWallet",
								"label": "recipient",
								"offset": 0,
								"slot": "1",
								"type": "t_address_payable"
							},
							{
								"astId": 12,
								"contract": "contracts/MultisigWallet.sol:MultisigWallet",
								"label": "amount",
								"offset": 0,
								"slot": "2",
								"type": "t_uint256"
							},
							{
								"astId": 14,
								"contract": "contracts/MultisigWallet.sol:MultisigWallet",
								"label": "tnxSent",
								"offset": 0,
								"slot": "3",
								"type": "t_bool"
							},
							{
								"astId": 17,
								"contract": "contracts/MultisigWallet.sol:MultisigWallet",
								"label": "ownersAproved",
								"offset": 0,
								"slot": "4",
								"type": "t_array(t_address)dyn_storage"
							}
						],
						"numberOfBytes": "160"
					},
					"t_uint256": {
						"encoding": "inplace",
						"label": "uint256",
						"numberOfBytes": "32"
					}
				}
			},
			"userdoc": {
				"kind": "user",
				"methods": {},
				"version": 1
			}
		}
	}
}