{
	"data": {
		"bytecode": {
			"linkReferences": {},
			"object": "608060405234801562000010575f80fd5b506040516200156d3803806200156d83398181016040528101906200003691906200031c565b815f90805190602001906200004d9291906200005d565b5080600181905550505062000380565b828054828255905f5260205f20908101928215620000d6579160200282015b82811115620000d5578251825f6101000a81548173ffffffffffffffffffffffffffffffffffffffff021916908373ffffffffffffffffffffffffffffffffffffffff160217905550916020019190600101906200007c565b5b509050620000e59190620000e9565b5090565b5b8082111562000102575f815f905550600101620000ea565b5090565b5f604051905090565b5f80fd5b5f80fd5b5f80fd5b5f601f19601f8301169050919050565b7f4e487b71000000000000000000000000000000000000000000000000000000005f52604160045260245ffd5b62000163826200011b565b810181811067ffffffffffffffff821117156200018557620001846200012b565b5b80604052505050565b5f6200019962000106565b9050620001a7828262000158565b919050565b5f67ffffffffffffffff821115620001c957620001c86200012b565b5b602082029050602081019050919050565b5f80fd5b5f73ffffffffffffffffffffffffffffffffffffffff82169050919050565b5f6200020982620001de565b9050919050565b6200021b81620001fd565b811462000226575f80fd5b50565b5f81519050620002398162000210565b92915050565b5f620002556200024f84620001ac565b6200018e565b905080838252602082019050602084028301858111156200027b576200027a620001da565b5b835b81811015620002a8578062000293888262000229565b8452602084019350506020810190506200027d565b5050509392505050565b5f82601f830112620002c957620002c862000117565b5b8151620002db8482602086016200023f565b91505092915050565b5f819050919050565b620002f881620002e4565b811462000303575f80fd5b50565b5f815190506200031681620002ed565b92915050565b5f80604083850312156200033557620003346200010f565b5b5f83015167ffffffffffffffff81111562000355576200035462000113565b5b6200036385828601620002b2565b9250506020620003768582860162000306565b9150509250929050565b6111df806200038e5f395ff3fe608060405260043610610049575f3560e01c806312065fe01461004d5780637d0b380514610077578063b759f954146100b3578063d0e30db0146100db578063dddfec70146100f9575b5f80fd5b348015610058575f80fd5b50610061610138565b60405161006e9190610bb9565b60405180910390f35b348015610082575f80fd5b5061009d60048036038101906100989190610c5a565b61013f565b6040516100aa9190610ec6565b60405180910390f35b3480156100be575f80fd5b506100d960048036038101906100d49190610ee6565b6104a7565b005b6100e3610609565b6040516100f09190610bb9565b60405180910390f35b348015610104575f80fd5b5061011f600480360381019061011a9190610ee6565b61065e565b60405161012f9493929190610f2f565b60405180910390f35b5f47905090565b606061014a33610740565b610152575f80fd5b606060026040518060a001604052803373ffffffffffffffffffffffffffffffffffffffff1681526020018673ffffffffffffffffffffffffffffffffffffffff1681526020018581526020015f1515815260200183815250908060018154018082558091505060019003905f5260205f2090600502015f909190919091505f820151815f015f6101000a81548173ffffffffffffffffffffffffffffffffffffffff021916908373ffffffffffffffffffffffffffffffffffffffff1602179055506020820151816001015f6101000a81548173ffffffffffffffffffffffffffffffffffffffff021916908373ffffffffffffffffffffffffffffffffffffffff160217905550604082015181600201556060820151816003015f6101000a81548160ff02191690831515021790555060808201518160040190805190602001906102a0929190610aff565b5050507f099c4ec4ecfc26f7c8b27aeee5443f92120fa2c4e91ba6020369ae71a4d4427860016002805490506102d69190610f9f565b8433876040516102e99493929190610fd2565b60405180910390a16002805480602002602001604051908101604052809291908181526020015f905b8282101561049a578382905f5260205f2090600502016040518060a00160405290815f82015f9054906101000a900473ffffffffffffffffffffffffffffffffffffffff1673ffffffffffffffffffffffffffffffffffffffff1673ffffffffffffffffffffffffffffffffffffffff168152602001600182015f9054906101000a900473ffffffffffffffffffffffffffffffffffffffff1673ffffffffffffffffffffffffffffffffffffffff1673ffffffffffffffffffffffffffffffffffffffff16815260200160028201548152602001600382015f9054906101000a900460ff161515151581526020016004820180548060200260200160405190810160405280929190818152602001828054801561048257602002820191905f5260205f20905b815f9054906101000a900473ffffffffffffffffffffffffffffffffffffffff1673ffffffffffffffffffffffffffffffffffffffff1681526020019060010190808311610439575b50505050508152505081526020019060010190610312565b5050505091505092915050565b6104b033610740565b6104b8575f80fd5b600281815481106104cc576104cb611015565b5b905f5260205f2090600502016003015f9054906101000a900460ff16610606575f6002828154811061050157610500611015565b5b905f5260205f209060050201600401805490500361052757610522816107e6565b610605565b5f5b6002828154811061053d5761053c611015565b5b905f5260205f20906005020160040180549050811015610603573373ffffffffffffffffffffffffffffffffffffffff166002838154811061058257610581611015565b5b905f5260205f20906005020160040182815481106105a3576105a2611015565b5b905f5260205f20015f9054906101000a900473ffffffffffffffffffffffffffffffffffffffff1673ffffffffffffffffffffffffffffffffffffffff160315610603576105f0826107e6565b80806105fb90611042565b915050610529565b505b5b50565b5f3373ffffffffffffffffffffffffffffffffffffffff167fdb42e689d0c993b1eaac62924e67d96c365c40778a39beaaaf6865b061a93f32346040516106509190610bb9565b60405180910390a247905090565b5f805f8061066b33610740565b610673575f80fd5b6002858154811061068757610686611015565b5b905f5260205f2090600502016001015f9054906101000a900473ffffffffffffffffffffffffffffffffffffffff16600286815481106106ca576106c9611015565b5b905f5260205f20906005020160020154600287815481106106ee576106ed611015565b5b905f5260205f2090600502016003015f9054906101000a900460ff166002888154811061071e5761071d611015565b5b905f5260205f2090600502016004018054905093509350935093509193509193565b5f805f90505b5f805490508110156107dc578273ffffffffffffffffffffffffffffffffffffffff165f828154811061077c5761077b611015565b5b905f5260205f20015f9054906101000a900473ffffffffffffffffffffffffffffffffffffffff1673ffffffffffffffffffffffffffffffffffffffff16036107c95760019150506107e1565b80806107d490611042565b915050610746565b505f90505b919050565b6107ef33610740565b6107f7575f80fd5b6002818154811061080b5761080a611015565b5b905f5260205f20906005020160040133908060018154018082558091505060019003905f5260205f20015f9091909190916101000a81548173ffffffffffffffffffffffffffffffffffffffff021916908373ffffffffffffffffffffffffffffffffffffffff1602179055506001546002828154811061088f5761088e611015565b5b905f5260205f2090600502016004018054905010610a0d57610916600282815481106108be576108bd611015565b5b905f5260205f2090600502016001015f9054906101000a900473ffffffffffffffffffffffffffffffffffffffff166002838154811061090157610900611015565b5b905f5260205f20906005020160020154610a10565b15610a0c5760016002828154811061093157610930611015565b5b905f5260205f2090600502016003015f6101000a81548160ff0219169083151502179055503373ffffffffffffffffffffffffffffffffffffffff167fbf4321ab09496f0dd20158dca7b8ec3b797c0085edfd58f98454ad82b61e7a0a600283815481106109a2576109a1611015565b5b905f5260205f20906005020160020154600284815481106109c6576109c5611015565b5b905f5260205f2090600502016001015f9054906101000a900473ffffffffffffffffffffffffffffffffffffffff16604051610a039291906110e4565b60405180910390a25b5b50565b5f610a1a33610740565b610a22575f80fd5b8273ffffffffffffffffffffffffffffffffffffffff163373ffffffffffffffffffffffffffffffffffffffff1603610a90576040517f08c379a0000000000000000000000000000000000000000000000000000000008152600401610a879061118b565b60405180910390fd5b5f4790508373ffffffffffffffffffffffffffffffffffffffff166108fc8490811502906040515f60405180830381858888f19350505050158015610ad7573d5f803e3d5ffd5b508281610ae49190610f9f565b4703610af4576001915050610af9565b5f9150505b92915050565b828054828255905f5260205f20908101928215610b75579160200282015b82811115610b74578251825f6101000a81548173ffffffffffffffffffffffffffffffffffffffff021916908373ffffffffffffffffffffffffffffffffffffffff16021790555091602001919060010190610b1d565b5b509050610b829190610b86565b5090565b5b80821115610b9d575f815f905550600101610b87565b5090565b5f819050919050565b610bb381610ba1565b82525050565b5f602082019050610bcc5f830184610baa565b92915050565b5f80fd5b5f73ffffffffffffffffffffffffffffffffffffffff82169050919050565b5f610bff82610bd6565b9050919050565b610c0f81610bf5565b8114610c19575f80fd5b50565b5f81359050610c2a81610c06565b92915050565b610c3981610ba1565b8114610c43575f80fd5b50565b5f81359050610c5481610c30565b92915050565b5f8060408385031215610c7057610c6f610bd2565b5b5f610c7d85828601610c1c565b9250506020610c8e85828601610c46565b9150509250929050565b5f81519050919050565b5f82825260208201905092915050565b5f819050602082019050919050565b5f610ccb82610bd6565b9050919050565b610cdb81610cc1565b82525050565b610cea81610ba1565b82525050565b5f8115159050919050565b610d0481610cf0565b82525050565b5f81519050919050565b5f82825260208201905092915050565b5f819050602082019050919050565b610d3c81610bf5565b82525050565b5f610d4d8383610d33565b60208301905092915050565b5f602082019050919050565b5f610d6f82610d0a565b610d798185610d14565b9350610d8483610d24565b805f5b83811015610db4578151610d9b8882610d42565b9750610da683610d59565b925050600181019050610d87565b5085935050505092915050565b5f60a083015f830151610dd65f860182610cd2565b506020830151610de96020860182610cd2565b506040830151610dfc6040860182610ce1565b506060830151610e0f6060860182610cfb565b5060808301518482036080860152610e278282610d65565b9150508091505092915050565b5f610e3f8383610dc1565b905092915050565b5f602082019050919050565b5f610e5d82610c98565b610e678185610ca2565b935083602082028501610e7985610cb2565b805f5b85811015610eb45784840389528151610e958582610e34565b9450610ea083610e47565b925060208a01995050600181019050610e7c565b50829750879550505050505092915050565b5f6020820190508181035f830152610ede8184610e53565b905092915050565b5f60208284031215610efb57610efa610bd2565b5b5f610f0884828501610c46565b91505092915050565b610f1a81610bf5565b82525050565b610f2981610cf0565b82525050565b5f608082019050610f425f830187610f11565b610f4f6020830186610baa565b610f5c6040830185610f20565b610f696060830184610baa565b95945050505050565b7f4e487b71000000000000000000000000000000000000000000000000000000005f52601160045260245ffd5b5f610fa982610ba1565b9150610fb483610ba1565b9250828203905081811115610fcc57610fcb610f72565b5b92915050565b5f608082019050610fe55f830187610baa565b610ff26020830186610baa565b610fff6040830185610f11565b61100c6060830184610f11565b95945050505050565b7f4e487b71000000000000000000000000000000000000000000000000000000005f52603260045260245ffd5b5f61104c82610ba1565b91507fffffffffffffffffffffffffffffffffffffffffffffffffffffffffffffffff820361107e5761107d610f72565b5b600182019050919050565b5f819050919050565b5f6110ac6110a76110a284610bd6565b611089565b610bd6565b9050919050565b5f6110bd82611092565b9050919050565b5f6110ce826110b3565b9050919050565b6110de816110c4565b82525050565b5f6040820190506110f75f830185610baa565b61110460208301846110d5565b9392505050565b5f82825260208201905092915050565b7f596f752063616e27742073656e64206d6f6e657920746f20796f757273656c665f8201527f2e00000000000000000000000000000000000000000000000000000000000000602082015250565b5f61117560218361110b565b91506111808261111b565b604082019050919050565b5f6020820190508181035f8301526111a281611169565b905091905056fea26469706673582212200d7d483fd12c42984aa01ec0ca5e4bc78195319b31b098097d1fe8dc302e88be64736f6c63430008150033",
			"opcodes": "PUSH1 0x80 PUSH1 0x40 MSTORE CALLVALUE DUP1 ISZERO PUSH3 0x10 JUMPI PUSH0 DUP1 REVERT JUMPDEST POP PUSH1 0x40 MLOAD PUSH3 0x156D CODESIZE SUB DUP1 PUSH3 0x156D DUP4 CODECOPY DUP2 DUP2 ADD PUSH1 0x40 MSTORE DUP2 ADD SWAP1 PUSH3 0x36 SWAP2 SWAP1 PUSH3 0x31C JUMP JUMPDEST DUP2 PUSH0 SWAP1 DUP1 MLOAD SWAP1 PUSH1 0x20 ADD SWAP1 PUSH3 0x4D SWAP3 SWAP2 SWAP1 PUSH3 0x5D JUMP JUMPDEST POP DUP1 PUSH1 0x1 DUP2 SWAP1 SSTORE POP POP POP PUSH3 0x380 JUMP JUMPDEST DUP3 DUP1 SLOAD DUP3 DUP3 SSTORE SWAP1 PUSH0 MSTORE PUSH1 0x20 PUSH0 KECCAK256 SWAP1 DUP2 ADD SWAP3 DUP3 ISZERO PUSH3 0xD6 JUMPI SWAP2 PUSH1 0x20 MUL DUP3 ADD JUMPDEST DUP3 DUP2 GT ISZERO PUSH3 0xD5 JUMPI DUP3 MLOAD DUP3 PUSH0 PUSH2 0x100 EXP DUP2 SLOAD DUP2 PUSH20 0xFFFFFFFFFFFFFFFFFFFFFFFFFFFFFFFFFFFFFFFF MUL NOT AND SWAP1 DUP4 PUSH20 0xFFFFFFFFFFFFFFFFFFFFFFFFFFFFFFFFFFFFFFFF AND MUL OR SWAP1 SSTORE POP SWAP2 PUSH1 0x20 ADD SWAP2 SWAP1 PUSH1 0x1 ADD SWAP1 PUSH3 0x7C JUMP JUMPDEST JUMPDEST POP SWAP1 POP PUSH3 0xE5 SWAP2 SWAP1 PUSH3 0xE9 JUMP JUMPDEST POP SWAP1 JUMP JUMPDEST JUMPDEST DUP1 DUP3 GT ISZERO PUSH3 0x102 JUMPI PUSH0 DUP2 PUSH0 SWAP1 SSTORE POP PUSH1 0x1 ADD PUSH3 0xEA JUMP JUMPDEST POP SWAP1 JUMP JUMPDEST PUSH0 PUSH1 0x40 MLOAD SWAP1 POP SWAP1 JUMP JUMPDEST PUSH0 DUP1 REVERT JUMPDEST PUSH0 DUP1 REVERT JUMPDEST PUSH0 DUP1 REVERT JUMPDEST PUSH0 PUSH1 0x1F NOT PUSH1 0x1F DUP4 ADD AND SWAP1 POP SWAP2 SWAP1 POP JUMP JUMPDEST PUSH32 0x4E487B7100000000000000000000000000000000000000000000000000000000 PUSH0 MSTORE PUSH1 0x41 PUSH1 0x4 MSTORE PUSH1 0x24 PUSH0 REVERT JUMPDEST PUSH3 0x163 DUP3 PUSH3 0x11B JUMP JUMPDEST DUP2 ADD DUP2 DUP2 LT PUSH8 0xFFFFFFFFFFFFFFFF DUP3 GT OR ISZERO PUSH3 0x185 JUMPI PUSH3 0x184 PUSH3 0x12B JUMP JUMPDEST JUMPDEST DUP1 PUSH1 0x40 MSTORE POP POP POP JUMP JUMPDEST PUSH0 PUSH3 0x199 PUSH3 0x106 JUMP JUMPDEST SWAP1 POP PUSH3 0x1A7 DUP3 DUP3 PUSH3 0x158 JUMP JUMPDEST SWAP2 SWAP1 POP JUMP JUMPDEST PUSH0 PUSH8 0xFFFFFFFFFFFFFFFF DUP3 GT ISZERO PUSH3 0x1C9 JUMPI PUSH3 0x1C8 PUSH3 0x12B JUMP JUMPDEST JUMPDEST PUSH1 0x20 DUP3 MUL SWAP1 POP PUSH1 0x20 DUP2 ADD SWAP1 POP SWAP2 SWAP1 POP JUMP JUMPDEST PUSH0 DUP1 REVERT JUMPDEST PUSH0 PUSH20 0xFFFFFFFFFFFFFFFFFFFFFFFFFFFFFFFFFFFFFFFF DUP3 AND SWAP1 POP SWAP2 SWAP1 POP JUMP JUMPDEST PUSH0 PUSH3 0x209 DUP3 PUSH3 0x1DE JUMP JUMPDEST SWAP1 POP SWAP2 SWAP1 POP JUMP JUMPDEST PUSH3 0x21B DUP2 PUSH3 0x1FD JUMP JUMPDEST DUP2 EQ PUSH3 0x226 JUMPI PUSH0 DUP1 REVERT JUMPDEST POP JUMP JUMPDEST PUSH0 DUP2 MLOAD SWAP1 POP PUSH3 0x239 DUP2 PUSH3 0x210 JUMP JUMPDEST SWAP3 SWAP2 POP POP JUMP JUMPDEST PUSH0 PUSH3 0x255 PUSH3 0x24F DUP5 PUSH3 0x1AC JUMP JUMPDEST PUSH3 0x18E JUMP JUMPDEST SWAP1 POP DUP1 DUP4 DUP3 MSTORE PUSH1 0x20 DUP3 ADD SWAP1 POP PUSH1 0x20 DUP5 MUL DUP4 ADD DUP6 DUP2 GT ISZERO PUSH3 0x27B JUMPI PUSH3 0x27A PUSH3 0x1DA JUMP JUMPDEST JUMPDEST DUP4 JUMPDEST DUP2 DUP2 LT ISZERO PUSH3 0x2A8 JUMPI DUP1 PUSH3 0x293 DUP9 DUP3 PUSH3 0x229 JUMP JUMPDEST DUP5 MSTORE PUSH1 0x20 DUP5 ADD SWAP4 POP POP PUSH1 0x20 DUP2 ADD SWAP1 POP PUSH3 0x27D JUMP JUMPDEST POP POP POP SWAP4 SWAP3 POP POP POP JUMP JUMPDEST PUSH0 DUP3 PUSH1 0x1F DUP4 ADD SLT PUSH3 0x2C9 JUMPI PUSH3 0x2C8 PUSH3 0x117 JUMP JUMPDEST JUMPDEST DUP2 MLOAD PUSH3 0x2DB DUP5 DUP3 PUSH1 0x20 DUP7 ADD PUSH3 0x23F JUMP JUMPDEST SWAP2 POP POP SWAP3 SWAP2 POP POP JUMP JUMPDEST PUSH0 DUP2 SWAP1 POP SWAP2 SWAP1 POP JUMP JUMPDEST PUSH3 0x2F8 DUP2 PUSH3 0x2E4 JUMP JUMPDEST DUP2 EQ PUSH3 0x303 JUMPI PUSH0 DUP1 REVERT JUMPDEST POP JUMP JUMPDEST PUSH0 DUP2 MLOAD SWAP1 POP PUSH3 0x316 DUP2 PUSH3 0x2ED JUMP JUMPDEST SWAP3 SWAP2 POP POP JUMP JUMPDEST PUSH0 DUP1 PUSH1 0x40 DUP4 DUP6 SUB SLT ISZERO PUSH3 0x335 JUMPI PUSH3 0x334 PUSH3 0x10F JUMP JUMPDEST JUMPDEST PUSH0 DUP4 ADD MLOAD PUSH8 0xFFFFFFFFFFFFFFFF DUP2 GT ISZERO PUSH3 0x355 JUMPI PUSH3 0x354 PUSH3 0x113 JUMP JUMPDEST JUMPDEST PUSH3 0x363 DUP6 DUP3 DUP7 ADD PUSH3 0x2B2 JUMP JUMPDEST SWAP3 POP POP PUSH1 0x20 PUSH3 0x376 DUP6 DUP3 DUP7 ADD PUSH3 0x306 JUMP JUMPDEST SWAP2 POP POP SWAP3 POP SWAP3 SWAP1 POP JUMP JUMPDEST PUSH2 0x11DF DUP1 PUSH3 0x38E PUSH0 CODECOPY PUSH0 RETURN INVALID PUSH1 0x80 PUSH1 0x40 MSTORE PUSH1 0x4 CALLDATASIZE LT PUSH2 0x49 JUMPI PUSH0 CALLDATALOAD PUSH1 0xE0 SHR DUP1 PUSH4 0x12065FE0 EQ PUSH2 0x4D JUMPI DUP1 PUSH4 0x7D0B3805 EQ PUSH2 0x77 JUMPI DUP1 PUSH4 0xB759F954 EQ PUSH2 0xB3 JUMPI DUP1 PUSH4 0xD0E30DB0 EQ PUSH2 0xDB JUMPI DUP1 PUSH4 0xDDDFEC70 EQ PUSH2 0xF9 JUMPI JUMPDEST PUSH0 DUP1 REVERT JUMPDEST CALLVALUE DUP1 ISZERO PUSH2 0x58 JUMPI PUSH0 DUP1 REVERT JUMPDEST POP PUSH2 0x61 PUSH2 0x138 JUMP JUMPDEST PUSH1 0x40 MLOAD PUSH2 0x6E SWAP2 SWAP1 PUSH2 0xBB9 JUMP JUMPDEST PUSH1 0x40 MLOAD DUP1 SWAP2 SUB SWAP1 RETURN JUMPDEST CALLVALUE DUP1 ISZERO PUSH2 0x82 JUMPI PUSH0 DUP1 REVERT JUMPDEST POP PUSH2 0x9D PUSH1 0x4 DUP1 CALLDATASIZE SUB DUP2 ADD SWAP1 PUSH2 0x98 SWAP2 SWAP1 PUSH2 0xC5A JUMP JUMPDEST PUSH2 0x13F JUMP JUMPDEST PUSH1 0x40 MLOAD PUSH2 0xAA SWAP2 SWAP1 PUSH2 0xEC6 JUMP JUMPDEST PUSH1 0x40 MLOAD DUP1 SWAP2 SUB SWAP1 RETURN JUMPDEST CALLVALUE DUP1 ISZERO PUSH2 0xBE JUMPI PUSH0 DUP1 REVERT JUMPDEST POP PUSH2 0xD9 PUSH1 0x4 DUP1 CALLDATASIZE SUB DUP2 ADD SWAP1 PUSH2 0xD4 SWAP2 SWAP1 PUSH2 0xEE6 JUMP JUMPDEST PUSH2 0x4A7 JUMP JUMPDEST STOP JUMPDEST PUSH2 0xE3 PUSH2 0x609 JUMP JUMPDEST PUSH1 0x40 MLOAD PUSH2 0xF0 SWAP2 SWAP1 PUSH2 0xBB9 JUMP JUMPDEST PUSH1 0x40 MLOAD DUP1 SWAP2 SUB SWAP1 RETURN JUMPDEST CALLVALUE DUP1 ISZERO PUSH2 0x104 JUMPI PUSH0 DUP1 REVERT JUMPDEST POP PUSH2 0x11F PUSH1 0x4 DUP1 CALLDATASIZE SUB DUP2 ADD SWAP1 PUSH2 0x11A SWAP2 SWAP1 PUSH2 0xEE6 JUMP JUMPDEST PUSH2 0x65E JUMP JUMPDEST PUSH1 0x40 MLOAD PUSH2 0x12F SWAP5 SWAP4 SWAP3 SWAP2 SWAP1 PUSH2 0xF2F JUMP JUMPDEST PUSH1 0x40 MLOAD DUP1 SWAP2 SUB SWAP1 RETURN JUMPDEST PUSH0 SELFBALANCE SWAP1 POP SWAP1 JUMP JUMPDEST PUSH1 0x60 PUSH2 0x14A CALLER PUSH2 0x740 JUMP JUMPDEST PUSH2 0x152 JUMPI PUSH0 DUP1 REVERT JUMPDEST PUSH1 0x60 PUSH1 0x2 PUSH1 0x40 MLOAD DUP1 PUSH1 0xA0 ADD PUSH1 0x40 MSTORE DUP1 CALLER PUSH20 0xFFFFFFFFFFFFFFFFFFFFFFFFFFFFFFFFFFFFFFFF AND DUP2 MSTORE PUSH1 0x20 ADD DUP7 PUSH20 0xFFFFFFFFFFFFFFFFFFFFFFFFFFFFFFFFFFFFFFFF AND DUP2 MSTORE PUSH1 0x20 ADD DUP6 DUP2 MSTORE PUSH1 0x20 ADD PUSH0 ISZERO ISZERO DUP2 MSTORE PUSH1 0x20 ADD DUP4 DUP2 MSTORE POP SWAP1 DUP1 PUSH1 0x1 DUP2 SLOAD ADD DUP1 DUP3 SSTORE DUP1 SWAP2 POP POP PUSH1 0x1 SWAP1 SUB SWAP1 PUSH0 MSTORE PUSH1 0x20 PUSH0 KECCAK256 SWAP1 PUSH1 0x5 MUL ADD PUSH0 SWAP1 SWAP2 SWAP1 SWAP2 SWAP1 SWAP2 POP PUSH0 DUP3 ADD MLOAD DUP2 PUSH0 ADD PUSH0 PUSH2 0x100 EXP DUP2 SLOAD DUP2 PUSH20 0xFFFFFFFFFFFFFFFFFFFFFFFFFFFFFFFFFFFFFFFF MUL NOT AND SWAP1 DUP4 PUSH20 0xFFFFFFFFFFFFFFFFFFFFFFFFFFFFFFFFFFFFFFFF AND MUL OR SWAP1 SSTORE POP PUSH1 0x20 DUP3 ADD MLOAD DUP2 PUSH1 0x1 ADD PUSH0 PUSH2 0x100 EXP DUP2 SLOAD DUP2 PUSH20 0xFFFFFFFFFFFFFFFFFFFFFFFFFFFFFFFFFFFFFFFF MUL NOT AND SWAP1 DUP4 PUSH20 0xFFFFFFFFFFFFFFFFFFFFFFFFFFFFFFFFFFFFFFFF AND MUL OR SWAP1 SSTORE POP PUSH1 0x40 DUP3 ADD MLOAD DUP2 PUSH1 0x2 ADD SSTORE PUSH1 0x60 DUP3 ADD MLOAD DUP2 PUSH1 0x3 ADD PUSH0 PUSH2 0x100 EXP DUP2 SLOAD DUP2 PUSH1 0xFF MUL NOT AND SWAP1 DUP4 ISZERO ISZERO MUL OR SWAP1 SSTORE POP PUSH1 0x80 DUP3 ADD MLOAD DUP2 PUSH1 0x4 ADD SWAP1 DUP1 MLOAD SWAP1 PUSH1 0x20 ADD SWAP1 PUSH2 0x2A0 SWAP3 SWAP2 SWAP1 PUSH2 0xAFF JUMP JUMPDEST POP POP POP PUSH32 0x99C4EC4ECFC26F7C8B27AEEE5443F92120FA2C4E91BA6020369AE71A4D44278 PUSH1 0x1 PUSH1 0x2 DUP1 SLOAD SWAP1 POP PUSH2 0x2D6 SWAP2 SWAP1 PUSH2 0xF9F JUMP JUMPDEST DUP5 CALLER DUP8 PUSH1 0x40 MLOAD PUSH2 0x2E9 SWAP5 SWAP4 SWAP3 SWAP2 SWAP1 PUSH2 0xFD2 JUMP JUMPDEST PUSH1 0x40 MLOAD DUP1 SWAP2 SUB SWAP1 LOG1 PUSH1 0x2 DUP1 SLOAD DUP1 PUSH1 0x20 MUL PUSH1 0x20 ADD PUSH1 0x40 MLOAD SWAP1 DUP2 ADD PUSH1 0x40 MSTORE DUP1 SWAP3 SWAP2 SWAP1 DUP2 DUP2 MSTORE PUSH1 0x20 ADD PUSH0 SWAP1 JUMPDEST DUP3 DUP3 LT ISZERO PUSH2 0x49A JUMPI DUP4 DUP3 SWAP1 PUSH0 MSTORE PUSH1 0x20 PUSH0 KECCAK256 SWAP1 PUSH1 0x5 MUL ADD PUSH1 0x40 MLOAD DUP1 PUSH1 0xA0 ADD PUSH1 0x40 MSTORE SWAP1 DUP2 PUSH0 DUP3 ADD PUSH0 SWAP1 SLOAD SWAP1 PUSH2 0x100 EXP SWAP1 DIV PUSH20 0xFFFFFFFFFFFFFFFFFFFFFFFFFFFFFFFFFFFFFFFF AND PUSH20 0xFFFFFFFFFFFFFFFFFFFFFFFFFFFFFFFFFFFFFFFF AND PUSH20 0xFFFFFFFFFFFFFFFFFFFFFFFFFFFFFFFFFFFFFFFF AND DUP2 MSTORE PUSH1 0x20 ADD PUSH1 0x1 DUP3 ADD PUSH0 SWAP1 SLOAD SWAP1 PUSH2 0x100 EXP SWAP1 DIV PUSH20 0xFFFFFFFFFFFFFFFFFFFFFFFFFFFFFFFFFFFFFFFF AND PUSH20 0xFFFFFFFFFFFFFFFFFFFFFFFFFFFFFFFFFFFFFFFF AND PUSH20 0xFFFFFFFFFFFFFFFFFFFFFFFFFFFFFFFFFFFFFFFF AND DUP2 MSTORE PUSH1 0x20 ADD PUSH1 0x2 DUP3 ADD SLOAD DUP2 MSTORE PUSH1 0x20 ADD PUSH1 0x3 DUP3 ADD PUSH0 SWAP1 SLOAD SWAP1 PUSH2 0x100 EXP SWAP1 DIV PUSH1 0xFF AND ISZERO ISZERO ISZERO ISZERO DUP2 MSTORE PUSH1 0x20 ADD PUSH1 0x4 DUP3 ADD DUP1 SLOAD DUP1 PUSH1 0x20 MUL PUSH1 0x20 ADD PUSH1 0x40 MLOAD SWAP1 DUP2 ADD PUSH1 0x40 MSTORE DUP1 SWAP3 SWAP2 SWAP1 DUP2 DUP2 MSTORE PUSH1 0x20 ADD DUP3 DUP1 SLOAD DUP1 ISZERO PUSH2 0x482 JUMPI PUSH1 0x20 MUL DUP3 ADD SWAP2 SWAP1 PUSH0 MSTORE PUSH1 0x20 PUSH0 KECCAK256 SWAP1 JUMPDEST DUP2 PUSH0 SWAP1 SLOAD SWAP1 PUSH2 0x100 EXP SWAP1 DIV PUSH20 0xFFFFFFFFFFFFFFFFFFFFFFFFFFFFFFFFFFFFFFFF AND PUSH20 0xFFFFFFFFFFFFFFFFFFFFFFFFFFFFFFFFFFFFFFFF AND DUP2 MSTORE PUSH1 0x20 ADD SWAP1 PUSH1 0x1 ADD SWAP1 DUP1 DUP4 GT PUSH2 0x439 JUMPI JUMPDEST POP POP POP POP POP DUP2 MSTORE POP POP DUP2 MSTORE PUSH1 0x20 ADD SWAP1 PUSH1 0x1 ADD SWAP1 PUSH2 0x312 JUMP JUMPDEST POP POP POP POP SWAP2 POP POP SWAP3 SWAP2 POP POP JUMP JUMPDEST PUSH2 0x4B0 CALLER PUSH2 0x740 JUMP JUMPDEST PUSH2 0x4B8 JUMPI PUSH0 DUP1 REVERT JUMPDEST PUSH1 0x2 DUP2 DUP2 SLOAD DUP2 LT PUSH2 0x4CC JUMPI PUSH2 0x4CB PUSH2 0x1015 JUMP JUMPDEST JUMPDEST SWAP1 PUSH0 MSTORE PUSH1 0x20 PUSH0 KECCAK256 SWAP1 PUSH1 0x5 MUL ADD PUSH1 0x3 ADD PUSH0 SWAP1 SLOAD SWAP1 PUSH2 0x100 EXP SWAP1 DIV PUSH1 0xFF AND PUSH2 0x606 JUMPI PUSH0 PUSH1 0x2 DUP3 DUP2 SLOAD DUP2 LT PUSH2 0x501 JUMPI PUSH2 0x500 PUSH2 0x1015 JUMP JUMPDEST JUMPDEST SWAP1 PUSH0 MSTORE PUSH1 0x20 PUSH0 KECCAK256 SWAP1 PUSH1 0x5 MUL ADD PUSH1 0x4 ADD DUP1 SLOAD SWAP1 POP SUB PUSH2 0x527 JUMPI PUSH2 0x522 DUP2 PUSH2 0x7E6 JUMP JUMPDEST PUSH2 0x605 JUMP JUMPDEST PUSH0 JUMPDEST PUSH1 0x2 DUP3 DUP2 SLOAD DUP2 LT PUSH2 0x53D JUMPI PUSH2 0x53C PUSH2 0x1015 JUMP JUMPDEST JUMPDEST SWAP1 PUSH0 MSTORE PUSH1 0x20 PUSH0 KECCAK256 SWAP1 PUSH1 0x5 MUL ADD PUSH1 0x4 ADD DUP1 SLOAD SWAP1 POP DUP2 LT ISZERO PUSH2 0x603 JUMPI CALLER PUSH20 0xFFFFFFFFFFFFFFFFFFFFFFFFFFFFFFFFFFFFFFFF AND PUSH1 0x2 DUP4 DUP2 SLOAD DUP2 LT PUSH2 0x582 JUMPI PUSH2 0x581 PUSH2 0x1015 JUMP JUMPDEST JUMPDEST SWAP1 PUSH0 MSTORE PUSH1 0x20 PUSH0 KECCAK256 SWAP1 PUSH1 0x5 MUL ADD PUSH1 0x4 ADD DUP3 DUP2 SLOAD DUP2 LT PUSH2 0x5A3 JUMPI PUSH2 0x5A2 PUSH2 0x1015 JUMP JUMPDEST JUMPDEST SWAP1 PUSH0 MSTORE PUSH1 0x20 PUSH0 KECCAK256 ADD PUSH0 SWAP1 SLOAD SWAP1 PUSH2 0x100 EXP SWAP1 DIV PUSH20 0xFFFFFFFFFFFFFFFFFFFFFFFFFFFFFFFFFFFFFFFF AND PUSH20 0xFFFFFFFFFFFFFFFFFFFFFFFFFFFFFFFFFFFFFFFF AND SUB ISZERO PUSH2 0x603 JUMPI PUSH2 0x5F0 DUP3 PUSH2 0x7E6 JUMP JUMPDEST DUP1 DUP1 PUSH2 0x5FB SWAP1 PUSH2 0x1042 JUMP JUMPDEST SWAP2 POP POP PUSH2 0x529 JUMP JUMPDEST POP JUMPDEST JUMPDEST POP JUMP JUMPDEST PUSH0 CALLER PUSH20 0xFFFFFFFFFFFFFFFFFFFFFFFFFFFFFFFFFFFFFFFF AND PUSH32 0xDB42E689D0C993B1EAAC62924E67D96C365C40778A39BEAAAF6865B061A93F32 CALLVALUE PUSH1 0x40 MLOAD PUSH2 0x650 SWAP2 SWAP1 PUSH2 0xBB9 JUMP JUMPDEST PUSH1 0x40 MLOAD DUP1 SWAP2 SUB SWAP1 LOG2 SELFBALANCE SWAP1 POP SWAP1 JUMP JUMPDEST PUSH0 DUP1 PUSH0 DUP1 PUSH2 0x66B CALLER PUSH2 0x740 JUMP JUMPDEST PUSH2 0x673 JUMPI PUSH0 DUP1 REVERT JUMPDEST PUSH1 0x2 DUP6 DUP2 SLOAD DUP2 LT PUSH2 0x687 JUMPI PUSH2 0x686 PUSH2 0x1015 JUMP JUMPDEST JUMPDEST SWAP1 PUSH0 MSTORE PUSH1 0x20 PUSH0 KECCAK256 SWAP1 PUSH1 0x5 MUL ADD PUSH1 0x1 ADD PUSH0 SWAP1 SLOAD SWAP1 PUSH2 0x100 EXP SWAP1 DIV PUSH20 0xFFFFFFFFFFFFFFFFFFFFFFFFFFFFFFFFFFFFFFFF AND PUSH1 0x2 DUP7 DUP2 SLOAD DUP2 LT PUSH2 0x6CA JUMPI PUSH2 0x6C9 PUSH2 0x1015 JUMP JUMPDEST JUMPDEST SWAP1 PUSH0 MSTORE PUSH1 0x20 PUSH0 KECCAK256 SWAP1 PUSH1 0x5 MUL ADD PUSH1 0x2 ADD SLOAD PUSH1 0x2 DUP8 DUP2 SLOAD DUP2 LT PUSH2 0x6EE JUMPI PUSH2 0x6ED PUSH2 0x1015 JUMP JUMPDEST JUMPDEST SWAP1 PUSH0 MSTORE PUSH1 0x20 PUSH0 KECCAK256 SWAP1 PUSH1 0x5 MUL ADD PUSH1 0x3 ADD PUSH0 SWAP1 SLOAD SWAP1 PUSH2 0x100 EXP SWAP1 DIV PUSH1 0xFF AND PUSH1 0x2 DUP9 DUP2 SLOAD DUP2 LT PUSH2 0x71E JUMPI PUSH2 0x71D PUSH2 0x1015 JUMP JUMPDEST JUMPDEST SWAP1 PUSH0 MSTORE PUSH1 0x20 PUSH0 KECCAK256 SWAP1 PUSH1 0x5 MUL ADD PUSH1 0x4 ADD DUP1 SLOAD SWAP1 POP SWAP4 POP SWAP4 POP SWAP4 POP SWAP4 POP SWAP2 SWAP4 POP SWAP2 SWAP4 JUMP JUMPDEST PUSH0 DUP1 PUSH0 SWAP1 POP JUMPDEST PUSH0 DUP1 SLOAD SWAP1 POP DUP2 LT ISZERO PUSH2 0x7DC JUMPI DUP3 PUSH20 0xFFFFFFFFFFFFFFFFFFFFFFFFFFFFFFFFFFFFFFFF AND PUSH0 DUP3 DUP2 SLOAD DUP2 LT PUSH2 0x77C JUMPI PUSH2 0x77B PUSH2 0x1015 JUMP JUMPDEST JUMPDEST SWAP1 PUSH0 MSTORE PUSH1 0x20 PUSH0 KECCAK256 ADD PUSH0 SWAP1 SLOAD SWAP1 PUSH2 0x100 EXP SWAP1 DIV PUSH20 0xFFFFFFFFFFFFFFFFFFFFFFFFFFFFFFFFFFFFFFFF AND PUSH20 0xFFFFFFFFFFFFFFFFFFFFFFFFFFFFFFFFFFFFFFFF AND SUB PUSH2 0x7C9 JUMPI PUSH1 0x1 SWAP2 POP POP PUSH2 0x7E1 JUMP JUMPDEST DUP1 DUP1 PUSH2 0x7D4 SWAP1 PUSH2 0x1042 JUMP JUMPDEST SWAP2 POP POP PUSH2 0x746 JUMP JUMPDEST POP PUSH0 SWAP1 POP JUMPDEST SWAP2 SWAP1 POP JUMP JUMPDEST PUSH2 0x7EF CALLER PUSH2 0x740 JUMP JUMPDEST PUSH2 0x7F7 JUMPI PUSH0 DUP1 REVERT JUMPDEST PUSH1 0x2 DUP2 DUP2 SLOAD DUP2 LT PUSH2 0x80B JUMPI PUSH2 0x80A PUSH2 0x1015 JUMP JUMPDEST JUMPDEST SWAP1 PUSH0 MSTORE PUSH1 0x20 PUSH0 KECCAK256 SWAP1 PUSH1 0x5 MUL ADD PUSH1 0x4 ADD CALLER SWAP1 DUP1 PUSH1 0x1 DUP2 SLOAD ADD DUP1 DUP3 SSTORE DUP1 SWAP2 POP POP PUSH1 0x1 SWAP1 SUB SWAP1 PUSH0 MSTORE PUSH1 0x20 PUSH0 KECCAK256 ADD PUSH0 SWAP1 SWAP2 SWAP1 SWAP2 SWAP1 SWAP2 PUSH2 0x100 EXP DUP2 SLOAD DUP2 PUSH20 0xFFFFFFFFFFFFFFFFFFFFFFFFFFFFFFFFFFFFFFFF MUL NOT AND SWAP1 DUP4 PUSH20 0xFFFFFFFFFFFFFFFFFFFFFFFFFFFFFFFFFFFFFFFF AND MUL OR SWAP1 SSTORE POP PUSH1 0x1 SLOAD PUSH1 0x2 DUP3 DUP2 SLOAD DUP2 LT PUSH2 0x88F JUMPI PUSH2 0x88E PUSH2 0x1015 JUMP JUMPDEST JUMPDEST SWAP1 PUSH0 MSTORE PUSH1 0x20 PUSH0 KECCAK256 SWAP1 PUSH1 0x5 MUL ADD PUSH1 0x4 ADD DUP1 SLOAD SWAP1 POP LT PUSH2 0xA0D JUMPI PUSH2 0x916 PUSH1 0x2 DUP3 DUP2 SLOAD DUP2 LT PUSH2 0x8BE JUMPI PUSH2 0x8BD PUSH2 0x1015 JUMP JUMPDEST JUMPDEST SWAP1 PUSH0 MSTORE PUSH1 0x20 PUSH0 KECCAK256 SWAP1 PUSH1 0x5 MUL ADD PUSH1 0x1 ADD PUSH0 SWAP1 SLOAD SWAP1 PUSH2 0x100 EXP SWAP1 DIV PUSH20 0xFFFFFFFFFFFFFFFFFFFFFFFFFFFFFFFFFFFFFFFF AND PUSH1 0x2 DUP4 DUP2 SLOAD DUP2 LT PUSH2 0x901 JUMPI PUSH2 0x900 PUSH2 0x1015 JUMP JUMPDEST JUMPDEST SWAP1 PUSH0 MSTORE PUSH1 0x20 PUSH0 KECCAK256 SWAP1 PUSH1 0x5 MUL ADD PUSH1 0x2 ADD SLOAD PUSH2 0xA10 JUMP JUMPDEST ISZERO PUSH2 0xA0C JUMPI PUSH1 0x1 PUSH1 0x2 DUP3 DUP2 SLOAD DUP2 LT PUSH2 0x931 JUMPI PUSH2 0x930 PUSH2 0x1015 JUMP JUMPDEST JUMPDEST SWAP1 PUSH0 MSTORE PUSH1 0x20 PUSH0 KECCAK256 SWAP1 PUSH1 0x5 MUL ADD PUSH1 0x3 ADD PUSH0 PUSH2 0x100 EXP DUP2 SLOAD DUP2 PUSH1 0xFF MUL NOT AND SWAP1 DUP4 ISZERO ISZERO MUL OR SWAP1 SSTORE POP CALLER PUSH20 0xFFFFFFFFFFFFFFFFFFFFFFFFFFFFFFFFFFFFFFFF AND PUSH32 0xBF4321AB09496F0DD20158DCA7B8EC3B797C0085EDFD58F98454AD82B61E7A0A PUSH1 0x2 DUP4 DUP2 SLOAD DUP2 LT PUSH2 0x9A2 JUMPI PUSH2 0x9A1 PUSH2 0x1015 JUMP JUMPDEST JUMPDEST SWAP1 PUSH0 MSTORE PUSH1 0x20 PUSH0 KECCAK256 SWAP1 PUSH1 0x5 MUL ADD PUSH1 0x2 ADD SLOAD PUSH1 0x2 DUP5 DUP2 SLOAD DUP2 LT PUSH2 0x9C6 JUMPI PUSH2 0x9C5 PUSH2 0x1015 JUMP JUMPDEST JUMPDEST SWAP1 PUSH0 MSTORE PUSH1 0x20 PUSH0 KECCAK256 SWAP1 PUSH1 0x5 MUL ADD PUSH1 0x1 ADD PUSH0 SWAP1 SLOAD SWAP1 PUSH2 0x100 EXP SWAP1 DIV PUSH20 0xFFFFFFFFFFFFFFFFFFFFFFFFFFFFFFFFFFFFFFFF AND PUSH1 0x40 MLOAD PUSH2 0xA03 SWAP3 SWAP2 SWAP1 PUSH2 0x10E4 JUMP JUMPDEST PUSH1 0x40 MLOAD DUP1 SWAP2 SUB SWAP1 LOG2 JUMPDEST JUMPDEST POP JUMP JUMPDEST PUSH0 PUSH2 0xA1A CALLER PUSH2 0x740 JUMP JUMPDEST PUSH2 0xA22 JUMPI PUSH0 DUP1 REVERT JUMPDEST DUP3 PUSH20 0xFFFFFFFFFFFFFFFFFFFFFFFFFFFFFFFFFFFFFFFF AND CALLER PUSH20 0xFFFFFFFFFFFFFFFFFFFFFFFFFFFFFFFFFFFFFFFF AND SUB PUSH2 0xA90 JUMPI PUSH1 0x40 MLOAD PUSH32 0x8C379A000000000000000000000000000000000000000000000000000000000 DUP2 MSTORE PUSH1 0x4 ADD PUSH2 0xA87 SWAP1 PUSH2 0x118B JUMP JUMPDEST PUSH1 0x40 MLOAD DUP1 SWAP2 SUB SWAP1 REVERT JUMPDEST PUSH0 SELFBALANCE SWAP1 POP DUP4 PUSH20 0xFFFFFFFFFFFFFFFFFFFFFFFFFFFFFFFFFFFFFFFF AND PUSH2 0x8FC DUP5 SWAP1 DUP2 ISZERO MUL SWAP1 PUSH1 0x40 MLOAD PUSH0 PUSH1 0x40 MLOAD DUP1 DUP4 SUB DUP2 DUP6 DUP9 DUP9 CALL SWAP4 POP POP POP POP ISZERO DUP1 ISZERO PUSH2 0xAD7 JUMPI RETURNDATASIZE PUSH0 DUP1 RETURNDATACOPY RETURNDATASIZE PUSH0 REVERT JUMPDEST POP DUP3 DUP2 PUSH2 0xAE4 SWAP2 SWAP1 PUSH2 0xF9F JUMP JUMPDEST SELFBALANCE SUB PUSH2 0xAF4 JUMPI PUSH1 0x1 SWAP2 POP POP PUSH2 0xAF9 JUMP JUMPDEST PUSH0 SWAP2 POP POP JUMPDEST SWAP3 SWAP2 POP POP JUMP JUMPDEST DUP3 DUP1 SLOAD DUP3 DUP3 SSTORE SWAP1 PUSH0 MSTORE PUSH1 0x20 PUSH0 KECCAK256 SWAP1 DUP2 ADD SWAP3 DUP3 ISZERO PUSH2 0xB75 JUMPI SWAP2 PUSH1 0x20 MUL DUP3 ADD JUMPDEST DUP3 DUP2 GT ISZERO PUSH2 0xB74 JUMPI DUP3 MLOAD DUP3 PUSH0 PUSH2 0x100 EXP DUP2 SLOAD DUP2 PUSH20 0xFFFFFFFFFFFFFFFFFFFFFFFFFFFFFFFFFFFFFFFF MUL NOT AND SWAP1 DUP4 PUSH20 0xFFFFFFFFFFFFFFFFFFFFFFFFFFFFFFFFFFFFFFFF AND MUL OR SWAP1 SSTORE POP SWAP2 PUSH1 0x20 ADD SWAP2 SWAP1 PUSH1 0x1 ADD SWAP1 PUSH2 0xB1D JUMP JUMPDEST JUMPDEST POP SWAP1 POP PUSH2 0xB82 SWAP2 SWAP1 PUSH2 0xB86 JUMP JUMPDEST POP SWAP1 JUMP JUMPDEST JUMPDEST DUP1 DUP3 GT ISZERO PUSH2 0xB9D JUMPI PUSH0 DUP2 PUSH0 SWAP1 SSTORE POP PUSH1 0x1 ADD PUSH2 0xB87 JUMP JUMPDEST POP SWAP1 JUMP JUMPDEST PUSH0 DUP2 SWAP1 POP SWAP2 SWAP1 POP JUMP JUMPDEST PUSH2 0xBB3 DUP2 PUSH2 0xBA1 JUMP JUMPDEST DUP3 MSTORE POP POP JUMP JUMPDEST PUSH0 PUSH1 0x20 DUP3 ADD SWAP1 POP PUSH2 0xBCC PUSH0 DUP4 ADD DUP5 PUSH2 0xBAA JUMP JUMPDEST SWAP3 SWAP2 POP POP JUMP JUMPDEST PUSH0 DUP1 REVERT JUMPDEST PUSH0 PUSH20 0xFFFFFFFFFFFFFFFFFFFFFFFFFFFFFFFFFFFFFFFF DUP3 AND SWAP1 POP SWAP2 SWAP1 POP JUMP JUMPDEST PUSH0 PUSH2 0xBFF DUP3 PUSH2 0xBD6 JUMP JUMPDEST SWAP1 POP SWAP2 SWAP1 POP JUMP JUMPDEST PUSH2 0xC0F DUP2 PUSH2 0xBF5 JUMP JUMPDEST DUP2 EQ PUSH2 0xC19 JUMPI PUSH0 DUP1 REVERT JUMPDEST POP JUMP JUMPDEST PUSH0 DUP2 CALLDATALOAD SWAP1 POP PUSH2 0xC2A DUP2 PUSH2 0xC06 JUMP JUMPDEST SWAP3 SWAP2 POP POP JUMP JUMPDEST PUSH2 0xC39 DUP2 PUSH2 0xBA1 JUMP JUMPDEST DUP2 EQ PUSH2 0xC43 JUMPI PUSH0 DUP1 REVERT JUMPDEST POP JUMP JUMPDEST PUSH0 DUP2 CALLDATALOAD SWAP1 POP PUSH2 0xC54 DUP2 PUSH2 0xC30 JUMP JUMPDEST SWAP3 SWAP2 POP POP JUMP JUMPDEST PUSH0 DUP1 PUSH1 0x40 DUP4 DUP6 SUB SLT ISZERO PUSH2 0xC70 JUMPI PUSH2 0xC6F PUSH2 0xBD2 JUMP JUMPDEST JUMPDEST PUSH0 PUSH2 0xC7D DUP6 DUP3 DUP7 ADD PUSH2 0xC1C JUMP JUMPDEST SWAP3 POP POP PUSH1 0x20 PUSH2 0xC8E DUP6 DUP3 DUP7 ADD PUSH2 0xC46 JUMP JUMPDEST SWAP2 POP POP SWAP3 POP SWAP3 SWAP1 POP JUMP JUMPDEST PUSH0 DUP2 MLOAD SWAP1 POP SWAP2 SWAP1 POP JUMP JUMPDEST PUSH0 DUP3 DUP3 MSTORE PUSH1 0x20 DUP3 ADD SWAP1 POP SWAP3 SWAP2 POP POP JUMP JUMPDEST PUSH0 DUP2 SWAP1 POP PUSH1 0x20 DUP3 ADD SWAP1 POP SWAP2 SWAP1 POP JUMP JUMPDEST PUSH0 PUSH2 0xCCB DUP3 PUSH2 0xBD6 JUMP JUMPDEST SWAP1 POP SWAP2 SWAP1 POP JUMP JUMPDEST PUSH2 0xCDB DUP2 PUSH2 0xCC1 JUMP JUMPDEST DUP3 MSTORE POP POP JUMP JUMPDEST PUSH2 0xCEA DUP2 PUSH2 0xBA1 JUMP JUMPDEST DUP3 MSTORE POP POP JUMP JUMPDEST PUSH0 DUP2 ISZERO ISZERO SWAP1 POP SWAP2 SWAP1 POP JUMP JUMPDEST PUSH2 0xD04 DUP2 PUSH2 0xCF0 JUMP JUMPDEST DUP3 MSTORE POP POP JUMP JUMPDEST PUSH0 DUP2 MLOAD SWAP1 POP SWAP2 SWAP1 POP JUMP JUMPDEST PUSH0 DUP3 DUP3 MSTORE PUSH1 0x20 DUP3 ADD SWAP1 POP SWAP3 SWAP2 POP POP JUMP JUMPDEST PUSH0 DUP2 SWAP1 POP PUSH1 0x20 DUP3 ADD SWAP1 POP SWAP2 SWAP1 POP JUMP JUMPDEST PUSH2 0xD3C DUP2 PUSH2 0xBF5 JUMP JUMPDEST DUP3 MSTORE POP POP JUMP JUMPDEST PUSH0 PUSH2 0xD4D DUP4 DUP4 PUSH2 0xD33 JUMP JUMPDEST PUSH1 0x20 DUP4 ADD SWAP1 POP SWAP3 SWAP2 POP POP JUMP JUMPDEST PUSH0 PUSH1 0x20 DUP3 ADD SWAP1 POP SWAP2 SWAP1 POP JUMP JUMPDEST PUSH0 PUSH2 0xD6F DUP3 PUSH2 0xD0A JUMP JUMPDEST PUSH2 0xD79 DUP2 DUP6 PUSH2 0xD14 JUMP JUMPDEST SWAP4 POP PUSH2 0xD84 DUP4 PUSH2 0xD24 JUMP JUMPDEST DUP1 PUSH0 JUMPDEST DUP4 DUP2 LT ISZERO PUSH2 0xDB4 JUMPI DUP2 MLOAD PUSH2 0xD9B DUP9 DUP3 PUSH2 0xD42 JUMP JUMPDEST SWAP8 POP PUSH2 0xDA6 DUP4 PUSH2 0xD59 JUMP JUMPDEST SWAP3 POP POP PUSH1 0x1 DUP2 ADD SWAP1 POP PUSH2 0xD87 JUMP JUMPDEST POP DUP6 SWAP4 POP POP POP POP SWAP3 SWAP2 POP POP JUMP JUMPDEST PUSH0 PUSH1 0xA0 DUP4 ADD PUSH0 DUP4 ADD MLOAD PUSH2 0xDD6 PUSH0 DUP7 ADD DUP3 PUSH2 0xCD2 JUMP JUMPDEST POP PUSH1 0x20 DUP4 ADD MLOAD PUSH2 0xDE9 PUSH1 0x20 DUP7 ADD DUP3 PUSH2 0xCD2 JUMP JUMPDEST POP PUSH1 0x40 DUP4 ADD MLOAD PUSH2 0xDFC PUSH1 0x40 DUP7 ADD DUP3 PUSH2 0xCE1 JUMP JUMPDEST POP PUSH1 0x60 DUP4 ADD MLOAD PUSH2 0xE0F PUSH1 0x60 DUP7 ADD DUP3 PUSH2 0xCFB JUMP JUMPDEST POP PUSH1 0x80 DUP4 ADD MLOAD DUP5 DUP3 SUB PUSH1 0x80 DUP7 ADD MSTORE PUSH2 0xE27 DUP3 DUP3 PUSH2 0xD65 JUMP JUMPDEST SWAP2 POP POP DUP1 SWAP2 POP POP SWAP3 SWAP2 POP POP JUMP JUMPDEST PUSH0 PUSH2 0xE3F DUP4 DUP4 PUSH2 0xDC1 JUMP JUMPDEST SWAP1 POP SWAP3 SWAP2 POP POP JUMP JUMPDEST PUSH0 PUSH1 0x20 DUP3 ADD SWAP1 POP SWAP2 SWAP1 POP JUMP JUMPDEST PUSH0 PUSH2 0xE5D DUP3 PUSH2 0xC98 JUMP JUMPDEST PUSH2 0xE67 DUP2 DUP6 PUSH2 0xCA2 JUMP JUMPDEST SWAP4 POP DUP4 PUSH1 0x20 DUP3 MUL DUP6 ADD PUSH2 0xE79 DUP6 PUSH2 0xCB2 JUMP JUMPDEST DUP1 PUSH0 JUMPDEST DUP6 DUP2 LT ISZERO PUSH2 0xEB4 JUMPI DUP5 DUP5 SUB DUP10 MSTORE DUP2 MLOAD PUSH2 0xE95 DUP6 DUP3 PUSH2 0xE34 JUMP JUMPDEST SWAP5 POP PUSH2 0xEA0 DUP4 PUSH2 0xE47 JUMP JUMPDEST SWAP3 POP PUSH1 0x20 DUP11 ADD SWAP10 POP POP PUSH1 0x1 DUP2 ADD SWAP1 POP PUSH2 0xE7C JUMP JUMPDEST POP DUP3 SWAP8 POP DUP8 SWAP6 POP POP POP POP POP POP SWAP3 SWAP2 POP POP JUMP JUMPDEST PUSH0 PUSH1 0x20 DUP3 ADD SWAP1 POP DUP2 DUP2 SUB PUSH0 DUP4 ADD MSTORE PUSH2 0xEDE DUP2 DUP5 PUSH2 0xE53 JUMP JUMPDEST SWAP1 POP SWAP3 SWAP2 POP POP JUMP JUMPDEST PUSH0 PUSH1 0x20 DUP3 DUP5 SUB SLT ISZERO PUSH2 0xEFB JUMPI PUSH2 0xEFA PUSH2 0xBD2 JUMP JUMPDEST JUMPDEST PUSH0 PUSH2 0xF08 DUP5 DUP3 DUP6 ADD PUSH2 0xC46 JUMP JUMPDEST SWAP2 POP POP SWAP3 SWAP2 POP POP JUMP JUMPDEST PUSH2 0xF1A DUP2 PUSH2 0xBF5 JUMP JUMPDEST DUP3 MSTORE POP POP JUMP JUMPDEST PUSH2 0xF29 DUP2 PUSH2 0xCF0 JUMP JUMPDEST DUP3 MSTORE POP POP JUMP JUMPDEST PUSH0 PUSH1 0x80 DUP3 ADD SWAP1 POP PUSH2 0xF42 PUSH0 DUP4 ADD DUP8 PUSH2 0xF11 JUMP JUMPDEST PUSH2 0xF4F PUSH1 0x20 DUP4 ADD DUP7 PUSH2 0xBAA JUMP JUMPDEST PUSH2 0xF5C PUSH1 0x40 DUP4 ADD DUP6 PUSH2 0xF20 JUMP JUMPDEST PUSH2 0xF69 PUSH1 0x60 DUP4 ADD DUP5 PUSH2 0xBAA JUMP JUMPDEST SWAP6 SWAP5 POP POP POP POP POP JUMP JUMPDEST PUSH32 0x4E487B7100000000000000000000000000000000000000000000000000000000 PUSH0 MSTORE PUSH1 0x11 PUSH1 0x4 MSTORE PUSH1 0x24 PUSH0 REVERT JUMPDEST PUSH0 PUSH2 0xFA9 DUP3 PUSH2 0xBA1 JUMP JUMPDEST SWAP2 POP PUSH2 0xFB4 DUP4 PUSH2 0xBA1 JUMP JUMPDEST SWAP3 POP DUP3 DUP3 SUB SWAP1 POP DUP2 DUP2 GT ISZERO PUSH2 0xFCC JUMPI PUSH2 0xFCB PUSH2 0xF72 JUMP JUMPDEST JUMPDEST SWAP3 SWAP2 POP POP JUMP JUMPDEST PUSH0 PUSH1 0x80 DUP3 ADD SWAP1 POP PUSH2 0xFE5 PUSH0 DUP4 ADD DUP8 PUSH2 0xBAA JUMP JUMPDEST PUSH2 0xFF2 PUSH1 0x20 DUP4 ADD DUP7 PUSH2 0xBAA JUMP JUMPDEST PUSH2 0xFFF PUSH1 0x40 DUP4 ADD DUP6 PUSH2 0xF11 JUMP JUMPDEST PUSH2 0x100C PUSH1 0x60 DUP4 ADD DUP5 PUSH2 0xF11 JUMP JUMPDEST SWAP6 SWAP5 POP POP POP POP POP JUMP JUMPDEST PUSH32 0x4E487B7100000000000000000000000000000000000000000000000000000000 PUSH0 MSTORE PUSH1 0x32 PUSH1 0x4 MSTORE PUSH1 0x24 PUSH0 REVERT JUMPDEST PUSH0 PUSH2 0x104C DUP3 PUSH2 0xBA1 JUMP JUMPDEST SWAP2 POP PUSH32 0xFFFFFFFFFFFFFFFFFFFFFFFFFFFFFFFFFFFFFFFFFFFFFFFFFFFFFFFFFFFFFFFF DUP3 SUB PUSH2 0x107E JUMPI PUSH2 0x107D PUSH2 0xF72 JUMP JUMPDEST JUMPDEST PUSH1 0x1 DUP3 ADD SWAP1 POP SWAP2 SWAP1 POP JUMP JUMPDEST PUSH0 DUP2 SWAP1 POP SWAP2 SWAP1 POP JUMP JUMPDEST PUSH0 PUSH2 0x10AC PUSH2 0x10A7 PUSH2 0x10A2 DUP5 PUSH2 0xBD6 JUMP JUMPDEST PUSH2 0x1089 JUMP JUMPDEST PUSH2 0xBD6 JUMP JUMPDEST SWAP1 POP SWAP2 SWAP1 POP JUMP JUMPDEST PUSH0 PUSH2 0x10BD DUP3 PUSH2 0x1092 JUMP JUMPDEST SWAP1 POP SWAP2 SWAP1 POP JUMP JUMPDEST PUSH0 PUSH2 0x10CE DUP3 PUSH2 0x10B3 JUMP JUMPDEST SWAP1 POP SWAP2 SWAP1 POP JUMP JUMPDEST PUSH2 0x10DE DUP2 PUSH2 0x10C4 JUMP JUMPDEST DUP3 MSTORE POP POP JUMP JUMPDEST PUSH0 PUSH1 0x40 DUP3 ADD SWAP1 POP PUSH2 0x10F7 PUSH0 DUP4 ADD DUP6 PUSH2 0xBAA JUMP JUMPDEST PUSH2 0x1104 PUSH1 0x20 DUP4 ADD DUP5 PUSH2 0x10D5 JUMP JUMPDEST SWAP4 SWAP3 POP POP POP JUMP JUMPDEST PUSH0 DUP3 DUP3 MSTORE PUSH1 0x20 DUP3 ADD SWAP1 POP SWAP3 SWAP2 POP POP JUMP JUMPDEST PUSH32 0x596F752063616E27742073656E64206D6F6E657920746F20796F757273656C66 PUSH0 DUP3 ADD MSTORE PUSH32 0x2E00000000000000000000000000000000000000000000000000000000000000 PUSH1 0x20 DUP3 ADD MSTORE POP JUMP JUMPDEST PUSH0 PUSH2 0x1175 PUSH1 0x21 DUP4 PUSH2 0x110B JUMP JUMPDEST SWAP2 POP PUSH2 0x1180 DUP3 PUSH2 0x111B JUMP JUMPDEST PUSH1 0x40 DUP3 ADD SWAP1 POP SWAP2 SWAP1 POP JUMP JUMPDEST PUSH0 PUSH1 0x20 DUP3 ADD SWAP1 POP DUP2 DUP2 SUB PUSH0 DUP4 ADD MSTORE PUSH2 0x11A2 DUP2 PUSH2 0x1169 JUMP JUMPDEST SWAP1 POP SWAP2 SWAP1 POP JUMP INVALID LOG2 PUSH5 0x6970667358 0x22 SLT KECCAK256 0xD PUSH30 0x483FD12C42984AA01EC0CA5E4BC78195319B31B098097D1FE8DC302E88BE PUSH5 0x736F6C6343 STOP ADDMOD ISZERO STOP CALLER "
		},
		"gasEstimates": {
			"creation": {
				"codeDepositCost": "915000",
				"executionCost": "infinite",
				"totalCost": "infinite"
			},
			"external": {
				"approve(uint256)": "infinite",
				"createTnx(address,uint256)": "infinite",
				"deposit()": "infinite",
				"getBalance()": "312",
				"getTrnx(uint256)": "infinite"
			},
			"internal": {
				"aprovedSuccess(uint256)": "infinite",
				"exists(address)": "infinite",
				"transfer(address,uint256)": "infinite"
			}
		},
		"methodIdentifiers": {
			"approve(uint256)": "b759f954",
			"createTnx(address,uint256)": "7d0b3805",
			"deposit()": "d0e30db0",
			"getBalance()": "12065fe0",
			"getTrnx(uint256)": "dddfec70"
		}
	},
	"abi": [
		{
			"inputs": [
				{
					"internalType": "address[]",
					"name": "_owners",
					"type": "address[]"
				},
				{
					"internalType": "uint256",
					"name": "_minimum",
					"type": "uint256"
				}
			],
			"stateMutability": "nonpayable",
			"type": "constructor"
		},
		{
			"anonymous": false,
			"inputs": [
				{
					"indexed": false,
					"internalType": "uint256",
					"name": "_txid",
					"type": "uint256"
				},
				{
					"indexed": false,
					"internalType": "uint256",
					"name": "_amount",
					"type": "uint256"
				},
				{
					"indexed": false,
					"internalType": "address",
					"name": "_initiator",
					"type": "address"
				},
				{
					"indexed": false,
					"internalType": "address",
					"name": "_receiver",
					"type": "address"
				}
			],
			"name": "TransferRequestCreated",
			"type": "event"
		},
		{
			"anonymous": false,
			"inputs": [
				{
					"indexed": false,
					"internalType": "uint256",
					"name": "amount",
					"type": "uint256"
				},
				{
					"indexed": true,
					"internalType": "address",
					"name": "deliveredTo",
					"type": "address"
				}
			],
			"name": "balanceAdded",
			"type": "event"
		},
		{
			"anonymous": false,
			"inputs": [
				{
					"indexed": false,
					"internalType": "uint256",
					"name": "amount",
					"type": "uint256"
				},
				{
					"indexed": true,
					"internalType": "address",
					"name": "sentFrom",
					"type": "address"
				},
				{
					"indexed": false,
					"internalType": "address",
					"name": "deliveredTo",
					"type": "address"
				}
			],
			"name": "transferedAmounts",
			"type": "event"
		},
		{
			"inputs": [
				{
					"internalType": "uint256",
					"name": "_index",
					"type": "uint256"
				}
			],
			"name": "approve",
			"outputs": [],
			"stateMutability": "nonpayable",
			"type": "function"
		},
		{
			"inputs": [
				{
					"internalType": "address",
					"name": "recipient",
					"type": "address"
				},
				{
					"internalType": "uint256",
					"name": "amount",
					"type": "uint256"
				}
			],
			"name": "createTnx",
			"outputs": [
				{
					"components": [
						{
							"internalType": "address payable",
							"name": "sender",
							"type": "address"
						},
						{
							"internalType": "address payable",
							"name": "recipient",
							"type": "address"
						},
						{
							"internalType": "uint256",
							"name": "amount",
							"type": "uint256"
						},
						{
							"internalType": "bool",
							"name": "tnxSent",
							"type": "bool"
						},
						{
							"internalType": "address[]",
							"name": "ownersAproved",
							"type": "address[]"
						}
					],
					"internalType": "struct MultisigWallet.Transfer[]",
					"name": "",
					"type": "tuple[]"
				}
			],
			"stateMutability": "nonpayable",
			"type": "function"
		},
		{
			"inputs": [],
			"name": "deposit",
			"outputs": [
				{
					"internalType": "uint256",
					"name": "",
					"type": "uint256"
				}
			],
			"stateMutability": "payable",
			"type": "function"
		},
		{
			"inputs": [],
			"name": "getBalance",
			"outputs": [
				{
					"internalType": "uint256",
					"name": "",
					"type": "uint256"
				}
			],
			"stateMutability": "view",
			"type": "function"
		},
		{
			"inputs": [
				{
					"internalType": "uint256",
					"name": "_index",
					"type": "uint256"
				}
			],
			"name": "getTrnx",
			"outputs": [
				{
					"internalType": "address",
					"name": "",
					"type": "address"
				},
				{
					"internalType": "uint256",
					"name": "",
					"type": "uint256"
				},
				{
					"internalType": "bool",
					"name": "",
					"type": "bool"
				},
				{
					"internalType": "uint256",
					"name": "",
					"type": "uint256"
				}
			],
			"stateMutability": "view",
			"type": "function"
		}
	]
}